:020000040800F2
:105000000050002009A10008399300083B930008D4
:10501000459300084F9300085993000800000000D2
:105020000000000000000000000000006393000882
:10503000659300080000000067930008699300086A
:105040005DA100085DA100085DA10008CD950008E4
:105050005DA100085DA10008D9930008F99300083C
:10506000199400084D9400086D9400085DA1000893
:105070005DA100085DA100085DA10008359600084B
:105080005DA100085DA10008799300085DA10008FA
:10509000399600085DA100085DA100088D94000804
:1050A0005DA100085DA100085DA1000855950008FC
:1050B0009D950008AD950008BD950008A9930008CE
:1050C000B99300085DA100085DA10008C99300081C
:1050D0005DA1000889930008999300085DA100086C
:1050E000DD940008F59500085DA1000800000000AF
:1050F00000000000000000000000000000000000B0
:0C51000000000000000000005FF808F153
:1051100010F8012B11F8013B012A28BF9A42F7D061
:10512000D01A704781F0004102E000BF83F00043D5
:1051300030B54FEA41044FEA430594EA050F08BF32
:1051400090EA020F1FBF54EA000C55EA020C7FEAF6
:10515000645C7FEA655C00F0E2804FEA5454D4EB73
:105160005555B8BF6D420CDD2C4480EA020281EA3D
:10517000030382EA000083EA010180EA020281EA75
:105180000303362D88BF30BD11F0004F4FEA0131C7
:105190004FF4801C4CEA113102D0404261EB4101D6
:1051A00013F0004F4FEA03334CEA133302D052425C
:1051B00063EB430394EA050F00F0A780A4F1010418
:1051C000D5F1200E0DDB02FA0EFC22FA05F2801852
:1051D00041F1000103FA0EF2801843FA05F3594138
:1051E0000EE0A5F120050EF1200E012A03FA0EFCB7
:1051F00028BF4CF0020C43FA05F3C01851EBE371E1
:1052000001F0004507D54FF0000EDCF1000C7EEBFD
:1052100000006EEB0101B1F5801F1BD3B1F5001F3B
:105220000CD349085FEA30004FEA3C0C04F101045A
:105230004FEA445212F5800F80F09A80BCF1004F83
:1052400008BF5FEA500C50F1000041EB045141EA05
:10525000050130BD5FEA4C0C404141EB010111F406
:10526000801FA4F10104E9D191F0000F04BF0146B1
:105270000020B1FA81F308BF2033A3F10B03B3F18F
:1052800020020CDA0C3208DD02F1140CC2F10C021F
:1052900001FA0CF021FA02F10CE002F11402D8BF7D
:1052A000C2F1200C01FA02F120FA0CFCDCBF41EA49
:1052B0000C019040E41AA2BF01EB0451294330BD18
:1052C0006FEA04041F3C1CDA0C340EDC04F11404F5
:1052D000C4F1200220FA04F001FA02F340EA0300CC
:1052E00021FA04F345EA030130BDC4F10C04C4F112
:1052F000200220FA02F001FA04F340EA03002946F2
:1053000030BD21FA04F0294630BD94F0000F83F43B
:10531000801306BF81F480110134013D4EE77FEA1E
:10532000645C18BF7FEA655C29D094EA050F08BF6A
:1053300090EA020F05D054EA000C04BF194610464B
:1053400030BD91EA030F1EBF0021002030BD5FEA8F
:10535000545C05D14000494128BF41F0004130BDB7
:1053600014F580043CBF01F5801130BD01F000450B
:1053700045F0FE4141F470014FF0000030BD7FEA7E
:10538000645C1ABF194610467FEA655C1CBF0B4679
:10539000024650EA013406BF52EA033591EA030F90
:1053A00041F4002130BD00BF90F0000F04BF002188
:1053B000704730B54FF4806404F132044FF00005BB
:1053C0004FF0000150E700BF90F0000F04BF002134
:1053D000704730B54FF4806404F1320410F000459A
:1053E00048BF40424FF000013EE700BF42004FEA95
:1053F000E2014FEA31014FEA02701FBF12F07F4312
:1054000093F07F4F81F06051704792F0000F14BF0E
:1054100093F07F4F704730B54FF4607401F0004552
:1054200021F0004120E700BF50EA010208BF7047A9
:1054300030B54FF000050AE050EA010208BF70479E
:1054400030B511F0004502D5404261EB41014FF407
:10545000806404F132045FEA915C3FF4DCAE4FF00B
:1054600003025FEADC0C18BF03325FEADC0C18BFF2
:10547000033202EBDC02C2F1200300FA03FC20FA43
:1054800002F001FA03FE40EA0E0021FA02F1144490
:10549000C1E600BF70B54FF0FF0C4CF4E06C1CEAA5
:1054A00011541DBF1CEA135594EA0C0F95EA0C0F1A
:1054B00000F0DEF82C4481EA030621EA4C5123EA8D
:1054C0004C5350EA013518BF52EA033541F48011BC
:1054D00043F4801338D0A0FB02CE4FF00005E1FB6F
:1054E00002E506F00042E0FB03E54FF00006E1FBB9
:1054F00003569CF0000F18BF4EF0010EA4F1FF04FC
:10550000B6F5007F64F5407404D25FEA4E0E6D413B
:1055100046EB060642EAC62141EA55514FEAC5204C
:1055200040EA5E504FEACE2EB4F1FD0C88BFBCF5C8
:10553000E06F1ED8BEF1004F08BF5FEA500E50F179
:10554000000041EB045170BD06F0004646EA01013F
:1055500040EA020081EA0301B4EB5C04C2BFD4EB71
:105560000C0541EA045170BD41F480114FF0000E6A
:10557000013C00F3AB8014F1360FDEBF002001F0D8
:10558000004170BDC4F10004203C35DA0C341BDC52
:1055900004F11404C4F1200500FA05F320FA04F024
:1055A00001FA05F240EA020001F0004221F0004158
:1055B00010EBD37021FA04F642EB06015EEA430ECB
:1055C00008BF20EAD37070BDC4F10C04C4F12005FB
:1055D00000FA04F320FA05F001FA04F240EA0200AE
:1055E00001F0004110EBD37041F100015EEA430E7F
:1055F00008BF20EAD37070BDC4F1200500FA05F29F
:105600004EEA020E20FA04F301FA05F243EA02031D
:1056100021FA04F001F0004121FA04F220EA02002C
:1056200000EBD3705EEA430E08BF20EAD37070BD72
:1056300094F0000F0FD101F00046400041EB010152
:1056400011F4801F08BF013CF7D041EA060195F034
:10565000000F18BF704703F00046520043EB0303EE
:1056600013F4801F08BF013DF7D043EA06037047DB
:1056700094EA0C0F0CEA135518BF95EA0C0F0CD0E6
:1056800050EA410618BF52EA4306D1D181EA03012C
:1056900001F000414FF0000070BD50EA410606BF26
:1056A0001046194652EA430619D094EA0C0F02D16B
:1056B00050EA013613D195EA0C0F05D152EA0336B0
:1056C0001CBF104619460AD181EA030101F00041CE
:1056D00041F0FE4141F470014FF0000070BD41F017
:1056E000FE4141F4780170BD70B54FF0FF0C4CF4F1
:1056F000E06C1CEA11541DBF1CEA135594EA0C0F10
:1057000095EA0C0F00F0A7F8A4EB050481EA030E5C
:1057100052EA03354FEA013100F088804FEA033343
:105720004FF0805545EA131343EA12634FEA022211
:1057300045EA111545EA10654FEA00260EF00041D2
:105740009D4208BF964244F1FD0404F5407402D224
:105750005B084FEA3202B61A65EB03055B084FEAB5
:1057600032024FF480104FF4002CB6EB020E75EBB2
:10577000030E22BFB61A754640EA0C005B084FEADA
:105780003202B6EB020E75EB030E22BFB61A754657
:1057900040EA5C005B084FEA3202B6EB020E75EBA2
:1057A000030E22BFB61A754640EA9C005B084FEA1A
:1057B0003202B6EB020E75EB030E22BFB61A754627
:1057C00040EADC0055EA060E18D04FEA051545EA16
:1057D00016754FEA06164FEAC30343EA52734FEABF
:1057E000C2025FEA1C1CC0D111F4801F0BD141EA38
:1057F00000014FF000004FF0004CB6E711F4801F9D
:1058000004BF01430020B4F1FD0C88BFBCF5E06F7C
:105810003FF6AFAEB5EB030C04BFB6EB020C5FEA8C
:10582000500C50F1000041EB045170BD0EF0004EE1
:105830004EEA113114EB5C04C2BFD4EB0C0541EA13
:10584000045170BD41F480114FF0000E013C90E610
:1058500045EA060E8DE60CEA135594EA0C0F08BFD4
:1058600095EA0C0F3FF43BAF94EA0C0F0AD150EAD3
:1058700001347FF434AF95EA0C0F7FF425AF104666
:1058800019462CE795EA0C0F06D152EA03353FF48E
:10589000FDAE1046194622E750EA410618BF52EA0B
:1058A00043067FF4C5AE50EA41047FF40DAF52EADF
:1058B00043057FF4EBAE12E74FF0FF3C06E000BF7C
:1058C0004FF0010C02E000BF4FF0010C4DF804CD89
:1058D0004FEA410C7FEA6C5C4FEA430C18BF7FEA49
:1058E0006C5C1BD001B050EA410C0CBF52EA430C77
:1058F00091EA030F02BF90EA020F0020704710F1F7
:10590000000F91EA030F58BF994208BF90422CBF85
:10591000D8176FEAE37040F0010070474FEA410C7E
:105920007FEA6C5C02D150EA013C07D14FEA430C9C
:105930007FEA6C5CD6D152EA033CD3D05DF8040B0D
:10594000704700BF8446104662468C46194663463F
:1059500000E000BF01B5FFF7B7FF002848BF10F116
:10596000000F01BD4DF808EDFFF7F4FF0CBF01205B
:1059700000205DF808FB00BF4DF808EDFFF7EAFFD7
:1059800034BF012000205DF808FB00BF4DF808ED92
:10599000FFF7E0FF94BF012000205DF808FB00BF87
:1059A0004DF808EDFFF7CEFF94BF012000205DF811
:1059B00008FB00BF4DF808EDFFF7C4FF34BF01201E
:1059C00000205DF808FB00BF4FEA410212F500120B
:1059D00015D211D56FF47873B3EB625212D94FEA36
:1059E000C12343F0004343EA505311F0004F23FA20
:1059F00002F018BF404270474FF00000704750EA75
:105A0000013005D111F0004008BF6FF00040704731
:105A10004FF00000704700BF014B0360704700BFAC
:105A20007864010802289CBF014B1954704700BFDD
:105A30009404002010B5034B0446036001F02CF9D8
:105A4000204610BD78640108F0B5012185B00546F7
:105A500002F040FDA0F13006072E044625D8164975
:105A6000684602F0BDFC2846694602F021FD074663
:105A7000684602F073FC0FB1B4B20EE00F496846FD
:105A800002F0AEFC2846694602F012FD0546684663
:105A900002F064FC65B1263CA4B22046032101F06B
:105AA00005FD204601F0C8FD04E04FF0FF3001E0A5
:105AB0006FF0010005B0F0BD6C8E01086E8E01081C
:105AC000F0B5012185B0044602F004FDA0F13006D6
:105AD000072E45D8684621460322072302F0FCFC26
:105AE0006846244902F0BAFC0546684602F036FCD6
:105AF0007DB9684621460322062302F0EDFC684684
:105B00001D4902F0ABFC0746684602F027FC0FB9BE
:105B100029E001251949684602F062FC20466946E1
:105B200002F0C6FC0746684602F018FC6FB914493B
:105B3000684602F055FC2046694602F0B9FC04466E
:105B4000684602F00BFC8CB10A36B6B23046012131
:105B500001F0ACFC3046294601F02EFD012007E0A3
:105B60004FF0FF3004E06FF0010001E06FF0020041
:105B700005B0F0BD708E0108758E01086C8E0108AD
:105B80006E8E0108F0B5012185B0064602F0A2FC38
:105B9000A0F13007072F05462AD81949684602F0B8
:105BA0001FFC3046694602F083FC0446684602F05A
:105BB000D5FB34B1BCB22046002101F077FC204671
:105BC00013E01049684602F00BFC3046694602F0CB
:105BD0006FFC0646684602F0C1FB66B1263DADB2D9
:105BE0002846214601F062FC284601F0E7FD04E06A
:105BF0004FF0FF3001E06FF0010005B0F0BD00BFD5
:105C00006C8E01086E8E0108F0B5012189B0044642
:105C100002F060FCA0F13006072E05463ED80322B4
:105C20006846214602F07EFC1F4904A802F0D8FB1A
:105C3000204604A902F03CFC074604A802F08EFBB3
:105C400057B1B6B20121304601F030FC684602F08F
:105C500070FCC1B2304617E0144904A802F0C0FB42
:105C6000204604A902F024FC044604A802F076FBB6
:105C700074B1263DADB20121284601F017FC6846FB
:105C800002F057FCC1B2284601F030FE012401E0C9
:105C90006FF00104684602F061FB01E04FF0FF3451
:105CA000204609B0F0BD00BF6C8E01086E8E010861
:105CB0000228F8B55FD8461CF600C500F6B2EDB272
:105CC000152E28BF15262B4600240122B34217D2D9
:105CD000A3F1080001280ED9142B0CD02648C718B0
:105CE000FF78012F07D80A4200EB83000CBF002782
:105CF00001271443876152000133D2B2DBB2E5E7DA
:105D0000CEB2E10704D5284606F0010101F054FCAB
:105D1000A20704D5681C06F0020101F04DFC6307E0
:105D200004D5A81C06F0040101F046FC270704D5A1
:105D3000E81C06F0080101F03FFCE00604D5281D30
:105D400006F0100101F038FCA10604D5681D06F02C
:105D5000200101F031FC620604D5A81D06F04001C7
:105D600001F02AFC230606D5E81D06F08001BDE8F7
:105D7000F84001F021BCF8BD9404002007280BD89E
:105D80000122064B02FA00F019B9D96E21EA00018E
:105D900001E0D96E0143D966704700BF940400202A
:105DA000142870B504460D461BD80E4B1A18D2782D
:105DB0001E46032A04D0042A13D103EB80040FE00B
:105DC000012807D9A0F10A03012B03D9A0F10E0382
:105DD000032B03D82046E9B201F088FD06EB8404CA
:105DE000A56170BD9404002070B5054609484319AB
:105DF00093F8704006460C401AB993F87330A342EA
:105E000007D0294604482246354404F011F885F8A5
:105E1000734070BD940400204416002070B56D4E90
:105E20003378002B45D096F87050E90740F19E80FA
:105E3000002001F001FC002800F098800124AA074E
:105E400005D5012001F0F8FB002840F091806B0798
:105E500005D5022001F0F0FB002840F08C802807D7
:105E600005D5032001F0E8FB002840F08780E90613
:105E700005D5042001F0E0FB002840F08280AA064E
:105E800004D5052001F0D8FB00287DD16B0604D590
:105E9000062001F0D1FB002879D12D0604D507207A
:105EA00001F0CAFB002875D1002021460246FFF709
:105EB0009BFF7378002B32D0464B93F871506C07E0
:105EC0006BD50A2001F0B8FB002866D0042428070F
:105ED00004D50B2001F0B0FB002860D1E90604D501
:105EE0000C2001F0A9FB00285CD1AA0604D50D20E6
:105EF00001F0A2FB002858D16B0604D50E2001F05A
:105F00009BFB002854D12D0604D50F2001F094FBF3
:105F1000002850D1012021460022FFF765FFB37809
:105F2000002B56D02B4B93F87250E80746D5102023
:105F300001F082FB002841D00124A90703D51120DC
:105F400001F07AFBE0BB6A0703D5122001F074FB75
:105F5000C8BB2B0703D5132001F06EFBB0BB214655
:105F600002200022BDE87040FFF73EBF002466E734
:105F700044F002046BE744F0040470E744F00804C2
:105F800075E744F010047AE744F020047EE744F01B
:105F9000400482E744F0800486E7002497E744F059
:105FA00008049BE744F010049FE744F02004A3E7B3
:105FB00044F04004A7E744F08004ABE70024BCE7CA
:105FC00044F00204BFE744F00404C2E744F00804CC
:105FD000C5E770BD94040020034B002283F87620AF
:105FE000024BFF221A70704794040020000000202A
:105FF000F8B5484D04462B18DB780E46062B06D123
:1060000095F876301BB1062901D0FFF7E5FFA4F122
:106010000A07FFB2072F06D8B31E59423846594126
:10602000FFF7ACFE01E0142C15D8A4F10803012BF6
:1060300011D9142C0FD0E308012104F007022B44DE
:1060400001FA02F293F870100EB90A4301E021EA56
:10605000020283F8702005EB840300229A61062E69
:1060600051D8DFE806F01124043756504A00072FB4
:106070004FD82046002101F019FA2046002101F0F6
:106080009BFA2C4402233CE0142C42D8A4F10803D0
:10609000012B3ED9142C3CD02046002101F006FAF9
:1060A0002046002101F088FA2C44002329E0142C1A
:1060B0002FD8A4F10803012B2BD9142C29D020466A
:1060C000002101F079FA2046012101F0EFF92C447A
:1060D000012316E0012C05D9012F03D9A4F10E03E9
:1060E000032B16D82046012101F0E0F920460021BB
:1060F00001F0FCFB2C44032303E0012C09D82C44C1
:106100000623E370F8BD04480449BDE8F84003F0F5
:10611000D0BEF8BD9404002044160020798E0108FA
:1061200010B50024E0B2012802D80621FFF760FF75
:106130000134152CF6D1044B01220448BDE810406F
:1061400083F8762001F080BE94040020AC13002078
:1061500038B5134C94F876300BB1FFF73DFF0023B0
:10616000237084F8703084F87330637084F8713071
:1061700084F87430A37084F8723084F875301D464A
:10618000E8B2A0F10A03072B94BF022101210135D7
:10619000FFF72EFF152DF3D10023E36638BD00BFB6
:1061A0009404002010B52148214900F08FFE2148B9
:1061B0002149224C00F08AFE2148224900F086FE47
:1061C0002148224900F082FE042320462049022271
:1061D00003F0AAFD2046E0211E4A03F074FE20468B
:1061E00090211D4A03F06FFE2046C0211B4A03F098
:1061F0006AFE2046D0211A4A03F065FE2046F421AB
:10620000184A03F060FE2046F021174A03F076FE9C
:106210002046FF21154A03F06DFE20464FF46141F0
:1062200003F042FFBDE81040FFF792BF8A8E0108DD
:10623000495A0008968E0108C15A000844160020E9
:10624000A38E0108855B0008AE8E0108095C00087A
:10625000BA8E0108A15D0008B15C00087D5D0008F0
:10626000255A0008F15F00086563000851610008C5
:1062700073B50C4D002405F17806214622462346CD
:106280000094304601F080FF30460749074A0DF080
:1062900043FE05F18000214602B0BDE8704000F0E9
:1062A000E9BD00BF94040020195A0008C40600206C
:1062B0004B1C2DE9F04107460D461446234E10D0E5
:1062C0002348394601F07CFEE9B2214801F096FDF1
:1062D0001F4801F0E7FED6F8840018B101F00AFC6F
:1062E00000E0002539462246194801F065FE1848AD
:1062F00001F038FD844202DA1648174906E01448D6
:1063000001F030FD844203DD1248144903F0D1FD51
:1063100086F8895086F888700025A54208DBA21C03
:106320000C487721D2B20E4BBDE8F04103F098BD86
:10633000074801F017FD0028F1D0054801F01AFDCB
:10634000074B2B4498700135E7E700BF9404002009
:10635000AC13002044160020D18E0108F98E0108EC
:106360001C0500206938F8B50D461446112800F2C6
:106370008181DFE810F06A017F01E0007F013601D2
:106380007F01CD007F017F017F017F017F017F01C0
:1063900012007F01AF007F01C000527802F01803A5
:1063A00002F0200202F0FF0012B1B348B34942E00C
:1063B000082B217821D001D82BB1F8BD102B33D078
:1063C000182B53D0F8BDAE4801F0FAFD0226AE42BC
:1063D0000BD2A3195978A35DA94803EBC111C9B227
:1063E000023601F00BFDF6B2F1E7A54801F05AFEC6
:1063F000BDE8F840462001F07DBB062DE278A37889
:1064000008D103EBC2136079227902EBC01208466F
:10641000D9B204E0084603EBC2124FF0FF31D2B20A
:10642000BDE8F840FFF744BF964B1A7850B20628F3
:1064300005DD91489449BDE8F84003F03ABD0132CA
:10644000D2B21A70914B52B202EB42021A4482F855
:10645000A810E17802F1A803A27802EBC1125A70E9
:106460006179227902EBC1129A70F8BD854B1C78D4
:106470001F4662B2002A0BDCFF221A70F8BD834E61
:1064800003EB4305354495F8A85001308D421CD0EC
:10649000C3B29A42F3DA002317E0072B03F101019C
:1064A00012D87A4801EB4106064406F1A80503EB31
:1064B000430396F8A860034403F1A80083F8A8609A
:1064C0006B784370AB788370CBB29A42E5DA013CCB
:1064D0003C70F8BD1378527813EBC2126B4B18BFA7
:1064E000C3F8842093F87630002B40F0C380BDE8D9
:1064F000F840FFF715BE012940F2BC8013785278AE
:1065000003EBC212092A5F4B98BF0A225A60F8BDFA
:10651000012940F2AF80022D517807D09378032DE6
:1065200041EAC3111CBFD37841EA83312078BDE82A
:10653000F840FFF735BC5048F02103F0BEFC4E4850
:106540006C2103F0BAFC0025ECB2A4F10803012B86
:1065500011D9142C0FD04848002103F0AEFC464856
:10656000012103F0AAFC4448012103F0A6FC4248A3
:10657000012103F0A2FCA4F10A06F6B2072E08D806
:106580003D48022103F099FC3B480A2103F095FCA9
:1065900014E0012C12D83848032103F08EFC364851
:1065A000082103F08AFC012C0ED83348062103F0A1
:1065B00084FC3148012103F080FC05E0012EEAD97A
:1065C000A4F10E03032BE6D92B487F21013503F0FC
:1065D00074FC152DB8D12848F721BDE8F84003F028
:1065E0006CBC002946D014782348F02103F065FCE8
:1065F00021486E2103F061FC1F48214603F05DFC39
:10660000142CE8D8214D1C482B19A400D9782E1938
:1066100003F053FCB169184801F07F0103F04DFC11
:10662000B1694FF680730B4023B11348C1F3C61113
:1066300003F043FC2C44A16911F4404FCBD00E4829
:10664000C1F3863103F039FCC5E70B48F02103F0B4
:1066500034FC09486A2103F030FCF624082C34BFCE
:1066600021467F2101340448E4B203F026FC0B2CC0
:10667000F4D1B0E7F8BD00BF44160020208F010818
:10668000AC13002000000020408F0108940400207B
:10669000F8B5FFF7C3FB254803F07EFB044618B1AD
:1066A000224803F049FCF6E701F0DCF9204B214ECB
:1066B000D3F8C4207168C3F8C000801A88421F460E
:1066C00033D90A44C3F8C420A4F10A05EDB2072D5A
:1066D00010D8174BDA1CA25C022A0BD1DB6E2B41BF
:1066E000DB0707D5284601F069F8294602460F481E
:1066F00003F08DFB0134152CE6D196F90030002B08
:1067000013DB002496F90020E3B29A4204F101045D
:106710000BDB03EB43033B4493F8A80093F8A91069
:1067200093F8AA20FFF7C4FDECE7F8BD441600205B
:106730009404002000000020013101EB420291424C
:106740000BD0030F092B94BF3033373301F8013CD2
:106750000023000101F8023BF1E770471F4B10B521
:106760001A88032A04D804200146188007F06AF921
:106770004FF000604FF4A04107F0B8F80124184B27
:10678000184821461C7007F071FB06F003F905F06C
:10679000E9FD2146402007F03DFD6FF07F4005F008
:1067A00053FFE72005F0CCFF0F4B1C7005F024FED3
:1067B0007D2007F05FFD18B10C4B1C7007F06EFDDB
:1067C00040F6B83005F072FE06F0D6FB06F050FE3B
:1067D000074A01231370074A137010BD08170020E1
:1067E000E4160020000430009C150020D81F002073
:1067F000201600201616002038B52F4C2388042BB5
:1068000004D805210420218007F01CF92B4D2B789A
:1068100013B12B4802F054FB2B7853B12388052B7E
:1068200005D8254B06210420198007F00BF902F04A
:106830001DFC2B7863B1234B1B784BB9224B1B7883
:1068400033B1224B1B781BB9214B1B78002BE3D0B3
:10685000204B1B78002BDFD11F4B1B78002BDBD18B
:106860001B4B1B78012B0FD01C4B6BB12388062BC5
:1068700005D8114B07210420198007F0E3F8FFF732
:1068800091FC134B01221A70154B002BC4D02388A6
:10689000072B05D8084B08210420198007F0D2F8EF
:1068A000FFF7F6FE2388082BB6D8034B09210420F6
:1068B000198007F0C7F8AFE708170020201600205E
:1068C00091710008D5150020161600209A15002099
:1068D0005C0500209B150020D81F0020A561000842
:1068E00091660008F8B5524B1A6812B11A68013A5D
:1068F0001A60504B504D1B783BB1504B1B78002B0E
:1069000028D04F4B002B47D124E04E4C236826461D
:1069100013B12368013B0FE04B4B1B78D3B94B4BB2
:106920001B78BBB94A4B1B78A3B94A4F3B782BB1B4
:10693000E72005F079FF142323600BE02B78002B70
:106940002DD1E72005F02AFF434B1B78002B34D0D4
:10695000322333602B7833B1404C23781BB92EE0BF
:106960005A6801325A603E4B1A68B2F57A7F0FD3EB
:1069700000221A6007F0A2FB3A4B4FF6FF711A880B
:106980008A4254D019800420BDE8F84007F05AB874
:106990001A6801321A60F8BD00F05AFCDAE7324B8F
:1069A0001B78002BCDD04FF6FF7005F04DFEE72091
:1069B00005F0C6FE01233B70CCE76423C9E7234BF7
:1069C0001B788BB1294B47F22F5259689142C7D996
:1069D000BFF34F8F264A274BD16801F4E0610B4388
:1069E000D360BFF34F8FFEE7174B1B7803F0FF0513
:1069F00033B9284606F02EF840F6B73398420DD842
:106A0000002006F027F841F657339842ABD9002012
:106A100006F028F8184B01221A70A4E7284606F061
:106A200021F82378002B9ED102F03CF89BE7F8BDBB
:106A3000E01F0020C416002020160020F8080020C7
:106A400051720008DC1F0020CD1500209B1500208E
:106A50009D1500209C15002099150020D5150020BB
:106A6000E41F0020081700209A1500205C05002074
:106A700000ED00E00400FA05CC15002008B5094B34
:106A8000186006F01FFA002006F068FA064805F0C4
:106A90008DFC06F02FFA06F04DFABDE8084008F02C
:106AA000E3BA00BFC0020020A0860100074B1B68AC
:106AB000052B08D1064B1A7A012A04D1987A1B7B40
:106AC000C01AC0B270470020704700BF0C170020EA
:106AD0005C0500200D4B10B51B68052B13D10C4C29
:106AE000237A012B0FD16289A389D31A012B04D1F8
:106AF00000230320237208F00EFCA3895A1CA281F4
:106B00001C44A07B10BD4FF0FF3010BD0C170020BF
:106B10005C05002008B50C4B1B68052B12D10B4BF4
:106B20001A6D99180132B2F5807F08BF002281F8F2
:106B300054001A6506F0AAF820B16420BDE80840A8
:106B400005F034BC08BD00BF0C1700205C05002018
:106B5000F8B5234B93F85421012A3FD0D3F858219C
:106B6000196DB2F5807F04BF0022C3F85821D3F815
:106B700058411B4A8C4203D1002382F85431F8BD9E
:106B80008CBFC4F58071C4EB0101C2F85C11D3F86D
:106B90005C61134D402EA2B207D94034403EC5F887
:106BA0005841C5F85C61402706E034440021B7B283
:106BB000C5F85841C5F85C110A4801241044C021A9
:106BC0003A4683F8544108F021FB2046394608F044
:106BD00025FC2046BDE8F84008F08ABBF8BD00BFA0
:106BE0005C050020B0050020094B10B593E81400A7
:106BF00008331B68D0180AD006490822FFF79CFD0D
:106C0000204605490422BDE81040FFF795BD10BDA0
:106C1000E8F7FF1F6D0200207D02002013B5084C2D
:106C2000002100910A460B46204601F0ADFA0549C5
:106C3000054A204602B0BDE810400DF06DB900BF16
:106C4000BC060020195A0008C406002038B50446C6
:106C50000D46AC4203D254F8043B9847F9E738BDDF
:106C600008B507480749FFF7F1FF07480749FFF74D
:106C7000EDFFBDE8084006480649FFF7E7BF00BF43
:106C8000AC940108AC940108AC9401080895010883
:106C900008950108089501080DF096B908B5072078
:106CA00006F00AFDFEE70000074A08B5136818441D
:106CB0001060064A904204D9082006F0FDFC0DF051
:106CC00059F9184608BD00BF080000200048002000
:106CD0004FF0FF3070470120704708B50C2006F0D8
:106CE000EBFCFEE7014B1868704700BFC8060020A8
:106CF000064B0246582000FB013101F1080303CB8B
:106D00001060516018689060704700BFC80600208E
:106D1000014BD3F864017047C8060020064B0246B9
:106D2000142000FB013101F5B67303CB10605160F4
:106D300018689060704700BFC806002038B5054647
:106D4000064C28B105F022FD012384F8303238BD0D
:106D500005F0CAFC84F8305238BD00BFC8060020D8
:106D60000E4B2DE9F041D3F8647180460024BC42FB
:106D700011DA14256543094E414606F5B6702844DC
:106D80000C220DF0F2FA20B93544D5F86801BDE8BF
:106D9000F0810134EBE70020BDE8F081C806002057
:106DA000044B01221A70044B00224FF4C0201A60D9
:106DB00006F058B99B15002060050020034A002307
:106DC0001370034A136006F0ABB900BF9B15002097
:106DD00060050020024B00221A6006F06BB900BF6C
:106DE000600500202DE9F04788B0804668460D46D2
:106DF00001F0F6FA1E4B0024D3F800A054452DDA1A
:106E000055B3582666431A4F414607F108003044EF
:106E10000C2207F104090DF0A8FAE8B928460DF094
:106E20009CFA06F11003402834BF0246402229464E
:106E300009EB03000DF0EDF83E44012386F85830CD
:106E4000694604A8746801F0EDFA04A8A047044656
:106E500004A801F083FA03E00134CFE74FF0FF34D8
:106E6000684601F07BFA204608B0BDE8F08700BF15
:106E7000C806002001290AD002D3022910D0704789
:106E80000C4B002283F8312201220B4B10E0094BFE
:106E9000002283F83112084B1A70084B19707047A2
:106EA000044B002283F83112034B1A70034B01226A
:106EB0001A707047C806002016160020D51500204D
:106EC000014B93F831027047C80600202DE9F84FB6
:106ED0000446894600293DD000283BD01E4D2E682F
:106EE000042E37D005F108074FF0000805F1040A19
:106EF000B0450DDA57F8043C4B4505D138462146DC
:106F00000C220DF032FA28B308F101085837EFE7E8
:106F10004FF0580808FB06F805EB080708F11000C9
:106F200000214022C7F8049050440DF096F80AEB77
:106F30000800002104300C220DF08FF820686168F1
:106F400007F1080303C3A06801361860002387F81F
:106F500058302E60BDE8F88FC806002073B5002BAE
:106F60000CBF6523452306460D4614460093314663
:106F70002A462346024808F009FE02B070BD00BF51
:106F8000FC08002010B5064C206803F01BFD2368A8
:106F9000013303D0431E5842584110BD012010BD9B
:106FA0000C00002038B50B4B05461B780C466BB91E
:106FB000094B1B7853B9FFF7E5FF034630B9074A81
:106FC00029461068224604F0B3FC38BD4FF0FF306C
:106FD00038BD00BFD4150020D51500200C000020BE
:106FE0002DE9F041264B86B01B7880460F46002BDA
:106FF00041D1244B1B78002B3DD1FFF7C3FF044642
:10700000002838D1204D8DF80C008DF80D008DF83A
:107010000E008DF80F00286806AA460902EB8606C6
:10702000012100F01F02914056F80C2C01300A4358
:1070300046F80C2C41F28832059204AA009203A96A
:1070400022462346049404F055FB002815DD2B68E6
:1070500006AA590902EB810151F80C5C03F01F02EA
:10706000154115F0010008D0184641463A4623461E
:1070700004F0E0FB01E04FF0FF3006B0BDE8F08126
:10708000D4150020D51500200C00002030B51F4875
:10709000ADF57B7D08F02BFA002834D11C4B17A8E6
:1070A00005931C4B61AD06931B4B049007931B4B40
:1070B0000EAC08931A4B039509931A4B0A931A4B7B
:1070C0000B931A4B0C931A4B0D931A4B0E931A4BAE
:1070D0000F931A4B10931A4B11931A4B12931A4B8E
:1070E00013931A4B14931A4B15931A4B169306F0DD
:1070F0005DF8284606F060F800940448164903AA93
:1071000005AB08F0FBF90DF57B7D30BDFC080020D8
:10711000A56F0008E16F0008A16D0008BD6D0008B3
:10712000E9D10008D56D00083D6D0008657A0008BA
:1071300005860008E56C0008F16C0008E56D0008A4
:10714000116D00081D6D000855740008616D000880
:10715000C5D10008D9D10008E8F7FF1F014809F0A0
:107160004BB900BFFC08002010B5064C23783BB19A
:10717000FFF7F4FF20B9044B1870044B187020700F
:1071800010BD00BF991500209B1500209A15002006
:1071900010B502208CB00146112204F0EDF9041E56
:1071A00024DB134907A808F0F9FA02230122ADF8FD
:1071B0000C308DF812201623BB228DF80E308DF87E
:1071C0001320332303AA8DF80F300092E0231022FE
:1071D0008DF8103001920023204607A913228DF864
:1071E000113004F0AFFB204604F0F6F90CB010BDEE
:1071F000E8F7FF1F30B5134C87B0FFF747FF204675
:1072000008F078F9204608F09CFD0546FFF7C0FF1E
:10721000204608F005FD03A803F08CFD9DF80D2025
:107220009DF80C30009204A80821074A0DF04EF892
:10723000064804A93C220123FFF790FE284607B028
:1072400030BD00BFFC080020518F0108578F010896
:1072500038B5114CD4F8585B2DB1D4F8583B013BEC
:10726000C4F8583B38BDD4F85C3B0C4A52F82300B4
:1072700005F012FAE72005F063FA6423084AC4F81F
:10728000583BD4F85C3B526801339342C4F85C3BF2
:10729000A8BFC4F85C5B38BDC806002020640108A4
:1072A0000C0000207FB502200121062204F064F9C1
:1072B000041E24DB0223ADF8003000238DF80230D9
:1072C00035238DF803304FF4FA5008238DF804303D
:1072D0008DF805308DF806308DF8073001F0E8FDA7
:1072E000694610220546204604F0D6F9064628468F
:1072F00001F0DEFD204604F06FF9304601E04FF06A
:10730000FF3004B070BD000010B5064C20680028A6
:1073100005DB04F061F94FF0FF33236010BD00205E
:1073200010BD00BF0C000020F0B5A7B0FFF7ECFFC8
:1073300002200121062204F01FF9304F0028386096
:107340004DDB2F4C0223A4F8603B162384F8623BEC
:1073500005A8332384F8633B05F0F4FE0023009373
:107360009DF814303BB1012B14D0264B01AD03F135
:10737000100E2A4602E0069B009310E01868596838
:107380002E4603C6083373453546F7D10FCA06ADFE
:1073900085E80F000A25009B0BB9013D22D1009B17
:1073A0000BB9194B0093009B4FF4FA501A0E84F856
:1073B000642B1A0C84F8652B1A0A84F8673B84F84E
:1073C000662B01F075FD114904461022386804F05F
:1073D00063F90546204601F06BFD28460CE04FF0AE
:1073E000FF3009E006A87E210CF0E7FF6A4681B273
:1073F00006A804F017F9CEE727B0F0BD0C00002076
:10740000C8060020728F010804E5D036281200203B
:107410000F4B2DE9F041D3F8647180460024BC4243
:1074200011DA142565430A4E414606F5B670284424
:107430000C220CF09AFF20B9354495F87801BDE88C
:10744000F0810134EBE74FF0FF30BDE8F08100BF81
:10745000C806002008B5FFF7DBFF013808289DBFEC
:10746000024BC018007F022008BD00BF2064010845
:1074700037B50B4C002104F537650B4600910A46E1
:10748000284600F081FE28460649074A0CF044FDD4
:1074900004F50D7003B0BDE8304008F013B800BF2C
:1074A000C8060020195A0008C406002014282DE937
:1074B000F34104460E4675D8FF2973D000F016FF3D
:1074C00018B1A4F10D03022B6CD900F0F1FD08B145
:1074D000012C67D901F01CFA18B1A4F11203012B99
:1074E00060D918236343314DEA18EF58304BB2F896
:1074F00004809F4201D1042003E02E4B9F4203D120
:107500000820012106F092FEADF80480062E45D831
:10751000DFE806F00F04171F27313C0010238DF819
:10752000073003238DF80630182303FB045401238E
:1075300033E004238DF80730182303FB04540023A1
:107540002BE048238DF80730182303FB0454022353
:1075500023E028238DF80730182303FB045403236A
:107560001BE0182303228DF8073003FB04548DF829
:107570000620042311E01C238DF8073003238DF827
:107580000630182303FB0454052306E000238DF87E
:107590000730182303FB04540623A373384601A9BC
:1075A00006F006FC02B0BDE8F08100BF1400002028
:1075B00000080140000C0140142870B504460E4636
:1075C00036D81C4D182303FB00539B7B83B39A1EB4
:1075D000012A2DD9062B2BD0FF2B29D000F086FEB7
:1075E00020B1A4F10D03022B00D870BD00F060FDA6
:1075F00010B1012C00D870BD01F08AF920B1A4F1BE
:107600001203012B00D870BD182303FB04539B7B8E
:10761000042B03D120460121FFF748FF18235C43C8
:107620002A192B5992880EB95A6170BD1A6170BD22
:1076300070BD00BF14000020142838B5044615D8CA
:107640001D4D182303FB00539B7BFF2B0ED0043BE7
:10765000012B0BD900F04AFE18B1A4F10D03022B47
:1076600004D900F025FD18B1012C01D8002038BD47
:1076700001F04EF918B1A4F11203012BF6D9182329
:1076800003FB04539B7B062B07D10B4B93F8F8119C
:10769000FF29EBD02046FFF709FF18225443254469
:1076A000AA7B054B012AA988185902D106F0D4FB00
:1076B00038BD06F0CBFB38BD14000020F0B54FF408
:1076C000004091B006F03CFD0120014606F0A2FD0D
:1076D00001214FF4C06006F0A9FD334806F0D6F949
:1076E000324B00240593324B2F4806930A2308930C
:1076F00080230A934FF400730B934FF400630C93B1
:1077000005A94FF400530E9301254FF400274FF4C1
:107710006026079409940D940F9406F02FFA2548DB
:10772000694600978DF804408DF805400296039451
:107730008DF8105006F0E4F81F48694600978DF860
:1077400004408DF80540029603948DF8105006F021
:10775000D7F81848294606F0F7F8164806F006F953
:10776000144806F008F90028FAD1124806F007F983
:10777000104806F009F90028FAD10F48012106F057
:10778000E3F80D4806F0F2F80B4806F0F4F800288C
:10779000FAD1094806F0F3F8074806F0F5F8002892
:1077A000FAD111B0F0BD00BF080002404C240140E6
:1077B000441200200024014000280140092870B52F
:1077C00004469CBF00F10A04A4B200F08FFD28B16A
:1077D000A4F10D03022B01D8002070BD00F068FC5D
:1077E00001F096F818B1A4F11203012BF4D9142C6E
:1077F000F2D8394D182303FB04539A79FF2AEBD0B2
:1078000095F8FA11914206D09B7B2046062185F817
:10781000F831FFF74BFE95F8FB31012B05D1FFF74F
:107820004DFF2D4B002283F8FB21182303FB04544A
:1078300095F8FA31A179284E8B420FD027480122C2
:1078400096F8F93106F0ADF896F8F9312448A179A7
:10785000012206F0A6F8A37986F8FA310021214C1E
:10786000002344F8213001310A29F8D11E4806F0DE
:10787000B6F91B48012106F0DCF81B48012106F08F
:107880009BF91648012106F068F81448012106F01A
:107890007FF8022006F0A6F90028FAD0022006F0B0
:1078A000AFF90E48002106F058F80F48002106F005
:1078B00083F900231A4654F8230054F823100133A7
:1078C00089B201EB10410A2B0A44F4D11420B2FB17
:1078D000F0F290B270BD00BF1400002000240140FF
:1078E0000028014044120020080002402DE9F04326
:1078F000142889B004460D4600F2A680544F182380
:1079000003FB00739B68002B00F09E8000F0EEFCF0
:1079100020B1A4F10D03022B40F2968000F0C8FBC9
:1079200010B1012C40F2908000F0F2FF20B1A4F1E0
:107930001203012B40F28880182303FB04739B7B06
:10794000012B01D0042B7FD1424B4BF6803808FB32
:1079500005F81E68404B01200146B6FBF3F6FF23F5
:1079600098FBF3F806F062FC20460421FFF79EFD29
:10797000182303FB04739B68013EB3F1804FB6B23A
:107980001FFA88F802D10120014609E0334A9342E8
:1079900008BF022003D0324A934203D104200121C0
:1079A00006F050FC182505FB04754BF67F33ADF847
:1079B0000460A868002601A9ADF80830ADF80A6097
:1079C000ADF8066006F034FD6023ADF81860AE89AE
:1079D000ADF810300123ADF81230ADF8168046B97D
:1079E000A86804A906F06EFDA868082106F0AAFEA2
:1079F0001FE0042E08D1A86804A906F0A7FDA86816
:107A0000082106F0A7FE14E0082E08D1A86804A9F2
:107A100006F0E0FDA868314606F0A6FE09E00C2E4F
:107A200007D1A86804A906F017FEA868082106F087
:107A3000A3FE182303FB04740121A06806F076FE60
:107A4000A068012106F04FFE09B0BDE8F08300BF39
:107A500014000020B403002000366E010004004032
:107A60000008004005F0FABB30B54FF47A7385B0DA
:107A70001C4C0093236805460344236005F0EEFB8D
:107A8000019006F01BFB05F0E9FB0290029A019BB6
:107A9000D31A0393039B002B03DA019B029A13442E
:107AA0000393039BAB421AD20F4B1B78002BE8D0F9
:107AB0000E4B1B78002BE4D1039A009B9A4203D211
:107AC0002368B3F57A7FDCD3039B03F57A730093C5
:107AD00001F0CCFA064B1B78002BF9D1D1E705B0A9
:107AE00030BD00BFD015002020160020D515002085
:107AF0009B15002004F05ABC13B5084C00210091DE
:107B00000A460B46204600F03FFB0549054A204641
:107B100002B0BDE810400CF0FFB900BF6C120020AD
:107B2000195A0008C406002038B5184B05461C88B1
:107B300003F580631B88A4B29BB22BB94EF6EE62AC
:107B4000A21A18BF012205E0F4B94EF6EE629B1AA4
:107B50005A425A4192020E4B02F1006404F58044ED
:107B600013449C420ED22268013209D1204606F00D
:107B700003F9042809D1A01C294606F0FDF838BDF8
:107B80000434EEE7802038BDAB2038BD004000084B
:107B9000FE43000808B5084806F0D0F804280AD1CA
:107BA0000548002106F0E8F8042804D1BDE80840A3
:107BB000024806F0C3B808BD0040000800440008B1
:107BC000104B10B51C8803F580631B88A4B29BB2D0
:107BD0001CB10BB1AB2010BD01240B4BA4022344FC
:107BE0000A4A224493420AD91A8892B2824204D1A4
:107BF00033F8023C00200B8010BD043BF0E701206D
:107C000010BD00BF00400008FE430008024000080D
:107C1000F8B5444E06F052F8434D34884EF6EE6106
:107C2000A4B22B888C429BB24FF6FF7210D09442C4
:107C300002D0002C73D142E00BB930466CE08B428D
:107C40006DD1304606F07AF804286AD1284632E031
:107C50004BBB1C461646354B354A1B8832F8145030
:107C60009BB2AB4208BFA6B233B29C4203D10134EF
:107C7000642CF0D10FE02E4F284607F1C801FFF722
:107C80009FFF0128F3D02846B7F8C810FFF74CFF34
:107C90000428ECD0F8BD2348002106F06DF8042834
:107CA0003FD1214838E0934239D1284606F046F8C2
:107CB000042836D13046002106F05EF8F8BD73B3D3
:107CC000934201D1284627E016461A4B184A1B88D2
:107CD00032F814509BB2AB4208BFA6B233B29C42FA
:107CE00003D10134642CF0D10FE0114F284607F185
:107CF000C801FFF765FF0128F3D02846B7F8C81080
:107D0000FFF712FF0428ECD0F8BD0748002106F069
:107D100033F8042805D1034806F010F8F8BDFFF742
:107D200039FFF8BD00400008004400080640000884
:107D3000741200200644000810B50446FFF768FFDF
:107D40000023044A22F813300133642BF9D1204672
:107D500010BD00BF741200200148FFF7EDBF00BF47
:107D60003E130020024B18785B78C01A704700BFA2
:107D700040130020064B5A781978914204D999187B
:107D8000013288785A7070474FF0FF30704700BF5B
:107D900040130020044B5A781978914286BF9B18F3
:107DA00098784FF0FF307047401300207047000074
:107DB000014B0360704700BF9064010810B5034B8E
:107DC00004460360FEF768FF204610BD906401087A
:107DD000F8B5094B054693F82230164653B10C46C8
:107DE0008F18BC4206D02B6828469B6814F8011BEC
:107DF0009847F6E73046F8BD4013002010B50C4B0D
:107E0000012293F822408CB193F823401F2C02D911
:107E10004260002010BD93F824001C1884F825103F
:107E2000411CC9B283F8241083F82310104610BDFA
:107E300040130020002242604FF47A728260014AAF
:107E4000026070475064010838B51C4C00254FF49F
:107E5000001001216570257084F8245084F82350A7
:107E600006F0F0F901200521FFF720FB2846052147
:107E7000FFF71CFB124806F03FF84BF6FF73A4F81F
:107E80004E3094F85830A4F84C500BB9A4F8503048
:107E90004FF48063A4F852304FF48043A4F8543078
:107EA000084B07480849A36406F040F8044801213C
:107EB00006F0AAF8012384F8593038BD4013002099
:107EC00000540040A0860100881300202DE9F843EB
:107ED00033480C46012190461F4606F0A1F8FFF7F3
:107EE000C1FD05462E482F4906F0CAF828B9FFF70C
:107EF000B9FD401B0A28F5D927E021462848012270
:107F000006F0B7F8FFF7AEFD04462548264906F00F
:107F1000B7F828B9FFF7A6FD001B0A28F5D914E029
:107F2000FFF7A0FDB8F1200F28BF4FF0200806464C
:107F30000024E5B2C5EB080313F0FF0908D0FFF7F2
:107F400091FD801B09280ED902E00020BDE8F883CE
:107F50001348012106F07CF8144B00225A701D7062
:107F60002846BDE8F883B9F1010F09D1012F07D1E7
:107F70000B48002106F06CF80948394606F05CF819
:107F800007480B4906F07CF80028D8D0044806F0D2
:107F90006DF8084B1855FFF765FD01340646C8E734
:107FA00000540040010003000200030040130020C1
:107FB00040000300421300200123FFF787BF0000A9
:107FC000054B012283F82220002283F85A1083F8FF
:107FD000242083F823207047401300202DE9F0412E
:107FE0002A480E46012106F01BF8FFF73BFD044628
:107FF0002648274906F044F838B9FFF733FD001B3F
:108000000A28F5D90420BDE8F081224C1F4894F8D5
:108010005A10002206F02DF8FFF724FD05461B48F4
:108020001D4906F02DF828B9FFF71CFD401B0A2852
:10803000F5D9E7E794F823700025EBB29F4215D0FD
:10804000164B1248595D06F00FF8FFF70BFD8046FE
:108050000E48134906F014F830B9FFF703FDC8EBDA
:1080600000000A28F4D9CDE70135E6E7012E03D157
:108070000648314605F0E0FF002084F8240084F82B
:10808000230084F82200BDE8F08100BF00540040C6
:108090000100030040130020820007006513002048
:1080A000840007000121FFF799BF70477047000067
:1080B000014B93F8590070474013002073B50E4CE4
:1080C000002104F164050D4E0B4600910A46284636
:1080D00000F05AF86C343246094928460BF01CFF70
:1080E0002046FFF7A7FE07492046324602B0BDE80A
:1080F00070400BF011BF00BF40130020C4060020E9
:10810000195A0008B17D000808B5034B53F8203018
:1081100003B1984708BD00BFBC13002013B5084C3D
:10812000002100910A460B46204600F02DF8054933
:10813000054A204602B0BDE810400BF0EDBE00BF7E
:10814000FC130020195A0008C40600202DE9F04154
:10815000002407460E4625463B1919790A22304667
:1081600000F092F82E218046304600F05EF801348F
:108170004044032C0544EFD13046F9790A2200F03F
:1081800083F82844BDE8F08130B58371034D9DF834
:108190000C30056001714271C37130BD7864010813
:1081A0000548064B06490360064A002303714371E4
:1081B0008371C3710BF0B0BE041400207864010811
:1081C000195A0008C4060020014B0360704700BF25
:1081D00090640108F8B506460C468F180025BC428D
:1081E00007D0336830469B6814F8011B9847054454
:1081F000F5E72846F8BD000010B5034B04460360C0
:10820000FEF74AFD204610BD9064010838B50546CA
:108210000C46084641B10CF0A0F82B680246DB681A
:1082200028462146984738BD38BD08B503689B6885
:10823000984708BD30B500238BB08DF82430012A53
:1082400098BF0A220DF12304B1FBF2F303FB1211D4
:10825000CDB2092D94BF30353735EDB2214604F843
:1082600001590BB11946EFE7FFF7D0FF0BB030BD56
:1082700010B522B90268C9B29268904710BDD2B257
:10828000BDE81040FFF7D6BFFFF7F2BF13B5084CAB
:10829000002100910A460B462046FFF775FF05496D
:1082A000054A204602B0BDE810400BF035BE00BFC5
:1082B0000C140020195A0008C406002013B5084CFD
:1082C000002100910A460B462046FFF75DFF054955
:1082D000054A204602B0BDE810400BF01DBE00BFAD
:1082E00014140020195A0008C4060020014B587DC0
:1082F000704700BF1C1400207047000013B5084CE5
:10830000002100910A460B462046FFF73DFF054934
:10831000054A204602B0BDE810400BF0FDBD00BF8D
:1083200034140020195A0008C406002013B5084C64
:10833000002100910A460B462046FFF725FF05491C
:10834000054A204602B0BDE810400BF0E5BD00BF75
:1083500040140020195A0008C406002010B5044635
:1083600000680BF031FE204610BD10B504460068D1
:1083700008B10BF029FE00232360A360636010BDE9
:1083800038B504460D46006801310BF041FF10B1CD
:1083900084E82100012038BD036810B5044613B1FC
:1083A00043688B4207D22046FFF7EAFF20B1A3685B
:1083B0000BB922681370012010BD70B50E4611462E
:1083C00004461546FFF7E8FF18B92046FFF7CDFF32
:1083D00004E0A560206831460BF0B7FF204670BD71
:1083E00038B50023044603604360836003730D4681
:1083F00039B108460BF0B1FF294602462046FFF787
:10840000DCFF204638BD884210B50B46044607D035
:10841000096819B19A68FFF7D0FF01E0FFF7A5FFDF
:10842000204610BD10B500230446036043608360FE
:108430000373FFF7E8FF204610BD38B505460C462C
:1084400041B108460BF089FF214602462846FFF756
:10845000B4FF01E0FFF789FF284638BD826808B500
:108460000B4612B919B9012008BD11B90368187873
:1084700002E00068FCF74CFED0F1010038BF00209C
:1084800008BD10B58B688468E41AA2420CD8006855
:1084900068B1096851B110441A460BF066FFD0F17B
:1084A000010038BF002010BD002010BD084610BDDF
:1084B00082688B689A4202D30022FFF7E2BF002055
:1084C00070478368994203D2006810B1405C7047DE
:1084D00000207047FFF7F5BF9A422DE9F0410746AB
:1084E0000D4614461E4601D93446164638460C49F8
:1084F000FFF776FFAB689C420FD89E4228BF1E460E
:108500002B68002213F806809A55296838462144C2
:10851000FFF793FF2B6803F806803846BDE8F0812B
:108520003991010810B58B680446FFF7D5FF204646
:1085300010BD006808B10BF024BD704713B5084C9E
:10854000002100910A460B462046FFF71DFE054913
:10855000054A204602B0BDE810400BF0DDBC00BF6C
:1085600048140020195A0008C406002013B5084C0E
:10857000002100910A460B462046FFF705FE0549FB
:10858000054A204602B0BDE810400BF0C5BC00BF54
:1085900050140020195A0008C406002038B5184CA1
:1085A00094F92C305BB394F82D3043B305F09EFE64
:1085B00094F82C2094F82D5051B2002995FBF1F13C
:1085C00006DD01290BDC013A84F82C20002307E0AA
:1085D000013104DB013284F82C20022300E0012366
:1085E00094F82D20013A84F82D20C41805F0B0FE2F
:1085F000204605F08DFEBDE8384005F0A9BE38BD27
:108600005814002010B5044605F070FE001B00F160
:108610007F02FE2A08D905F09BFE204605F078FE71
:10862000BDE8104005F094BE054A80EAE073A3EB74
:10863000E0735B0082F82C0082F82D3010BD00BF83
:108640005814002013B5084C002100910A460B462F
:108650002046FFF799FD0549054A204602B0BDE8CE
:1086600010400BF059BC00BF88140020195A0008B4
:10867000C406002013B5084C002100910A460B46A1
:108680002046FFF781FD0549054A204602B0BDE8B6
:1086900010400BF041BC00BF94140020195A000890
:1086A000C406002013B5084C002100910A460B4671
:1086B0002046FFF769FD0549054A204602B0BDE89E
:1086C00010400BF029BC00BF9C140020195A000870
:1086D000C4060020014B0360704700BF906401088E
:1086E000426D836DD01A00F03F007047426D836D7C
:1086F0009A421DBF836DC018007D4FF0FF30704758
:10870000426D836D9A4209D0836D826D03441B7D57
:10871000013202F03F028265184670474FF0FF3089
:108720007047000010B5034B04460360FEF7B4FA2F
:10873000204610BD9064010810B50446D4F89C2072
:10874000D4F8A0309A42F9D1237C13B900232374C2
:1087500010BDD4F8A4304021186806F046F800286F
:10876000F4D1F1E7D0F8A43070B504460E4618688D
:1087700040F2277106F03FF828B9D4F89C20D4F8CD
:10878000A0309A4215D1D4F89C50013505F03F0530
:10879000D4F8A0309D42D4F8A43013D0EFF3108267
:1087A000D20742D5D4F89C10D4F8A020914209D128
:1087B0003BE0D4F8A43040F227711868012205F09C
:1087C000F4FFE0E7186840F2277106F014F800287B
:1087D000DED0D4F8A4308021186806F006F800280E
:1087E000D6D0D4F8A43040F227711868002205F0E2
:1087F000DCFFD4F8A4301868D4F8A0305A1C234405
:10880000C4F8A02093F85C1005F0E7FFD4F8A0307E
:1088100040F2277103F03F03C4F8A030D4F8A4302D
:108820000122186805F0C1FFB2E7D4F89C2040F29D
:108830002771224482F85C60C4F89C5001251868B6
:1088400025742A4605F0B1FF284670BD10B540F2E8
:1088500025510446006805F0CEFF70B1206805F090
:10886000C0FFE369C0B21A6C596C013202F03F02DA
:108870008A4202D0196C58541A64206840F2277159
:1088800005F0B9FFB8B1A3692068196C5A6C914220
:1088900006D1BDE8104040F22771002205F085BFE7
:1088A0005A6C511C5964995C05F097FFA3695A6C86
:1088B00002F03F025A6410BDF8B54FF47A7383603A
:1088C0000C4B0446002503604560C0F8A41004F179
:1088D0005C07482614308F613246C86129460BF088
:1088E000BCFB3846294632460BF0B7FB25742046C0
:1088F000F8BD00BFA86401080148FFF7A7BF00BF8B
:10890000100200200148FFF7A1BF00BF3002002085
:10891000014B187C704700BFA414002073B50E4CA7
:10892000002104F114050D4E0B4600910A4628461D
:10893000FFF72AFC1C343246284609490BF0ECFAB2
:1089400020460849FFF7B8FF07492046324602B0E3
:10895000BDE870400BF0E0BAA4140020C40600206B
:10896000195A000810020020D586000870474FF001
:10897000FF307047014B0360704700BF90640108EF
:1089800010B5034B04460360FEF786F9204610BD80
:1089900090640108FEF79EB808B5FEF787F808BD99
:1089A00008B50846FEF7B6F8012008BD002242606F
:1089B0004FF47A728260014A02607047D064010805
:1089C0000846FEF75BB8000037B50D4C00210D4D91
:1089D0000B4600910A462046FFF7D6FB2A460A4975
:1089E000204608340BF098FA2046FFF7DFFF0749CE
:1089F00020462A4603B0BDE830400BF08DBA00BFD8
:108A000068150020C4060020195A0008758900085E
:108A100070470000054B1B7803F0FF0023B1044BA7
:108A20001878003018BF0120704700BFD61500200D
:108A30009815002008B5FFF7EDFF68B1074B01223C
:108A40001A700020064B01460246187003F0A8F881
:108A5000BDE8084003F08AB808BD00BF93150020A8
:108A60001616002008B50B4B1B7893B103F002F8E3
:108A7000094A01231370094A00211170084A6FF056
:108A80007F40137003F0E0FDBDE80840E72003F0ED
:108A900057BE08BDD6150020D5150020161600209B
:108AA0009C150020014B01221A707047CD15002043
:108AB000084B1B7803F0FF0053B1074B1B7833B909
:108AC000064B1878D0F1010038BF00207047002015
:108AD000704700BFCD150020510200205002002039
:108AE0002DE9F0431446324A89B012781D4681467A
:108AF0008846109B002A58D022782AB1032B4AD8E6
:108B0000DFE803F0020E39390020012300930190C1
:108B1000029003900490059049464246034636E091
:108B2000244B1B7803F0FF06D3B920460BF015FC4D
:108B3000274645088DF81E60AE4207F102070FD0A8
:108B400017F8023C07A88DF81C3017F8013C0021EB
:108B500010228DF81D300BF071FDA0550136EBE7AA
:108B6000002301208DE821000293039304940593D0
:108B7000494642460BE0012018211E2202238DE8BF
:108B80000F0004940595032049464246002303F054
:108B90002BF8094B1870084A084B12780E20013246
:108BA0001A700121002202F093F809B0BDE8F083A9
:108BB000D61500205102002021160020B8150020F3
:108BC000024B1878003018BF01207047B8150020FC
:108BD00008B5FF2003F0EEF828B900F04FF900F0D7
:108BE0003DF9012008BD002008BD000038B5FFF7A1
:108BF00011FF044600283DD11F4B187002F004FFFE
:108C00001E4B01221A701E4B48F204201C7003F008
:108C1000EDF81C4B1A881D46012A14D00E20102195
:108C20002246194B02F026F810280CD1174B1B785E
:108C300083B9FFF7C5FF68B9154B01221A70BDE86B
:108C4000384000F0F3B8FFF7C3FF00232B8004F097
:108C5000BBF9EBE70F4B00244FF47F401C7003F08F
:108C6000F3FCE72003F06CFD20462146012202F0D0
:108C700097FFE4E738BD00BF93150020D61500200C
:108C8000D5150020A2030020B81500209115002062
:108C9000CD1500209C15002037B50B4C00210B4D45
:108CA0000B4600910A462046FFF76EFA2A462046F8
:108CB00007490BF031F9074904F108002A4603B0CF
:108CC000BDE830400BF028B980150020C406002014
:108CD000195A0008118A00080023036018467047DB
:108CE000002303601846704700230360184670474E
:108CF0000A4BF7B5164601220C461A7005460BF0D2
:108D00002CFB074620460BF028FB0096034639460D
:108D100028462246FFF7E4FE03B0F0BD50020020D3
:108D200038B5034648F21004A34208464CD00DDC87
:108D300048F20102934225D048F2020293422ED01B
:108D4000992B6CD1364B01229A7338BD48F28004BE
:108D5000A3420FD0B3F5084F49D048F240008342F8
:108D60005DD12F4C04F110000BF053F9636A01330D
:108D7000636238BD2B4B01225A70294B1A700022B6
:108D80005A7038BD264C0123A370E378002B46D1DE
:108D9000FEF768FE00F5EA403030606038BD204CD8
:108DA000A3780BB1E3789BB300250123FF20A570C6
:108DB00025726572A572E572237303F045FCE72006
:108DC00003F0BEFC657338BD0A7D154B62B95A606D
:108DD0004FF47F4001221A721A7303F035FCBDE88C
:108DE0003840E72003F0ACBC00221A7238BD0021E5
:108DF00001F0CBF90121044601F00EFA0A4B1B6881
:108E00009C420CD1064B0022DA729A725A7238BD1B
:108E1000FEF728FE00F5EA4030306060C4E738BD58
:108E200090150020500200200C0000201FB54FF4C8
:108E300061504FF461610A2200238DE80F00064B58
:108E400044F620621A60684601A902AA03AB01F049
:108E5000B9FE05B05DF804FBC01600201FB5002365
:108E6000009301930293039301A8694602AA03ABFE
:108E700001F06EFE05B05DF804FB000070B5002146
:108E80000A4C0E2001F070FF102510210E2001F079
:108E90006BFF2A46204600210BF0DFF829462346C7
:108EA0000E200022BDE8704001F012BFB81500206E
:108EB000024B1A6818601046704700BFC0160020A9
:108EC0001FB5114B986303F043FF03F05FFE0F4B98
:108ED0000F4800930F4B10490193104B104A029317
:108EE000104B0393104B02F077FD642003F056FA09
:108EF000FDF7E6FF20B905B05DF804EBFFF776BE9D
:108F000005B05DF804FB00BF901500208DCC000873
:108F1000218D0008A1CC0008D98C00080DCD0008D7
:108F2000E18C000835CD0008E98C0008F0B5194D3A
:108F3000AFB00D20432100222B4601F09BFE4328B9
:108F400026D12F781449FE1C7419204602AA02F07B
:108F5000B7FA2B782B445B78102B05D904F110005D
:108F60000D4902AA02F0ACFAE37F1BB1AB5D1F2BE7
:108F700003D100E0AB5D013400E02023074839460F
:108F800010F8012C1544AA7800922246FFF7A8FD9C
:108F90002FB0F0BD24170020F06401082517002031
:108FA00070B52D4C2D4D00239EB0FF206B702370AB
:108FB0002B70A3702372A3736372A372E372237383
:108FC00003F042FBE72003F0BBFBFFF733FD10216A
:108FD0000C2001F0C9FE224802F07EFAA81C02F023
:108FE00053FF012002F034FF68461E4900F008FDDF
:108FF000FFF75EFD0646D8B194F83C3073B11A26EF
:10900000013E06D0E72003F0C9FB322003F0C6F989
:10901000F6E7FFF7DDFD84F83C60E9E7E72003F0C1
:10902000BDFBFA2003F0BAF9684600F045FDDFE722
:10903000E72003F085FB0C4B0E200121324601F0A6
:1090400019FE6B780BB1FFF771FFFFF7CFFD00231F
:1090500084F83D301EB070BD9015002050020020F5
:10906000F0640108F18C0008B81500202DE9F341E7
:109070009E4C05F023F80023236494F844304BB948
:1090800094F8453033B96368C3B1FEF7EBFC63680D
:10909000984213D394F84620944BBAB100229A70A8
:1090A0005A601A729A6483F8442083F846205A72F0
:1090B0009A72DA725A73FFF7D5FC07E094F84630DB
:1090C0008A4D1BB96B786BB3FFF790FD94F83D3078
:1090D000864D13B1FFF764FF05E06B781BB12B7A67
:1090E00003F0FF0643B32278804B012A13D11A7A8A
:1090F000012A10D19B78012B0DD103257C480BF060
:109100002CF9013D82B27A49012002F027FC15F0CA
:10911000FF05F3D12570237A744D6BB395F8453074
:10912000FBB129E0EB78002BCED1FEF79BFC00F5DC
:10913000EA4030306860C7E76E60FFF77BFC6D483F
:109140000BF00BF96C4F804638460BF006F9009790
:109150000190791F03204246334602F0A1FC6E7055
:10916000C1E795F84F307BB9642003F017F905F19A
:109170004C0001F06DFD07E094F84F3023B15F48DB
:1091800000213A220AF069FF94F88620574B32B941
:109190005A7A002A4CD19B7A002B49D1A3E01A7A43
:1091A000FAB193F84520E2B95A7A002A53D018E070
:1091B0002B4603F82B2F0E200121032201F088FDFE
:1091C00000264FF6FF70267303F03EFAE72003F007
:1091D000B7FAFEF7A9F8B042444D5CDB0123AE6458
:1091E0006B72637A414D002B7DD0AB7ABBB9FEF731
:1091F00001F8002811D002DA4FF47F0007E00128BF
:1092000001D13F4803E0022803D14FF0FF1003F0E3
:109210001BFAE72003F094FA01E00123AB72FDF79B
:109220004FFE02285FD002B0BDE8F041FDF79CBFC1
:10923000FEF76AF80023E372A3726372E378002BEF
:1092400051D14FF47F4003F0FFF9E72002B0BDE8B1
:10925000F04103F075BA5B7B002BB1D04FF47F0077
:1092600003F0F2F9637B214D03F0FF02002B9FD046
:10927000E72003F065FA4FF4FA7003F08FF8E72067
:1092800003F06CFA4FF4FA7003F088F86B7B013B43
:10929000DBB26B73E6E795F8443023BBAB6C01336C
:1092A000022BAB6404BF012385F84430FDF7FAFFBD
:1092B00000280ADAA36C0133022BA36403D10B4B01
:1092C000012283F84420022300E003236373637BBD
:1092D0000E2084F82B3001210A4B032201F0F8FC08
:1092E000002363727DE702B0BDE8F0819015002095
:1092F000550200205C02002061020020DC150020E5
:109300000060FF00BB15002013B5084C0021009140
:109310000A460B462046FEF737FF0549054A204618
:1093200002B0BDE810400AF0F7BD00BF18160020DB
:10933000195A0008C4060020704708B5012004F03F
:10934000BBF9FEE708B5032004F0B6F9FEE708B55F
:10935000042004F0B1F9FEE708B5052004F0ACF9EB
:10936000FEE770477047704708B503F06FFFBDE830
:109370000840FDF7B7BA000008B5024B0BB1AFF3D8
:10938000008008BD0000000008B5024B0BB1FFF7DC
:10939000B9FA08BD0589000808B5024B0BB1FFF703
:1093A000ABFA08BDF988000808B5024B0BB1FEF70F
:1093B0007CFE08BDAB80000808B5024B0BB1FEF780
:1093C00075FE08BDAD80000808B5024B0BB1FEF775
:1093D00093FF08BDF982000808B5012004F05AFC8B
:1093E00038B1012004F064FC024B13B10020FEF7F9
:1093F0008BFE08BD0981000808B5022004F04AFC74
:1094000038B1022004F054FC024B13B10120FEF7E6
:109410007BFE08BD0981000808B5042004F03AFC71
:1094200078B1042004F044FC0020064B014618806B
:1094300003F03CFABDE8084003481021012205F082
:109440006CB908BDE0160020002C014008B50820CA
:1094500004F020FC38B1082004F02AFC024B13B1C0
:109460000320FEF751FE08BD0981000808B5102051
:1094700004F010FC38B1102004F01AFC024B13B1B8
:109480000420FEF741FE08BD0981000808B5202030
:1094900004F000FC38B1202004F00AFC0E4B13B19C
:1094A0000520FEF731FE402004F0F4FB38B14020E7
:1094B00004F0FEFB084B13B10620FEF725FE8020CA
:1094C00004F0E8FB38B1802004F0F2FB024B13B14A
:1094D0000720FEF719FE08BD0981000808B54FF402
:1094E000005004F0D7FB40B14FF4005004F0E0FB13
:1094F000174B13B10D20FEF707FE4FF4804004F028
:10950000C9FB40B14FF4804004F0D2FB104B13B1C3
:109510000E20FEF7F9FD4FF4004004F0BBFB40B114
:109520004FF4004004F0C4FB094B13B10F20FEF7C9
:10953000EBFD4FF4006004F0ADFB38B14FF4006078
:1095400004F0B6FBBDE8084002F0A8BE08BD00BFAD
:109550000981000808B50F48102105F017F9C0B1BE
:109560000C48102105F01DF9002003F063FA28B91A
:10957000094B1A880A3292B21A8008BD0548102198
:10958000002205F0CAF8BDE808400020012103F0E0
:109590008DB908BD002C0140E016002008B5024B33
:1095A0001B6803B1984708BD2416002008B5024B7C
:1095B0005B6803B1984708BD2416002008B5024B2C
:1095C0009B6803B1984708BD2416002008B5012008
:1095D00004F0D4FE50B1012004F0E0FE044B0BB1C6
:1095E000FEF7DCFFBDE8084004F0B2BE08BD00BFD6
:1095F0009D85000808B5022004F0C0FEB0B10C4BF8
:1096000000224FF400301A7004F052FB012004F0E5
:109610007FFD10B1012004F085FD04F099FE0220C9
:1096200004F0BCFEBDE8084004F092BE08BD00BFD7
:10963000D515002002F0A8BD00F064B838B5144973
:109640000B78012B23D1134A13680BB90B7038BD6B
:10965000114C402B206881B205D94030403B20603E
:109660001360402504E09DB203442360002313608F
:109670000A482A460844C02105F0C8FD01202946B1
:1096800005F0CCFEBDE83840012005F031BE38BD04
:10969000B0060020B8060020B4060020B005002067
:1096A00008B5094B01221A70084B002203201A80CA
:1096B00005F0E2FE064B024618804FF4887105481B
:1096C000BDE8084005F0BABD64050020680500202B
:1096D000660500206A050020084B1B68052B0BD18E
:1096E000074B1A68052A02F1010101D01960704781
:1096F00000221A60FDF72CBA704700BF0C1700203B
:109700003016002070B52B4D2B4C2B682B4E9BB286
:109710002380228833881340990508D54FF6FF53DC
:109720002B60A3780133DBB2A370FFF7D5FF22884B
:10973000338813401A0401D505F0B2FC228833881F
:1097400013405B0505D54FF6FF332B601C4B5B6860
:109750009847228833881A40900444BF4DF6FF7220
:109760002A6022881340D90405D54EF6FF732B607A
:10977000002003F05FFF2288338813401A050BD5C1
:10978000104B1B7813B103F035FF02E0022003F009
:1097900051FF4FF2FF732B60228833881340DB05A3
:1097A00007D54FF6FF632B600720BDE8704003F03C
:1097B00041BF70BD445C00403416002024200020CE
:1097C000C8020020C8030020034B9B7A13B1034B4F
:1097D00005221A60704700BF002000200C170020EF
:1097E000014B04221A6070470C170020034B1A78B3
:1097F000202A04BF00221A70704700BF38160020CC
:1098000070470000212810B508D1114B1B681B7848
:1098100003F07F03212B10D0022010BD2028FBD1A4
:109820000B4B0C4A1B681B78107003F07F03212B35
:10983000094B18BF00230BB9EEE7084B044A00247C
:1098400012682046936154829847204610BD00BF9D
:109850002020002038160020AD98000895980008B8
:10986000074B1B681B7803F07F03212B06D100F008
:10987000DF0002280CBF0020022070470220704742
:109880002020002021B9022834BF00200220704788
:109890000220704720B9034B08221B681A827047C8
:1098A0000148704720200020C002002020B9034B4F
:1098B00008221B681A827047014870472020002048
:1098C000C002002010B5FDF78FF9054B00241B687E
:1098D0009C7203F077FE05F0E5FD024B1C6010BDA5
:1098E000202000200C170020334B344A1B68D2790B
:1098F00010B500245A729C72DC72204605F0B0FC50
:1099000020464FF4007105F0B3FC2046102105F00D
:10991000BDFC2046402105F055FD8021204605F084
:1099200041FD204605F00AFD254B204693F83410F2
:1099300005F082FD204605F0EEFC0120214605F0F1
:1099400097FC0120C02105F02DFD0120202105F00C
:109950009DFC0120214605F0B2FC02204FF4C061BD
:1099600005F086FC02204FF4807105F01BFD0220FB
:10997000214605F0A4FC0220202105F087FC0320ED
:10998000214605F075FC03204FF4887105F01AFD9F
:109990000320402105F050FD03204FF4405105F015
:1099A0008EFC0320214605F071FC204605F00CFBDF
:1099B000044B01221A6010BD202000205D650108C3
:1099C000C00200200C170020014905F0F9B800BFC3
:1099D000F8020020014905F0F3B800BF00030020A1
:1099E000054B1B68DB78042B04D8044901EBC30149
:1099F00005F0E6B800207047202000200803002072
:109A000038B504460D46FEF7D1FF204625614FF4D8
:109A10001651FEF7D5FF204638BD70B506460D46F7
:109A2000002428460AF099FC844208D2295D304679
:109A3000FEF7B6FF012002F0B1FC0134F1E770BD82
:109A40002DE9F04104460E46904600252046FEF7DB
:109A5000A3FF0028FADD2046FEF79CFF4545C1B272
:109A600006D10023337020461249FFF7D6FF15E0D8
:109A70000D29F6D00A29F4D0082901D07F2904D174
:109A8000002DE3D0771E013D02E0771C31700135D7
:109A90002046EDB2FEF784FF3E46D7E72046FEF7AC
:109AA0007BFF002803DD2046FEF774FFF6E7BDE8E4
:109AB000F08100BF37910108F0B585B00446FEF78C
:109AC0006BFF002840F39B802046FEF763FFC0B287
:109AD000772867D104F1140600212122304604F1D1
:109AE00035050AF0BAFA4122002128460AF0B5FAF3
:109AF00004F17607002384F87630204641497B70D4
:109B0000FFF78BFF204631462022FFF799FF2046C2
:109B10003D49FFF782FF012220463946FFF790FFBB
:109B200094F87630A3F13002032AF0D8312B0BD110
:109B300020463649FFF771FF20463549FFF76DFF94
:109B400020463449FFF769FF94F87620B2F13007D8
:109B500008D020463049FFF760FF204629464022C2
:109B6000FFF76EFF20462D49FFF757FF23693A465E
:109B700030462946984720462949FFF74EFF2046A0
:109B80002849FFF74AFF20462749FFF746FF2046AE
:109B90002649FFF742FF20462549FFF73EFF2046B2
:109BA000244927E069282AD1234B01AD93E8070017
:109BB00085E8070020462149FFF72FFF0026AF5D0B
:109BC00020463B0903F13001392988BF03F15701D1
:109BD00007F00F07FEF7E4FE07F13001392988BFCF
:109BE00007F1570120460136FEF7DAFE0C2EE6D1CA
:109BF0001349204605B0BDE8F040FFF70EBF05B0A1
:109C0000F0BD00BF8B8F0108928F0108BF8F010844
:109C1000F58F0108209001086690010871900108F5
:109C2000B4900108D4900108079101083A91010805
:109C300079910108AA910108E8F7FF1FC091010876
:109C40003791010813B5084C002100910A460B46D4
:109C50002046FEF799FA0549054A204602B0BDE8BC
:109C600010400AF059B900BF3C160020195A0008EC
:109C7000C406002038B5054600680C46036801F0AC
:109C80007F019B6898472868C4F3C61103689B68E6
:109C9000984738BD08B50068F02103689B6898476D
:109CA00008BD08B50068F72103689B68984708BDA0
:109CB00010B504460068F92103689B68984720683E
:109CC000022103689B6898472068042103689B6809
:109CD000984710BD38B5037904461BB3FFF7DAFF88
:109CE00020687921036802259B6898472068A3684B
:109CF00002681978926890472068A36802685978CA
:109D0000926890472379AB4207D9A3682046595DF2
:109D10000135FFF7AFFFEDB2F4E72046BDE838406C
:109D2000FFF7BFBF38BD00002DE9F0410C460546E6
:109D30000846184990461F460AF05FFB2F21064649
:109D400020460AF047FB20B920465C210AF042FB7E
:109D500000B1441C2EB920460AF0FFFA02302871E7
:109D600002E0361B02362E71A8680AF02DF92E7912
:109D700030460AF021F90023A860835580F800805E
:109D800047702A7921460230023ABDE8F0410AF0D4
:109D900002BB00BFCC8E010808B5006803681B69D0
:109DA000984708BDF8B5C37B0246712B05D0792BC7
:109DB00024D1BDE8F840FFF78DBFC46E34B3006D09
:109DC0000223013890FBF3F0C0B211460023DDB24C
:109DD000854201F1020108D28E7BD518EE73CF7B4C
:109DE000013306EBC716EE73F1E71318997B09B13F
:109DF0000021D97302F10F00A047F8BD046F2CB108
:109E0000016D103201391846C9B2A047F8BD38B506
:109E10000446006801F00F01036815469B6841F095
:109E2000E001984720462946BDE83840FFF722BFA9
:109E300038B50446006801F00F01036841F0900155
:109E40009B6815469847206805F07F0103689B686A
:109E500098472068C5F3C71103689B68984738BDC9
:109E6000F8B505460C4616461F46FFF713FF28684F
:109E70002146036800249B689847E3B2B342284612
:109E800004D2395DFFF7F6FE0134F6E7BDE8F8408D
:109E9000FFF707BF70B50546104614460E460AF098
:109EA0005CFA3146C2B223462846BDE87040FFF74F
:109EB000D7BF0A467121FFF7EDBF08B500680368F8
:109EC0009B68984708BDD02910D004D8902909D0A4
:109ED000C02909D07047E02902D0F42908D0704782
:109EE0004265704782657047C26570470266704779
:109EF00042667047FF2908BF826670470267704755
:109F000008B50023037343738373C1180133002220
:109F1000402BCA73F9D1836E80F84F20026503B1DC
:109F2000984708BD10B50023044603718360FFF70E
:109F3000E7FF204610BD000010B504460068036826
:109F40005B69984794F84F3073B1F72807D1002325
:109F500084F84F302046BDE81040FFF723BF236D43
:109F6000E218D073013358E0237B002B2FD07F28D9
:109F70002DDC013BDBB2E2182373D073002B58D1E8
:109F8000637B002B55D0D02B19D005D8902B0AD04D
:109F9000C02B19D1E36D13E0E02B02D0F42B0AD0D3
:109FA00012E0636D00E0A36D73B1E17B227CA07BC6
:109FB00002EBC11107E0636E33B1207C02E0236E37
:109FC00013B1A07BE17B98470023637310BDEF289A
:109FD00004DC00F00F03A37300F0F000E02812D0BF
:109FE00006DCC02811D0D0280FD0902821D10AE05B
:109FF000F42808D002DCF0280BD010BDF92813D0CB
:10A00000FF280CD010BD022300E0012323736073EE
:10A0100010BD012384F84F300023236510BD204676
:10A02000BDE81040FFF76CBF0248BDE81040FFF7E5
:10A030003FBE10BD44160020F8B507200D46012193
:10A0400016461F46FDF732FA0024E3B2AB4204F194
:10A0500001040EDA3846FDF707FD01210720FDF760
:10A06000ABFA3046FDF700FD07200021FDF7A4FA0A
:10A07000EBE7F8BD10B5012104460720FDF716FAFD
:10A08000204602212822D223FFF7D6FFFA20FDF72F
:10A09000EBFC204604212822D223FFF7CDFFBDE8A8
:10A0A00010407D20FDF7E0BC38B5084D0446284639
:10A0B000FEF786FC20462560FFF7DCFF2046FFF711
:10A0C000F7FD2046BDE83840FFF704BE70150020BC
:10A0D00037B50A4C002104F174050B4600910A467D
:10A0E0002846FEF751F828460549064A09F014FFAC
:10A0F000204603B0BDE83040FFF714BF44160020EF
:10A10000195A0008C4060020002100F004B80E4BC4
:10A110005B58435004310D480D4B42189A42FFF4EE
:10A12000F6AF0C4A00F003B8002342F8043B0A4B98
:10A130009A42FFF4F9AF03F0CBF9FCF70FFBFCF701
:10A140008FFDFCF759FB70470895010800000020BF
:10A15000940400209404002030200020FFF7FEBF6C
:10A160000B0A017043700B0C090E8370C170043030
:10A1700070470170090A41700230704743185A78DD
:10A18000435C03EB022080B2704710B543189A7805
:10A19000DC78415C120402EB046258780A4402EB5A
:10A1A000002010BD73B544790023022C01930FD019
:10A1B000032C19D0012C2BD1164D2B692E4623B11F
:10A1C0002B6901A898470246B8B9B16801201BE085
:10A1D000104DEB682E4623B1EB6801A89847024664
:10A1E00058B9B16802200FE00A4D6B692E464BB199
:10A1F0006B6901A89847024620B1A9682046BDF8BE
:10A20000043003E0B16803200022134600F03CFC58
:10A2100002B070BD68170020072870B518D8012952
:10A2200016D80125854001FA00F0ED43094B1A6864
:10A23000BFF35F8F05EA0204044353E8001F914215
:10A2400003D143E80046002EF7D1BFF35F8FEDD175
:10A2500070BD00BF5003002070B5012186B00546D7
:10A26000FFF78CFF430404463BD5B0F5824F38D14D
:10A2700028460521FFF782FF05EB8000EE1D002434
:10A28000C51DAE4206D030460221FFF777FF0436E7
:10A290000444F6E77B4BBFF35F8FD3E85F0F2044A6
:10A2A000C3E8510F0029F8D1BFF35F8F03F10C020F
:10A2B000BFF35F8F52E8000F204442E800010029FD
:10A2C000F8D1BFF35F8F303BD96B9A6B914240F06E
:10A2D000CA8093F84020002A00F0C5809B6999202D
:10A2E00031E024F4FF4020F07F0080B2002800F02D
:10A2F000978048F210039C4228D00CD8B4F5004F48
:10A3000040F2BC8048F202039C4215D948F2040393
:10A310009C4211D0B2E048F280039C420CD004D899
:10A3200048F240039C424FD0A8E0B4F5024F03D05E
:10A33000B4F5084F6BD0A1E0534B9A69002A00F0A6
:10A3400092809B69204600210A4667E00023EA18B4
:10A3500052790DF803200133042BF8D16B7A05F103
:10A360000D008DF80430AB7A8DF80530EB7A8DF85E
:10A3700006302B7B8DF80730002300AA1A44C15CFD
:10A380000133042B1172F8D105F11100002300AA4A
:10A390001A44C15C0133042B1173F8D105F1150087
:10A3A000002300AA1A44C15C0133042B1174F8D1B4
:10A3B0002B798DF81430344B9A69002A53D09B695D
:10A3C00020466946152229E0053500212846FFF779
:10A3D000DCFE042100902846FFF7D7FE08210190FB
:10A3E0002846FFF7D2FE0C2102902846FFF7CDFE4B
:10A3F000102103902846FFF7C8FE234B04909A696A
:10A40000002A30D09B6920466946142206E01E4B84
:10A410009A6942B39B692046691D0122984722E050
:10A4200041F203039C4205D0A4F580530E3B9BB23E
:10A43000012B1AD86C1D20460421FFF7A6FE3930E7
:10A440001CD12A79104B00212046DA62FFF79DFECD
:10A45000042105462046FFF798FE393003D12846EF
:10A460000121FFF7D9FE012009E0074B1B889BB2B1
:10A470009C4204D0B4F5805FF5D100E0002006B026
:10A4800070BD00BF981700206817002070B50E4CF3
:10A490006688B6B2B6B1606805782B1F5D425D4133
:10A4A0002DB1FFF7D9FE003018BF012000E028468B
:10A4B000064618B935B194F841301BB900236380C2
:10A4C00001F090FD304670BD681700202DE9F04F77
:10A4D00085B004468A46914602F0C0FE00250190F0
:10A4E000DFF80883B8F8023046469BB2002B40F0F4
:10A4F000938003F0E3FD02F0B1FE0290029A019B0B
:10A50000D31A0393039B002B03DA019B029A134493
:10A510000393B54B1B68002BE2D0039A9A42DFD31A
:10A52000338841F207029BB2934227D841F20602D8
:10A53000934261D240F2022293425DD00FD80C2B9D
:10A5400008D8082B58D2002B4FD0062B88BF0023E9
:10A550005AD851E00D2B4CD040F201220BE041F2D1
:10A56000020293424BD8B3F5805F45D8B3F5017F23
:10A570003FD940F20722934237D13AE041F211022B
:10A58000934236D014D841F20B02934234D005D80E
:10A5900041F2090293422FD031D82AE041F20F0252
:10A5A00093422CD028D841F20D02934227D01CE0D0
:10A5B00042F2060293421CD007D8B3F5005F14D9CB
:10A5C00042F20402934221D813E0B3F5804F00F029
:10A5D000F28105D8A3F50053083B012B09D904E00B
:10A5E00044F20B02934200F0E6810B2003F064F882
:10A5F000E1E1FF232370DEE14FF0FF3304E04FF091
:10A60000FF3323606360D6E12360D4E1204600215C
:10A610003A2209F022FDCEE1D8F804603378042B09
:10A6200040F07D8101213046FFF7A8FD0546304608
:10A63000FFF712FE0146002840F0668141F2070351
:10A640009D4206F1050752D841F206039D4280F073
:10A65000AC8040F202239D4200F0A78011D80C2D5F
:10A6600009D8082D80F0A180002D00F04D81062D25
:10A6700000F2E88099E00D2D00F0948040F2012373
:10A680007EE041F202039D4218D8B5F5805F00F2EA
:10A690008C80B5F5017F40F2858040F207239D4212
:10A6A00040F032813379384604F8013B0021FFF74E
:10A6B0006CFD01462046FFF753FD25E141F20403FE
:10A6C0009D4200F0958040F2AB8000213846FFF7B4
:10A6D0005CFD042120603846FFF757FD083444F83C
:10A6E000040C06F10D03224606F11D0175E041F24E
:10A6F00011039D4256D02BD841F20B039D4254D0FA
:10A700001CD841F209039D424FD000F296800021EF
:10A710003846FFF73AFD042120603846FFF735FD43
:10A72000082160603846FFF730FD0C21A0603846F4
:10A73000FFF72BFD04F10C0BE060E4E041F20F03A6
:10A740009D426DD037D841F20D039D4250D0DBE0E1
:10A7500042F205039D4200F0998007D841F21203AE
:10A760009D4235D0B5F5005F1CD8CDE042F209031B
:10A770009D4208D842F208039D4213D242F20603DA
:10A780009D420FD0C0E044F20B039D4240F0BC80DC
:10A79000737938460121A8F83030FFF7EFFCA8F8AC
:10A7A0003200B1E033792370AEE038460021FFF784
:10A7B000ECFC2060A8E000213846FFF7E6FCA34649
:10A7C0004BF8040B04213846FFF7DFFC60609AE089
:10A7D0003846FFF7D3FC208096E053F8040B8B42F9
:10A7E00042F8040BF9D18FE0C01600206817002052
:10A7F00000213846FFF7C9FC042120603846FFF7E6
:10A80000C4FC082160603846FFF7BFFCE36804F130
:10A81000080B3933A06076D10121FFF7FDFC72E00F
:10A8200000213846FFF7B1FC042120603846FFF7CD
:10A83000ACFC083444F8040C66E0337923713B68BF
:10A84000236061E000213846FFF79FFC042120606F
:10A850003846FFF79AFC082160603846FFF78EFC07
:10A860000A21A0603846FFF789FC0C3444F8020C3A
:10A8700006F11103224606F1350153F8040B8B4211
:10A8800042F8040BF9D11B8813803DE073185B7903
:10A89000635401310429F9D106F109000023C15C98
:10A8A000E2180133042B1171F9D106F10D000023D8
:10A8B000C15CE2180133042B1172F9D106F11100C9
:10A8C0000023C15CE2180133042B1173F9D106F1A6
:10A8D00015000023C15CE2180133042B1174F9D177
:10A8E00006F119000023C15CE2180133062B117533
:10A8F000F9D106F11F000023C15CE2180133202BBF
:10A900009176F9D100E05C46B8F800202C4B92B269
:10A91000954236D100221A8083F8412031E0B8F800
:10A9200036309BB26BB33046032196F802B0FFF786
:10A9300025FC0746BAF1000F0BD00421701DFFF76C
:10A9400024FC06F115010246C9F80000504609F042
:10A9500060FBCBEB07077B1EB3F5806F07D20BF1D3
:10A960000501204631443A4609F053FB01E04FF01F
:10A97000FF37B9F1000F01D0C9F800700023A8F823
:10A9800036300023A8F8023001F02CFB3378042B7A
:10A9900005D1B5F5805F02D13046FFF703FCB8F86A
:10A9A00000309BB2002B7FF49BAD054BDB8E9BB23E
:10A9B000002B7FF495AD002005B0BDE8F08F00BFFF
:10A9C0006817002007284FF0010308D803FA00F0A9
:10A9D000044A126810420CBF00200120704718463C
:10A9E000704700BF50030020034B18800846002129
:10A9F0000A46FFF76BBD00BF6817002010B5034B78
:10AA00000124DC86BDE81040FFF760BD6817002018
:10AA100038B50346154601224A710C46881D194671
:10AA2000FFF7A7FB291D0570204601F045FB00201C
:10AA300038BD38B5BDF814500C462B44D518ADB20E
:10AA400002216171A071E271294604F10800FFF74B
:10AA500090FB691D204689B201F02EFB002038BD15
:10AA600038B513440C469DB202216171A07129468C
:10AA7000E27104F10800FFF77CFB691D204689B2F2
:10AA8000BDE8384001F018BB2DE9F84F1C4604F131
:10AA9000020B032301F107091FFA8BFB88710D4696
:10AAA0004B71484659461646FFF763FBB4F57A7F6B
:10AAB000824605F10B0812D82146FFF75AFB2146C2
:10AAC0005046FFF756FB31464046224609F0A1FAB0
:10AAD000A11D284689B2BDE8F84F01F0EDBA4FF448
