:020000040800F2
:1050000000500020F5A00008299300082B93000809
:10501000359300083F930008499300080000000002
:105020000000000000000000000000005393000892
:10503000559300080000000057930008599300089A
:1050400049A1000849A1000849A10008BD95000830
:1050500049A1000849A10008C9930008E993000884
:10506000099400083D9400085D94000849A10008D7
:1050700049A1000849A1000849A100082596000897
:1050800049A1000849A100086993000849A1000846
:105090002996000849A1000849A100087D9400084C
:1050A00049A1000849A1000849A100084595000848
:1050B0008D9500089D950008AD950008999300080E
:1050C000A993000849A1000849A10008B993000864
:1050D00049A10008799300088993000849A10008B4
:1050E000CD940008E595000849A1000800000000E3
:1050F00000000000000000000000000000000000B0
:0C51000000000000000000005FF808F153
:1051100010F8012B11F8013B012A28BF9A42F7D061
:10512000D01A704781F0004102E000BF83F00043D5
:1051300030B54FEA41044FEA430594EA050F08BF32
:1051400090EA020F1FBF54EA000C55EA020C7FEAF6
:10515000645C7FEA655C00F0E2804FEA5454D4EB73
:105160005555B8BF6D420CDD2C4480EA020281EA3D
:10517000030382EA000083EA010180EA020281EA75
:105180000303362D88BF30BD11F0004F4FEA0131C7
:105190004FF4801C4CEA113102D0404261EB4101D6
:1051A00013F0004F4FEA03334CEA133302D052425C
:1051B00063EB430394EA050F00F0A780A4F1010418
:1051C000D5F1200E0DDB02FA0EFC22FA05F2801852
:1051D00041F1000103FA0EF2801843FA05F3594138
:1051E0000EE0A5F120050EF1200E012A03FA0EFCB7
:1051F00028BF4CF0020C43FA05F3C01851EBE371E1
:1052000001F0004507D54FF0000EDCF1000C7EEBFD
:1052100000006EEB0101B1F5801F1BD3B1F5001F3B
:105220000CD349085FEA30004FEA3C0C04F101045A
:105230004FEA445212F5800F80F09A80BCF1004F83
:1052400008BF5FEA500C50F1000041EB045141EA05
:10525000050130BD5FEA4C0C404141EB010111F406
:10526000801FA4F10104E9D191F0000F04BF0146B1
:105270000020B1FA81F308BF2033A3F10B03B3F18F
:1052800020020CDA0C3208DD02F1140CC2F10C021F
:1052900001FA0CF021FA02F10CE002F11402D8BF7D
:1052A000C2F1200C01FA02F120FA0CFCDCBF41EA49
:1052B0000C019040E41AA2BF01EB0451294330BD18
:1052C0006FEA04041F3C1CDA0C340EDC04F11404F5
:1052D000C4F1200220FA04F001FA02F340EA0300CC
:1052E00021FA04F345EA030130BDC4F10C04C4F112
:1052F000200220FA02F001FA04F340EA03002946F2
:1053000030BD21FA04F0294630BD94F0000F83F43B
:10531000801306BF81F480110134013D4EE77FEA1E
:10532000645C18BF7FEA655C29D094EA050F08BF6A
:1053300090EA020F05D054EA000C04BF194610464B
:1053400030BD91EA030F1EBF0021002030BD5FEA8F
:10535000545C05D14000494128BF41F0004130BDB7
:1053600014F580043CBF01F5801130BD01F000450B
:1053700045F0FE4141F470014FF0000030BD7FEA7E
:10538000645C1ABF194610467FEA655C1CBF0B4679
:10539000024650EA013406BF52EA033591EA030F90
:1053A00041F4002130BD00BF90F0000F04BF002188
:1053B000704730B54FF4806404F132044FF00005BB
:1053C0004FF0000150E700BF90F0000F04BF002134
:1053D000704730B54FF4806404F1320410F000459A
:1053E00048BF40424FF000013EE700BF42004FEA95
:1053F000E2014FEA31014FEA02701FBF12F07F4312
:1054000093F07F4F81F06051704792F0000F14BF0E
:1054100093F07F4F704730B54FF4607401F0004552
:1054200021F0004120E700BF50EA010208BF7047A9
:1054300030B54FF000050AE050EA010208BF70479E
:1054400030B511F0004502D5404261EB41014FF407
:10545000806404F132045FEA915C3FF4DCAE4FF00B
:1054600003025FEADC0C18BF03325FEADC0C18BFF2
:10547000033202EBDC02C2F1200300FA03FC20FA43
:1054800002F001FA03FE40EA0E0021FA02F1144490
:10549000C1E600BF70B54FF0FF0C4CF4E06C1CEAA5
:1054A00011541DBF1CEA135594EA0C0F95EA0C0F1A
:1054B00000F0DEF82C4481EA030621EA4C5123EA8D
:1054C0004C5350EA013518BF52EA033541F48011BC
:1054D00043F4801338D0A0FB02CE4FF00005E1FB6F
:1054E00002E506F00042E0FB03E54FF00006E1FBB9
:1054F00003569CF0000F18BF4EF0010EA4F1FF04FC
:10550000B6F5007F64F5407404D25FEA4E0E6D413B
:1055100046EB060642EAC62141EA55514FEAC5204C
:1055200040EA5E504FEACE2EB4F1FD0C88BFBCF5C8
:10553000E06F1ED8BEF1004F08BF5FEA500E50F179
:10554000000041EB045170BD06F0004646EA01013F
:1055500040EA020081EA0301B4EB5C04C2BFD4EB71
:105560000C0541EA045170BD41F480114FF0000E6A
:10557000013C00F3AB8014F1360FDEBF002001F0D8
:10558000004170BDC4F10004203C35DA0C341BDC52
:1055900004F11404C4F1200500FA05F320FA04F024
:1055A00001FA05F240EA020001F0004221F0004158
:1055B00010EBD37021FA04F642EB06015EEA430ECB
:1055C00008BF20EAD37070BDC4F10C04C4F12005FB
:1055D00000FA04F320FA05F001FA04F240EA0200AE
:1055E00001F0004110EBD37041F100015EEA430E7F
:1055F00008BF20EAD37070BDC4F1200500FA05F29F
:105600004EEA020E20FA04F301FA05F243EA02031D
:1056100021FA04F001F0004121FA04F220EA02002C
:1056200000EBD3705EEA430E08BF20EAD37070BD72
:1056300094F0000F0FD101F00046400041EB010152
:1056400011F4801F08BF013CF7D041EA060195F034
:10565000000F18BF704703F00046520043EB0303EE
:1056600013F4801F08BF013DF7D043EA06037047DB
:1056700094EA0C0F0CEA135518BF95EA0C0F0CD0E6
:1056800050EA410618BF52EA4306D1D181EA03012C
:1056900001F000414FF0000070BD50EA410606BF26
:1056A0001046194652EA430619D094EA0C0F02D16B
:1056B00050EA013613D195EA0C0F05D152EA0336B0
:1056C0001CBF104619460AD181EA030101F00041CE
:1056D00041F0FE4141F470014FF0000070BD41F017
:1056E000FE4141F4780170BD70B54FF0FF0C4CF4F1
:1056F000E06C1CEA11541DBF1CEA135594EA0C0F10
:1057000095EA0C0F00F0A7F8A4EB050481EA030E5C
:1057100052EA03354FEA013100F088804FEA033343
:105720004FF0805545EA131343EA12634FEA022211
:1057300045EA111545EA10654FEA00260EF00041D2
:105740009D4208BF964244F1FD0404F5407402D224
:105750005B084FEA3202B61A65EB03055B084FEAB5
:1057600032024FF480104FF4002CB6EB020E75EBB2
:10577000030E22BFB61A754640EA0C005B084FEADA
:105780003202B6EB020E75EB030E22BFB61A754657
:1057900040EA5C005B084FEA3202B6EB020E75EBA2
:1057A000030E22BFB61A754640EA9C005B084FEA1A
:1057B0003202B6EB020E75EB030E22BFB61A754627
:1057C00040EADC0055EA060E18D04FEA051545EA16
:1057D00016754FEA06164FEAC30343EA52734FEABF
:1057E000C2025FEA1C1CC0D111F4801F0BD141EA38
:1057F00000014FF000004FF0004CB6E711F4801F9D
:1058000004BF01430020B4F1FD0C88BFBCF5E06F7C
:105810003FF6AFAEB5EB030C04BFB6EB020C5FEA8C
:10582000500C50F1000041EB045170BD0EF0004EE1
:105830004EEA113114EB5C04C2BFD4EB0C0541EA13
:10584000045170BD41F480114FF0000E013C90E610
:1058500045EA060E8DE60CEA135594EA0C0F08BFD4
:1058600095EA0C0F3FF43BAF94EA0C0F0AD150EAD3
:1058700001347FF434AF95EA0C0F7FF425AF104666
:1058800019462CE795EA0C0F06D152EA03353FF48E
:10589000FDAE1046194622E750EA410618BF52EA0B
:1058A00043067FF4C5AE50EA41047FF40DAF52EADF
:1058B00043057FF4EBAE12E74FF0FF3C06E000BF7C
:1058C0004FF0010C02E000BF4FF0010C4DF804CD89
:1058D0004FEA410C7FEA6C5C4FEA430C18BF7FEA49
:1058E0006C5C1BD001B050EA410C0CBF52EA430C77
:1058F00091EA030F02BF90EA020F0020704710F1F7
:10590000000F91EA030F58BF994208BF90422CBF85
:10591000D8176FEAE37040F0010070474FEA410C7E
:105920007FEA6C5C02D150EA013C07D14FEA430C9C
:105930007FEA6C5CD6D152EA033CD3D05DF8040B0D
:10594000704700BF8446104662468C46194663463F
:1059500000E000BF01B5FFF7B7FF002848BF10F116
:10596000000F01BD4DF808EDFFF7F4FF0CBF01205B
:1059700000205DF808FB00BF4DF808EDFFF7EAFFD7
:1059800034BF012000205DF808FB00BF4DF808ED92
:10599000FFF7E0FF94BF012000205DF808FB00BF87
:1059A0004DF808EDFFF7CEFF94BF012000205DF811
:1059B00008FB00BF4DF808EDFFF7C4FF34BF01201E
:1059C00000205DF808FB00BF4FEA410212F500120B
:1059D00015D211D56FF47873B3EB625212D94FEA36
:1059E000C12343F0004343EA505311F0004F23FA20
:1059F00002F018BF404270474FF00000704750EA75
:105A0000013005D111F0004008BF6FF00040704731
:105A10004FF00000704700BF014B0360704700BFAC
:105A20006864010802289CBF014B1954704700BFED
:105A30009404002010B5034B0446036001F024F9E0
:105A4000204610BD68640108F0B5012185B0054607
:105A500002F038FDA0F13006072E044625D816497D
:105A6000684602F0B5FC2846694602F019FD074673
:105A7000684602F06BFC0FB1B4B20EE00F49684605
:105A800002F0A6FC2846694602F00AFD0546684673
:105A900002F05CFC65B1263CA4B22046032101F073
:105AA000FDFC204601F0C0FD04E04FF0FF3001E0B6
:105AB0006FF0010005B0F0BD5C8E01085E8E01083C
:105AC000F0B5012185B0044602F0FCFCA0F13006DF
:105AD000072E45D8684621460322072302F0F4FC2E
:105AE0006846244902F0B2FC0546684602F02EFCE6
:105AF0007DB9684621460322062302F0E5FC68468C
:105B00001D4902F0A3FC0746684602F01FFC0FB9CE
:105B100029E001251949684602F05AFC20466946E9
:105B200002F0BEFC0746684602F010FC6FB914494B
:105B3000684602F04DFC2046694602F0B1FC04467E
:105B4000684602F003FC8CB10A36B6B23046012139
:105B500001F0A4FC3046294601F026FD012007E0B3
:105B60004FF0FF3004E06FF0010001E06FF0020041
:105B700005B0F0BD608E0108658E01085C8E0108DD
:105B80005E8E0108F0B5012185B0064602F09AFC50
:105B9000A0F13007072F05462AD81949684602F0B8
:105BA00017FC3046694602F07BFC0446684602F06A
:105BB000CDFB34B1BCB22046002101F06FFC204681
:105BC00013E01049684602F003FC3046694602F0D3
:105BD00067FC0646684602F0B9FB66B1263DADB2E9
:105BE0002846214601F05AFC284601F0DFFD04E07A
:105BF0004FF0FF3001E06FF0010005B0F0BD00BFD5
:105C00005C8E01085E8E0108F0B5012189B0044662
:105C100002F058FCA0F13006072E05463ED80322BC
:105C20006846214602F076FC1F4904A802F0D0FB2A
:105C3000204604A902F034FC074604A802F086FBC3
:105C400057B1B6B20121304601F028FC684602F097
:105C500068FCC1B2304617E0144904A802F0B8FB52
:105C6000204604A902F01CFC044604A802F06EFBC6
:105C700074B1263DADB20121284601F00FFC684603
:105C800002F04FFCC1B2284601F028FE012401E0D9
:105C90006FF00104684602F059FB01E04FF0FF3459
:105CA000204609B0F0BD00BF5C8E01085E8E010881
:105CB0000228F8B55FD8461CF600C500F6B2EDB272
:105CC000152E28BF15262B4600240122B34217D2D9
:105CD000A3F1080001280ED9142B0CD02648C718B0
:105CE000FF78012F07D80A4200EB83000CBF002782
:105CF00001271443876152000133D2B2DBB2E5E7DA
:105D0000CEB2E10704D5284606F0010101F04CFCB3
:105D1000A20704D5681C06F0020101F045FC6307E8
:105D200004D5A81C06F0040101F03EFC270704D5A9
:105D3000E81C06F0080101F037FCE00604D5281D38
:105D400006F0100101F030FCA10604D5681D06F034
:105D5000200101F029FC620604D5A81D06F04001CF
:105D600001F022FC230606D5E81D06F08001BDE8FF
:105D7000F84001F019BCF8BD9404002007280BD8A6
:105D80000122064B02FA00F019B9D96E21EA00018E
:105D900001E0D96E0143D966704700BF940400202A
:105DA000142870B504460D461BD80E4B1A18D2782D
:105DB0001E46032A04D0042A13D103EB80040FE00B
:105DC000012807D9A0F10A03012B03D9A0F10E0382
:105DD000032B03D82046E9B201F080FD06EB8404D2
:105DE000A56170BD9404002070B5054609484319AB
:105DF00093F8704006460C401AB993F87330A342EA
:105E000007D0294604482246354404F007F885F8AF
:105E1000734070BD940400204416002070B56D4E90
:105E20003378002B45D096F87050E90740F19E80FA
:105E3000002001F0F9FB002800F098800124AA0757
:105E400005D5012001F0F0FB002840F091806B07A0
:105E500005D5022001F0E8FB002840F08C802807DF
:105E600005D5032001F0E0FB002840F08780E9061B
:105E700005D5042001F0D8FB002840F08280AA0656
:105E800004D5052001F0D0FB00287DD16B0604D598
:105E9000062001F0C9FB002879D12D0604D5072082
:105EA00001F0C2FB002875D1002021460246FFF711
:105EB0009BFF7378002B32D0464B93F871506C07E0
:105EC0006BD50A2001F0B0FB002866D00424280717
:105ED00004D50B2001F0A8FB002860D1E90604D509
:105EE0000C2001F0A1FB00285CD1AA0604D50D20EE
:105EF00001F09AFB002858D16B0604D50E2001F062
:105F000093FB002854D12D0604D50F2001F08CFB03
:105F1000002850D1012021460022FFF765FFB37809
:105F2000002B56D02B4B93F87250E80746D5102023
:105F300001F07AFB002841D00124A90703D51120E4
:105F400001F072FBE0BB6A0703D5122001F06CFB85
:105F5000C8BB2B0703D5132001F066FBB0BB21465D
:105F600002200022BDE87040FFF73EBF002466E734
:105F700044F002046BE744F0040470E744F00804C2
:105F800075E744F010047AE744F020047EE744F01B
:105F9000400482E744F0800486E7002497E744F059
:105FA00008049BE744F010049FE744F02004A3E7B3
:105FB00044F04004A7E744F08004ABE70024BCE7CA
:105FC00044F00204BFE744F00404C2E744F00804CC
:105FD000C5E770BD94040020034B002283F87620AF
:105FE000024BFF221A70704794040020000000202A
:105FF000F8B5484D04462B18DB780E46062B06D123
:1060000095F876301BB1062901D0FFF7E5FFA4F122
:106010000A07FFB2072F06D8B31E59423846594126
:10602000FFF7ACFE01E0142C15D8A4F10803012BF6
:1060300011D9142C0FD0E308012104F007022B44DE
:1060400001FA02F293F870100EB90A4301E021EA56
:10605000020283F8702005EB840300229A61062E69
:1060600051D8DFE806F01124043756504A00072FB4
:106070004FD82046002101F011FA2046002101F0FE
:1060800093FA2C4402233CE0142C42D8A4F10803D8
:10609000012B3ED9142C3CD02046002101F0FEF902
:1060A0002046002101F080FA2C44002329E0142C22
:1060B0002FD8A4F10803012B2BD9142C29D020466A
:1060C000002101F071FA2046012101F0E7F92C448A
:1060D000012316E0012C05D9012F03D9A4F10E03E9
:1060E000032B16D82046012101F0D8F920460021C3
:1060F00001F0F4FB2C44032303E0012C09D82C44C9
:106100000623E370F8BD04480449BDE8F84003F0F5
:10611000C6BEF8BD9404002044160020698E010814
:1061200010B50024E0B2012802D80621FFF760FF75
:106130000134152CF6D1044B01220448BDE810406F
:1061400083F8762001F078BE94040020AC13002080
:1061500038B5134C94F876300BB1FFF73DFF0023B0
:10616000237084F8703084F87330637084F8713071
:1061700084F87430A37084F8723084F875301D464A
:10618000E8B2A0F10A03072B94BF022101210135D7
:10619000FFF72EFF152DF3D10023E36638BD00BFB6
:1061A0009404002010B52148214900F087FE2148C1
:1061B0002149224C00F082FE2148224900F07EFE57
:1061C0002148224900F07AFE03232046204902227A
:1061D00003F0A2FD2046E0211E4A03F06AFE20469D
:1061E00090211D4A03F065FE2046C0211B4A03F0A2
:1061F00060FE2046D0211A4A03F05BFE2046F421BF
:10620000184A03F056FE2046F021174A03F06CFEB0
:106210002046FF21154A03F063FE20464FF46141FA
:1062200003F038FFBDE81040FFF792BF7A8E0108F7
:10623000495A0008868E0108C15A000844160020F9
:10624000938E0108855B00089E8E0108095C00089A
:10625000AA8E0108A15D0008B15C00087D5D000800
:10626000255A0008F15F00085963000851610008D1
:1062700073B50C4D002405F17806214622462346CD
:106280000094304601F078FF30460749074A0DF088
:1062900039FE05F18000214602B0BDE8704000F0F3
:1062A000E1BD00BF94040020195A0008C406002074
:1062B0004B1C70B506460D46144611D02048314699
:1062C00001F076FEE9B21E4801F090FD1C4801F095
:1062D000E1FE1C4BD3F8840018B101F003FC00E090
:1062E000002531462246164801F05EFE144801F0B2
:1062F00031FD84420FD1134B83F8895083F88860B5
:106300000025A54212DA0E4801F02CFD0E4B2B445D
:1063100098700135F5E70A4801F01CFD8442C8BFBA
:106320000A490B48D8BF0B4903F0B9FDA21C084825
:106330007721D2B2044BBDE8704003F087BD00BFA7
:10634000AC130020940400201C050020C18E01081D
:1063500044160020E98E01086938F8B50D46144648
:10636000112800F28081DFE810F069017E01DF0072
:106370007E0135017E01CC007E017E017E017E0121
:106380007E017E0112007E01AE007E01BF005278C8
:1063900002F0180302F0200202F0FF0012B1B2482E
:1063A000B24942E0082B217821D001D82BB1F8BDA9
:1063B000102B33D0182B53D0F8BDAD4801F0F8FDA9
:1063C0000226AE420BD2A3195978A35DA84803EB6D
:1063D000C111C9B2023601F009FDF6B2F1E7A448D5
:1063E00001F058FEBDE8F840462001F07BBB062DC9
:1063F000E278A37808D103EBC2136079227902EB2B
:10640000C0120846D9B204E0084603EBC2124FF0AE
:10641000FF31D2B2BDE8F840FFF74ABF954B1A787A
:1064200050B2062805DD90489349BDE8F84003F0D6
:1064300036BD0132D2B21A70904B52B202EB420218
:106440001A4482F8A810E17802F1A803A27802EBBE
:10645000C1125A706179227902EBC1129A70F8BDAB
:10646000844B1C781E4662B2002A0ADCFF221A7096
:10647000F8BD824F03EB43053D4485F8A810013079
:10648000E1B9C3B29A42F4DA002317E0072B03F113
:10649000010112D8794D01EB4100284490F8A87011
:1064A00003EB43032B4483F8A87003F1A80590F88D
:1064B000A8306B7090F8AA30AB70CBB29A42E5DA94
:1064C000013C3470F8BD1378527813EBC2126B4B59
:1064D00018BFC3F8842093F87630002B40F0C380B7
:1064E000BDE8F840FFF71CBE012940F2BC801378DC
:1064F000527803EBC212092A5E4BD8BF0A225A60B7
:10650000F8BD012940F2AF80022D517807D0937871
:10651000032D41EAC3111CBFD37841EA83312078AF
:10652000BDE8F840FFF73CBC4F48F02103F0BBFC4E
:106530004D486C2103F0B7FC0025ECB2A4F1080330
:10654000012B11D9142C0FD04748002103F0ABFCCC
:106550004548012103F0A7FC4348012103F0A3FCB7
:106560004148012103F09FFCA4F10A06F6B2072E70
:1065700008D83D48022103F096FC3B480A2103F06D
:1065800092FC14E0012C12D83748032103F08BFC55
:106590003548082103F087FC012C0ED8324806212B
:1065A00003F081FC3048012103F07DFC05E0012E61
:1065B000EAD9A4F10E03032BE6D92B487F2101353C
:1065C00003F071FC152DB8D12748F721BDE8F8403C
:1065D00003F069BC002946D014782348F02103F069
:1065E00062FC21486E2103F05EFC1F48214603F047
:1065F0005AFC142CE8D8214D1B482B19A400D9783B
:106600002E1903F050FCB169174801F07F0103F027
:106610004AFCB1694FF680730B4023B11248C1F3B5
:10662000C61103F040FC2C44A16911F4404FCBD0BB
:106630000D48C1F3863103F036FCC5E70A48F02166
:1066400003F031FC08486A2103F02DFCF624082CE5
:1066500034BF21467F2101340348E4B203F023FC18
:106660000B2CF4D1B0E7F8BD44160020108F0108C0
:10667000AC130020000000203C8F0108940400208F
:10668000F8B5FFF7CBFB254803F07AFB044618B1B9
:10669000224803F047FCF6E701F0DCF9204B214EDD
:1066A000D3F8C4207168C3F8C000801A88421F461E
:1066B00033D90A44C3F8C420A4F10A05EDB2072D6A
:1066C00010D8174BDA1CA25C022A0BD1DB6E2B41CF
:1066D000DB0707D5284601F069F8294602460F482E
:1066E00003F08BFB0134152CE6D196F90030002B1A
:1066F00013DB002496F90020E3B29A4204F101046E
:106700000BDB03EB43033B4493F8A80093F8A91079
:1067100093F8AA20FFF7CCFDECE7F8BD4416002063
:106720009404002000000020013101EB420291425C
:106730000BD0030F092B94BF3033373301F8013CE2
:106740000023000101F8023BF1E770471F4B10B531
:106750001A88032A04D804200146188007F068F933
:106760004FF000604FF4A04107F0B6F80124184B39
:10677000184821461C7007F06FFB06F001F905F080
:10678000E7FD2146402007F03BFD6FF07F4005F01C
:1067900051FFE72005F0CAFF0F4B1C7005F022FEE9
:1067A0007D2007F05DFD18B10C4B1C7007F06CFDEF
:1067B00040F6B83005F070FE06F0D4FB06F04EFE51
:1067C000074A01231370074A137010BDE816002012
:1067D000C4160020000430009C150020B81F0020C3
:1067E000201600201616002038B52F4C2388042BC5
:1067F00004D805210420218007F01AF92B4D2B78AD
:1068000013B12B4802F054FB2B7853B12388052B8E
:1068100005D8254B06210420198007F009F902F05C
:106820001DFC2B7863B1234B1B784BB9224B1B7893
:1068300033B1224B1B781BB9214B1B78002BE3D0C3
:10684000204B1B78002BDFD11F4B1B78002BDBD19B
:106850001B4B1B78012B0FD01C4B6BB12388062BD5
:1068600005D8114B07210420198007F0E1F8FFF744
:1068700099FC134B01221A70154B002BC4D02388AE
:10688000072B05D8084B08210420198007F0D0F801
:10689000FFF7F6FE2388082BB6D8034B0921042006
:1068A000198007F0C5F8AFE7E81600202016002091
:1068B00081710008D5150020161600209A150020B9
:1068C0005C0500209B150020B81F0020A561000872
:1068D00081660008F8B5524B1A6812B11A68013A7D
:1068E0001A60504B504D1B783BB1504B1B78002B1E
:1068F00028D04F4B002B47D124E04E4C236826462E
:1069000013B12368013B0FE04B4B1B78D3B94B4BC2
:106910001B78BBB94A4B1B78A3B94A4F3B782BB1C4
:10692000E72005F077FF142323600BE02B78002B82
:106930002DD1E72005F028FF434B1B78002B34D0E6
:10694000322333602B7833B1404C23781BB92EE0CF
:106950005A6801325A603E4B1A68B2F57A7F0FD3FB
:1069600000221A6007F0A0FB3A4B4FF6FF711A881D
:106970008A4254D019800420BDE8F84007F058B886
:106980001A6801321A60F8BD00F05AFCDAE7324B9F
:106990001B78002BCDD04FF6FF7005F04BFEE720A3
:1069A00005F0C4FE01233B70CCE76423C9E7234B09
:1069B0001B788BB1294B47F22F5259689142C7D9A6
:1069C000BFF34F8F264A274BD16801F4E0610B4398
:1069D000D360BFF34F8FFEE7174B1B7803F0FF0523
:1069E00033B9284606F02CF840F6B73398420DD854
:1069F000002006F025F841F657339842ABD9002025
:106A000006F026F8184B01221A70A4E7284606F073
:106A10001FF82378002B9ED102F03CF89BE7F8BDCD
:106A2000C01F0020A416002020160020F808002017
:106A300041720008BC1F0020CD1500209B150020CE
:106A40009D1500209C15002099150020D5150020CB
:106A5000C41F0020E81600209A1500205C050020C5
:106A600000ED00E00400FA05CC15002008B5094B44
:106A7000186006F01DFA002006F066FA064805F0D8
:106A80008BFC06F02DFA06F04BFABDE8084008F042
:106A9000E1BA00BFC0020020A0860100074B1B68BE
:106AA000052B08D1064B1A7A012A04D1987A1B7B50
:106AB000C01AC0B270470020704700BFEC1600201B
:106AC0005C0500200D4B10B51B68052B13D10C4C39
:106AD000237A012B0FD16289A389D31A012B04D108
:106AE00000230320237208F00CFCA3895A1CA28106
:106AF0001C44A07B10BD4FF0FF3010BDEC160020F1
:106B00005C05002008B50C4B1B68052B12D10B4B04
:106B10001A6D99180132B2F5807F08BF002281F802
:106B200054001A6506F0A8F820B16420BDE80840BA
:106B300005F032BC08BD00BFEC1600205C0500204B
:106B4000F8B5234B93F85421012A3FD0D3F85821AC
:106B5000196DB2F5807F04BF0022C3F85821D3F825
:106B600058411B4A8C4203D1002382F85431F8BDAE
:106B70008CBFC4F58071C4EB0101C2F85C11D3F87D
:106B80005C61134D402EA2B207D94034403EC5F897
:106B90005841C5F85C61402706E034440021B7B293
:106BA000C5F85841C5F85C110A4801241044C021B9
:106BB0003A4683F8544108F01FFB2046394608F056
:106BC00023FC2046BDE8F84008F088BBF8BD00BFB4
:106BD0005C050020B0050020094B10B593E81400B7
:106BE00008331B68D0180AD006490822FFF79CFD1D
:106BF000204605490422BDE81040FFF795BD10BDB1
:106C0000E8F7FF1F6D0200207D02002013B5084C3D
:106C1000002100910A460B46204601F0ADFA0549D5
:106C2000054A204602B0BDE810400DF06BB900BF28
:106C3000BC060020195A0008C406002038B50446D6
:106C40000D46AC4203D254F8043B9847F9E738BDEF
:106C500008B507480749FFF7F1FF07480749FFF75D
:106C6000EDFFBDE8084006480649FFF7E7BF00BF53
:106C7000A4940108A4940108A494010800950108B3
:106C800000950108009501080DF094B908B507209A
:106C900006F008FDFEE70000074A08B5136818442F
:106CA0001060064A904204D9082006F0FBFC0DF063
:106CB00057F9184608BD00BF080000200048002012
:106CC0004FF0FF3070470120704708B50C2006F0E8
:106CD000E9FCFEE7014B1868704700BFC8060020BA
:106CE000064B0246582000FB013101F1080303CB9B
:106CF0001060516018689060704700BFC80600209F
:106D0000014BD3F864017047C8060020064B0246C9
:106D1000142000FB013101F5B67303CB1060516004
:106D200018689060704700BFC806002038B5054657
:106D3000064C28B105F020FD012384F8303238BD1F
:106D400005F0C8FC84F8305238BD00BFC8060020EA
:106D50000E4B2DE9F041D3F8647180460024BC420B
:106D600011DA14256543094E414606F5B6702844EC
:106D70000C220DF0F0FA20B93544D5F86801BDE8D1
:106D8000F0810134EBE70020BDE8F081C806002067
:106D9000044B01221A70044B00224FF4C0201A60E9
:106DA00006F056B99B15002060050020034A002319
:106DB0001370034A136006F0A9B900BF9B150020A9
:106DC00060050020024B00221A6006F069B900BF7E
:106DD000600500202DE9F04788B0804668460D46E2
:106DE00001F0F6FA1E4B0024D3F800A054452DDA2A
:106DF00055B3582666431A4F414607F10800304400
:106E00000C2207F104090DF0A6FAE8B928460DF0A6
:106E10009AFA06F11003402834BF02464022294660
:106E200009EB03000DF0EBF83E44012386F85830DF
:106E3000694604A8746801F0EDFA04A8A047044666
:106E400004A801F083FA03E00134CFE74FF0FF34E8
:106E5000684601F07BFA204608B0BDE8F08700BF25
:106E6000C806002001290AD002D3022910D0704799
:106E70000C4B002283F8312201220B4B10E0094B0E
:106E8000002283F83112084B1A70084B19707047B2
:106E9000044B002283F83112034B1A70034B01227A
:106EA0001A707047C806002016160020D51500205D
:106EB000014B93F831027047C80600202DE9F84FC6
:106EC0000446894600293DD000283BD01E4D2E683F
:106ED000042E37D005F108074FF0000805F1040A29
:106EE000B0450DDA57F8043C4B4505D138462146EC
:106EF0000C220DF030FA28B308F101085837EFE7FB
:106F00004FF0580808FB06F805EB080708F11000D9
:106F100000214022C7F8049050440DF094F80AEB89
:106F20000800002104300C220DF08DF82068616803
:106F300007F1080303C3A06801361860002387F82F
:106F400058302E60BDE8F88FC806002073B5002BBE
:106F50000CBF6523452306460D4614460093314673
:106F60002A462346024808F007FE02B070BD00BF63
:106F7000FC08002010B5064C206803F019FD2368BA
:106F8000013303D0431E5842584110BD012010BDAB
:106F90000C00002038B50B4B05461B780C466BB92E
:106FA000094B1B7853B9FFF7E5FF034630B9074A91
:106FB00029461068224604F0B1FC38BD4FF0FF307E
:106FC00038BD00BFD4150020D51500200C000020CE
:106FD0002DE9F041264B86B01B7880460F46002BEA
:106FE00041D1244B1B78002B3DD1FFF7C3FF044652
:106FF000002838D1204D8DF80C008DF80D008DF84B
:107000000E008DF80F00286806AA460902EB8606D6
:10701000012100F01F02914056F80C2C01300A4368
:1070200046F80C2C41F28832059204AA009203A97A
:1070300022462346049404F053FB002815DD2B68F8
:1070400006AA590902EB810151F80C5C03F01F02FA
:10705000154115F0010008D0184641463A4623462E
:1070600004F0DEFB01E04FF0FF3006B0BDE8F08138
:10707000D4150020D51500200C00002030B51F4885
:10708000ADF57B7D08F029FA002834D11C4B17A8F8
:1070900005931C4B61AD06931B4B049007931B4B50
:1070A0000EAC08931A4B039509931A4B0A931A4B8B
:1070B0000B931A4B0C931A4B0D931A4B0E931A4BBE
:1070C0000F931A4B10931A4B11931A4B12931A4B9E
:1070D00013931A4B14931A4B15931A4B169306F0ED
:1070E0005BF8284606F05EF800940448164903AAA7
:1070F00005AB08F0F9F90DF57B7D30BDFC080020EB
:10710000956F0008D16F0008916D0008AD6D000803
:10711000D5D10008C56D00082D6D0008557A00080E
:10712000F5850008D56C0008E16C0008D56D0008F5
:10713000016D00080D6D000845740008516D0008D0
:10714000B1D10008C5D10008E8F7FF1F014809F0D8
:1071500049B900BFFC08002010B5064C23783BB1AC
:10716000FFF7F4FF20B9044B1870044B187020701F
:1071700010BD00BF991500209B1500209A15002016
:1071800010B502208CB00146112204F0EBF9041E68
:1071900024DB134907A808F0F7FA02230122ADF80F
:1071A0000C308DF812201623BB228DF80E308DF88E
:1071B0001320332303AA8DF80F300092E02310220E
:1071C0008DF8103001920023204607A913228DF874
:1071D000113004F0ADFB204604F0F4F90CB010BD02
:1071E000E8F7FF1F30B5134C87B0FFF747FF204685
:1071F00008F076F9204608F09AFD0546FFF7C0FF33
:10720000204608F003FD03A803F08AFD9DF80D2039
:107210009DF80C30009204A80821074A0DF04CF8A4
:10722000064804A93C220123FFF790FE284607B038
:1072300030BD00BFFC0800204D8F0108538F0108AE
:1072400038B5114CD4F8585B2DB1D4F8583B013BFC
:10725000C4F8583B38BDD4F85C3B0C4A52F82300C4
:1072600005F010FAE72005F061FA6423084AC4F833
:10727000583BD4F85C3B526801339342C4F85C3B02
:10728000A8BFC4F85C5B38BDC806002010640108C4
:107290000C0000207FB502200121062204F062F9D3
:1072A000041E24DB0223ADF8003000238DF80230E9
:1072B00035238DF803304FF4FA5008238DF804304D
:1072C0008DF805308DF806308DF8073001F0E8FDB7
:1072D000694610220546204604F0D4F906462846A1
:1072E00001F0DEFD204604F06DF9304601E04FF07C
:1072F000FF3004B070BD000010B5064C20680028B7
:1073000005DB04F05FF94FF0FF33236010BD002070
:1073100010BD00BF0C000020F0B5A7B0FFF7ECFFD8
:1073200002200121062204F01DF9304F00283860A8
:107330004DDB2F4C0223A4F8603B162384F8623BFC
:1073400005A8332384F8633B05F0F2FE0023009385
:107350009DF814303BB1012B14D0264B01AD03F145
:10736000100E2A4602E0069B009310E01868596848
:107370002E4603C6083373453546F7D10FCA06AD0E
:1073800085E80F000A25009B0BB9013D22D1009B27
:107390000BB9194B0093009B4FF4FA501A0E84F866
:1073A000642B1A0C84F8652B1A0A84F8673B84F85E
:1073B000662B01F075FD114904461022386804F06F
:1073C00061F90546204601F06BFD28460CE04FF0C0
:1073D000FF3009E006A87E210CF0E5FF6A4681B285
:1073E00006A804F015F9CEE727B0F0BD0C00002088
:1073F000C80600206E8F010804E5D0362812002050
:107400000F4B2DE9F041D3F8647180460024BC4253
:1074100011DA142565430A4E414606F5B670284434
:107420000C220CF098FF20B9354495F87801BDE89E
:10743000F0810134EBE74FF0FF30BDE8F08100BF91
:10744000C806002008B5FFF7DBFF013808289DBFFC
:10745000024BC018007F022008BD00BF1064010865
:1074600037B50B4C002104F537650B4600910A46F1
:10747000284600F081FE28460649074A0CF042FDE6
:1074800004F50D7003B0BDE8304008F011B800BF3E
:10749000C8060020195A0008C406002014282DE947
:1074A000F34104460E4675D8FF2973D000F016FF4D
:1074B00018B1A4F10D03022B6CD900F0F1FD08B155
:1074C000012C67D901F01CFA18B1A4F11203012BA9
:1074D00060D918236343314DEA18EF58304BB2F8A6
:1074E00004809F4201D1042003E02E4B9F4203D130
:1074F0000820012106F090FEADF80480062E45D844
:10750000DFE806F00F04171F27313C0010238DF829
:10751000073003238DF80630182303FB045401239E
:1075200033E004238DF80730182303FB04540023B1
:107530002BE048238DF80730182303FB0454022363
:1075400023E028238DF80730182303FB045403237A
:107550001BE0182303228DF8073003FB04548DF839
:107560000620042311E01C238DF8073003238DF837
:107570000630182303FB0454052306E000238DF88E
:107580000730182303FB04540623A373384601A9CC
:1075900006F004FC02B0BDE8F08100BF140000203A
:1075A00000080140000C0140142870B504460E4646
:1075B00036D81C4D182303FB00539B7B83B39A1EC4
:1075C000012A2DD9062B2BD0FF2B29D000F086FEC7
:1075D00020B1A4F10D03022B00D870BD00F060FDB6
:1075E00010B1012C00D870BD01F08AF920B1A4F1CE
:1075F0001203012B00D870BD182303FB04539B7B9F
:10760000042B03D120460121FFF748FF18235C43D8
:107610002A192B5992880EB95A6170BD1A6170BD32
:1076200070BD00BF14000020142838B5044615D8DA
:107630001D4D182303FB00539B7BFF2B0ED0043BF7
:10764000012B0BD900F04AFE18B1A4F10D03022B57
:1076500004D900F025FD18B1012C01D8002038BD57
:1076600001F04EF918B1A4F11203012BF6D9182339
:1076700003FB04539B7B062B07D10B4B93F8F811AC
:10768000FF29EBD02046FFF709FF18225443254479
:10769000AA7B054B012AA988185902D106F0D2FB12
:1076A00038BD06F0C9FB38BD14000020F0B54FF41A
:1076B000004091B006F03AFD0120014606F0A0FD21
:1076C00001214FF4C06006F0A7FD334806F0D4F95D
:1076D000324B00240593324B2F4806930A2308931C
:1076E00080230A934FF400730B934FF400630C93C1
:1076F00005A94FF400530E9301254FF400274FF4D2
:107700006026079409940D940F9406F02DFA2548ED
:10771000694600978DF804408DF805400296039461
:107720008DF8105006F0E2F81F48694600978DF872
:1077300004408DF80540029603948DF8105006F031
:10774000D5F81848294606F0F5F8164806F004F969
:10775000144806F006F90028FAD1124806F005F997
:10776000104806F007F90028FAD10F48012106F069
:10777000E1F80D4806F0F0F80B4806F0F2F80028A2
:10778000FAD1094806F0F1F8074806F0F3F80028A6
:10779000FAD111B0F0BD00BF080002404C240140F6
:1077A000441200200024014000280140092870B53F
:1077B00004469CBF00F10A04A4B200F08FFD28B17A
:1077C000A4F10D03022B01D8002070BD00F068FC6D
:1077D00001F096F818B1A4F11203012BF4D9142C7E
:1077E000F2D8394D182303FB04539A79FF2AEBD0C2
:1077F00095F8FA11914206D09B7B2046062185F828
:10780000F831FFF74BFE95F8FB31012B05D1FFF75F
:107810004DFF2D4B002283F8FB21182303FB04545A
:1078200095F8FA31A179284E8B420FD027480122D2
:1078300096F8F93106F0ABF896F8F9312448A179B9
:10784000012206F0A4F8A37986F8FA310021214C30
:10785000002344F8213001310A29F8D11E4806F0EE
:10786000B4F91B48012106F0DAF81B48012106F0A3
:1078700099F91648012106F066F81448012106F02E
:107880007DF8022006F0A4F90028FAD0022006F0C4
:10789000ADF90E48002106F056F80F48002106F019
:1078A00081F900231A4654F8230054F823100133B9
:1078B00089B201EB10410A2B0A44F4D11420B2FB27
:1078C000F0F290B270BD00BF14000020002401400F
:1078D0000028014044120020080002402DE9F04336
:1078E000142889B004460D4600F2A680544F182390
:1078F00003FB00739B68002B00F09E8000F0EEFC01
:1079000020B1A4F10D03022B40F2968000F0C8FBD9
:1079100010B1012C40F2908000F0F2FF20B1A4F1F0
:107920001203012B40F28880182303FB04739B7B16
:10793000012B01D0042B7FD1424B4BF6803808FB42
:1079400005F81E68404B01200146B6FBF3F6FF2305
:1079500098FBF3F806F060FC20460421FFF79EFD3B
:10796000182303FB04739B68013EB3F1804FB6B24A
:107970001FFA88F802D10120014609E0334A9342F8
:1079800008BF022003D0324A934203D104200121D0
:1079900006F04EFC182505FB04754BF67F33ADF859
:1079A0000460A868002601A9ADF80830ADF80A60A7
:1079B000ADF8066006F032FD6023ADF81860AE89C0
:1079C000ADF810300123ADF81230ADF8168046B98D
:1079D000A86804A906F06CFDA868082106F0A8FEB6
:1079E0001FE0042E08D1A86804A906F0A5FDA86828
:1079F000082106F0A5FE14E0082E08D1A86804A905
:107A000006F0DEFDA868314606F0A4FE09E00C2E63
:107A100007D1A86804A906F015FEA868082106F099
:107A2000A1FE182303FB04740121A06806F074FE74
:107A3000A068012106F04DFE09B0BDE8F08300BF4B
:107A400014000020B403002000366E010004004042
:107A50000008004005F0F8BB30B54FF47A7385B0EC
:107A60001C4C0093236805460344236005F0ECFB9F
:107A7000019006F019FB05F0E7FB0290029A019BCA
:107A8000D31A0393039B002B03DA019B029A13443E
:107A90000393039BAB421AD20F4B1B78002BE8D009
:107AA0000E4B1B78002BE4D1039A009B9A4203D221
:107AB0002368B3F57A7FDCD3039B03F57A730093D5
:107AC00001F0CCFA064B1B78002BF9D1D1E705B0B9
:107AD00030BD00BFD015002020160020D515002095
:107AE0009B15002004F058BC13B5084C00210091F0
:107AF0000A460B46204600F03FFB0549054A204652
:107B000002B0BDE810400CF0FDB900BF6C120020BF
:107B1000195A0008C406002038B5184B05461C88C1
:107B200003F580631B88A4B29BB22BB94EF6EE62BC
:107B3000A21A18BF012205E0F4B94EF6EE629B1AB4
:107B40005A425A4192020E4B02F1006404F58044FD
:107B500013449C420ED22268013209D1204606F01D
:107B600001F9042809D1A01C294606F0FBF838BD0C
:107B70000434EEE7802038BDAB2038BD004000085B
:107B8000FE43000808B5084806F0CEF804280AD1DC
:107B90000548002106F0E6F8042804D1BDE80840B5
:107BA000024806F0C1B808BD0040000800440008C3
:107BB000104B10B51C8803F580631B88A4B29BB2E0
:107BC0001CB10BB1AB2010BD01240B4BA40223440C
:107BD0000A4A224493420AD91A8892B2824204D1B4
:107BE00033F8023C00200B8010BD043BF0E701207D
:107BF00010BD00BF00400008FE430008024000081E
:107C0000F8B5444E06F050F8434D34884EF6EE6118
:107C1000A4B22B888C429BB24FF6FF7210D09442D4
:107C200002D0002C73D142E00BB930466CE08B429D
:107C30006DD1304606F078F804286AD1284632E043
:107C40004BBB1C461646354B354A1B8832F8145040
:107C50009BB2AB4208BFA6B233B29C4203D10134FF
:107C6000642CF0D10FE02E4F284607F1C801FFF732
:107C70009FFF0128F3D02846B7F8C810FFF74CFF44
:107C80000428ECD0F8BD2348002106F06BF8042846
:107C90003FD1214838E0934239D1284606F044F8D4
:107CA000042836D13046002106F05CF8F8BD73B3E5
:107CB000934201D1284627E016461A4B184A1B88E2
:107CC00032F814509BB2AB4208BFA6B233B29C420A
:107CD00003D10134642CF0D10FE0114F284607F195
:107CE000C801FFF765FF0128F3D02846B7F8C81090
:107CF000FFF712FF0428ECD0F8BD0748002106F07A
:107D000031F8042805D1034806F00EF8F8BDFFF756
:107D100039FFF8BD00400008004400080640000894
:107D2000741200200644000810B50446FFF768FFEF
:107D30000023044A22F813300133642BF9D1204682
:107D400010BD00BF741200200148FFF7EDBF00BF57
:107D50003E130020024B18785B78C01A704700BFB2
:107D600040130020064B5A781978914204D999188B
:107D7000013288785A7070474FF0FF30704700BF6B
:107D800040130020044B5A781978914286BF9B1803
:107D900098784FF0FF307047401300207047000084
:107DA000014B0360704700BF8064010810B5034BAE
:107DB00004460360FEF768FF204610BD806401089A
:107DC000F8B5094B054693F82230164653B10C46D8
:107DD0008F18BC4206D02B6828469B6814F8011BFC
:107DE0009847F6E73046F8BD4013002010B50C4B1D
:107DF000012293F822408CB193F823401F2C02D922
:107E00004260002010BD93F824001C1884F825104F
:107E1000411CC9B283F8241083F82310104610BD0A
:107E200040130020002242604FF47A728260014ABF
:107E3000026070474064010838B51C4C00254FF4BF
:107E4000001001216570257084F8245084F82350B7
:107E500006F0EEF901200521FFF720FB2846052159
:107E6000FFF71CFB124806F03DF84BF6FF73A4F831
:107E70004E3094F85830A4F84C500BB9A4F8503058
:107E80004FF48063A4F852304FF48043A4F8543088
:107E9000084B07480849A36406F03EF8044801214E
:107EA00006F0A8F8012384F8593038BD40130020AB
:107EB00000540040A0860100881300202DE9F843FB
:107EC00033480C46012190461F4606F09FF8FFF705
:107ED000C1FD05462E482F4906F0C8F828B9FFF71E
:107EE000B9FD401B0A28F5D927E021462848012280
:107EF00006F0B5F8FFF7AEFD04462548264906F022
:107F0000B5F828B9FFF7A6FD001B0A28F5D914E03B
:107F1000FFF7A0FDB8F1200F28BF4FF0200806465C
:107F20000024E5B2C5EB080313F0FF0908D0FFF702
:107F300091FD801B09280ED902E00020BDE8F883DE
:107F40001348012106F07AF8144B00225A701D7074
:107F50002846BDE8F883B9F1010F09D1012F07D1F7
:107F60000B48002106F06AF80948394606F05AF82D
:107F700007480B4906F07AF80028D8D0044806F0E4
:107F80006BF8084B1855FFF765FD01340646C8E746
:107F900000540040010003000200030040130020D1
:107FA00040000300421300200123FFF787BF0000B9
:107FB000054B012283F82220002283F85A1083F80F
:107FC000242083F823207047401300202DE9F0413E
:107FD0002A480E46012106F019F8FFF73BFD04463A
:107FE0002648274906F042F838B9FFF733FD001B51
:107FF0000A28F5D90420BDE8F081224C1F4894F8E6
:108000005A10002206F02BF8FFF724FD05461B4806
:108010001D4906F02BF828B9FFF71CFD401B0A2864
:10802000F5D9E7E794F823700025EBB29F4215D00D
:10803000164B1248595D06F00DF8FFF70BFD804610
:108040000E48134906F012F830B9FFF703FDC8EBEC
:1080500000000A28F4D9CDE70135E6E7012E03D167
:108060000648314605F0DEFF002084F8240084F83D
:10807000230084F82200BDE8F08100BF00540040D6
:108080000100030040130020820007006513002058
:10809000840007000121FFF799BF70477047000077
:1080A000014B93F8590070474013002073B50E4CF4
:1080B000002104F164050D4E0B4600910A46284646
:1080C00000F05AF86C343246094928460BF01AFF82
:1080D0002046FFF7A7FE07492046324602B0BDE81A
:1080E00070400BF00FBF00BF40130020C4060020FB
:1080F000195A0008A17D000808B5034B53F8203039
:1081000003B1984708BD00BFBC13002013B5084C4D
:10811000002100910A460B46204600F02DF8054943
:10812000054A204602B0BDE810400BF0EBBE00BF90
:10813000FC130020195A0008C40600202DE9F04164
:10814000002407460E4625463B1919790A22304677
:1081500000F092F82E218046304600F05EF801349F
:108160004044032C0544EFD13046F9790A2200F04F
:1081700083F82844BDE8F08130B58371034D9DF844
:108180000C30056001714271C37130BD6864010833
:108190000548064B06490360064A002303714371F4
:1081A0008371C3710BF0AEBE041400206864010833
:1081B000195A0008C4060020014B0360704700BF35
:1081C00080640108F8B506460C468F180025BC42AD
:1081D00007D0336830469B6814F8011B9847054464
:1081E000F5E72846F8BD000010B5034B04460360D0
:1081F000FEF74AFD204610BD8064010838B50546EB
:108200000C46084641B10CF09EF82B680246DB682C
:1082100028462146984738BD38BD08B503689B6895
:10822000984708BD30B500238BB08DF82430012A63
:1082300098BF0A220DF12304B1FBF2F303FB1211E4
:10824000CDB2092D94BF30353735EDB2214604F853
:1082500001590BB11946EFE7FFF7D0FF0BB030BD66
:1082600010B522B90268C9B29268904710BDD2B267
:10827000BDE81040FFF7D6BFFFF7F2BF13B5084CBB
:10828000002100910A460B462046FFF775FF05497D
:10829000054A204602B0BDE810400BF033BE00BFD7
:1082A0000C140020195A0008C406002013B5084C0D
:1082B000002100910A460B462046FFF75DFF054965
:1082C000054A204602B0BDE810400BF01BBE00BFBF
:1082D00014140020195A0008C4060020014B587DD0
:1082E000704700BF1C1400207047000013B5084CF5
:1082F000002100910A460B462046FFF73DFF054945
:10830000054A204602B0BDE810400BF0FBBD00BF9F
:1083100034140020195A0008C406002013B5084C74
:10832000002100910A460B462046FFF725FF05492C
:10833000054A204602B0BDE810400BF0E3BD00BF87
:1083400040140020195A0008C406002010B5044645
:1083500000680BF02FFE204610BD10B504460068E3
:1083600008B10BF027FE00232360A360636010BDFB
:1083700038B504460D46006801310BF03FFF10B1DF
:1083800084E82100012038BD036810B5044613B10C
:1083900043688B4207D22046FFF7EAFF20B1A3686B
:1083A0000BB922681370012010BD70B50E4611463E
:1083B00004461546FFF7E8FF18B92046FFF7CDFF42
:1083C00004E0A560206831460BF0B5FF204670BD83
:1083D00038B50023044603604360836003730D4691
:1083E00039B108460BF0AFFF294602462046FFF799
:1083F000DCFF204638BD884210B50B46044607D046
:10840000096819B19A68FFF7D0FF01E0FFF7A5FFEF
:10841000204610BD10B5002304460360436083600E
:108420000373FFF7E8FF204610BD38B505460C463C
:1084300041B108460BF087FF214602462846FFF768
:10844000B4FF01E0FFF789FF284638BD826808B510
:108450000B4612B919B9012008BD11B90368187883
:1084600002E00068FCF754FED0F1010038BF0020A4
:1084700008BD10B58B688468E41AA2420CD8006865
:1084800068B1096851B110441A460BF064FFD0F18D
:10849000010038BF002010BD002010BD084610BDEF
:1084A00082688B689A4202D30022FFF7E2BF002065
:1084B00070478368994203D2006810B1405C7047EE
:1084C00000207047FFF7F5BF9A422DE9F0410746BB
:1084D0000D4614461E4601D93446164638460C4908
:1084E000FFF776FFAB689C420FD89E4228BF1E461E
:1084F0002B68002213F806809A55296838462144D3
:10850000FFF793FF2B6803F806803846BDE8F0813B
:108510003591010810B58B680446FFF7D5FF20465A
:1085200010BD006808B10BF022BD704713B5084CB0
:10853000002100910A460B462046FFF71DFE054923
:10854000054A204602B0BDE810400BF0DBBC00BF7E
:1085500048140020195A0008C406002013B5084C1E
:10856000002100910A460B462046FFF705FE05490B
:10857000054A204602B0BDE810400BF0C3BC00BF66
:1085800050140020195A0008C406002038B5184CB1
:1085900094F92C305BB394F82D3043B305F09CFE76
:1085A00094F82C2094F82D5051B2002995FBF1F14C
:1085B00006DD01290BDC013A84F82C20002307E0BA
:1085C000013104DB013284F82C20022300E0012376
:1085D00094F82D20013A84F82D20C41805F0AEFE41
:1085E000204605F08BFEBDE8384005F0A7BE38BD3B
:1085F0005814002010B5044605F06EFE001B00F173
:108600007F02FE2A08D905F099FE204605F076FE85
:10861000BDE8104005F092BE054A80EAE073A3EB86
:10862000E0735B0082F82C0082F82D3010BD00BF93
:108630005814002013B5084C002100910A460B463F
:108640002046FFF799FD0549054A204602B0BDE8DE
:1086500010400BF057BC00BF88140020195A0008C6
:10866000C406002013B5084C002100910A460B46B1
:108670002046FFF781FD0549054A204602B0BDE8C6
:1086800010400BF03FBC00BF94140020195A0008A2
:10869000C406002013B5084C002100910A460B4681
:1086A0002046FFF769FD0549054A204602B0BDE8AE
:1086B00010400BF027BC00BF9C140020195A000882
:1086C000C4060020014B0360704700BF80640108AE
:1086D000426D836DD01A00F03F007047426D836D8C
:1086E0009A421DBF836DC018007D4FF0FF30704768
:1086F000426D836D9A4209D0836D826D03441B7D68
:10870000013202F03F028265184670474FF0FF3099
:108710007047000010B5034B04460360FEF7B4FA3F
:10872000204610BD8064010810B50446D4F89C2092
:10873000D4F8A0309A42F9D1237C13B900232374D2
:1087400010BDD4F8A4304021186806F044F8002881
:10875000F4D1F1E7D0F8A43070B504460E4618689D
:1087600040F2277106F03DF828B9D4F89C20D4F8DF
:10877000A0309A4215D1D4F89C50013505F03F0540
:10878000D4F8A0309D42D4F8A43013D0EFF3108277
:10879000D20742D5D4F89C10D4F8A020914209D138
:1087A0003BE0D4F8A43040F227711868012205F0AC
:1087B000F2FFE0E7186840F2277106F012F800288F
:1087C000DED0D4F8A4308021186806F004F8002820
:1087D000D6D0D4F8A43040F227711868002205F0F2
:1087E000DAFFD4F8A4301868D4F8A0305A1C234417
:1087F000C4F8A02093F85C1005F0E5FFD4F8A03091
:1088000040F2277103F03F03C4F8A030D4F8A4303D
:108810000122186805F0BFFFB2E7D4F89C2040F2AF
:108820002771224482F85C60C4F89C5001251868C6
:1088300025742A4605F0AFFF284670BD10B540F2FA
:1088400025510446006805F0CCFF70B1206805F0A2
:10885000BEFFE369C0B21A6C596C013202F03F02EC
:108860008A4202D0196C58541A64206840F2277169
:1088700005F0B7FFB8B1A3692068196C5A6C914232
:1088800006D1BDE8104040F22771002205F083BFF9
:108890005A6C511C5964995C05F095FFA3695A6C98
:1088A00002F03F025A6410BDF8B54FF47A7383604A
:1088B0000C4B0446002503604560C0F8A41004F189
:1088C0005C07482614308F613246C86129460BF098
:1088D000BAFB3846294632460BF0B5FB25742046D4
:1088E000F8BD00BF986401080148FFF7A7BF00BFAB
:1088F000100200200148FFF7A1BF00BF3002002096
:10890000014B187C704700BFA414002073B50E4CB7
:10891000002104F114050D4E0B4600910A4628462D
:10892000FFF72AFC1C343246284609490BF0EAFAC4
:1089300020460849FFF7B8FF07492046324602B0F3
:10894000BDE870400BF0DEBAA4140020C40600207D
:10895000195A000810020020C586000870474FF021
:10896000FF307047014B0360704700BF806401080F
:1089700010B5034B04460360FEF786F9204610BD90
:1089800080640108FEF79EB808B5FEF787F808BDB9
:1089900008B50846FEF7B6F8012008BD002242607F
:1089A0004FF47A728260014A02607047C064010825
:1089B0000846FEF75BB8000037B50D4C00210D4DA1
:1089C0000B4600910A462046FFF7D6FB2A460A4985
:1089D000204608340BF096FA2046FFF7DFFF0749E0
:1089E00020462A4603B0BDE830400BF08BBA00BFEA
:1089F00068150020C4060020195A0008658900087F
:108A000070470000054B1B7803F0FF0023B1044BB7
:108A10001878003018BF0120704700BFD61500201D
:108A20009815002008B5FFF7EDFF68B1074B01224C
:108A30001A700020064B01460246187003F0A6F893
:108A4000BDE8084003F088B808BD00BF93150020BA
:108A50001616002008B50B4B1B7893B103F000F8F5
:108A6000094A01231370094A00211170084A6FF066
:108A70007F40137003F0DEFDBDE80840E72003F0FF
:108A800055BE08BDD6150020D515002016160020AD
:108A90009C150020014B01221A707047CD15002053
:108AA000084B1B7803F0FF0053B1074B1B7833B919
:108AB000064B1878D0F1010038BF00207047002025
:108AC000704700BFCD150020510200205002002049
:108AD0002DE9F0431446324A89B012781D4681468A
:108AE0008846109B002A58D022782AB1032B4AD8F6
:108AF000DFE803F0020E39390020012300930190D2
:108B0000029003900490059049464246034636E0A1
:108B1000244B1B7803F0FF06D3B920460BF013FC5F
:108B2000274645088DF81E60AE4207F102070FD0B8
:108B300017F8023C07A88DF81C3017F8013C0021FB
:108B400010228DF81D300BF06FFDA0550136EBE7BC
:108B5000002301208DE821000293039304940593E0
:108B6000494642460BE0012018211E2202238DE8CF
:108B70000F0004940595032049464246002303F064
:108B800029F8094B1870084A084B12780E20013258
:108B90001A700121002202F091F809B0BDE8F083BB
:108BA000D61500205102002021160020B815002003
:108BB000024B1878003018BF01207047B81500200C
:108BC00008B5FF2003F0ECF828B900F04FF900F0E9
:108BD0003DF9012008BD002008BD000038B5FFF7B1
:108BE00011FF044600283DD11F4B187002F002FF10
:108BF0001E4B01221A701E4B48F204201C7003F019
:108C0000EBF81C4B1A881D46012A14D00E201021A7
:108C10002246194B02F024F810280CD1174B1B7870
:108C200083B9FFF7C5FF68B9154B01221A70BDE87B
:108C3000384000F0F3B8FFF7C3FF00232B8004F0A7
:108C4000B9F9EBE70F4B00244FF47F401C7003F0A1
:108C5000F1FCE72003F06AFD20462146012202F0E4
:108C600095FFE4E738BD00BF93150020D61500201E
:108C7000D5150020A2030020B81500209115002072
:108C8000CD1500209C15002037B50B4C00210B4D55
:108C90000B4600910A462046FFF76EFA2A46204608
:108CA00007490BF02FF9074904F108002A4603B0E1
:108CB000BDE830400BF026B980150020C406002026
:108CC000195A0008018A00080023036018467047FB
:108CD000002303601846704700230360184670475E
:108CE0000A4BF7B5164601220C461A7005460BF0E2
:108CF0002AFB074620460BF026FB00960346394622
:108D000028462246FFF7E4FE03B0F0BD50020020E3
:108D100038B5034648F21004A34208464CD00DDC97
:108D200048F20102934225D048F2020293422ED02B
:108D3000992B6CD1364B01229A7338BD48F28004CE
:108D4000A3420FD0B3F5084F49D048F24000834208
:108D50005DD12F4C04F110000BF051F9636A01331F
:108D6000636238BD2B4B01225A70294B1A700022C6
:108D70005A7038BD264C0123A370E378002B46D1EE
:108D8000FEF768FE00F5EA403030606038BD204CE8
:108D9000A3780BB1E3789BB300250123FF20A570D6
:108DA00025726572A572E572237303F043FCE72018
:108DB00003F0BCFC657338BD0A7D154B62B95A607F
:108DC0004FF47F4001221A721A7303F033FCBDE89E
:108DD0003840E72003F0AABC00221A7238BD0021F7
:108DE00001F0C9F90121044601F00CFA0A4B1B6895
:108DF0009C420CD1064B0022DA729A725A7238BD2C
:108E0000FEF728FE00F5EA4030306060C4E738BD68
:108E100090150020500200200C0000201FB54FF4D8
:108E200061504FF461610A2200238DE80F00064B68
:108E300044F620621A60684601A902AA03AB01F059
:108E4000B7FE05B05DF804FBA01600201FB5002397
:108E5000009301930293039301A8694602AA03AB0E
:108E600001F06CFE05B05DF804FB000070B5002158
:108E70000A4C0E2001F06EFF102510210E2001F08B
:108E800069FF2A46204600210BF0DDF829462346DB
:108E90000E200022BDE8704001F010BFB815002080
:108EA000024B1A6818601046704700BFA0160020D9
:108EB0001FB5114B986303F041FF03F05DFE0F4BAC
:108EC0000F4800930F4B10490193104B104A029327
:108ED000104B0393104B02F075FD642003F054FA1D
:108EE000FDF7E6FF20B905B05DF804EBFFF776BEAD
:108EF00005B05DF804FB00BF9015002079CC000898
:108F0000118D00088DCC0008C98C0008F9CC000830
:108F1000D18C000821CD0008D98C0008F0B5194D7E
:108F2000AFB00D20432100222B4601F099FE4328CB
:108F300026D12F781449FE1C7419204602AA02F08B
:108F4000B5FA2B782B445B78102B05D904F110006F
:108F50000D4902AA02F0AAFAE37F1BB1AB5D1F2BF9
:108F600003D100E0AB5D013400E02023074839461F
:108F700010F8012C1544AA7800922246FFF7A8FDAC
:108F80002FB0F0BD04170020E06401080517002091
:108F900070B52D4C2D4D00239EB0FF206B702370BB
:108FA0002B70A3702372A3736372A372E372237393
:108FB00003F040FBE72003F0B9FBFFF733FD10217E
:108FC0000C2001F0C7FE224802F07CFAA81C02F037
:108FD00051FF012002F032FF68461E4900F008FDF3
:108FE000FFF75EFD0646D8B194F83C3073B11A26FF
:108FF000013E06D0E72003F0C7FB322003F0C4F99E
:10900000F6E7FFF7DDFD84F83C60E9E7E72003F0D1
:10901000BBFBFA2003F0B8F9684600F045FDDFE736
:10902000E72003F083FB0C4B0E200121324601F0B8
:1090300017FE6B780BB1FFF771FFFFF7CFFD002331
:1090400084F83D301EB070BD901500205002002005
:10905000E0640108E18C0008B81500202DE9F34117
:109060009E4C05F021F80023236494F844304BB95A
:1090700094F8453033B96368C3B1FEF7EBFC63681D
:10908000984213D394F84620944BBAB100229A70B8
:109090005A601A729A6483F8442083F846205A7200
:1090A0009A72DA725A73FFF7D5FC07E094F84630EB
:1090B0008A4D1BB96B786BB3FFF790FD94F83D3088
:1090C000864D13B1FFF764FF05E06B781BB12B7A77
:1090D00003F0FF0643B32278804B012A13D11A7A9A
:1090E000012A10D19B78012B0DD103257C480BF070
:1090F0002AF9013D82B27A49012002F025FC15F0DF
:10910000FF05F3D12570237A744D6BB395F8453084
:10911000FBB129E0EB78002BCED1FEF79BFC00F5EC
:10912000EA4030306860C7E76E60FFF77BFC6D484F
:109130000BF009F96C4F804638460BF004F90097A4
:109140000190791F03204246334602F09FFC6E7067
:10915000C1E795F84F307BB9642003F015F905F1AC
:109160004C0001F06BFD07E094F84F3023B15F48ED
:1091700000213A220AF067FF94F88620574B32B953
:109180005A7A002A4CD19B7A002B49D1A3E01A7A53
:10919000FAB193F84520E2B95A7A002A53D018E080
:1091A0002B4603F82B2F0E200121032201F086FD10
:1091B00000264FF6FF70267303F03CFAE72003F019
:1091C000B5FAFEF7A9F8B042444D5CDB0123AE646A
:1091D0006B72637A414D002B7DD0AB7ABBB9FEF741
:1091E00001F8002811D002DA4FF47F0007E00128CF
:1091F00001D13F4803E0022803D14FF0FF1003F0F4
:1092000019FAE72003F092FA01E00123AB72FDF7AF
:109210004FFE02285FD002B0BDE8F041FDF79CBFD1
:10922000FEF76AF80023E372A3726372E378002BFF
:1092300051D14FF47F4003F0FDF9E72002B0BDE8C3
:10924000F04103F073BA5B7B002BB1D04FF47F0089
:1092500003F0F0F9637B214D03F0FF02002B9FD058
:10926000E72003F063FA4FF4FA7003F08DF8E7207B
:1092700003F06AFA4FF4FA7003F086F86B7B013B57
:10928000DBB26B73E6E795F8443023BBAB6C01337C
:10929000022BAB6404BF012385F84430FDF7FAFFCD
:1092A00000280ADAA36C0133022BA36403D10B4B11
:1092B000012283F84420022300E003236373637BCD
:1092C0000E2084F82B3001210A4B032201F0F6FC1A
:1092D000002363727DE702B0BDE8F08190150020A5
:1092E000550200205C02002061020020DC150020F5
:1092F0000060FF00BB15002013B5084C0021009151
:109300000A460B462046FEF737FF0549054A204628
:1093100002B0BDE810400AF0F5BD00BF18160020ED
:10932000195A0008C4060020704708B5012004F04F
:10933000B9F9FEE708B5032004F0B4F9FEE708B573
:10934000042004F0AFF9FEE708B5052004F0AAF9FF
:10935000FEE770477047704708B503F06DFFBDE842
:109360000840FDF7B7BA000008B5024B0BB1AFF3E8
:10937000008008BD0000000008B5024B0BB1FFF7EC
:10938000B9FA08BDF588000808B5024B0BB1FFF724
:10939000ABFA08BDE988000808B5024B0BB1FEF72F
:1093A0007CFE08BD9B80000808B5024B0BB1FEF7A0
:1093B00075FE08BD9D80000808B5024B0BB1FEF795
:1093C00093FF08BDE982000808B5012004F058FCAD
:1093D00038B1012004F062FC024B13B10020FEF70B
:1093E0008BFE08BDF980000808B5022004F048FC97
:1093F00038B1022004F052FC024B13B10120FEF7F9
:109400007BFE08BDF980000808B5042004F038FC94
:1094100078B1042004F042FC0020064B014618807D
:1094200003F03AFABDE8084003481021012205F094
:109430006AB908BDC0160020002C014008B50820FC
:1094400004F01EFC38B1082004F028FC024B13B1D4
:109450000320FEF751FE08BDF980000808B5102072
:1094600004F00EFC38B1102004F018FC024B13B1CC
:109470000420FEF741FE08BDF980000808B5202051
:1094800004F0FEFB38B1202004F008FC0E4B13B1B1
:109490000520FEF731FE402004F0F2FB38B14020F9
:1094A00004F0FCFB084B13B10620FEF725FE8020DC
:1094B00004F0E6FB38B1802004F0F0FB024B13B15E
:1094C0000720FEF719FE08BDF980000808B54FF423
:1094D000005004F0D5FB40B14FF4005004F0DEFB27
:1094E000174B13B10D20FEF707FE4FF4804004F038
:1094F000C7FB40B14FF4804004F0D0FB104B13B1D8
:109500000E20FEF7F9FD4FF4004004F0B9FB40B126
:109510004FF4004004F0C2FB094B13B10F20FEF7DB
:10952000EBFD4FF4006004F0ABFB38B14FF400608A
:1095300004F0B4FBBDE8084002F0A6BE08BD00BFC1
:10954000F980000808B50F48102105F015F9C0B1E1
:109550000C48102105F01BF9002003F061FA28B92E
:10956000094B1A880A3292B21A8008BD05481021A8
:10957000002205F0C8F8BDE808400020012103F0F2
:109580008BB908BD002C0140C016002008B5024B65
:109590001B6803B1984708BD2416002008B5024B8C
:1095A0005B6803B1984708BD2416002008B5024B3C
:1095B0009B6803B1984708BD2416002008B5012018
:1095C00004F0D2FE50B1012004F0DEFE044B0BB1DA
:1095D000FEF7DCFFBDE8084004F0B0BE08BD00BFE8
:1095E0008D85000808B5022004F0BEFEB0B10C4B1A
:1095F00000224FF400301A7004F050FB012004F0F8
:109600007DFD10B1012004F083FD04F097FE0220DF
:1096100004F0BAFEBDE8084004F090BE08BD00BFEB
:10962000D515002002F0A6BD00F064B838B5144985
:109630000B78012B23D1134A13680BB90B7038BD7B
:10964000114C402B206881B205D94030403B20604E
:109650001360402504E09DB203442360002313609F
:109660000A482A460844C02105F0C6FD01202946C3
:1096700005F0CAFEBDE83840012005F02FBE38BD18
:10968000B0060020B8060020B4060020B005002077
:1096900008B5094B01221A70084B002203201A80DA
:1096A00005F0E0FE064B024618804FF4887105482D
:1096B000BDE8084005F0B8BD64050020680500203D
:1096C000660500206A050020084B1B68052B0BD19E
:1096D000074B1A68052A02F1010101D01960704791
:1096E00000221A60FDF72CBA704700BFEC1600206C
:1096F0003016002070B52B4D2B4C2B682B4E9BB297
:109700002380228833881340990508D54FF6FF53EC
:109710002B60A3780133DBB2A370FFF7D5FF22885B
:10972000338813401A0401D505F0B0FC2288338831
:1097300013405B0505D54FF6FF332B601C4B5B6870
:109740009847228833881A40900444BF4DF6FF7230
:109750002A6022881340D90405D54EF6FF732B608A
:10976000002003F05DFF2288338813401A050BD5D3
:10977000104B1B7813B103F033FF02E0022003F01B
:109780004FFF4FF2FF732B60228833881340DB05B5
:1097900007D54FF6FF632B600720BDE8704003F04C
:1097A0003FBF70BD445C0040341600200420002000
:1097B000C8020020C8030020034B9B7A13B1034B5F
:1097C00005221A60704700BFE01F0020EC16002041
:1097D000014B04221A607047EC160020034B1A78E4
:1097E000202A04BF00221A70704700BF38160020DC
:1097F00070470000212810B508D1114B1B681B7859
:1098000003F07F03212B10D0022010BD2028FBD1B4
:109810000B4B0C4A1B681B78107003F07F03212B45
:10982000094B18BF00230BB9EEE7084B044A00248C
:1098300012682046936154829847204610BD00BFAD
:1098400000200020381600209D9800088598000808
:10985000074B1B681B7803F07F03212B06D100F018
:10986000DF0002280CBF0020022070470220704752
:109870000020002021B9022834BF002002207047B8
:109880000220704720B9034B08221B681A827047D8
:109890000148704700200020C002002020B9034B7F
:1098A00008221B681A827047014870470020002078
:1098B000C002002010B5FDF78FF9054B00241B688E
:1098C0009C7203F075FE05F0E3FD024B1C6010BDB9
:1098D00000200020EC160020334B344A1B68D2795C
:1098E00010B500245A729C72DC72204605F0AEFC62
:1098F00020464FF4007105F0B1FC2046102105F020
:10990000BBFC2046402105F053FD8021204605F098
:109910003FFD204605F008FD254B204693F8341006
:1099200005F080FD204605F0ECFC0120214605F005
:1099300095FC0120C02105F02BFD0120202105F020
:109940009BFC0120214605F0B0FC02204FF4C061D1
:1099500005F084FC02204FF4807105F019FD02200F
:10996000214605F0A2FC0220202105F085FC032001
:10997000214605F073FC03204FF4887105F018FDB3
:109980000320402105F04EFD03204FF4405105F027
:109990008CFC0320214605F06FFC204605F00AFBF5
:1099A000044B01221A6010BD002000204D65010803
:1099B000C0020020EC160020014905F0F7B800BFF6
:1099C000F8020020014905F0F1B800BF00030020B3
:1099D000054B1B68DB78042B04D8044901EBC30159
:1099E00005F0E4B8002070470020002008030020A4
:1099F00038B504460D46FEF7D1FF204625614FF4E9
:109A00001651FEF7D5FF204638BD70B506460D4607
:109A1000002428460AF097FC844208D2295D30468B
:109A2000FEF7B6FF012002F0AFFC0134F1E770BD94
:109A30002DE9F04104460E46904600252046FEF7EB
:109A4000A3FF0028FADD2046FEF79CFF4545C1B282
:109A500006D10023337020461249FFF7D6FF15E0E8
:109A60000D29F6D00A29F4D0082901D07F2904D184
:109A7000002DE3D0771E013D02E0771C31700135E7
:109A80002046EDB2FEF784FF3E46D7E72046FEF7BC
:109A90007BFF002803DD2046FEF774FFF6E7BDE8F4
:109AA000F08100BF33910108F0B585B00446FEF7A0
:109AB0006BFF002840F39B802046FEF763FFC0B297
:109AC000772867D104F1140600212122304604F1E1
:109AD00035050AF0B8FA4122002128460AF0B3FA07
:109AE00004F17607002384F87630204641497B70E4
:109AF000FFF78BFF204631462022FFF799FF2046D3
:109B00003D49FFF782FF012220463946FFF790FFCB
:109B100094F87630A3F13002032AF0D8312B0BD120
:109B200020463649FFF771FF20463549FFF76DFFA4
:109B300020463449FFF769FF94F87620B2F13007E8
:109B400008D020463049FFF760FF204629464022D2
:109B5000FFF76EFF20462D49FFF757FF23693A466E
:109B600030462946984720462949FFF74EFF2046B0
:109B70002849FFF74AFF20462749FFF746FF2046BE
:109B80002649FFF742FF20462549FFF73EFF2046C2
:109B9000244927E069282AD1234B01AD93E8070027
:109BA00085E8070020462149FFF72FFF0026AF5D1B
:109BB00020463B0903F13001392988BF03F15701E1
:109BC00007F00F07FEF7E4FE07F13001392988BFDF
:109BD00007F1570120460136FEF7DAFE0C2EE6D1DA
:109BE0001349204605B0BDE8F040FFF70EBF05B0B1
:109BF000F0BD00BF878F01088E8F0108BB8F010861
:109C0000F18F01081C900108629001086D90010815
:109C1000B0900108D0900108039101083691010825
:109C200075910108A6910108E8F7FF1FBC91010892
:109C30003391010813B5084C002100910A460B46E8
:109C40002046FEF799FA0549054A204602B0BDE8CC
:109C500010400AF057B900BF3C160020195A0008FE
:109C6000C406002038B5054600680C46036801F0BC
:109C70007F019B6898472868C4F3C61103689B68F6
:109C8000984738BD08B50068F02103689B6898477D
:109C900008BD08B50068F72103689B68984708BDB0
:109CA00010B504460068F92103689B68984720684E
:109CB000022103689B6898472068032103689B681A
:109CC000984710BD38B5037904461BB3FFF7DAFF98
:109CD00020687921036802259B6898472068A3685B
:109CE00002681978926890472068A36802685978DA
:109CF000926890472379AB4207D9A3682046595D03
:109D00000135FFF7AFFFEDB2F4E72046BDE838407C
:109D1000FFF7BFBF38BD00002DE9F8430D460446EC
:109D200008461649914698460AF05DFB2F210746E2
:109D300028460AF045FB461C27B11EB1BF1B02375F
:109D4000277105E028460AF0FEFA023020712E46FF
:109D5000A0680AF02FF9257928460AF023F9002394
:109D6000A060435580F8009080F801802279314648
:109D70000230023ABDE8F8430AF003BBBC8E01088A
:109D800008B5006803681B69984708BD70B5C37BB8
:109D90000446712B05D0792B25D1BDE87040FFF723
:109DA00091BFC36C43B3056B0223013D95FBF3F5F3
:109DB000EDB228460AF0F6F801220346191AC9B294
:109DC000A9420DD2A118C97B561CF6B219702644BF
:109DD000F67B023201EBC61103F8011BD2B2EDE7AC
:109DE000E36C984770BD056D35B1016B04F110024D
:109DF00001391846C9B2A84770BD38B50446006895
:109E000001F00F01036815469B6841F0E001984797
:109E100020462946BDE83840FFF724BF38B5044640
:109E2000006801F00F01036841F090019B6815463E
:109E30009847206805F07F0103689B689847206871
:109E4000C5F3C71103689B68984738BDF8B5054648
:109E50000C4616461F46FFF715FF28682146036883
:109E600000249B689847E3B2B342284604D2395D88
:109E7000FFF7F8FE0134F6E7BDE8F840FFF709BF49
:109E800070B50546104614460E460AF05CFA314697
:109E9000C2B223462846BDE87040FFF7D7BF0A4646
:109EA0007121FFF7EDBF08B5006803689B6898470C
:109EB00008BDD02910D004D8902909D0C02909D0D4
:109EC0007047E02902D0F42908D0704742637047F8
:109ED00082637047C2637047026470474264704790
:109EE000FF2908BF826470470265704708B50023E8
:109EF000037343738373C11801330022202BCA7389
:109F0000F9D1836C80F82F20026303B1984708BD14
:109F100010B50023044603718360FFF7E7FF204676
:109F200010BD000010B50446006803685B699847DF
:109F300094F82F3073B1F72807D1002384F82F301D
:109F40002046BDE81040FFF721BF236BE218D07315
:109F5000013358E0237B002B2FD07F282DDC013BE1
:109F6000DBB2E2182373D073002B58D1637B002B34
:109F700055D0D02B19D005D8902B0AD0C02B19D191
:109F8000E36B13E0E02B02D0F42B0AD012E0636BFA
:109F900000E0A36B73B1E17B227CA07B02EBC111DB
:109FA00007E0636C33B1207C02E0236C13B1A07B2B
:109FB000E17B98470023637310BDEF2804DC00F0B9
:109FC0000F03A37300F0F000E02812D006DCC028D5
:109FD00011D0D0280FD0902821D10AE0F42808D041
:109FE00002DCF0280BD010BDF92813D0FF280CD0CC
:109FF00010BD022300E001232373607310BD012311
:10A0000084F82F300023236310BD2046BDE81040A4
:10A01000FFF76CBF0248BDE81040FFF741BE10BD1E
:10A0200044160020F8B507200D46012116461F46AC
:10A03000FDF734FA0024E3B2AB4204F101040EDA76
:10A040003846FDF709FD01210720FDF7ADFA30463E
:10A05000FDF702FD07200021FDF7A6FAEBE7F8BDAA
:10A0600010B5012104460720FDF718FA2046022109
:10A070002822D223FFF7D6FFFA20FDF7EDFC204679
:10A0800003212822D223FFF7CDFFBDE810407D2019
:10A09000FDF7E2BC38B5084D04462846FEF788FCBB
:10A0A00020462560FFF7DCFF2046FFF7F9FD20463C
:10A0B000BDE83840FFF706BE7015002037B50A4CE2
:10A0C000002104F154050B4600910A462846FEF78C
:10A0D00053F828460549064A09F014FF204603B004
:10A0E000BDE83040FFF714BF44160020195A00089D
:10A0F000C4060020002100F004B80E4B5B5843500A
:10A1000004310D480D4B42189A42FFF4F6AF0C4A49
:10A1100000F003B8002342F8043B0A4B9A42FFF4D4
:10A12000F9AF03F0CBF9FCF711FBFCF791FDFCF75D
:10A130005BFB70470095010800000020940400209C
:10A140009404002010200020FFF7FEBF0B0A0170CE
:10A1500043700B0C090E8370C1700430704701709E
:10A16000090A41700230704743185A78435C03EB88
:10A17000022080B2704710B543189A78DC78415CB1
:10A18000120402EB046258780A4402EB002010BD6E
:10A1900073B544790023022C01930FD0032C19D0FE
:10A1A000012C2BD1164D2B692E4623B12B6901A80A
:10A1B00098470246B8B9B16801201BE0104DEB6822
:10A1C0002E4623B1EB6801A89847024658B9B168FA
:10A1D00002200FE00A4D6B692E464BB16B6901A856
:10A1E0009847024620B1A9682046BDF8043003E034
:10A1F000B16803200022134600F03CFC02B070BDA1
:10A2000048170020072870B518D8012916D801254D
:10A21000854001FA00F0ED43094B1A68BFF35F8FE8
:10A2200005EA0204044353E8001F914203D143E8C6
:10A230000046002EF7D1BFF35F8FEDD170BD00BF98
:10A240005003002070B5012186B00546FFF78CFF52
:10A25000430404463BD5B0F5824F38D1284605214A
:10A26000FFF782FF05EB8000EE1D0024C51DAE4206
:10A2700006D030460221FFF777FF04360444F6E7A4
:10A280007B4BBFF35F8FD3E85F0F2044C3E8510FD0
:10A290000029F8D1BFF35F8F03F10C02BFF35F8F8A
:10A2A00052E8000F204442E800010029F8D1BFF332
:10A2B0005F8F303BD96B9A6B914240F0CA8093F824
:10A2C0004020002A00F0C5809B69992031E024F4E9
:10A2D000FF4020F07F0080B2002800F0978048F215
:10A2E00010039C4228D00CD8B4F5004F40F2BC803B
:10A2F00048F202039C4215D948F204039C4211D053
:10A30000B2E048F280039C420CD004D848F24003EB
:10A310009C424FD0A8E0B4F5024F03D0B4F5084FEB
:10A320006BD0A1E0534B9A69002A00F092809B69A0
:10A33000204600210A4667E00023EA1852790DF80A
:10A3400003200133042BF8D16B7A05F10D008DF851
:10A350000430AB7A8DF80530EB7A8DF806302B7B24
:10A360008DF80730002300AA1A44C15C0133042B86
:10A370001172F8D105F11100002300AA1A44C15C42
:10A380000133042B1173F8D105F11500002300AA45
:10A390001A44C15C0133042B1174F8D12B798DF868
:10A3A0001430344B9A69002A53D09B692046694681
:10A3B000152229E0053500212846FFF7DCFE04219F
:10A3C00000902846FFF7D7FE082101902846FFF7A6
:10A3D000D2FE0C2102902846FFF7CDFE10210390FB
:10A3E0002846FFF7C8FE234B04909A69002A30D014
:10A3F0009B6920466946142206E01E4B9A6942B3C7
:10A400009B692046691D0122984722E041F203031F
:10A410009C4205D0A4F580530E3B9BB2012B1AD869
:10A420006C1D20460421FFF7A6FE39301CD12A7985
:10A43000104B00212046DA62FFF79DFE04210546FD
:10A440002046FFF798FE393003D128460121FFF757
:10A45000D9FE012009E0074B1B889BB29C4204D027
:10A46000B4F5805FF5D100E0002006B070BD00BFFC
:10A47000781700204817002070B50E4C6688B6B2D9
:10A48000B6B1606805782B1F5D425D412DB1FFF7C5
:10A49000D9FE003018BF012000E02846064618B952
:10A4A00035B194F841301BB90023638001F090FD71
:10A4B000304670BD481700202DE9F04F85B00446A6
:10A4C0008A46914602F0C0FE00250190DFF808831D
:10A4D000B8F8023046469BB2002B40F0938003F060
:10A4E000E3FD02F0B1FE0290029A019BD31A03939E
:10A4F000039B002B03DA019B029A13440393B54B91
:10A500001B68002BE2D0039A9A42DFD3338841F2D2
:10A5100007029BB2934227D841F20602934261D2CE
:10A5200040F2022293425DD00FD80C2B08D8082BA2
:10A5300058D2002B4FD0062B88BF00235AD851E0A9
:10A540000D2B4CD040F201220BE041F2020293426B
:10A550004BD8B3F5805F45D8B3F5017F3FD940F2C2
:10A560000722934237D13AE041F21102934236D0AA
:10A5700014D841F20B02934234D005D841F20902BB
:10A5800093422FD031D82AE041F20F0293422CD0CF
:10A5900028D841F20D02934227D01CE042F2060275
:10A5A00093421CD007D8B3F5005F14D942F20402DD
:10A5B000934221D813E0B3F5804F00F0F28105D823
:10A5C000A3F50053083B012B09D904E044F20B0228
:10A5D000934200F0E6810B2003F064F8E1E1FF23F1
:10A5E0002370DEE14FF0FF3304E04FF0FF332360D0
:10A5F0006360D6E12360D4E1204600213A2209F0CD
:10A6000022FDCEE1D8F804603378042B40F07D8140
:10A6100001213046FFF7A8FD05463046FFF712FE40
:10A620000146002840F0668141F207039D4206F191
:10A63000050752D841F206039D4280F0AC8040F2FB
:10A6400002239D4200F0A78011D80C2D09D8082DB7
:10A6500080F0A180002D00F04D81062D00F2E880F1
:10A6600099E00D2D00F0948040F201237EE041F24C
:10A6700002039D4218D8B5F5805F00F28C80B5F5D5
:10A68000017F40F2858040F207239D4240F03281F5
:10A690003379384604F8013B0021FFF76CFD014691
:10A6A0002046FFF753FD25E141F204039D4200F0EF
:10A6B000958040F2AB8000213846FFF75CFD042115
:10A6C00020603846FFF757FD083444F8040C06F1C3
:10A6D0000D03224606F11D0175E041F211039D4272
:10A6E00056D02BD841F20B039D4254D01CD841F2D6
:10A6F00009039D424FD000F2968000213846FFF7B3
:10A700003AFD042120603846FFF735FD08216060DE
:10A710003846FFF730FD0C21A0603846FFF72BFDCF
:10A7200004F10C0BE060E4E041F20F039D426DD0B8
:10A7300037D841F20D039D4250D0DBE042F20503D1
:10A740009D4200F0998007D841F212039D4235D016
:10A75000B5F5005F1CD8CDE042F209039D4208D850
:10A7600042F208039D4213D242F206039D420FD0EB
:10A77000C0E044F20B039D4240F0BC807379384640
:10A780000121A8F83030FFF7EFFCA8F83200B1E063
:10A7900033792370AEE038460021FFF7ECFC2060EF
:10A7A000A8E000213846FFF7E6FCA3464BF8040B6F
:10A7B00004213846FFF7DFFC60609AE03846FFF777
:10A7C000D3FC208096E053F8040B8B4242F8040B34
:10A7D000F9D18FE0A016002048170020002138464C
:10A7E000FFF7C9FC042120603846FFF7C4FC0821AC
:10A7F00060603846FFF7BFFCE36804F1080B3933AB
:10A80000A06076D10121FFF7FDFC72E000213846FF
:10A81000FFF7B1FC042120603846FFF7ACFC083498
:10A8200044F8040C66E0337923713B68236061E0EF
:10A8300000213846FFF79FFC042120603846FFF7CF
:10A840009AFC082160603846FFF78EFC0A21A06060
:10A850003846FFF789FC0C3444F8020C06F111036A
:10A86000224606F1350153F8040B8B4242F8040BE3
:10A87000F9D11B8813803DE073185B796354013173
:10A880000429F9D106F109000023C15CE218013363
:10A89000042B1171F9D106F10D000023C15CE218FF
:10A8A0000133042B1172F9D106F111000023C15CB0
:10A8B000E2180133042B1173F9D106F115000023BE
:10A8C000C15CE2180133042B1174F9D106F11900AF
:10A8D0000023C15CE2180133062B1175F9D106F192
:10A8E0001F000023C15CE2180133202B9176F9D1BF
:10A8F00000E05C46B8F800202C4B92B2954236D16D
:10A9000000221A8083F8412031E0B8F836309BB23B
:10A910006BB33046032196F802B0FFF725FC0746DB
:10A92000BAF1000F0BD00421701DFFF724FC06F1D3
:10A9300015010246C9F80000504609F060FBCBEB58
:10A9400007077B1EB3F5806F07D20BF10501204688
:10A9500031443A4609F053FB01E04FF0FF37B9F1BB
:10A96000000F01D0C9F800700023A8F8363000238A
:10A97000A8F8023001F02CFB3378042B05D1B5F593
:10A98000805F02D13046FFF703FCB8F800309BB27D
:10A99000002B7FF49BAD054BDB8E9BB2002B7FF42D
:10A9A00095AD002005B0BDE8F08F00BF481700202E
:10A9B00007284FF0010308D803FA00F0044A126890
:10A9C00010420CBF0020012070471846704700BF9E
:10A9D00050030020034B1880084600210A46FFF769
:10A9E0006BBD00BF4817002010B5034B0124DC8667
:10A9F000BDE81040FFF760BD4817002038B503469A
:10AA0000154601224A710C46881D1946FFF7A7FB1F
:10AA1000291D0570204601F045FB002038BD38B5E2
:10AA2000BDF814500C462B44D518ADB2022161710B
:10AA3000A071E271294604F10800FFF790FB691D3F
:10AA4000204689B201F02EFB002038BD38B51344F2
:10AA50000C469DB202216171A0712946E27104F198
:10AA60000800FFF77CFB691D204689B2BDE838402D
:10AA700001F018BB2DE9F84F1C4604F1020B03232B
:10AA800001F107091FFA8BFB88710D464B7148468F
:10AA900059461646FFF763FBB4F57A7F824605F107
:10AAA0000B0812D82146FFF75AFB21465046FFF704
:10AAB00056FB31464046224609F0A1FAA11D284620
:10AAC00089B2BDE8F84F01F0EDBA4FF47A77B4FBE4
:10AAD000F7F30BEB430189B2FFF741FB39465046D0
