:020000040800F2
:105000000050002079B30008E99B0008EB9B0008E2
:10501000F59B0008FF9B0008099C000800000000A9
:10502000000000000000000000000000139C0008C9
:10503000159C000800000000179C0008199C00083F
:10504000CDB30008CDB30008CDB300087D9E0008A5
:10505000CDB30008CDB30008899C0008A99C0008C6
:10506000C99C0008FD9C00081D9D0008CDB30008E8
:10507000CDB30008CDB30008CDB30008E59E00080D
:10508000CDB30008CDB30008299C0008CDB30008BB
:10509000E99E0008CDB30008CDB300083D9D00088F
:1050A000CDB30008CDB30008CDB30008059E0008BD
:1050B0004D9E00085D9E00086D9E0008599C0008EA
:1050C000699C0008CDB30008CDB30008799C0008A6
:1050D000CDB30008399C0008499C0008CDB30008F6
:1050E0008D9D0008A59E0008CDB3000800000000BB
:1050F00000000000000000000000000000000000B0
:0C51000000000000000000005FF808F153
:1051100010F8012B11F8013B012A28BF9A42F7D061
:10512000D01A704781F0004102E000BF83F00043D5
:1051300030B54FEA41044FEA430594EA050F08BF32
:1051400090EA020F1FBF54EA000C55EA020C7FEAF6
:10515000645C7FEA655C00F0E2804FEA5454D4EB73
:105160005555B8BF6D420CDD2C4480EA020281EA3D
:10517000030382EA000083EA010180EA020281EA75
:105180000303362D88BF30BD11F0004F4FEA0131C7
:105190004FF4801C4CEA113102D0404261EB4101D6
:1051A00013F0004F4FEA03334CEA133302D052425C
:1051B00063EB430394EA050F00F0A780A4F1010418
:1051C000D5F1200E0DDB02FA0EFC22FA05F2801852
:1051D00041F1000103FA0EF2801843FA05F3594138
:1051E0000EE0A5F120050EF1200E012A03FA0EFCB7
:1051F00028BF4CF0020C43FA05F3C01851EBE371E1
:1052000001F0004507D54FF0000EDCF1000C7EEBFD
:1052100000006EEB0101B1F5801F1BD3B1F5001F3B
:105220000CD349085FEA30004FEA3C0C04F101045A
:105230004FEA445212F5800F80F09A80BCF1004F83
:1052400008BF5FEA500C50F1000041EB045141EA05
:10525000050130BD5FEA4C0C404141EB010111F406
:10526000801FA4F10104E9D191F0000F04BF0146B1
:105270000020B1FA81F308BF2033A3F10B03B3F18F
:1052800020020CDA0C3208DD02F1140CC2F10C021F
:1052900001FA0CF021FA02F10CE002F11402D8BF7D
:1052A000C2F1200C01FA02F120FA0CFCDCBF41EA49
:1052B0000C019040E41AA2BF01EB0451294330BD18
:1052C0006FEA04041F3C1CDA0C340EDC04F11404F5
:1052D000C4F1200220FA04F001FA02F340EA0300CC
:1052E00021FA04F345EA030130BDC4F10C04C4F112
:1052F000200220FA02F001FA04F340EA03002946F2
:1053000030BD21FA04F0294630BD94F0000F83F43B
:10531000801306BF81F480110134013D4EE77FEA1E
:10532000645C18BF7FEA655C29D094EA050F08BF6A
:1053300090EA020F05D054EA000C04BF194610464B
:1053400030BD91EA030F1EBF0021002030BD5FEA8F
:10535000545C05D14000494128BF41F0004130BDB7
:1053600014F580043CBF01F5801130BD01F000450B
:1053700045F0FE4141F470014FF0000030BD7FEA7E
:10538000645C1ABF194610467FEA655C1CBF0B4679
:10539000024650EA013406BF52EA033591EA030F90
:1053A00041F4002130BD00BF90F0000F04BF002188
:1053B000704730B54FF4806404F132044FF00005BB
:1053C0004FF0000150E700BF90F0000F04BF002134
:1053D000704730B54FF4806404F1320410F000459A
:1053E00048BF40424FF000013EE700BF42004FEA95
:1053F000E2014FEA31014FEA02701FBF12F07F4312
:1054000093F07F4F81F06051704792F0000F14BF0E
:1054100093F07F4F704730B54FF4607401F0004552
:1054200021F0004120E700BF50EA010208BF7047A9
:1054300030B54FF000050AE050EA010208BF70479E
:1054400030B511F0004502D5404261EB41014FF407
:10545000806404F132045FEA915C3FF4DCAE4FF00B
:1054600003025FEADC0C18BF03325FEADC0C18BFF2
:10547000033202EBDC02C2F1200300FA03FC20FA43
:1054800002F001FA03FE40EA0E0021FA02F1144490
:10549000C1E600BF70B54FF0FF0C4CF4E06C1CEAA5
:1054A00011541DBF1CEA135594EA0C0F95EA0C0F1A
:1054B00000F0DEF82C4481EA030621EA4C5123EA8D
:1054C0004C5350EA013518BF52EA033541F48011BC
:1054D00043F4801338D0A0FB02CE4FF00005E1FB6F
:1054E00002E506F00042E0FB03E54FF00006E1FBB9
:1054F00003569CF0000F18BF4EF0010EA4F1FF04FC
:10550000B6F5007F64F5407404D25FEA4E0E6D413B
:1055100046EB060642EAC62141EA55514FEAC5204C
:1055200040EA5E504FEACE2EB4F1FD0C88BFBCF5C8
:10553000E06F1ED8BEF1004F08BF5FEA500E50F179
:10554000000041EB045170BD06F0004646EA01013F
:1055500040EA020081EA0301B4EB5C04C2BFD4EB71
:105560000C0541EA045170BD41F480114FF0000E6A
:10557000013C00F3AB8014F1360FDEBF002001F0D8
:10558000004170BDC4F10004203C35DA0C341BDC52
:1055900004F11404C4F1200500FA05F320FA04F024
:1055A00001FA05F240EA020001F0004221F0004158
:1055B00010EBD37021FA04F642EB06015EEA430ECB
:1055C00008BF20EAD37070BDC4F10C04C4F12005FB
:1055D00000FA04F320FA05F001FA04F240EA0200AE
:1055E00001F0004110EBD37041F100015EEA430E7F
:1055F00008BF20EAD37070BDC4F1200500FA05F29F
:105600004EEA020E20FA04F301FA05F243EA02031D
:1056100021FA04F001F0004121FA04F220EA02002C
:1056200000EBD3705EEA430E08BF20EAD37070BD72
:1056300094F0000F0FD101F00046400041EB010152
:1056400011F4801F08BF013CF7D041EA060195F034
:10565000000F18BF704703F00046520043EB0303EE
:1056600013F4801F08BF013DF7D043EA06037047DB
:1056700094EA0C0F0CEA135518BF95EA0C0F0CD0E6
:1056800050EA410618BF52EA4306D1D181EA03012C
:1056900001F000414FF0000070BD50EA410606BF26
:1056A0001046194652EA430619D094EA0C0F02D16B
:1056B00050EA013613D195EA0C0F05D152EA0336B0
:1056C0001CBF104619460AD181EA030101F00041CE
:1056D00041F0FE4141F470014FF0000070BD41F017
:1056E000FE4141F4780170BD70B54FF0FF0C4CF4F1
:1056F000E06C1CEA11541DBF1CEA135594EA0C0F10
:1057000095EA0C0F00F0A7F8A4EB050481EA030E5C
:1057100052EA03354FEA013100F088804FEA033343
:105720004FF0805545EA131343EA12634FEA022211
:1057300045EA111545EA10654FEA00260EF00041D2
:105740009D4208BF964244F1FD0404F5407402D224
:105750005B084FEA3202B61A65EB03055B084FEAB5
:1057600032024FF480104FF4002CB6EB020E75EBB2
:10577000030E22BFB61A754640EA0C005B084FEADA
:105780003202B6EB020E75EB030E22BFB61A754657
:1057900040EA5C005B084FEA3202B6EB020E75EBA2
:1057A000030E22BFB61A754640EA9C005B084FEA1A
:1057B0003202B6EB020E75EB030E22BFB61A754627
:1057C00040EADC0055EA060E18D04FEA051545EA16
:1057D00016754FEA06164FEAC30343EA52734FEABF
:1057E000C2025FEA1C1CC0D111F4801F0BD141EA38
:1057F00000014FF000004FF0004CB6E711F4801F9D
:1058000004BF01430020B4F1FD0C88BFBCF5E06F7C
:105810003FF6AFAEB5EB030C04BFB6EB020C5FEA8C
:10582000500C50F1000041EB045170BD0EF0004EE1
:105830004EEA113114EB5C04C2BFD4EB0C0541EA13
:10584000045170BD41F480114FF0000E013C90E610
:1058500045EA060E8DE60CEA135594EA0C0F08BFD4
:1058600095EA0C0F3FF43BAF94EA0C0F0AD150EAD3
:1058700001347FF434AF95EA0C0F7FF425AF104666
:1058800019462CE795EA0C0F06D152EA03353FF48E
:10589000FDAE1046194622E750EA410618BF52EA0B
:1058A00043067FF4C5AE50EA41047FF40DAF52EADF
:1058B00043057FF4EBAE12E74FF0FF3C06E000BF7C
:1058C0004FF0010C02E000BF4FF0010C4DF804CD89
:1058D0004FEA410C7FEA6C5C4FEA430C18BF7FEA49
:1058E0006C5C1BD001B050EA410C0CBF52EA430C77
:1058F00091EA030F02BF90EA020F0020704710F1F7
:10590000000F91EA030F58BF994208BF90422CBF85
:10591000D8176FEAE37040F0010070474FEA410C7E
:105920007FEA6C5C02D150EA013C07D14FEA430C9C
:105930007FEA6C5CD6D152EA033CD3D05DF8040B0D
:10594000704700BF8446104662468C46194663463F
:1059500000E000BF01B5FFF7B7FF002848BF10F116
:10596000000F01BD4DF808EDFFF7F4FF0CBF01205B
:1059700000205DF808FB00BF4DF808EDFFF7EAFFD7
:1059800034BF012000205DF808FB00BF4DF808ED92
:10599000FFF7E0FF94BF012000205DF808FB00BF87
:1059A0004DF808EDFFF7CEFF94BF012000205DF811
:1059B00008FB00BF4DF808EDFFF7C4FF34BF01201E
:1059C00000205DF808FB00BF4FEA410212F500120B
:1059D00015D211D56FF47873B3EB625212D94FEA36
:1059E000C12343F0004343EA505311F0004F23FA20
:1059F00002F018BF404270474FF00000704750EA75
:105A0000013005D111F0004008BF6FF00040704731
:105A10004FF00000704700BF014B0360704700BFAC
:105A200098770108014B0360704700BFB077010809
:105A300002289CBF014B1954704700BFA8040020E6
:105A4000014B0360704700BFB077010810B5034BEE
:105A50000446036001F082FB204610BD98770108E0
:105A600010B5034B0446036001F078FB204610BDDF
:105A7000B077010810B5034B0446036001F06EFBDC
:105A8000204610BDB0770108F8B503460C460C4817
:105A90001946164602F056FE2546A719BD4208488B
:105AA00004D015F8011B02F03CFEF7E702F03EFEC1
:105AB00020463146034ABDE8F84005F055B900BF1D
:105AC0001C170020AC040020F0B5012185B005466C
:105AD00002F0BCFFA0F13006072E044625D8164977
:105AE000684602F039FF2846694602F09DFF0746E6
:105AF000684602F0EFFE0FB1B4B20EE00F496846FF
:105B000002F02AFF2846694602F08EFF05466846E5
:105B100002F0E0FE65B1263CA4B22046032101F06C
:105B200005FF204601F0C8FF04E04FF0FF3001E020
:105B30006FF0010005B0F0BD40A2010842A20108CB
:105B4000F0B5012185B0044602F080FFA0F13006D7
:105B5000072E45D8684621460322072302F078FF26
:105B60006846244902F036FF0546684602F0B2FE58
:105B70007DB9684621460322062302F069FF684684
:105B80001D4902F027FF0746684602F0A3FE0FB941
:105B900029E001251949684602F0DEFE20466946E3
:105BA00002F042FF0746684602F094FE6FB91449BE
:105BB000684602F0D1FE2046694602F035FF0446F1
:105BC000684602F087FE8CB10A36B6B23046012133
:105BD00001F0ACFE3046294601F02EFF012007E01F
:105BE0004FF0FF3004E06FF0010001E06FF00200C1
:105BF00005B0F0BD44A2010849A2010840A2010875
:105C000042A20108F0B5012185B0064602F01EFF50
:105C1000A0F13007072F05462AD81949684602F037
:105C20009BFE3046694602F0FFFE0446684602F0DD
:105C300051FE34B1BCB22046002101F077FE20466F
:105C400013E01049684602F087FE3046694602F0CC
:105C5000EBFE0646684602F03DFE66B1263DADB25B
:105C60002846214601F062FE284601F0E7FF04E0E5
:105C70004FF0FF3001E06FF0010005B0F0BD00BF54
:105C800040A2010842A20108F0B5012189B00446F2
:105C900002F0DCFEA0F13006072E05463ED80322B6
:105CA0006846214602F0FAFE1F4904A802F054FE9D
:105CB000204604A902F0B8FE074604A802F00AFE36
:105CC00057B1B6B20121304601F030FE684602F00D
:105CD000ECFEC1B2304617E0144904A802F03CFEC5
:105CE000204604A902F0A0FE044604A802F0F2FD3A
:105CF00074B1263DADB20121284601F017FE684679
:105D000002F0D3FEC1B2284602F030F8012401E0CF
:105D10006FF00104684602F0DDFD01E04FF0FF3452
:105D2000204609B0F0BD00BF40A2010842A2010810
:105D30000228F8B55FD8461CF600C500F6B2EDB2F1
:105D4000152E28BF15262B4600240122B34217D258
:105D5000A3F1080001280ED9142B0CD02648C7182F
:105D60003F7F012F07D80A4200EB83000CBF0027BA
:105D700001271443476352000133D2B2DBB2E5E797
:105D8000CEB2E10704D5284606F0010101F054FE29
:105D9000A20704D5681C06F0020101F04DFE63075E
:105DA00004D5A81C06F0040101F046FE270704D51F
:105DB000E81C06F0080101F03FFEE00604D5281DAE
:105DC00006F0100101F038FEA10604D5681D06F0AA
:105DD000200101F031FE620604D5A81D06F0400145
:105DE00001F02AFE230606D5E81D06F08001BDE875
:105DF000F84001F021BEF8BDA804002007280ED805
:105E00000122074B02FA00F021B9D3F8881021EAE9
:105E1000000102E0D3F888100143C3F888107047EE
:105E2000A8040020142870B504460D461BD80E4B5C
:105E30001A18127F1E46032A04D0042A13D103EB3A
:105E400080040FE0012807D9A0F10A03012B03D930
:105E5000A0F10E03032B03D82046E9B201F086FF20
:105E600006EB8404656370BDA804002010B502F041
:105E700039F80C4BC3F88C000A4C04F1900002F086
:105E800057FE20B1084802F053FEC0B210BD02F028
:105E900029F8D4F88C3042F21072C01A9042F1D82E
:105EA000EAE700BFA80400203805002070B50546C9
:105EB00013480E4602F009FE0024C1B20A2907D198
:105EC00000232B550F48013402F030FCE0B270BDC6
:105ED000FF29F5D071B10D290CD0721E944202DA5F
:105EE0002955013403E008460FF036FEC1B20548DB
:105EF00002F017FC024802F0E8FDC1B2DEE700BF85
:105F0000380500201C1700202DE9F041074688467F
:105F100016460024B4420EDAE5190848294602F074
:105F20006BF918F80420904203D00448294602F087
:105F300077F90134EEE7BDE8F08100BFEA140020F4
:105F4000F8B505460E4617460024BC4206DA61192C
:105F5000034802F051F930550134F6E7F8BD00BFAF
:105F6000EA14002010B50446214601202122FFF743
:105F7000E7FF002384F8203010BD000008B501467B
:105F800021220120FFF7C0FFBDE8084002480021A0
:105F90004F2202F045B900BFEA14002010B50446B4
:105FA000214622202522FFF7CBFF002384F824304E
:105FB00010BD000008B5014625222220FFF7A4FFEE
:105FC000BDE80840024800214F2202F029B900BF75
:105FD000EA14002000B58FB0014601A80FF0EDFAD9
:105FE00001A9054802F099FB01A9044802F095FBBC
:105FF0000FB05DF804FB00BF1C170020380500201F
:1060000030B528489BB02849502202F05FFE28B9DD
:10601000244802F00FFE254825493DE02548FFF7BA
:10602000D9FF2548FFF7D6FF2448FFF7D3FF2448C0
:10603000FFF7D0FFFFF71AFF28B91A4802F0FAFD60
:106040001A48204928E001A86421FFF72FFFF0B18A
:1060500001A81D490FF009FBC8B10D2401A8642156
:10606000FFF724FF28B90F4802F0E4FD0F48174955
:1060700012E0013CF2D101A8FFF79CFF642101A8C6
:10608000FFF714FF01A8FFF779FF012007E005489B
:1060900002F0D0FD05480E4902F054FB00201BB071
:1060A00030BD00BF380500204DA201081C1700209C
:1060B00057A20108A8760108C7760108F9760108F9
:1060C0001077010862A201086EA2010872A20108FD
:1060D0008AA2010870B505460948431993F828417A
:1060E00006460C401AB993F82B31A34207D0294633
:1060F00004482246354405F01FF885F82B4170BD51
:10610000A80400201018002070B56D4E3378002BC5
:1061100045D096F82851E90740F19E80002001F013
:10612000CBFC002800F098800124AA0705D50120A7
:1061300001F0C2FC002840F091806B0705D50220D9
:1061400001F0BAFC002840F08C80280705D5032018
:1061500001F0B2FC002840F08780E90605D5042054
:1061600001F0AAFC002840F08280AA0604D5052090
:1061700001F0A2FC00287DD16B0604D5062001F0B9
:106180009BFC002879D12D0604D5072001F094FC52
:10619000002875D1002021460246FFF79BFF737847
:1061A000002B32D0464B93F829516C076BD50A204F
:1061B00001F082FC002866D00424280704D50B20B7
:1061C00001F07AFC002860D1E90604D50C2001F02A
:1061D00073FC00285CD1AA0604D50D2001F06CFCEC
:1061E000002858D16B0604D50E2001F065FC00286C
:1061F00054D12D0604D50F2001F05EFC002850D1AB
:10620000012021460022FFF765FFB378002B56D00E
:106210002B4B93F82A51E80746D5102001F04CFC8F
:10622000002841D00124A90703D5112001F044FC26
:10623000E0BB6A0703D5122001F03EFCC8BB2B0768
:1062400003D5132001F038FCB0BB21460220002208
:10625000BDE87040FFF73EBF002466E744F002044B
:106260006BE744F0040470E744F0080475E744F079
:1062700010047AE744F020047EE744F0400482E70B
:1062800044F0800486E7002497E744F008049BE785
:1062900044F010049FE744F02004A3E744F04004D6
:1062A000A7E744F08004ABE70024BCE744F0020415
:1062B000BFE744F00404C2E744F00804C5E770BD3A
:1062C000A8040020034B002283F82E21024BFF225A
:1062D0001A707047A804002000000020F8B5484D4F
:1062E00004462B181B7F0E46062B06D195F82E313F
:1062F0001BB1062901D0FFF7E5FFA4F10A07FFB2A1
:10630000072F06D8B31E594238465941FFF776FD8C
:1063100001E0142C15D8A4F10803012B11D9142C79
:106320000FD0E308012104F007022B4401FA02F226
:1063300093F828110EB90A4301E021EA020283F81A
:10634000282105EB840300225A63062E51D8DFE88A
:1063500006F01124043756504A00072F4FD8204624
:10636000002101F0E3FA2046002101F065FB2C44F6
:1063700002233CE0142C42D8A4F10803012B3ED99F
:10638000142C3CD02046002101F0D0FA20460021F8
:1063900001F052FB2C44002329E0142C2FD8A4F147
:1063A0000803012B2BD9142C29D02046002101F001
:1063B00043FB2046012101F0B9FA2C44012316E0E9
:1063C000012C05D9012F03D9A4F10E03032B16D8F4
:1063D0002046012101F0AAFA2046002101F0C6FC66
:1063E0002C44032303E0012C09D82C4406232377F3
:1063F000F8BD04480449BDE8F84004F0DEBEF8BD2D
:10640000A804002010180020A1A2010810B5002443
:10641000E0B2012802D80621FFF760FF0134152CF5
:10642000F6D1044B01220448BDE8104083F82E2128
:1064300001F07ABFA80400205815002038B5134C8D
:1064400094F82E310BB1FFF73DFF0023237084F841
:10645000283184F82B31637084F8293184F82C3189
:10646000A37084F82A3184F82D311D46E8B2A0F1DA
:106470000A03072B94BF022101210135FFF72EFFEC
:10648000152DF3D10023C4F8883038BDA8040020AE
:1064900010B523484FF4614102F0EAFE2148224939
:1064A00000F052FF21482249224C00F04DFF2248C3
:1064B000224900F049FF2248224900F045FF042309
:1064C00020462149022204F0B3FD2046E0211F4A64
:1064D00004F07DFE204690211D4A04F078FE2046FF
:1064E000C0211C4A04F073FE2046D0211A4A04F051
:1064F0006EFE2046F421194A04F069FE2046F02180
:10650000174A04F07FFE2046FF21164A04F076FE6B
:106510002046154904F081FDBDE81040FFF78EBF0D
:106520001C170020B2A20108C95A0008BEA2010827
:10653000415B000810180020CBA20108055C000890
:10654000D6A20108895C0008E2A20108255E0008C5
:10655000315D0008FD5D0008315A0008DD62000869
:10656000F56600083D640008D80500202DE9F743D2
:106570002B4C2C4D002104F5A4760B4600910A46C5
:10658000304602F071F8DFF8B0802A4630462649DE
:1065900004F5A8760EF0F8FD3046962104F044FC90
:1065A00004F5B0772A46414630460EF0EDFD3846F8
:1065B000322104F039FC04F5987941462A46DFF887
:1065C0007C8038460EF0E0FD31463A46484604F0FD
:1065D000A5FC41462A46484604F104090EF0D4FDC4
:1065E00039463246484604F099FC04F1900641468B
:1065F0002A4648460EF0C8FD304602F09BFB2A466C
:1066000030460A490EF0C0FD009604F5B8700849FE
:1066100040F25B72074B03F085FF03B0BDE8F083E7
:10662000A804002070080020195A0008255A000804
:1066300001000020895A000841AE0008415A0008B4
:106640004B1C2DE9F04107460D461446234E10D051
:106650002348394601F024FFE9B2214801F03EFE0B
:106660001F4801F08FFFD6F81C0218B101F03CFC66
:1066700000E0002539462246194801F00DFF184870
:1066800001F0E0FD844202DA1648174906E014489A
:1066900001F0D8FD844203DD1248144904F08DFD59
:1066A00086F8215286F820720025A54208DBA21C3C
:1066B0000C487721D2B20E4BBDE8F04104F054BD36
:1066C000074801F0BFFD0028F1D0054801F0C2FDE8
:1066D000074B2B4498700135E7E700BFA804002062
:1066E0005815002010180020F9A2010821A3010864
:1066F000C80600206938F8B50D461446112800F286
:106700008181DFE810F06A017F01E0007F0136013E
:106710007F01CD007F017F017F017F017F017F012C
:1067200012007F01AF007F01C000527802F0180311
:1067300002F0200202F0FF0012B1B348B34942E078
:10674000082B217821D001D82BB1F8BD102B33D0E4
:10675000182B53D0F8BDAE4801F0A2FE0226AE427F
:106760000BD2A3195978A35DA94803EBC111C9B293
:10677000023601F0B3FDF6B2F1E7A54801F002FFE1
:10678000BDE8F840462001F0AFBB062DE278A378C3
:1067900008D103EBC2136079227902EBC0120846DC
:1067A000D9B204E0084603EBC2124FF0FF31D2B277
:1067B000BDE8F840FFF744BF964B1A7850B2062860
:1067C00005DD91489449BDE8F84004F0F6BC01327B
:1067D000D2B21A70914B52B202EB42021A4482F8C2
:1067E0004012E17802F51073A27802EBC1125A70E0
:1067F0006179227902EBC1129A70F8BD854B1C7841
:106800001F4662B2002A0BDCFF221A70F8BD834ECD
:1068100003EB4305354495F8405201308D421CD0BE
:10682000C3B29A42F3DA002317E0072B03F1010108
:1068300012D87A4801EB4106064406F5107503EBC1
:10684000430396F84062034403F5107083F84062F6
:106850006B784370AB788370CBB29A42E5DA013C37
:106860003C70F8BD1378527813EBC2126B4B18BF13
:10687000C3F81C2293F82E31002B40F0C380BDE8F2
:10688000F840FFF7C3BD012940F2BC80137852786D
:1068900003EBC212092A5F4B98BF0A229A61F8BD26
:1068A000012940F2AF80022D517807D09378032D53
:1068B00041EAC3111CBFD37841EA83312078BDE897
:1068C000F840FFF7AFBA5048F02104F07AFC4E4888
:1068D0006C2104F076FC0025ECB2A4F10803012B36
:1068E00011D9142C0FD04848002104F06AFC464806
:1068F000012104F066FC4448012104F062FC424896
:10690000012104F05EFCA4F10A06F6B2072E08D8B5
:106910003D48022104F055FC3B480A2104F051FC9B
:1069200014E0012C12D83848032104F04AFC364800
:10693000082104F046FC012C0ED83348062104F04F
:1069400040FC3148012104F03CFC05E0012EEAD96D
:10695000A4F10E03032BE6D92B487F21013504F067
:1069600030FC152DB8D12848F721BDE8F84004F0D7
:1069700028BC002946D014782348F02104F021FCDB
:1069800021486E2104F01DFC1F48214604F019FC2B
:10699000142CE8D8214D1C482B19A400197F2E195E
:1069A00004F00FFC716B184801F07F0104F009FC42
:1069B000716B4FF680730B4023B11348C1F3C611BE
:1069C00004F0FFFB2C44616B11F4404FCBD00E4818
:1069D000C1F3863104F0F5FBC5E70B48F02104F064
:1069E000F0FB09486A2104F0ECFBF624082C34BFC4
:1069F00021467F2101340448E4B204F0E2FB0B2C71
:106A0000F4D1B0E7F8BD00BF1018002048A301087A
:106A1000581500200000002068A30108A8040020E9
:106A2000F0B5674895B003F09BFF00286CD0FFF7E6
:106A30006BFB644804F034FB044618B1614804F071
:106A4000FFFBF6E701F04EFA5F4B604ED3F85C2295
:106A5000B169C3F85802801A88421F464CD90A44CB
:106A6000C3F85C22A4F10A05EDB2072D12D8564BEB
:106A700003F11C02A25C022A0CD1D3F888302B410E
:106A8000DB0707D5284601F0D9F8294602464D48CC
:106A900004F041FB0134152CE4D196F90030002BB1
:106AA0002ADB002496F90020E3B29A4204F10104A3
:106AB00022DB03EB43033B4493F8400293F841127B
:106AC00093F84222FFF7BCFDECE7414804F009FAD5
:106AD000332817DC3E4804F004FA04F01DF904469C
:106AE0003C4922463648002303F0FCFF3848224642
:106AF00000F18C0104F066F8354804F0F2F9002842
:106B0000E3D15AE03320E8E7314804F0EAF918B15C
:106B10002F4804F0E9F9F7E72F48304901F012FE59
:106B20002F4B0AAC03F12005264618685968224607
:106B300003C20833AB421446F7D11868294C1B79BD
:106B400001AD1371106004F120032F4620686168C5
:106B50002A4603C208349C421546F7D123783046B2
:106B60001370FFF71BFA20491B4801F0D6FD314690
:106B7000194801F0E7FD3846FFF7F4F91B491648BC
:106B800001F0CBFD3946144801F0DCFD0C481849F2
:106B900032463B4603F0DAFE40B116490E4801F09A
:106BA000D1FD3146064803F0F1FF06E0044803F04A
:106BB000C6FC042801D1FFF723FA15B0F0BD00BFD1
:106BC0001806002010180020A80400200000002053
:106BD000AC04002079A301081C1700207CA3010845
:106BE000A3A30108C8A301088AA3010891A301086F
:106BF000D1A5010899A30108013101EB420291429C
:106C00000BD0030F092B94BF3033373301F8013C0D
:106C10000023000101F8023BF1E770471F4B10B55C
:106C20001A88032A04D804200146188008F042F884
:106C30004FF000604FF4A04107F090FF0124184B83
:106C4000184821461C7008F049FA06F0DBFF06F0F0
:106C5000C1FC2146402008F015FC6FF07F4006F093
:106C60002BFEE72006F0A4FE0F4B1C7006F0FCFC88
:106C70007D2008F037FC18B10C4B1C7008F046FC66
:106C800040F6B83006F04AFD07F0AEFA07F028FDEE
:106C9000074A01231370074A137010BDD41800204F
:106CA000B01800200004300048170020A421002064
:106CB000CC170020C217002038B52F4C2388042B96
:106CC00004D805210420218007F0F4FF2B4D2B78F8
:106CD00013B12B4802F04CFD2B7853B12388052BC0
:106CE00005D8254B06210420198007F0E3FF02F0A8
:106CF00015FE2B7863B1234B1B784BB9224B1B78C5
:106D000033B1224B1B781BB9214B1B78002BE3D0EE
:106D1000204B1B78002BDFD11F4B1B78002BDBD1C6
:106D20001B4B1B78012B0FD01C4B6BB12388062B00
:106D300005D8114B07210420198007F0BBFFFFF78E
:106D4000A7FB134B01221A70154B002BC4D02388CC
:106D5000072B05D8084B08210420198007F0AAFF4B
:106D6000FFF75EFE2388082BB6D8034B09210420C9
:106D7000198007F09FFFAFE7D4180020CC17002040
:106D80000D76000881170020C2170020461700204A
:106D90000807002047170020A42100209164000864
:106DA000216A0008F8B5524B1A6812B11A68013A04
:106DB0001A60504B504D1B783BB1504B1B78002B49
:106DC00028D04F4B002B47D124E04E4C2368264659
:106DD00013B12368013B0FE04B4B1B78D3B94B4BEE
:106DE0001B78BBB94A4B1B78A3B94A4F3B782BB1F0
:106DF000E72006F051FE142323600BE02B78002BD4
:106E00002DD1E72006F002FE434B1B78002B34D037
:106E1000322333602B7833B1404C23781BB92EE0FA
:106E20005A6801325A603E4B1A68B2F57A7F0FD326
:106E300000221A6008F07AFA3A4B4FF6FF711A886E
:106E40008A4254D019800420BDE8F84007F032BFD0
:106E50001A6801321A60F8BD00F038FCDAE7324BEC
:106E60001B78002BCDD04FF6FF7006F025FDE720F4
:106E700006F09EFD01233B70CCE76423C9E7234B5A
:106E80001B788BB1294B47F22F5259689142C7D9D1
:106E9000BFF34F8F264A274BD16801F4E0610B43C3
:106EA000D360BFF34F8FFEE7174B1B7803F0FF054E
:106EB00033B9284606F006FF40F6B73398420DD89E
:106EC000002006F0FFFE41F657339842ABD9002070
:106ED00006F000FF184B01221A70A4E7284606F0BE
:106EE000F9FE2378002B9ED102F034FA9BE7F8BD1F
:106EF000AC21002090180020CC170020A40A00200C
:106F0000CD760008A821002079170020471700201F
:106F1000491700204817002045170020811700203E
:106F2000B0210020D41800204617002008070020B8
:106F300000ED00E00400FA057817002008B5094BC1
:106F4000186007F0F7F8002007F040F9064806F04F
:106F500065FB07F007F907F025F9BDE8084009F0DF
:106F6000BBB900BFD4020020A0860100074B1B68FC
:106F7000052B08D1064B1A7A012A04D1987A1B7B7B
:106F8000C01AC0B270470020704700BFD818002058
:106F9000080700200D4B10B51B68052B13D10C4CB6
:106FA000237A012B0FD16289A389D31A012B04D133
:106FB00000230320237209F0E6FAA3895A1CA28158
:106FC0001C44A07B10BD4FF0FF3010BDD81800202E
:106FD0000807002008B50C4B1B68052B12D10B4B82
:106FE0001A6D99180132B2F5807F08BF002281F82E
:106FF00054001A6506F082FF20B16420BDE8084005
:1070000006F00CBB08BD00BFD81800200807002000
:10701000F8B5234B93F85421012A3FD0D3F85821D7
:10702000196DB2F5807F04BF0022C3F85821D3F850
:1070300058411B4A8C4203D1002382F85431F8BDD9
:107040008CBFC4F58071C4EB0101C2F85C11D3F8A8
:107050005C61134D402EA2B207D94034403EC5F8C2
:107060005841C5F85C61402706E034440021B7B2BE
:10707000C5F85841C5F85C110A4801241044C021E4
:107080003A4683F8544109F0F9F92046394609F0A7
:10709000FDFA2046BDE8F84009F062BAF8BD00BF2D
:1070A000080700205C070020094B10B593E8140086
:1070B00008331B68D0180AD006490822FFF79CFD48
:1070C000204605490422BDE81040FFF795BD10BDDC
:1070D000E8F7FF1F810200209102002013B5084C41
:1070E000002100910A460B46204601F0BDFA0549F1
:1070F000054A204602B0BDE810400EF045B800BF7A
:1071000068080020195A00087008002038B50446A5
:107110000D46AC4203D254F8043B9847F9E738BD1A
:1071200008B507480749FFF7F1FF07480749FFF788
:10713000EDFFBDE8084006480649FFF7E7BF00BF7E
:10714000A4A90108A4A90108A4A9010810AA01087A
:1071500010AA010810AA01080EF066B80EF06CB86B
:107160000EF06AB808B5072007F0DEFBFEE7000066
:10717000074A08B5136818441060064A904204D9BB
:10718000082007F0D1FB0EF02DF8184608BD00BF0F
:107190001C000020004800204FF0FF307047012005
:1071A000704708B50C2007F0BFFBFEE7014B1868DD
:1071B000704700BF74080020064B0246582000FBB1
:1071C000013101F1080303CB106051601868906031
:1071D000704700BF74080020014BD3F8640170476A
:1071E00074080020064B0246142000FB013101F513
:1071F000B67303CB1060516018689060704700BF91
:107200007408002038B50546064C28B106F0F6FB98
:10721000012384F8303238BD06F09EFB84F83052EA
:1072200038BD00BF740800200E4B2DE9F041D3F8A3
:10723000647180460024BC4211DA14256543094E6E
:10724000414606F5B67028440C220EF0C6F920B966
:107250003544D5F86801BDE8F0810134EBE7002042
:10726000BDE8F08174080020044B01221A70044B21
:1072700000224FF4C0201A6007F02CB847170020F6
:107280000C070020034A00231370034A136007F021
:107290007FB800BF471700200C070020024B0022D8
:1072A0001A6007F03FB800BF0C0700202DE9F04737
:1072B00088B0804668460D4601F04EFB1E4B002408
:1072C000D3F800A054452DDA55B3582666431A4F1B
:1072D000414607F1080030440C2207F104090EF082
:1072E0007CF9E8B928460EF070F906F11003402841
:1072F00034BF02464022294609EB03000DF0C1FFCE
:107300003E44012386F85830694604A8746801F0A9
:1073100045FB04A8A047044604A801F0DBFA03E0FB
:107320000134CFE74FF0FF34684601F0D3FA20462E
:1073300008B0BDE8F08700BF74080020014B93F847
:1073400031027047740800202DE9F84F0446894641
:1073500000293DD000283BD01E4D2E68042E37D08A
:1073600005F108074FF0000805F1040AB0450DDAF1
:1073700057F8043C4B4505D1384621460C220EF007
:107380002CF928B308F101085837EFE74FF05808F7
:1073900008FB06F805EB080708F110000021402261
:1073A000C7F8049050440DF090FF0AEB080000214C
:1073B00004300C220DF089FF2068616807F1080392
:1073C00003C3A06801361860002387F858302E6088
:1073D000BDE8F88F7408002073B5002B0CBF65233F
:1073E000452306460D461446009331462A46234659
:1073F000024809F003FD02B070BD00BFA80A0020DA
:1074000010B5064C206804F015FC2368013303D046
:10741000431E5842584110BD012010BD20000020DD
:1074200038B50B4B05461B780C466BB9094B1B78DE
:1074300053B9FFF7E5FF034630B9074A29461068FC
:10744000224605F0ADFB38BD4FF0FF3038BD00BF20
:107450008017002081170020200000202DE9F04136
:10746000264B86B01B7880460F46002B41D1244B1B
:107470001B78002B3DD1FFF7C3FF0446002838D10D
:10748000204D8DF80C008DF80D008DF80E008DF854
:107490000F00286806AA460902EB8606012100F0C3
:1074A0001F02914056F80C2C01300A4346F80C2C70
:1074B00041F28832059204AA009203A9224623468B
:1074C000049405F04FFA002815DD2B6806AA590927
:1074D00002EB810151F80C5C03F01F02154115F01D
:1074E000010008D0184641463A46234605F0DAFA2C
:1074F00001E04FF0FF3006B0BDE8F08180170020BA
:10750000811700202000002030B51F48ADF57B7D9D
:1075100009F025F9002834D11C4B17A805931C4B02
:1075200061AD06931B4B049007931B4B0EAC089365
:107530001A4B039509931A4B0A931A4B0B931A4B48
:107540000C931A4B0D931A4B0E931A4B0F931A4B25
:1075500010931A4B11931A4B12931A4B13931A4B05
:1075600014931A4B15931A4B169306F057FF28469F
:1075700006F05AFF00940448164903AA05AB09F027
:10758000F5F80DF57B7D30BDA80A002021740008B8
:107590005D740008697200088572000859E40008EB
:1075A0009D72000805720008E57E0008B58E00088F
:1075B000AD710008B9710008AD720008D9710008FA
:1075C000E5710008D17800082972000835E4000848
:1075D00049E40008E8F7FF1F01480AF045B800BF7A
:1075E000A80A002010B5064C23783BB1FFF7F4FF42
:1075F00020B9044B1870044B1870207010BD00BFE8
:1076000045170020471700204617002010B502201C
:107610008CB00146112205F0E7F8041E24DB134963
:1076200007A809F0F3F902230122ADF80C308DF818
:1076300012201623BB228DF80E308DF81320332331
:1076400003AA8DF80F300092E02310228DF810303D
:1076500001920023204607A913228DF8113005F06E
:10766000A9FA204605F0F0F80CB010BDE8F7FF1FAE
:1076700030B5134C87B0FFF747FF204609F072F88A
:10768000204609F096FC0546FFF7C0FF204609F0AA
:10769000FFFB03A804F086FC9DF80D209DF80C303C
:1076A000009204A80821074A0DF048FF064804A9E3
:1076B0003C220123FFF790FE284607B030BD00BFF3
:1076C000A80A0020E9A30108EFA3010838B5114C6E
:1076D000D4F8585B2DB1D4F8583B013BC4F8583B63
:1076E00038BDD4F85C3B0C4A52F8230006F00CF984
:1076F000E72006F05DF96423084AC4F8583BD4F843
:107700005C3B526801339342C4F85C3BA8BFC4F8A9
:107710005C5B38BD74080020407701082000002021
:107720007FB502200121062205F05EF8041E24DB4D
:107730000223ADF8003000238DF8023035238DF898
:1077400003304FF4FA5008238DF804308DF80530DB
:107750008DF806308DF8073002F002F869461022E5
:107760000546204605F0D0F80646284601F0F8FF09
:10777000204605F069F8304601E04FF0FF3004B0D4
:1077800070BD000010B5064C2068002805DB05F030
:107790005BF84FF0FF33236010BD002010BD00BF29
:1077A00020000020F0B5A7B0FFF7ECFF0220012178
:1077B000062205F019F8304F002838604DDB2F4CB9
:1077C0000223A4F8603B162384F8623B05A8332308
:1077D00084F8633B06F0EEFD002300939DF814301F
:1077E0003BB1012B14D0264B01AD03F1100E2A46FC
:1077F00002E0069B009310E0186859682E4603C605
:10780000083373453546F7D10FCA06AD85E80F003A
:107810000A25009B0BB9013D22D1009B0BB9194BE6
:107820000093009B4FF4FA501A0E84F8642B1A0C44
:1078300084F8652B1A0A84F8673B84F8662B01F0FC
:107840008FFF114904461022386805F05DF805469F
:10785000204601F085FF28460CE04FF0FF3009E09C
:1078600006A87E210DF0E1FE6A4681B206A805F069
:1078700011F8CEE727B0F0BD2000002074080020EA
:107880000AA4010804E5D036D41300200F4B2DE9DB
:10789000F041D3F8647180460024BC4211DA14250B
:1078A00065430A4E414606F5B67028440C220DF099
:1078B00094FE20B9354495F87801BDE8F081013493
:1078C000EBE74FF0FF30BDE8F08100BF7408002007
:1078D00008B5FFF7DBFF013808289DBF024BC01831
:1078E000007F022008BD00BF4077010805F00CB8FA
:1078F00037B50B4C002104F537650B4600910A465D
:10790000284600F0B1FE28460649074A0DF03CFC27
:1079100004F50D7003B0BDE8304008F00BBF00BFA8
:1079200074080020195A00087008002014282DE956
:10793000F34104460E4675D8FF2973D000F092FF3C
:1079400018B1A4F10D03022B6CD900F021FE08B18F
:10795000012C67D901F034FC18B1A4F11203012BFA
:1079600060D918236343314DEA18EF58304BB2F811
:1079700004809F4201D1042003E02E4B9F4203D19B
:107980000820012107F08AFDADF80480062E45D8B5
:10799000DFE806F00F04171F27313C0010238DF895
:1079A000073003238DF80630182303FB045401230A
:1079B00033E004238DF80730182303FB045400231D
:1079C0002BE048238DF80730182303FB04540223CF
:1079D00023E028238DF80730182303FB04540323E6
:1079E0001BE0182303228DF8073003FB04548DF8A5
:1079F0000620042311E01C238DF8073003238DF8A3
:107A00000630182303FB0454052306E000238DF8F9
:107A10000730182303FB04540623A373384601A937
:107A200007F0FEFA02B0BDE8F08100BF2800002098
:107A300000080140000C0140142870B504460E46B1
:107A400036D81C4D182303FB00539B7B83B39A1E2F
:107A5000012A2DD9062B2BD0FF2B29D000F002FFB5
:107A600020B1A4F10D03022B00D870BD00F090FDF1
:107A700010B1012C00D870BD01F0A2FB20B1A4F11F
:107A80001203012B00D870BD182303FB04539B7B0A
:107A9000042B03D120460121FFF748FF18235C4344
:107AA0002A192B5992880EB95A6170BD1A6170BD9E
:107AB00070BD00BF28000020142838B5044615D832
:107AC0001D4D182303FB00539B7BFF2B0ED0043B63
:107AD000012B0BD900F0C6FE18B1A4F10D03022B47
:107AE00004D900F055FD18B1012C01D8002038BD93
:107AF00001F066FB18B1A4F11203012BF6D918238B
:107B000003FB04539B7B062B07D10B4B93F8F81117
:107B1000FF29EBD02046FFF709FF182254432544E4
:107B2000AA7B054B012AA988185902D107F0CCFA83
:107B300038BD07F0C3FA38BD28000020F0B54FF477
:107B4000004091B007F034FC0120014607F09AFC98
:107B500001214FF4C06007F0A1FC334807F0CEF8D4
:107B6000324B00240593324B2F4806930A23089387
:107B700080230A934FF400730B934FF400630C932C
:107B800005A94FF400530E9301254FF400274FF43D
:107B90006026079409940D940F9407F027F925485F
:107BA000694600978DF804408DF8054002960394CD
:107BB0008DF8105006F0DCFF1F48694600978DF8DD
:107BC00004408DF80540029603948DF8105006F09D
:107BD000CFFF1848294606F0EFFF164806F0FEFFD3
:107BE000144807F000F80028FAD1124806F0FFFF09
:107BF000104807F001F80028FAD10F48012106F0DB
:107C0000DBFF0D4806F0EAFF0B4806F0ECFF00280A
:107C1000FAD1094806F0EBFF074806F0EDFF00280F
:107C2000FAD111B0F0BD00BF080002404C24014061
:107C3000F01300200024014000280140092870B5FD
:107C400004469CBF00F10A04A4B200F00BFE28B168
:107C5000A4F10D03022B01D8002070BD00F098FCA8
:107C600001F0AEFA18B1A4F11203012BF4D9142CCF
:107C7000F2D8394D182303FB04539A79FF2AEBD02D
:107C800095F8FA11914206D09B7B2046062185F893
:107C9000F831FFF74BFE95F8FB31012B05D1FFF7CB
:107CA0004DFF2D4B002283F8FB21182303FB0454C6
:107CB00095F8FA31A179284E8B420FD0274801223E
:107CC00096F8F93106F0A5FF96F8F9312448A17924
:107CD000012206F09EFFA37986F8FA310021214C9B
:107CE000002344F8213001310A29F8D11E4807F059
:107CF000AEF81B48012106F0D4FF1B48012107F014
:107D000093F81648012106F060FF1448012106F09F
:107D100077FF022007F09EF80028FAD0022007F033
:107D2000A7F80E48002106F050FF0F48002107F089
:107D30007BF800231A4654F8230054F8231001332B
:107D400089B201EB10410A2B0A44F4D11420B2FB92
:107D5000F0F290B270BD00BF280000200024014066
:107D600000280140F0130020080002402DE9F043F4
:107D7000142889B004460D4600F2A680544F1823FB
:107D800003FB00739B68002B00F09E8000F06AFDEF
:107D900020B1A4F10D03022B40F2968000F0F8FB15
:107DA00010B1012C40F2908001F00AFA20B1A4F148
:107DB0001203012B40F28880182303FB04739B7B82
:107DC000012B01D0042B7FD1424B4BF6803808FBAE
:107DD00005F81E68404B01200146B6FBF3F6FF2371
:107DE00098FBF3F807F05AFB20460421FFF79EFDAD
:107DF000182303FB04739B68013EB3F1804FB6B2B6
:107E00001FFA88F802D10120014609E0334A934263
:107E100008BF022003D0324A934203D1042001213B
:107E200007F048FB182505FB04754BF67F33ADF8CA
:107E30000460A868002601A9ADF80830ADF80A6012
:107E4000ADF8066007F02CFC6023ADF81860AE8931
:107E5000ADF810300123ADF81230ADF8168046B9F8
:107E6000A86804A907F066FCA868082107F0A2FD2D
:107E70001FE0042E08D1A86804A907F09FFCA86899
:107E8000082107F09FFD14E0082E08D1A86804A976
:107E900007F0D8FCA868314607F09EFD09E00C2EDB
:107EA00007D1A86804A907F00FFDA868082107F00A
:107EB0009BFD182303FB04740121A06807F06EFDED
:107EC000A068012107F047FD09B0BDE8F08300BFBD
:107ED00028000020C803002000366E010004004086
:107EE0000008004006F0F2BA05F098BB13B5084C44
:107EF000002100910A460B46204600F0B5FB0549DB
:107F0000054A204602B0BDE810400DF03DB900BF63
:107F100018140020195A00087008002038B5184BB2
:107F200005461C8803F580631B88A4B29BB22BB95D
:107F30004EF6EE62A21A18BF012205E0F4B94EF621
:107F4000EE629B1A5A425A4192020E4B02F10064B1
:107F500004F5804413449C420ED22268013209D1B8
:107F6000204607F041F8042809D1A01C294607F053
:107F70003BF838BD0434EEE7802038BDAB2038BD77
:107F800000400008FE43000808B5084807F00EF856
:107F900004280AD10548002107F026F8042804D156
:107FA000BDE80840024807F001B808BD00400008DD
:107FB00000440008104B10B51C8803F580631B8833
:107FC000A4B29BB21CB10BB1AB2010BD01240B4B72
:107FD000A40223440A4A224493420AD91A8892B23C
:107FE000824204D133F8023C00200B8010BD043BD8
:107FF000F0E7012010BD00BF00400008FE4300086C
:1080000002400008F8B5444E06F090FF434D348816
:108010004EF6EE61A4B22B888C429BB24FF6FF72F3
:1080200010D0944202D0002C73D142E00BB93046FC
:108030006CE08B426DD1304606F0B8FF04286AD15F
:10804000284632E04BBB1C461646354B354A1B884A
:1080500032F814509BB2AB4208BFA6B233B29C4276
:1080600003D10134642CF0D10FE02E4F284607F1E4
:10807000C801FFF79FFF0128F3D02846B7F8C810C2
:10808000FFF74CFF0428ECD0F8BD2348002106F090
:10809000ABFF04283FD1214838E0934239D128462C
:1080A00006F084FF042836D13046002106F09CFFFC
:1080B000F8BD73B3934201D1284627E016461A4B08
:1080C000184A1B8832F814509BB2AB4208BFA6B2C4
:1080D00033B29C4203D10134642CF0D10FE0114F34
:1080E000284607F1C801FFF765FF0128F3D02846AD
:1080F000B7F8C810FFF712FF0428ECD0F8BD074806
:10810000002106F071FF042805D1034806F04EFF58
:10811000F8BDFFF739FFF8BD004000080044000833
:108120000640000820140020064400082DE9F8430A
:1081300006460C4606F0FAFE30462146FFF7EEFEF4
:10814000802840D1214B22481988028889B292B2F6
:1081500021B1002A36D11D46814601E005469946E7
:1081600028464EF6EE6106F03FFF04282BD130463C
:108170002146FFF7D3FE042825D10024154F34F8FB
:108180000780B04503D10234C82CF7D10FE0404638
:1081900007F1C801FFF70EFF0128F4D04046B7F8F9
:1081A000C810FFF7BBFE0428EDD0BDE8F8834846B1
:1081B00006F0FCFE042806D12846002106F014FF34
:1081C000BDE8F883AB20BDE8F88300BF004000089D
:1081D000004400082014002010B50446FFF712FFE9
:1081E0000023044A22F813300133642BF9D12046CE
:1081F00010BD00BF20140020632907B507DC074B22
:1082000033F811000DF10601FFF7D4FE08B1FF208D
:1082100001E09DF8060003B05DF804FB2014002087
:1082200063290B4605DC034931F813001146FFF7BB
:108230007DBF7047201400200148FFF7CDBF00BF6D
:10824000EA140020024B18785B78C01A704700BF10
:10825000EC140020064B5A781978914204D99918E9
:10826000013288785A7070474FF0FF30704700BF76
:10827000EC140020044B5A781978914286BF9B1861
:1082800098784FF0FF307047EC14002070470000E2
:10829000014B0360704700BFB077010810B5034B76
:1082A00004460360FEF75AFF204610BDB077010870
:1082B000F8B5094B054693F82230164653B10C46E3
:1082C0008F18BC4206D02B6828469B6814F8011B07
:1082D0009847F6E73046F8BDEC14002010B50C4B7B
:1082E000012293F822408CB193F823401F2C02D92D
:1082F0004260002010BD93F824001C1884F825105B
:10830000411CC9B283F8241083F82310104610BD15
:10831000EC140020002242604FF47A728260014A1D
:10832000026070477077010838B51C4C00254FF487
:10833000001001216570257084F8245084F82350C2
:1083400007F0B8F801200521FFF7F0FA28460521CB
:10835000FFF7ECFA124806F007FF4BF6FF73A4F89C
:108360004E3094F85830A4F84C500BB9A4F8503063
:108370004FF48063A4F852304FF48043A4F8543093
:10838000084B07480849A36406F008FF0448012188
:1083900006F072FF012384F8593038BDEC14002038
:1083A00000540040A0860100341500202DE9F84358
:1083B00033480C46012190461F4606F069FFFFF73F
:1083C00091FD05462E482F4906F092FF28B9FFF788
:1083D00089FD401B0A28F5D927E0214628480122BB
:1083E00006F07FFFFFF77EFD04462548264906F08C
:1083F0007FFF28B9FFF776FD001B0A28F5D914E0A6
:10840000FFF770FDB8F1200F28BF4FF02008064697
:108410000024E5B2C5EB080313F0FF0908D0FFF70D
:1084200061FD801B09280ED902E00020BDE8F88319
:108430001348012106F044FF144B00225A701D70AE
:108440002846BDE8F883B9F1010F09D1012F07D102
:108450000B48002106F034FF0948394606F024FF96
:1084600007480B4906F044FF0028D8D0044806F01E
:1084700035FF084B1855FFF735FD01340646C8E7B0
:10848000005400400100030002000300EC1400202F
:1084900040000300EE1400200123FFF787BF000017
:1084A000054B012283F82220002283F85A1083F81A
:1084B000242083F823207047EC1400202DE9F0419C
:1084C0002A480E46012106F0E3FEFFF70BFD0446A5
:1084D0002648274906F00CFF38B9FFF703FD001BBB
:1084E0000A28F5D90420BDE8F081224C1F4894F8F1
:1084F0005A10002206F0F5FEFFF7F4FC05461B4873
:108500001D4906F0F5FE28B9FFF7ECFC401B0A28D0
:10851000F5D9E7E794F823700025EBB29F4215D018
:10852000164B1248595D06F0D7FEFFF7DBFC80467C
:108530000E48134906F0DCFE30B9FFF7D3FCC8EB58
:1085400000000A28F4D9CDE70135E6E7012E03D172
:108550000648314606F0A8FE002084F8240084F87E
:10856000230084F82200BDE8F08100BF00540040E1
:1085700001000300EC140020820007001115002008
:10858000840007000121FFF799BF70477047000082
:10859000014B93F859007047EC14002073B50E4C52
:1085A000002104F164050D4E0B4600910A46284651
:1085B00000F05AF86C343246094928460CF0E4FDC4
:1085C0002046FFF7A7FE07492046324602B0BDE825
:1085D00070400CF0D9BD00BFEC14002070080020E2
:1085E000195A00089182000808B5034B53F820304F
:1085F00003B1984708BD00BF6815002013B5084CAB
:10860000002100910A460B46204600F02DF805494E
:10861000054A204602B0BDE810400CF0B5BD00BFD1
:10862000A8150020195A0008700800202DE9F04113
:10863000002407460E4625463B1919790A22304682
:1086400000F0D4F82E218046304600F06AF801345C
:108650004044032C0544EFD13046F9790A2200F05A
:10866000C5F82844BDE8F08130B58371034D9DF80D
:108670000C30056001714271C37130BD98770108FB
:10868000024A02600A684260704700BF987701089A
:108690000548064B06490360064A002303714371EF
:1086A0008371C3710CF070BDB0150020987701087C
:1086B000195A000870080020014B0360704700BF82
:1086C000B0770108F8B506460C468F180025BC4265
:1086D00007D0336830469B6814F8011B984705445F
:1086E000F5E72846F8BD000010B5034B04460360CB
:1086F000FEF734FD204610BDB077010838B50546B9
:108700000C46084641B10CF060FF2B680246DB685E
:1087100028462146984738BD38BD08B5FFF7EEFF1B
:1087200008BD08B503689B68984708BD38B50D219A
:108730000546FFF7F6FF0A2104462846FFF7F1FF3A
:10874000204438BD38B50446FFF7D8FF054620461B
:10875000FFF7ECFF284438BD30B500238BB08DF80F
:108760002430012A98BF0A220DF12304B1FBF2F351
:1087700003FB1211CDB2092D94BF30353735EDB260
:10878000214604F801590BB11946EFE7FFF7B6FF90
:108790000BB030BDF8B506460D46144622B9036845
:1087A000C9B29B689847F8BD0A2A0CD100290BDA98
:1087B0002D21FFF7B6FF6942074622463046FFF7F4
:1087C000CBFF3844F8BDD2B2BDE8F840FFF7C4BFD4
:1087D000FFF7E0BF10B522B90268C9B292689047AE
:1087E00010BDD2B2BDE81040FFF7B6BFFFF7F2BF31
:1087F00038B50446FFF7EEFF05462046FFF796FF23
:10880000284438BD13B5084C002100910A460B4698
:108810002046FFF729FF0549054A204602B0BDE87A
:1088200010400CF0B1BC00BFB8150020195A000868
:108830007008002013B5084C002100910A460B4631
:108840002046FFF711FF0549054A204602B0BDE862
:1088500010400CF099BC00BFC0150020195A000848
:1088600070080020014B587D704700BFC8150020DC
:108870007047000013B5084C002100910A460B46D2
:108880002046FFF7F1FE0549054A204602B0BDE843
:1088900010400CF079BC00BFE0150020195A000808
:1088A0007008002013B5084C002100910A460B46C1
:1088B0002046FFF7D9FE0549054A204602B0BDE82B
:1088C00010400CF061BC00BFEC150020195A0008E4
:1088D0007008002010B5044600680CF0ADFC20467E
:1088E00010BD10B50446006808B10CF0A5FC0023CB
:1088F0002360A360636010BD38B504460D46006870
:1089000001310CF0BDFD10B184E82100012038BD1B
:10891000036810B5044613B143688B4207D2204662
:10892000FFF7EAFF20B1A3680BB92268137001209A
:1089300010BD70B50E46114604461546FFF7E8FF18
:1089400018B92046FFF7CDFF04E0A5602068314646
:108950000CF033FE204670BD38B50023044603609A
:108960004360836003730D4639B108460CF02DFE59
:10897000294602462046FFF7DCFF204638BD8842E4
:1089800010B50B46044607D0096819B19A68FFF77D
:10899000D0FF01E0FFF7A5FF204610BD10B5002372
:1089A00004460360436083600373FFF7E8FF2046DB
:1089B00010BD38B505460C4641B108460CF005FE21
:1089C000214602462846FFF7B4FF01E0FFF789FF82
:1089D000284638BD826808B50B4612B919B901207E
:1089E00008BD11B90368187802E00068FCF790FB35
:1089F000D0F1010038BF002008BD10B58B68846835
:108A0000E41AA2420CD8006868B1096851B1104458
:108A10001A460CF0E2FDD0F1010038BF002010BD75
:108A2000002010BD084610BD82688B689A4202D3B0
:108A30000022FFF7E2BF002070478368994203D20B
:108A4000006810B1405C704700207047FFF7F5BF29
:108A50009A422DE9F04107460D4614461E4601D9BB
:108A60003446164638460C49FFF776FFAB689C4201
:108A70000FD89E4228BF1E462B68002213F806809E
:108A80009A55296838462144FFF793FF2B6803F86D
:108A900006803846BDE8F081D1A5010810B58B6885
:108AA0000446FFF7D5FF204610BD006808B10CF062
:108AB000A0BB704713B5026802AB03F8011DD46870
:108AC00019460122A04702B010BD10B5B0F896209B
:108AD000B0F8943004469A4207D0B4F894305A1C47
:108AE000A4F894201C44207D10BD03681B6998479E
:108AF0000028F2D14FF0FF3010BD10B5B0F896202D
:108B0000B0F8943004469A4204D0B4F894301C442F
:108B1000207D10BD03681B6998470028F5D14FF0F0
:108B2000FF3010BD0023A0F89430A0F896307047B5
:108B300030B5B0F8963087B0044633B1B0F8942021
:108B40009A4202D10368DB69984700F0BBFB18B377
:108B50002069082820D0B4F896307F2B1CD8430910
:108B600006AA02EB8303012100F01F0291400025B9
:108B7000039553F80C2C01300A4343F80C2C41F2B6
:108B80008833059304AB009303A92A462B4604952A
:108B900003F0E8FEA84206DCB4F89600B4F894307E
:108BA000C01A07B030BD206906AB420903EB820250
:108BB00052F80C2C00F01F0342FA03F3DB07EBD54D
:108BC000B4F896202B46A1181431C2F1800203F0AC
:108BD00069FF0028E0DDB4F896300BB9A4F89430B2
:108BE0000344A4F89630D7E7F8B51746B0F89430A8
:108BF000B0F8962004469A420E4606D103681B69D7
:108C0000984710B94FF0FF3512E0B4F89430B4F83B
:108C10009650E118ED1ABD4228BF3D46304614314A
:108C20002A460CF02EFBB4F894302B44A4F8943070
:108C30002846F8BD10B504460069082801D003F0A5
:108C400003FE0823236110BD7FB504460D4616467A
:108C500000F038FB002836D002200121062203F064
:108C6000C3FD002820612BDB23682046DB69984781
:108C70000223ADF80030330A8DF802302B794FF41F
:108C8000FA508DF804306B798DF803608DF805305B
:108C9000AB798DF80630EB798DF8073000F060FD88
:108CA0006946054610222069FEF720FE0646284642
:108CB00000F056FD002E05DA23682046DB6A98474F
:108CC000002000E0012004B070BD00002DE9F0415B
:108CD00088B005460E46904600F0F4FA002718B317
:108CE00008AC304644F8147D0CF06FFC224681B28B
:108CF000304603F0CFFDB84215DD039B04A8DAB27D
:108D00000092190EC3F30742C3F30723FFF7ACFC2D
:108D10002B6828461C6A064B06A90693059B42460B
:108D20000793A04700E0384608B0BDE8F08100BFD7
:108D3000987701084FF47A7181600549002201603B
:108D4000082142600161A0F89420A0F896207047A5
:108D5000C8770108036910B5082B044601D100202B
:108D600010BD00F0AFFA0028F9D0206902F062FFD0
:108D7000D0F1010038BF002010BD70B504460E468A
:108D80001546FFF7E7FF30B1206931462A46002338
:108D900003F006FF70BD4FF0FF3070BD70B50446A4
:108DA000FFF7D8FF012819D0B4F89620B4F8943012
:108DB0009A4212D12069082803D002F03BFF012813
:108DC00001D0002070BD236820461B69984720B958
:108DD00023682046DB6A9847F3E7012070BD08B599
:108DE000FFF7B8FF003018BF012008BD13B5084CCD
:108DF000002100910A460B462046FFF735FC054945
:108E0000054A204602B0BDE810400CF0BDB900BFD5
:108E1000F4150020195A00087008002013B5084CFA
:108E2000002100910A460B462046FFF71DFC05492C
:108E3000054A204602B0BDE810400CF0A5B900BFBD
:108E4000FC150020195A00087008002038B5184C8D
:108E500094F92C305BB394F82D3043B306F07EFBCD
:108E600094F82C2094F82D5051B2002995FBF1F183
:108E700006DD01290BDC013A84F82C20002307E0F1
:108E8000013104DB013284F82C20022300E00123AD
:108E900094F82D20013A84F82D20C41806F090FB98
:108EA000204606F06DFBBDE8384006F089BB38BDB2
:108EB0000416002010B5044606F050FB001B00F11C
:108EC0007F02FE2A08D906F07BFB204606F058FBFD
:108ED000BDE8104006F074BB054A80EAE073A3EBDE
:108EE000E0735B0082F82C0082F82D3010BD00BFCB
:108EF0000416002013B5084C002100910A460B46C9
:108F00002046FFF7B1FB0549054A204602B0BDE8FF
:108F100010400CF039B900BF34160020195A00086F
:108F20007008002013B5084C002100910A460B463A
:108F30002046FFF799FB0549054A204602B0BDE8E7
:108F400010400CF021B900BF40160020195A00084B
:108F50007008002013B5084C002100910A460B460A
:108F60002046FFF781FB0549054A204602B0BDE8CF
:108F700010400CF009B900BF48160020195A00082B
:108F800070080020014B0360704700BFB0770108F4
:108F9000426D836DD01A00F03F007047426D836DC3
:108FA0009A421DBF836DC018007D4FF0FF3070479F
:108FB000426D836D9A4209D0836D826D03441B7D9F
:108FC000013202F03F028265184670474FF0FF30D1
:108FD0007047000010B5034B04460360FEF7BEF86F
:108FE000204610BDB077010810B50446D4F89C2087
:108FF000D4F8A0309A42F9D1237C13B9002323740A
:1090000010BDD4F8A4304021186806F026FD0028D1
:10901000F4D1F1E7D0F8A43070B504460E461868D4
:1090200040F2277106F01FFD28B9D4F89C20D4F82F
:10903000A0309A4215D1D4F89C50013505F03F0577
:10904000D4F8A0309D42D4F8A43013D0EFF31082AE
:10905000D20742D5D4F89C10D4F8A020914209D16F
:109060003BE0D4F8A43040F227711868012206F0E2
:10907000D4FCE0E7186840F2277106F0F4FC002801
:10908000DED0D4F8A4308021186806F0E6FC002871
:10909000D6D0D4F8A43040F227711868002206F028
:1090A000BCFCD4F8A4301868D4F8A0305A1C23446F
:1090B000C4F8A02093F85C1006F0C7FCD4F8A030E8
:1090C00040F2277103F03F03C4F8A030D4F8A43075
:1090D0000122186806F0A1FCB2E7D4F89C2040F207
:1090E0002771224482F85C60C4F89C5001251868FE
:1090F00025742A4606F091FC284670BD10B540F252
:1091000025510446006806F0AEFC70B1206806F0F8
:10911000A0FCE369C0B21A6C596C013202F03F0244
:109120008A4202D0196C58541A64206840F22771A0
:1091300006F099FCB8B1A3692068196C5A6C914289
:1091400006D1BDE8104040F22771002206F065BC50
:109150005A6C511C5964995C06F077FCA3695A6CEF
:1091600002F03F025A6410BDF8B54FF47A73836081
:109170000C4B0446002503604560C0F8A41004F1C0
:109180005C07482614308F613246C86129460CF0CE
:109190009CF83846294632460CF097F8257420464C
:1091A000F8BD00BF087801080148FFF7A7BF00BF5E
:1091B000240200200148FFF7A1BF00BF44020020A5
:1091C000014B187C704700BF5016002073B50E4C41
:1091D000002104F114050D4E0B4600910A46284665
:1091E000FFF742FA1C343246284609490BF0CCFFFF
:1091F00020460849FFF7B8FF07492046324602B02B
:10920000BDE870400BF0C0BF501600207008002071
:10921000195A000824020020858F000870474FF07B
:10922000FF307047014B0360704700BFB077010803
:1092300010B5034B04460360FDF790FF204610BDB8
:10924000B0770108FDF7A6BE08B5FDF78FFE08BD93
:1092500008B50846FDF7BEFE012008BD00224260A9
:109260004FF47A728260014A0260704730780108D8
:109270000846FDF763BE000037B50D4C00210D4DCB
:109280000B4600910A462046FFF7EEF92A460A49A6
:10929000204608340BF078FF2046FFF7DFFF074930
:1092A00020462A4603B0BDE830400BF06DBF00BF3A
:1092B0001417002070080020195A00082592000891
:1092C00070470000054B1B7803F0FF0023B1044BEF
:1092D0001878003018BF0120704700BF82170020A7
:1092E0004417002008B5FFF7EDFF68B1074B0122D6
:1092F0001A700020064B01460246187003F088FDE4
:10930000BDE8084003F06ABD08BD00BF3F1700205C
:10931000C217002008B50B4B1B7893B103F0E2FC99
:10932000094A01231370094A00211170084A6FF09D
:109330007F40137004F0C0FABDE80840E72004F055
:1093400037BB08BD8217002081170020C2170020FC
:1093500048170020014B01221A707047791700202E
:10936000084B1B7803F0FF0053B1074B1B7833B950
:10937000064B1878D0F1010038BF0020704700205C
:10938000704700BF791700206502002064020020AA
:109390002DE9F0431446324A89B012781D468146C1
:1093A0008846109B002A58D022782AB1032B4AD82D
:1093B000DFE803F0020E3939002001230093019009
:1093C000029003900490059049464246034636E0D9
:1093D000244B1B7803F0FF06D3B920460CF0F5F8B8
:1093E000274645088DF81E60AE4207F102070FD0F0
:1093F00017F8023C07A88DF81C3017F8013C002133
:1094000010228DF81D300CF051FAA0550136EBE713
:10941000002301208DE82100029303930494059317
:10942000494642460BE0012018211E2202238DE806
:109430000F0004940595032049464246002303F09B
:109440000BFD094B1870084A084B12780E200132A8
:109450001A700121002202F073FD09B0BDE8F0830B
:109460008217002065020020CD170020641700201D
:10947000024B1878003018BF012070476417002095
:1094800008B5FF2003F0CEFD28B900F04FF900F039
:109490003DF9012008BD002008BD000038B5FFF7E8
:1094A00011FF044600283DD11F4B187003F0E4FB68
:1094B0001E4B01221A701E4B48F204201C7003F050
:1094C000CDFD1C4B1A881D46012A14D00E201021F8
:1094D0002246194B02F006FD10280CD1174B1B78C1
:1094E00083B9FFF7C5FF68B9154B01221A70BDE8B3
:1094F000384000F0F3B8FFF7C3FF00232B8004F0DF
:109500009BFEEBE70F4B00244FF47F401C7004F0F0
:10951000D3F9E72004F04CFA20462146012203F05B
:1095200077FCE4E738BD00BF3F170020821700201A
:1095300081170020B6030020641700203D1700208B
:10954000791700204817002037B50B4C00210B4D30
:109550000B4600910A462046FFF786F82A46204629
:1095600007490BF011FE074904F108002A4603B031
:10957000BDE830400BF008BE2C170020700800201A
:10958000195A0008C192000800230360184670476A
:109590000023036018467047002303601846704795
:1095A0000A4BF7B5164601220C461A7005460CF018
:1095B0000CF8074620460CF008F80096034639469A
:1095C00028462246FFF7E4FE03B0F0BD6402002007
:1095D00038B5034648F21004A34208464CD00DDCCF
:1095E00048F20102934225D048F2020293422ED063
:1095F000992B6CD1364B01229A7338BD48F2800406
:10960000A3420FD0B3F5084F49D048F2400083423F
:109610005DD12F4C04F110000BF033FE636A01336F
:10962000636238BD2B4B01225A70294B1A700022FD
:109630005A7038BD264C0123A370E378002B46D125
:10964000FEF750FC00F5EA403030606038BD204C39
:10965000A3780BB1E3789BB300250123FF20A5700D
:1096600025726572A572E572237304F025F9E7206F
:1096700004F09EF9657338BD0A7D154B62B95A60D6
:109680004FF47F4001221A721A7304F015F9BDE8F5
:109690003840E72004F08CB900221A7238BD00214E
:1096A00001F0ABFE0121044601F0EEFE0A4B1B68FF
:1096B0009C420CD1064B0022DA729A725A7238BD63
:1096C000FEF710FC00F5EA4030306060C4E738BDBA
:1096D0003C17002064020020200000201FB54FF43A
:1096E00061504FF461610A2200238DE80F00064BA0
:1096F00044F620621A60684601A902AA03AB02F090
:1097000099FB05B05DF804FB8C1800201FB5002301
:10971000009301930293039301A8694602AA03AB45
:1097200002F04EFB05B05DF804FB000070B50021AF
:109730000A4C0E2002F050FC102510210E2002F0E1
:109740004BFC2A46204600210BF0BFFD294623464C
:109750000E200022BDE8704002F0F2BB641700202A
:10976000024B1A6818601046704700BF8C18002022
:109770001FB5114B986304F023FC04F03FFB0F4B23
:109780000F4800930F4B10490193104B104A02935E
:10979000104B0393104B03F057FA642003F036FF8D
:1097A000FDF7CCFD20B905B05DF804EBFFF776BE00
:1097B00005B05DF804FB00BF3C170020FDDE00088B
:1097C000D195000811DF0008899500087DDF0008A9
:1097D00091950008A5DF000899950008F0B5194D8E
:1097E000AFB00D20432100222B4602F07BFB432823
:1097F00026D12F781449FE1C7419204602AA02F0C3
:1098000097FF2B782B445B78102B05D904F11000BF
:109810000D4902AA02F08CFFE37F1BB1AB5D1F2B49
:1098200003D100E0AB5D013400E020230748394656
:1098300010F8012C1544AA7800922246FFF7A8FDE3
:109840002FB0F0BDF018002050780108F11800206A
:1098500070B52D4C2D4D00239EB0FF206B702370F2
:109860002B70A3702372A3736372A372E3722373CA
:1098700004F022F8E72004F09BF8FFF733FD1021F5
:109880000C2002F0A9FB224802F05EFFA81C03F0A6
:1098900033FC012003F014FC68461E4900F008FD6B
:1098A000FFF75EFD0646D8B194F83C3073B11A2636
:1098B000013E06D0E72004F0A9F8322003F0A6FE0E
:1098C000F6E7FFF7DDFD84F83C60E9E7E72004F008
:1098D0009DF8FA2003F09AFE684600F045FDDFE7A8
:1098E000E72004F065F80C4B0E200121324602F00F
:1098F000F9FA6B780BB1FFF771FFFFF7CFFD00238B
:1099000084F83D301EB070BD3C170020640200207A
:1099100050780108A1950008641700202DE9F34153
:109920009E4C05F003FD0023236494F844304BB9AA
:1099300094F8453033B96368C3B1FEF7D3FA63686E
:10994000984213D394F84620944BBAB100229A70EF
:109950005A601A729A6483F8442083F846205A7237
:109960009A72DA725A73FFF7D5FC07E094F8463022
:109970008A4D1BB96B786BB3FFF790FD94F83D30BF
:10998000864D13B1FFF764FF05E06B781BB12B7AAE
:1099900003F0FF0643B32278804B012A13D11A7AD1
:1099A000012A10D19B78012B0DD103257C480BF0A7
:1099B0000CFE013D82B27A49012003F007F915F04F
:1099C000FF05F3D12570237A744D6BB395F84530BC
:1099D000FBB129E0EB78002BCED1FEF783FA00F53E
:1099E000EA4030306860C7E76E60FFF77BFC6D4887
:1099F0000BF0EBFD6C4F804638460BF0E6FD009710
:109A00000190791F03204246334603F081F96E70BE
:109A1000C1E795F84F307BB9642003F0F7FD05F1FD
:109A20004C0002F04DFA07E094F84F3023B15F4844
:109A300000213A220BF049FC94F88620574B32B9AA
:109A40005A7A002A4CD19B7A002B49D1A3E01A7A8A
:109A5000FAB193F84520E2B95A7A002A53D018E0B7
:109A60002B4603F82B2F0E200121032202F068FA67
:109A700000264FF6FF70267303F01EFFE72003F069
:109A800097FFFDF78FFEB042444D5CDB0123AE64CF
:109A90006B72637A414D002B7DD0AB7ABBB9FDF779
:109AA000E7FD002811D002DA4FF47F0007E001281B
:109AB00001D13F4803E0022803D14FF0FF1003F02B
:109AC000FBFEE72003F074FF01E00123AB72FDF71A
:109AD00035FC02285FD002B0BDE8F041FDF782BD41
:109AE000FDF750FE0023E372A3726372E378002B4C
:109AF00051D14FF47F4003F0DFFEE72002B0BDE814
:109B0000F04103F055BF5B7B002BB1D04FF47F00D9
:109B100003F0D2FE637B214D03F0FF02002B9FD0A8
:109B2000E72003F045FF4FF4FA7003F06FFDE720E4
:109B300003F04CFF4FF4FA7003F068FD6B7B013BC0
:109B4000DBB26B73E6E795F8443023BBAB6C0133B3
:109B5000022BAB6404BF012385F84430FDF7E0FD20
:109B600000280ADAA36C0133022BA36403D10B4B48
:109B7000012283F84420022300E003236373637B04
:109B80000E2084F82B3001210A4B032202F0D8F971
:109B9000002363727DE702B0BDE8F0813C1700202E
:109BA0006902002070020020750200208817002042
:109BB0000060FF006717002013B5084C00210091DA
:109BC0000A460B462046FEF74FFD0549054A20464A
:109BD00002B0BDE810400BF0D7BA00BFC417002098
:109BE000195A000870080020704708B5012004F0D9
:109BF0009BFEFEE708B5032004F096FEFEE708B5DD
:109C0000042004F091FEFEE708B5052004F08CFE68
:109C1000FEE770477047704708B504F04FFCBDE899
:109C20000840FDF7BFB8000008B5024B0BB1AFF319
:109C3000008008BD0000000008B5024B0BB1FFF723
:109C4000B9FA08BDB591000808B5024B0BB1FFF792
:109C5000ABFA08BDA991000808B5024B0BB1FEF79D
:109C600094FC08BD8B85000808B5024B0BB1FEF7CC
:109C70008DFC08BD8D85000808B5024B0BB1FEF7C1
:109C8000F7FD08BD7188000808B5012005F03AF914
:109C900038B1012005F044F9024B13B10020FEF762
:109CA000A3FC08BDE985000808B5022005F02AF9E3
:109CB00038B1022005F034F9024B13B10120FEF750
:109CC00093FC08BDE985000808B5042005F01AF9E1
:109CD00078B1042005F024F90020064B01461880D5
:109CE00003F01CFFBDE8084003481021012205F0E5
:109CF0004CBE08BDAC180020002C014008B508205F
:109D000005F000F938B1082005F00AF9024B13B14B
:109D10000320FEF769FC08BDE985000808B510209E
:109D200005F0F0F838B1102005F0FAF8024B13B145
:109D30000420FEF759FC08BDE985000808B520207D
:109D400005F0E0F838B1202005F0EAF80E4B13B129
:109D50000520FEF749FC402005F0D4F838B140203A
:109D600005F0DEF8084B13B10620FEF73DFC80201D
:109D700005F0C8F838B1802005F0D2F8024B13B1D5
:109D80000720FEF731FC08BDE985000808B54FF44F
:109D9000005005F0B7F840B14FF4005005F0C0F89E
:109DA000174B13B10D20FEF71FFC4FF4804005F058
:109DB000A9F840B14FF4804005F0B2F8104B13B150
:109DC0000E20FEF711FC4FF4004005F09BF840B167
:109DD0004FF4004005F0A4F8094B13B10F20FEF733
:109DE00003FC4FF4006005F08DF838B14FF40060CB
:109DF00005F096F8BDE8084003F088BB08BD00BF39
:109E0000E985000808B50F48102105F0F7FDC0B13D
:109E10000C48102105F0FDFD002003F043FF28B998
:109E2000094B1A880A3292B21A8008BD05481021DF
:109E3000002205F0AAFDBDE808400020012103F042
:109E40006DBE08BD002C0140AC18002008B5024BC7
:109E50001B6803B1984708BDD017002008B5024B16
:109E60005B6803B1984708BDD017002008B5024BC6
:109E70009B6803B1984708BDD017002008B50120A2
:109E800005F0B4FB50B1012005F0C0FB044B0BB151
:109E9000FEF7DCFFBDE8084005F092BB08BD00BF3F
:109EA0004D8E000808B5022005F0A0FBB0B10C4BA8
:109EB00000224FF400301A7005F032F8012005F04E
:109EC0005FFA10B1012005F065FA05F079FB022078
:109ED00005F09CFBBDE8084005F072BB08BD00BF63
:109EE0008117002003F088BA00F064B838B514492F
:109EF0000B78012B23D1134A13680BB90B7038BDB3
:109F0000114C402B206881B205D94030403B206085
:109F10001360402504E09DB20344236000231360D6
:109F20000A482A460844C02106F0A8FA012029461A
:109F300006F0ACFBBDE83840012006F011BB38BD8F
:109F40005C08002064080020600800205C070020F6
:109F500008B5094B01221A70084B002203201A8011
:109F600006F0C2FB064B024618804FF48871054884
:109F7000BDE8084006F09ABA100700201407002038
:109F80001207002016070020084B1B68052B0BD179
:109F9000074B1A68052A02F1010101D019607047C8
:109FA00000221A60FDF734B8704700BFD8180020AF
:109FB000DC17002070B52B4D2B4C2B682B4E9BB221
:109FC0002380228833881340990508D54FF6FF5324
:109FD0002B60A3780133DBB2A370FFF7D5FF228893
:109FE000338813401A0401D506F092F92288338889
:109FF00013405B0505D54FF6FF332B601C4B5B68A8
:10A000009847228833881A40900444BF4DF6FF7267
:10A010002A6022881340D90405D54EF6FF732B60C1
:10A02000002004F03FFC2288338813401A050BD52A
:10A03000104B1B7813B104F015FC02E0022004F071
:10A0400031FC4FF2FF732B60228833881340DB050D
:10A0500007D54FF6FF632B600720BDE8704004F082
:10A0600021BC70BD445C0040E0170020F0210020BE
:10A07000DC020020DC030020034B9B7A13B1034B6E
:10A0800005221A60704700BFCC210020D81800209C
:10A09000014B04221A607047D8180020034B1A782D
:10A0A000202A04BF00221A70704700BFE417002066
:10A0B00070470000212810B508D1114B1B681B7890
:10A0C00003F07F03212B10D0022010BD2028FBD1EC
:10A0D0000B4B0C4A1B681B78107003F07F03212B7D
:10A0E000094B18BF00230BB9EEE7084B044A0024C4
:10A0F00012682046936154829847204610BD00BFE5
:10A10000EC210020E41700205DA1000845A1000813
:10A11000074B1B681B7803F07F03212B06D100F04F
:10A12000DF0002280CBF0020022070470220704789
:10A13000EC21002021B9022834BF00200220704702
:10A140000220704720B9034B08221B681A8270470F
:10A1500001487047EC210020D402002020B9034BB5
:10A1600008221B681A82704701487047EC210020C2
:10A17000D402002010B5FCF797FF054B00241B68A4
:10A180009C7204F057FB06F0C5FA024B1C6010BD30
:10A19000EC210020D8180020334B344A1B68D279B8
:10A1A00010B500245A729C72DC72204606F090F9B9
:10A1B00020464FF4007106F093F92046102106F076
:10A1C0009DF92046402106F035FA8021204606F010
:10A1D00021FA204606F0EAF9254B204693F8341080
:10A1E00006F062FA204606F0CEF90120214606F07C
:10A1F00077F90120C02106F00DFA0120202106F098
:10A200007DF90120214606F092F902204FF4C06149
:10A2100006F066F902204FF4807106F0FBF9022087
:10A22000214606F084F90220202106F067F9032078
:10A23000214606F055F903204FF4887106F0FAF92B
:10A240000320402106F030FA03204FF4405106F07D
:10A250006EF90320214606F051F9204605F0ECFF87
:10A26000044B01221A6010BDEC210020BD780108CA
:10A27000D4020020D8180020014905F0D9BD00BF44
:10A280000C030020014905F0D3BD00BF14030020DA
:10A29000054B1B68DB78042B04D8044901EBC30190
:10A2A00005F0C6BD00207047EC2100201C030020F3
:10A2B00038B504460D46FEF7D1FF204625614FF420
:10A2C0001651FEF7D5FF204638BD70B506460D463F
:10A2D000002428460BF079F9844208D2295D3046E3
:10A2E000FEF7B6FF012003F091F90134F1E770BDEC
:10A2F0002DE9F04104460E46904600252046FEF723
:10A30000A3FF0028FADD2046FEF79CFF4545C1B2B9
:10A3100006D10023337020461249FFF7D6FF15E01F
:10A320000D29F6D00A29F4D0082901D07F2904D1BB
:10A33000002DE3D0771E013D02E0771C317001351E
:10A340002046EDB2FEF784FF3E46D7E72046FEF7F3
:10A350007BFF002803DD2046FEF774FFF6E7BDE82B
:10A36000F08100BFCFA50108F0B585B00446FEF727
:10A370006BFF002840F39B802046FEF763FFC0B2CE
:10A38000772867D104F1140600212122304604F118
:10A3900035050AF09AFF4122002128460AF095FF70
:10A3A00004F17607002384F87630204641497B701B
:10A3B000FFF78BFF204631462022FFF799FF20460A
:10A3C0003D49FFF782FF012220463946FFF790FF03
:10A3D00094F87630A3F13002032AF0D8312B0BD158
:10A3E00020463649FFF771FF20463549FFF76DFFDC
:10A3F00020463449FFF769FF94F87620B2F1300720
:10A4000008D020463049FFF760FF20462946402209
:10A41000FFF76EFF20462D49FFF757FF23693A46A5
:10A4200030462946984720462949FFF74EFF2046E7
:10A430002849FFF74AFF20462749FFF746FF2046F5
:10A440002649FFF742FF20462549FFF73EFF2046F9
:10A45000244927E069282AD1234B01AD93E807005E
:10A4600085E8070020462149FFF72FFF0026AF5D52
:10A4700020463B0903F13001392988BF03F1570118
:10A4800007F00F07FEF7E4FE07F13001392988BF16
:10A4900007F1570120460136FEF7DAFE0C2EE6D111
:10A4A0001349204605B0BDE8F040FFF70EBF05B0E8
:10A4B000F0BD00BF23A401082AA4010857A4010885
:10A4C0008DA40108B8A40108FEA4010809A501088B
:10A4D0004CA501086CA501089FA50108D2A501089B
:10A4E00011A6010842A60108E8F7FF1F58A60108B7
:10A4F000CFA5010813B5084C002100910A460B4670
:10A500002046FEF7B1F80549054A204602B0BDE8ED
:10A5100010400AF039BE00BFE8170020195A0008A1
:10A520007008002030B5039DC0F89430002305600A
:10A53000C0F89C10A0F8A020C0F8A43030BD90F85E
:10A54000A800704710B50446206803681B69984747
:10A550000028F9D0206803685B699847C4B2214697
:10A5600010220448FEF734F92C210248FEF7D9F8EE
:10A57000204610BD1C1700202DE9F74F04468A46DF
:10A58000FFF7E0FF00F0F007B7F130014F424FF066
:10A59000010820714F414FF0000945462046FFF762
:10A5A000D1FF6319187100F07F0303FB08996E1C3B
:10A5B0000206B6B21FFA89F94FEAC81801D5354626
:10A5C000ECE7731E8AF80030FFB12046FFF7BAFFB0
:10A5D000264430712046FFF7B5FFEE1C0235ADB2C0
:10A5E000254428719AF80030B6B2234493F80580C8
:10A5F0009B7903EB082823791FFA88F89B0707D576
:10A6000008F102081FFA88F802E0BB46B84601E0EC
:10A610004FF0020B3546C6EB0B032B449BB24B4568
:10A620001DD22046FFF78EFF0246D4F8A40068B181
:10A6300067B19AF80010691A0239414506DD0168D0
:10A64000D1F808C011460192E047019A7F2D98BFCA
:10A65000631905F1010598BF1A71ADB2DBE708482F
:10A66000FEF764F8D4F8A44034B9802D04D9044826
:10A670000449FEF767F82546284603B0BDE8F08F89
:10A680001C17002069A601082DE9F74306469846E5
:10A69000DDB2002405F07F0302A8ED09204418BFB5
:10A6A00043F08003013400F8043CE4B2002DF1D102
:10A6B000C4F10403D718D154A54206DA01A9695C94
:10A6C000131B2B4459710135F6E79DF828301E4DB8
:10A6D000DBB108F101092B68A1443946DB684A4621
:10A6E000284698473068394603684A46DB689847E9
:10A6F00007462846FEF71AF8FDF7F4FB0134FFB2CF
:10A70000A044C6F88800474517E02B680534DB688D
:10A71000394622462846984730683946036822461B
:10A72000DB68984780462846FEF700F8FDF7DAFB1D
:10A73000C6F888005FFA88F0A04214BF002001200C
:10A7400003B0BDE8F08300BF1C17002013B501243F
:10A750000094FFF799FF02B010BD023370B59BB2B1
:10A760000025ACB201354E1916F8016C181980B2EB
:10A770000EB11654F5E7031B1A44231202F8023CEB
:10A7800002F8014C70BD38B50546006858B1036841
:10A790001B6B9847044628B928680368DB6A98470A
:10A7A000204638BD012038BD2DE9F04F85B0044664
:10A7B0008A4690461F46DDF83890FFF7E4FF0646CC
:10A7C000002840F0B4802568D4F89C102B6829B18B
:10A7D0005B6A2846B4F8A02098470BE0D4F898109C
:10A7E00001A8D3F820B0FDF74BFF284601A9B4F823
:10A7F000A020D847002800F091804F4A012310681C
:10A800005168A4F8843001AB03C3127A01A81A700E
:10A810000023E218C15C0133092B5172F9D1B9F15F
:10A82000000F0AD09DF840509DF83C306D0145F076
:10A83000060545EAC305EDB200E00225B8F1000FB8
:10A8400005D017B945F0800501E045F0C0050023AB
:10A85000A574E374251D0F2323752046112351464B
:10A860002A46FFF77AFF0346B9F1000F0BD049469D
:10A870002A462046FFF771FF119903462A462046D3
:10A88000FFF76BFF0346B8F1000F0CD0204641469E
:10A890002A46FFF762FF03462FB1204639462A4673
:10A8A000FFF75BFF0346053B10212A469BB220467B
:10A8B000FFF74CFFFDF716FBC4F88800C4F88C00C6
:10A8C000206803681B69984758B9FDF70BFBD4F85B
:10A8D0008C3043F69822C01A9042F1D91748184993
:10A8E0001EE020460DF10301FFF746FEE57904283E
:10A8F00084F8A85008D13DB9FDF7F4FA0126C4F850
:10A900008C0084F8905013E00E490C48FDF705FFC9
:10A91000E1790A220948FDF76BFF03E007480A497D
:10A92000FDF710FF20680368DB6A984700E0002607
:10A93000304605B0BDE8F08F127901081C170020E1
:10A9400083A601089FA60108ABA601081FB5002435
:10A950000094019402940394FFF726FF04B010BD05
:10A960002DE9F04383B000AF0446FFF70CFF002849
:10A9700000F0B080FDF7B6FAD4F88C300546C21A64
:10A9800043F698239A4204D8D4F88820821A9A422F
:10A990001BD994F89030206843B10368DB6A98476C
:10A9A0004E484F49FDF7CEFE002093E0C0222271B1
:10A9B00063710368211DDB68022298470123C4F8F4
:10A9C0008850C4F88C5084F89030206803681B6964
:10A9D000984700287DD02046F91DFFF7CDFD804621
:10A9E000002876D02279C4F88C5002F0F002302A88
:10A9F0005CD1D4F89430002B6BD0F9796E4604EB1F
:10AA0000010E9EF805209EF8063003EB02239BB250
:10AA100003F10802D208A6EBC200854600221FFA05
:10AA200082FC9C4507D20EEB020C9CF807C000F894
:10AA300002C00132F3E70022C25494F8049001F1FD
:10AA4000030E09F00609B9F1020FD4F894C0C1EB66
:10AA500008029E4422D1A64405319EF8058019447F
:10AA60009EF804E0D21A214408EB0E280431053A7E
:10AA7000E0471FFA88F840232146237151F8040B60
:10AA80004FEA282384F80590A37184F807800368AF
:10AA90000422DB689847C4F8885005E004EB0E01F7
:10AAA000033A0431D21AE047B54612E0C02A0BD16E
:10AAB000D0232146237151F8040B002363710368EE
:10AAC0000222DB68984704E0D02A04BF002384F800
:10AAD000903001200C37BD46BDE8F0831C170020E4
