:020000040800F2
:105000000050002049AD00086D9100086F91000824
:1050100079910008839100088D910008000000003C
:105020000000000000000000000000009791000850
:1050300099910008000000009B9100089D910008D4
:105040009DAD00089DAD00089DAD000801940008CD
:105050009DAD00089DAD00080D9200082D9200083E
:105060004D92000881920008A19200089DAD0008B1
:105070009DAD00089DAD00089DAD00086994000835
:105080009DAD00089DAD0008AD9100089DAD0008E4
:105090006D9400089DAD00089DAD0008C192000808
:1050A0009DAD00089DAD00089DAD000889930008E6
:1050B000D1930008E1930008F1930008DD91000806
:1050C000ED9100089DAD00089DAD0008FD91000820
:1050D0009DAD0008BD910008CD9100089DAD000870
:1050E00011930008299400089DAD000800000000FD
:1050F00000000000000000000000000000000000B0
:0C51000000000000000000005FF808F153
:1051100010F8012B11F8013B012A28BF9A42F7D061
:10512000D01A704781F0004102E000BF83F00043D5
:1051300030B54FEA41044FEA430594EA050F08BF32
:1051400090EA020F1FBF54EA000C55EA020C7FEAF6
:10515000645C7FEA655C00F0E2804FEA5454D4EB73
:105160005555B8BF6D420CDD2C4480EA020281EA3D
:10517000030382EA000083EA010180EA020281EA75
:105180000303362D88BF30BD11F0004F4FEA0131C7
:105190004FF4801C4CEA113102D0404261EB4101D6
:1051A00013F0004F4FEA03334CEA133302D052425C
:1051B00063EB430394EA050F00F0A780A4F1010418
:1051C000D5F1200E0DDB02FA0EFC22FA05F2801852
:1051D00041F1000103FA0EF2801843FA05F3594138
:1051E0000EE0A5F120050EF1200E012A03FA0EFCB7
:1051F00028BF4CF0020C43FA05F3C01851EBE371E1
:1052000001F0004507D54FF0000EDCF1000C7EEBFD
:1052100000006EEB0101B1F5801F1BD3B1F5001F3B
:105220000CD349085FEA30004FEA3C0C04F101045A
:105230004FEA445212F5800F80F09A80BCF1004F83
:1052400008BF5FEA500C50F1000041EB045141EA05
:10525000050130BD5FEA4C0C404141EB010111F406
:10526000801FA4F10104E9D191F0000F04BF0146B1
:105270000020B1FA81F308BF2033A3F10B03B3F18F
:1052800020020CDA0C3208DD02F1140CC2F10C021F
:1052900001FA0CF021FA02F10CE002F11402D8BF7D
:1052A000C2F1200C01FA02F120FA0CFCDCBF41EA49
:1052B0000C019040E41AA2BF01EB0451294330BD18
:1052C0006FEA04041F3C1CDA0C340EDC04F11404F5
:1052D000C4F1200220FA04F001FA02F340EA0300CC
:1052E00021FA04F345EA030130BDC4F10C04C4F112
:1052F000200220FA02F001FA04F340EA03002946F2
:1053000030BD21FA04F0294630BD94F0000F83F43B
:10531000801306BF81F480110134013D4EE77FEA1E
:10532000645C18BF7FEA655C29D094EA050F08BF6A
:1053300090EA020F05D054EA000C04BF194610464B
:1053400030BD91EA030F1EBF0021002030BD5FEA8F
:10535000545C05D14000494128BF41F0004130BDB7
:1053600014F580043CBF01F5801130BD01F000450B
:1053700045F0FE4141F470014FF0000030BD7FEA7E
:10538000645C1ABF194610467FEA655C1CBF0B4679
:10539000024650EA013406BF52EA033591EA030F90
:1053A00041F4002130BD00BF90F0000F04BF002188
:1053B000704730B54FF4806404F132044FF00005BB
:1053C0004FF0000150E700BF90F0000F04BF002134
:1053D000704730B54FF4806404F1320410F000459A
:1053E00048BF40424FF000013EE700BF42004FEA95
:1053F000E2014FEA31014FEA02701FBF12F07F4312
:1054000093F07F4F81F06051704792F0000F14BF0E
:1054100093F07F4F704730B54FF4607401F0004552
:1054200021F0004120E700BF50EA010208BF7047A9
:1054300030B54FF000050AE050EA010208BF70479E
:1054400030B511F0004502D5404261EB41014FF407
:10545000806404F132045FEA915C3FF4DCAE4FF00B
:1054600003025FEADC0C18BF03325FEADC0C18BFF2
:10547000033202EBDC02C2F1200300FA03FC20FA43
:1054800002F001FA03FE40EA0E0021FA02F1144490
:10549000C1E600BF70B54FF0FF0C4CF4E06C1CEAA5
:1054A00011541DBF1CEA135594EA0C0F95EA0C0F1A
:1054B00000F0DEF82C4481EA030621EA4C5123EA8D
:1054C0004C5350EA013518BF52EA033541F48011BC
:1054D00043F4801338D0A0FB02CE4FF00005E1FB6F
:1054E00002E506F00042E0FB03E54FF00006E1FBB9
:1054F00003569CF0000F18BF4EF0010EA4F1FF04FC
:10550000B6F5007F64F5407404D25FEA4E0E6D413B
:1055100046EB060642EAC62141EA55514FEAC5204C
:1055200040EA5E504FEACE2EB4F1FD0C88BFBCF5C8
:10553000E06F1ED8BEF1004F08BF5FEA500E50F179
:10554000000041EB045170BD06F0004646EA01013F
:1055500040EA020081EA0301B4EB5C04C2BFD4EB71
:105560000C0541EA045170BD41F480114FF0000E6A
:10557000013C00F3AB8014F1360FDEBF002001F0D8
:10558000004170BDC4F10004203C35DA0C341BDC52
:1055900004F11404C4F1200500FA05F320FA04F024
:1055A00001FA05F240EA020001F0004221F0004158
:1055B00010EBD37021FA04F642EB06015EEA430ECB
:1055C00008BF20EAD37070BDC4F10C04C4F12005FB
:1055D00000FA04F320FA05F001FA04F240EA0200AE
:1055E00001F0004110EBD37041F100015EEA430E7F
:1055F00008BF20EAD37070BDC4F1200500FA05F29F
:105600004EEA020E20FA04F301FA05F243EA02031D
:1056100021FA04F001F0004121FA04F220EA02002C
:1056200000EBD3705EEA430E08BF20EAD37070BD72
:1056300094F0000F0FD101F00046400041EB010152
:1056400011F4801F08BF013CF7D041EA060195F034
:10565000000F18BF704703F00046520043EB0303EE
:1056600013F4801F08BF013DF7D043EA06037047DB
:1056700094EA0C0F0CEA135518BF95EA0C0F0CD0E6
:1056800050EA410618BF52EA4306D1D181EA03012C
:1056900001F000414FF0000070BD50EA410606BF26
:1056A0001046194652EA430619D094EA0C0F02D16B
:1056B00050EA013613D195EA0C0F05D152EA0336B0
:1056C0001CBF104619460AD181EA030101F00041CE
:1056D00041F0FE4141F470014FF0000070BD41F017
:1056E000FE4141F4780170BD70B54FF0FF0C4CF4F1
:1056F000E06C1CEA11541DBF1CEA135594EA0C0F10
:1057000095EA0C0F00F0A7F8A4EB050481EA030E5C
:1057100052EA03354FEA013100F088804FEA033343
:105720004FF0805545EA131343EA12634FEA022211
:1057300045EA111545EA10654FEA00260EF00041D2
:105740009D4208BF964244F1FD0404F5407402D224
:105750005B084FEA3202B61A65EB03055B084FEAB5
:1057600032024FF480104FF4002CB6EB020E75EBB2
:10577000030E22BFB61A754640EA0C005B084FEADA
:105780003202B6EB020E75EB030E22BFB61A754657
:1057900040EA5C005B084FEA3202B6EB020E75EBA2
:1057A000030E22BFB61A754640EA9C005B084FEA1A
:1057B0003202B6EB020E75EB030E22BFB61A754627
:1057C00040EADC0055EA060E18D04FEA051545EA16
:1057D00016754FEA06164FEAC30343EA52734FEABF
:1057E000C2025FEA1C1CC0D111F4801F0BD141EA38
:1057F00000014FF000004FF0004CB6E711F4801F9D
:1058000004BF01430020B4F1FD0C88BFBCF5E06F7C
:105810003FF6AFAEB5EB030C04BFB6EB020C5FEA8C
:10582000500C50F1000041EB045170BD0EF0004EE1
:105830004EEA113114EB5C04C2BFD4EB0C0541EA13
:10584000045170BD41F480114FF0000E013C90E610
:1058500045EA060E8DE60CEA135594EA0C0F08BFD4
:1058600095EA0C0F3FF43BAF94EA0C0F0AD150EAD3
:1058700001347FF434AF95EA0C0F7FF425AF104666
:1058800019462CE795EA0C0F06D152EA03353FF48E
:10589000FDAE1046194622E750EA410618BF52EA0B
:1058A00043067FF4C5AE50EA41047FF40DAF52EADF
:1058B00043057FF4EBAE12E74FF0FF3C06E000BF7C
:1058C0004FF0010C02E000BF4FF0010C4DF804CD89
:1058D0004FEA410C7FEA6C5C4FEA430C18BF7FEA49
:1058E0006C5C1BD001B050EA410C0CBF52EA430C77
:1058F00091EA030F02BF90EA020F0020704710F1F7
:10590000000F91EA030F58BF994208BF90422CBF85
:10591000D8176FEAE37040F0010070474FEA410C7E
:105920007FEA6C5C02D150EA013C07D14FEA430C9C
:105930007FEA6C5CD6D152EA033CD3D05DF8040B0D
:10594000704700BF8446104662468C46194663463F
:1059500000E000BF01B5FFF7B7FF002848BF10F116
:10596000000F01BD4DF808EDFFF7F4FF0CBF01205B
:1059700000205DF808FB00BF4DF808EDFFF7EAFFD7
:1059800034BF012000205DF808FB00BF4DF808ED92
:10599000FFF7E0FF94BF012000205DF808FB00BF87
:1059A0004DF808EDFFF7CEFF94BF012000205DF811
:1059B00008FB00BF4DF808EDFFF7C4FF34BF01201E
:1059C00000205DF808FB00BF4FEA410212F500120B
:1059D00015D211D56FF47873B3EB625212D94FEA36
:1059E000C12343F0004343EA505311F0004F23FA20
:1059F00002F018BF404270474FF00000704750EA75
:105A0000013005D111F0004008BF6FF00040704731
:105A10004FF00000704700BF014B0360704700BFAC
:105A200088670108014B0360704700BFA067010849
:105A300002289CBF014B1954704700BF740400201A
:105A4000014B0360704700BFA067010810B5034B0E
:105A50000446036000F0F6FF204610BD8867010889
:105A600010B5034B0446036000F0ECFF204610BD68
:105A7000A067010810B5034B0446036000F0E2FF85
:105A8000204610BDA0670108F0B5012185B005468C
:105A900002F002FBA0F13006072E044625D8164975
:105AA000684602F07FFA2846694602F0E3FA0746A4
:105AB000684602F035FA0FB1B4B20EE00F496846FD
:105AC00002F070FA2846694602F0D4FA05466846A4
:105AD00002F026FA65B1263CA4B22046032101F06B
:105AE00059FB204601F022FC04E04FF0FF3001E0BA
:105AF0006FF0010005B0F0BD989301089A9301087A
:105B0000F8B5C6000F4635460024A5F10803012B61
:105B10000FD9132D0DDC0A4B33441B5D012B08D824
:105B200047FA04F313F00101A8B218BF012101F0F4
:105B3000B7FB0134082C05F10105E6D1F8BD00BF23
:105B400077040020F0B5012185B0044602F0A4FAE4
:105B5000A0F13006072E49D86846214603220723C4
:105B600002F09CFA6846264902F05AFA0546684651
:105B700002F0D6F97DB9684621460322062302F0D9
:105B80008DFA68461F4902F04BFA0746684602F054
:105B9000C7F90FB92DE001251B49684602F002FA4A
:105BA0002046694602F066FA0746684602F0B8F9F0
:105BB0001FB1B6B23046002110E01449684602F029
:105BC000F1F92046694602F055FA0446684602F0AB
:105BD000A7F98CB10A36B6B23046394601F0DAFA86
:105BE0003046294601F05CFB012007E04FF0FF3012
:105BF00004E06FF0010001E06FF0020005B0F0BDBD
:105C00009C930108A1930108989301089A930108B5
:105C1000F0B5012185B0054602F03EFAA0F130064C
:105C2000072E044625D81649684602F0BBF92846D7
:105C3000694602F01FFA0746684602F071F90FB193
:105C4000B4B20EE00F49684602F0ACF92846694646
:105C500002F010FA0546684602F062F965B1263C8A
:105C6000A4B22046012101F095FA204601F020FC63
:105C700004E04FF0FF3001E06FF0010005B0F0BD2F
:105C8000989301089A930108F0B5012189B0044660
:105C900002F002FAA0F13007072F06463ED8032291
:105CA0006846214602F020FA1F4904A802F07AF95A
:105CB000204604A902F0DEF9054604A802F030F9F6
:105CC00055B1BFB20021384601F064FA684602F0CF
:105CD00012FAC1B2384617E0144904A802F062F97A
:105CE000204604A902F0C6F9044604A802F018F9F7
:105CF00074B1263EB6B22946304601F04BFA6846EA
:105D000002F0F9F9C1B2304601F06AFC012401E069
:105D10006FF00104684602F003F901E04FF0FF3430
:105D2000204609B0F0BD00BF989301089A9301087E
:105D300007280BD80122064B02FA00F019B999691D
:105D400021EA000101E0996901439961704700BFB0
:105D500074040020F8B5A0F10A06F6B2072E044636
:105D60000F46384D06D88B1E594230465941FFF731
:105D7000DFFF01E007280BD8012F4FEAD40304F01E
:105D8000070208D107FA02F22B44197F0A4309E0FF
:105D9000092E08D8F0E7012101FA02F22B44197FFD
:105DA00021EA02021A7705EB840300221A62062F09
:105DB00040D8DFE807F02011042F453F4500072EAB
:105DC0003ED82046012101F0E5F92046002101F0EE
:105DD00067FA2C4402232BE0072C01D9092E2FD877
:105DE0002046012101F0D6F92046002101F058FAA1
:105DF0002C4401231CE0072C01D9092E20D8204671
:105E0000002101F04DFA2046002101F0C3F92C4495
:105E100000230DE0072C01D9092E11D820460021BE
:105E200001F0B8F92046002101F0DAFB2C440323ED
:105E3000E370F8BD04480549BDE8F84004F0A5BE8C
:105E4000F8BD00BF7404002094170020A59301083A
:105E500038B5114B00221A701A7783F870205A70E7
:105E60005A7783F871209A709A7783F872201446D3
:105E70001D46E0B2A0F10803012B07D9A0F10A03E7
:105E8000072B94BF02210021FFF764FF0134142C7B
:105E9000EFD10023AB6138BD74040020132870B526
:105EA00004460D4617D80C4B1A18D2781E46032A02
:105EB00004D0042A0FD103EB80040BE0072803D998
:105EC000A0F10A03092B03D82046E9B201F088FBB0
:105ED00006EB8404256270BD740400206D2870B543
:105EE0000B4672D005D8692800F0A3806B2826D015
:105EF00070BD6F280FD07A2840F0B080012940F2A1
:105F0000AD801378527803EBC212092A544BD8BFE4
:105F10000A221A6070BD012940F2A080022B51783C
:105F200008D0032B907818BFD37841EAC01118BF6E
:105F300041EA83311078BDE87040FFF7AFBF4948B0
:105F4000F02104F026FE47486C2104F022FEF624DE
:105F50000025EEB2072E01D9092C1AD8414801219B
:105F600004F017FE3F48012104F013FE3D480021D4
:105F700004F00FFE3B48012104F00BFE072C08D86B
:105F80003848022104F005FE36480A2104F001FEDB
:105F900001E0072E08D83348032104F0FAFD314808
:105FA000082104F0F6FD01E0092CF4D92D487F21E9
:105FB000013504F0EEFD0134142DE4B2C9D12948B5
:105FC000F721BDE8704004F0E4BD002946D0147804
:105FD0002448F02104F0DDFD22486E2104F0D9FDB3
:105FE0002048214604F0D5FD132CE8D81E4D1D484D
:105FF0002B19A400D9782E1904F0CBFD316A194869
:1060000001F07F0104F0C5FD316A4FF680730B404B
:1060100023B11448C1F3C61104F0BBFD2C44216A1E
:1060200011F4404FCBD00F48C1F3863104F0B1FDDD
:10603000C5E70C48F02104F0ACFD0A486A2104F0E1
:10604000A8FDF624082C34BF21467F2101340548E1
:10605000E4B204F09EFD0A2CF4D1B0E770BD00BF9D
:1060600000000020941700207404002070B505463D
:10607000094843191C7F06460C401AB993F8703042
:10608000A34207D0294605482246354404F03CFD8A
:1060900085F8704070BD00BF740400209417002084
:1060A00070B56B4E3378002B43D0357FE90740F154
:1060B0009B80002001F03AF9002800F0958001242F
:1060C000AA0705D5012001F031F9002840F08E80A3
:1060D0006B0705D5022001F029F9002840F08980DE
:1060E000280705D5032001F021F9002840F084801D
:1060F000E90604D5042001F019F900287FD1AA0689
:1061000004D5052001F012F900287BD16B0604D5D7
:10611000062001F00BF9002877D12D0604D50720C1
:1061200001F004F9002873D1002021460246FFF750
:106130009DFF7378002B31D0454B5D7F6C076AD58E
:106140000A2001F0F3F8002865D00424280704D5BC
:106150000B2001F0EBF800285FD1E90604D50C20F4
:1061600001F0E4F800285BD1AA0604D50D2001F067
:10617000DDF8002857D16B0604D50E2001F0D6F8C3
:10618000002853D12D0604D50F2001F0CFF80028A8
:106190004FD1012021460022FFF768FFB378002B82
:1061A00055D02B4B9D7FE80746D5102001F0BEF857
:1061B000002841D00124A90703D5112001F0B6F829
:1061C000E0BB6A0703D5122001F0B0F8C8BB2B076B
:1061D00003D5132001F0AAF8B0BB2146022000220B
:1061E000BDE87040FFF742BF002469E744F00204B5
:1061F0006EE744F0040473E744F0080478E744F0E1
:1062000010047CE744F0200480E744F0400484E775
:1062100044F0800488E7002498E744F008049CE7F1
:1062200044F01004A0E744F02004A4E744F0400444
:10623000A8E744F08004ACE70024BCE744F0020483
:10624000BFE744F00404C2E744F00804C5E770BDAA
:106250007404002010B52348234900F0E3FC2348D0
:10626000234900F0DFFC23482349244C00F0DAFCEA
:106270002348244900F0D6FC23484FF4165102F07D
:1062800021FB032320462149022204F0BBFB2046C8
:10629000E0211F4A04F083FC204690211D4A04F0AF
:1062A0007EFC2046C0211C4A04F079FC2046D02107
:1062B0001A4A04F074FC2046F421194A04F06FFCD9
:1062C0002046F021174A04F085FC2046FF21164A9B
:1062D00004F07CFC2046154904F089FBBDE8104021
:1062E000FFF7B6BDB6930108895A0008C2930108AA
:1062F000455B0008CF930108115C0008941700204B
:10630000DA930108895C00088C160020E6930108E6
:106310009D5E0008015B0008315D0008315A0008ED
:10632000555D0008DD5E0008515E0008E8040020AD
:1063300073B5134C002104F5A676124D0B4600915F
:106340000A46304601F094FC2A460F49304604F5CF
:10635000AA760EF0F7F9304602F016F874342A46A1
:1063600030460A490EF0EEF93146204603F00AFEA7
:10637000074920462A4602B0BDE870400EF0E2B957
:1063800074040020D0070020195A0008255A00087C
:10639000415A000870B58EB0454804F089F80028CD
:1063A00050D14449444801F0E1FC444B4048191D98
:1063B0001A8A04F04DF90028F3D041493E4801F013
:1063C000D5FC3B4804A903F049FF3E493A4801F097
:1063D000B8FC04A9384801F0C9FC354804A903F009
:1063E00021FF3949344801F0ACFC04A9324801F0DE
:1063F000BDFC364B01AC93E8070084E807002E484B
:10640000334901F09EFC0025665D2B48330903F1FA
:106410003001392988BF03F1570106F00F0602F059
:1064200041FA06F13001392988BF06F157012248A7
:10643000013502F037FA0C2DE6D126491E4801F04D
:1064400080FCA9E7FFF72CFE234804F00FFB04466D
:1064500018B1214804F0DCFBF6E701F07BF91F4B93
:106460001649D3F8F0210968C3F8EC01801A884274
:106470001BD90A44C3F8F021A4F10A05EDB2072D97
:1064800010D8164BDA1CA25C022A0BD19B692B4157
:10649000DB0707D5284601F00BF8294602460E48CF
:1064A00004F021FB0134142CE6D10EB070BD00BF06
:1064B000E8040020FD9301088C1600200000002055
:1064C000049401080F94010816940108E8F7FF1FCF
:1064D0001E940108F495010894170020740400200C
:1064E000013101EB420291420BD0030F092B94BF03
:1064F0003033373301F8013C0023000101F8023B3F
:10650000F1E770471F4B10B51A88032A04D80420FE
:106510000146188008F068F84FF000604FF4A04181
:1065200007F0B6FF0124184B184821461C7008F0EC
:106530006FFA07F055F806F03BFD2146402008F0C1
:1065400029FB6FF07F4006F0A5FEE72006F01EFF56
:106550000F4B1C7006F076FD7D2008F03FFB18B154
:106560000C4B1C7008F04EFB40F6B83006F0C4FD32
:1065700007F01AFB07F094FD074A01231370074A3E
:10658000137010BD381800201418002000043000CB
:10659000B8160020B0210020401700203617002038
:1065A00038B52F4C2388042B04D8052104202180E2
:1065B00008F01AF82B4D2B7813B12B4802F0C8FBCA
:1065C0002B7853B12388052B05D8254B06210420B1
:1065D000198008F009F802F03FFC2B7863B1234BD7
:1065E0001B784BB9224B1B7833B1224B1B781BB95C
:1065F000214B1B78002BE3D0204B1B78002BDFD1E5
:106600001F4B1B78002BDBD11B4B1B78012B0FD0B2
:106610001C4B6BB12388062B05D8114B0721042096
:10662000198007F0E1FFFFF715FE134B01221A70E6
:10663000154B002BC4D02388072B05D8084B082105
:106640000420198007F0D0FFFFF7A4FE2388082B51
:10665000B6D8034B09210420198007F0C5FFAFE726
:106660003818002040170020996E0008F516002009
:1066700036170020B616002068060020B716002046
:10668000B02100205562000895630008F8B5524B10
:106690001A6812B11A68013A1A60504B504D1B78B3
:1066A0003BB1504B1B78002B28D04F4B002B47D1D0
:1066B00024E04E4C2368264613B12368013B0FE0CB
:1066C0004B4B1B78D3B94B4B1B78BBB94A4B1B7850
:1066D000A3B94A4F3B782BB1E72006F0CBFE142339
:1066E00023600BE02B78002B2DD1E72006F07CFEF9
:1066F000434B1B78002B34D0322333602B7833B1DB
:10670000404C23781BB92EE05A6801325A603E4B48
:106710001A68B2F57A7F0FD300221A6008F0D0F918
:106720003A4B4FF6FF711A888A4254D019800420E0
:10673000BDE8F84007F058BF1A6801321A60F8BD8A
:1067400000F0F4FBDAE7324B1B78002BCDD04FF68C
:10675000FF7006F09FFDE72006F018FE01233B7056
:10676000CCE76423C9E7234B1B788BB1294B47F255
:106770002F5259689142C7D9BFF34F8F264A274BF2
:10678000D16801F4E0610B43D360BFF34F8FFEE7A4
:10679000174D2B7803F0FF0633B9304606F080FF23
:1067A00040F6B73398420DD8002006F079FF41F645
:1067B00057339842ABD9002006F07AFF184B0122DC
:1067C0001A70A4E7304606F073FF2378002B9ED1A1
:1067D00001232B709BE7F8BDB8210020F41700209F
:1067E00040170020040A00202D6F0008B42100206B
:1067F000E6160020B7160020B9160020B8160020B3
:10680000B5160020F5160020BC2100203818002005
:10681000B61600206806002000ED00E00400FA052E
:10682000E416002008B5094B186007F063F9002052
:1068300007F0ACF9064806F0DFFB07F073F907F044
:1068400091F9BDE8084009F0C3B800BFC8020020B4
:10685000A0860100074B1B68052B08D1064B1A7A4E
:10686000012A04D1987A1B7BC01AC0B2704700205D
:10687000704700BF3C180020680600200D4B10B583
:106880001B68052B13D10C4C237A012B0FD1628985
:10689000A389D31A012B04D100230320237209F00A
:1068A000EEF9A3895A1CA2811C44A07B10BD4FF0B5
:1068B000FF3010BD3C1800206806002008B50C4BC6
:1068C0001B68052B12D10B4B1A6D99180132B2F5CA
:1068D000807F08BF002281F854001A6506F0D8FFB7
:1068E00020B16420BDE8084006F086BB08BD00BFAB
:1068F0003C18002068060020F8B5234B93F854217B
:10690000012A3FD0D3F85821196DB2F5807F04BF1A
:106910000022C3F85821D3F858411B4A8C4203D1B6
:10692000002382F85431F8BD8CBFC4F58071C4EBEC
:106930000101C2F85C11D3F85C61134D402EA2B284
:1069400007D94034403EC5F85841C5F85C6140273E
:1069500006E034440021B7B2C5F85841C5F85C11CF
:106960000A4801241044C0213A4683F8544109F0F2
:1069700001F92046394609F005FA2046BDE8F840FD
:1069800009F06AB9F8BD00BF68060020BC06002007
:10699000094B10B593E8140008331B68D0180AD0CF
:1069A00006490822FFF79CFD204605490422BDE860
:1069B0001040FFF795BD10BDE8F7FF1F77020020DC
:1069C0008702002013B5084C002100910A460B46AF
:1069D000204601F04DF90549054A204602B0BDE8C0
:1069E00010400DF0AFBE00BFC8070020195A0008C4
:1069F000D007002038B504460D46AC4203D254F807
:106A0000043B9847F9E738BD08B507480749FFF741
:106A1000F1FF07480749FFF7EDFFBDE808400648CA
:106A20000649FFF7E7BF00BFD49A0108D49A0108CE
:106A3000D49A01083C9B01083C9B01083C9B01083F
:106A40000DF0D0BE0DF0D6BE0DF0D4BE08B50720B7
:106A500007F04AFCFEE70000074A08B5136818442F
:106A60001060064A904204D9082007F03DFC0DF062
:106A700097FE184608BD00BF140000200048002003
:106A80004FF0FF3070470120704708B50C2007F029
:106A90002BFCFEE7014B1868704700BFD4070020AD
:106AA000064B0246582000FB013101F1080303CBDD
:106AB0001060516018689060704700BFD4070020D4
:106AC000014BD3F864017047D4070020064B0246FF
:106AD000142000FB013101F5B67303CB1060516047
:106AE00018689060704700BFD407002038B505468D
:106AF000064C28B106F070FC012384F8303238BD12
:106B000006F018FC84F8305238BD00BFD4070020CE
:106B10000E4B2DE9F041D3F8647180460024BC424D
:106B200011DA14256543094E414606F5B67028442E
:106B30000C220DF0F0FF20B93544D5F86801BDE80E
:106B4000F0810134EBE70020BDE8F081D40700209C
:106B5000044B01221A70044B00224FF4C0201A602B
:106B600007F098B8B71600206C060020034A0023EF
:106B70001370034A136007F0EBB800BFB71600208C
:106B80006C060020024B00221A6007F0ABB800BF71
:106B90006C0600202DE9F04788B0804668460D4617
:106BA00001F000FA1E4B0024D3F800A054452DDA62
:106BB00055B3582666431A4F414607F10800304442
:106BC0000C2207F104090DF0A6FFE8B928460DF0E4
:106BD0009AFF06F11003402834BF0246402229469E
:106BE00009EB03000DF01DFE3E44012386F85830EA
:106BF000694604A8746801F0F7F904A8A0470446A0
:106C000004A801F08DF903E00134CFE74FF0FF3421
:106C1000684601F085F9204608B0BDE8F08700BF5E
:106C2000D40700202DE9F84F0446894600293DD0BD
:106C300000283BD01E4D2E68042E37D005F10807E2
:106C40004FF0000805F1040AB0450DDA57F8043C8E
:106C50004B4505D1384621460C220DF05CFF28B388
:106C600008F101085837EFE74FF0580808FB06F81D
:106C700005EB080708F1100000214022C7F8049036
:106C800050440DF0F2FD0AEB0800002104300C2204
:106C90000DF0EBFD2068616807F1080303C3A068ED
:106CA00001361860002387F858302E60BDE8F88F51
:106CB000D407002010B5064C206804F089FC236836
:106CC000013303D0431E5842584110BD012010BD6E
:106CD0001800002038B50B4B05461B780C466BB9E5
:106CE000094B1B7853B9FFF7E5FF034630B9074A54
:106CF00029461068224605F029FC38BD4FF0FF30C8
:106D000038BD00BFF4160020F51600201800002042
:106D10002DE9F041264B86B01B7880460F46002BAC
:106D200041D1244B1B78002B3DD1FFF7C3FF044614
:106D3000002838D1204D8DF80C008DF80D008DF80D
:106D40000E008DF80F00286806AA460902EB860699
:106D5000012100F01F02914056F80C2C01300A432B
:106D600046F80C2C41F28832059204AA009203A93D
:106D700022462346049405F0CBFA002815DD2B6843
:106D800006AA590902EB810151F80C5C03F01F02BD
:106D9000154115F0010008D0184641463A462346F1
:106DA00005F056FB01E04FF0FF3006B0BDE8F08182
:106DB000F4160020F51600201800002030B51F48FA
:106DC000ADF57B7D09F047F8002834D11C4B17A89E
:106DD00005931C4B61AD06931B4B049007931B4B13
:106DE0000EAC08931A4B039509931A4B0A931A4B4E
:106DF0000B931A4B0C931A4B0D931A4B0E931A4B81
:106E00000F931A4B10931A4B11931A4B12931A4B60
:106E100013931A4B14931A4B15931A4B169306F0AF
:106E2000DDFF284606F0E0FF00940448164903AA57
:106E300005AB09F017F80DF57B7D30BD080A002081
:106E4000D56C0008116D0008516B00086D6B0008CF
:106E500019DE0008856B0008ED6A00085577000808
:106E600009850008956A0008A16A0008956B00086A
:106E7000C16A0008CD6A000839710008116B00086A
:106E8000F5DD000809DE0008E8F7FF1F014809F0FA
:106E90001DBF00BF080A002030B502208DB001469A
:106EA000112205F077F9051E28DB07A8144909F01F
:106EB00029F90223ADF80C3016238DF80E30332358
:106EC0008DF80F30E0238DF8103000238DF811304D
:106ED00001238DF81230BB238DF81330032403AB4C
:106EE000009310230193284607A91322002305F0DD
:106EF00037FB013CF3D1284605F07CF90DB030BDDD
:106F0000E8F7FF1F38B5084CFFF758FF204608F098
:106F1000A5FF204609F07FFB0546FFF7BDFF204691
:106F200009F0E8FA284638BD080A002038B5114CA7
:106F3000D4F8585B2DB1D4F8583B013BC4F8583B0A
:106F400038BDD4F85C3B0C4A52F8230006F0CAF96D
:106F5000E72006F01BFA6423084AC4F8583BD4F82B
:106F60005C3B526801339342C4F85C3BA8BFC4F851
:106F70005C5B38BDD4070020306701081800002092
:106F80007FB502200121062205F004F9041E24DB4E
:106F90000223ADF8003000238DF8023035238DF840
:106FA00003304FF4FA5008238DF804308DF8053083
:106FB0008DF806308DF8073001F0C2FE69461022C8
:106FC0000546204605F076F90646284601F0B8FE4B
:106FD000204605F00FF9304601E04FF0FF3004B0D5
:106FE00070BD000010B5064C2068002805DB05F0D8
:106FF00001F94FF0FF33236010BD002010BD00BF2A
:1070000018000020F0B5A7B0FFF7ECFF0220012127
:10701000062205F0BFF8324F0028386050DB314DB2
:107020000223A5F8603B162385F8623B05A83323AD
:1070300085F8633B06F09EFE002300939DF8143014
:107040003BB1012B17D0284B01AC03F1100E2246A7
:1070500002E0069B009313E018685968264603C6B1
:10706000083373453446F7D10FCA06AC07C424F879
:10707000023B1B0C23700A24009B0BB9013C22D15C
:10708000009B0BB9194B0093009B4FF4FA501A0E5A
:1070900085F8642B1A0C85F8652B1A0A85F8673B6E
:1070A00085F8662B01F04CFE114904461022386821
:1070B00005F000F90546204601F042FE28460CE0A6
:1070C0004FF0FF3009E006A87E210DF04CFD6A4626
:1070D00081B206A805F0B4F8CEE727B0F0BD00BF36
:1070E00018000020D40700202F94010804E5D036B2
:1070F000341300200F4B2DE9F041D3F86471804622
:107100000024BC4211DA142565430A4E414606F5B7
:10711000B67028440C220DF0FEFC20B9354495F8D9
:107120007801BDE8F0810134EBE74FF0FF30BDE8B6
:10713000F08100BFD407002008B5FFF7DBFF01385E
:1071400008289DBF024BC018007F022008BD00BF69
:107150003067010805F0AEB837B50B4C002104F5D7
:1071600037650B4600910A46284600F081FD284607
:107170000649074A0DF0E6FA04F50D7003B0BDE8C4
:10718000304008F053BE00BFD4070020195A000851
:10719000D007002014282DE9F34104460E4675D887
:1071A000FF2973D000F084FE18B1A4F10D03022B67
:1071B0006CD900F0F1FC08B1012C67D901F02AFB71
:1071C00018B1A4F11203012B60D918236343314D88
:1071D000EA18EF58304BB2F804809F4201D10420E6
:1071E00003E02E4B9F4203D10820012107F0DEFC73
:1071F000ADF80480062E45D8DFE806F0040F171F0F
:1072000027313C0010238DF8073003238DF806301A
:10721000182303FB0454002333E004238DF80730C4
:10722000182303FB045401232BE048238DF8073077
:10723000182303FB0454022323E028238DF807308E
:10724000182303FB045403231BE0182303228DF8A7
:10725000073003FB04548DF80620042311E01C239F
:107260008DF8073003238DF80630182303FB0454F0
:10727000052306E000238DF80730182303FB045490
:107280000623A373384601A907F064FB02B0BDE8EA
:10729000F08100BF2000002000080140000C0140E8
:1072A000142870B504460E463CD81F4D182303FB26
:1072B00000539B7B5A1E022A34D9062B32D0FF2B57
:1072C00030D000F0F5FD20B1A4F10D03022B00D861
:1072D00070BD00F061FC10B1012C00D870BD01F050
:1072E00099FA20B1A4F11203012B00D870BD182324
:1072F00003FB04539B7B042B03D120460021FFF7A3
:1073000049FF012E06D118235C432A192B59928874
:107310001A6170BD36B918235C432A192B5992881B
:107320005A6170BD70BD00BF20000020142838B520
:10733000044615D81D4D182303FB00539B7BFF2BE0
:107340000ED0043B012B0BD900F0B2FD18B1A4F113
:107350000D03022B04D900F01FFC18B1012C01D839
:10736000002038BD01F056FA18B1A4F11203012B28
:10737000F6D9182303FB04539B7B062B07D10B4B39
:1073800093F8F811FF29EBD02046FFF703FF1822EE
:1073900054432544054BAA7BA988185912B907F014
:1073A0002DFB38BD07F024FB38BD00BF20000020B6
:1073B000F0B54FF4004091B007F0C4FB0120014646
:1073C00007F0E8FB01214FF4C06007F0EFFB334802
:1073D00007F02EF9324B00240593324B2F480693C9
:1073E0000A23089380230A934FF400730B934FF4FE
:1073F00000630C9305A94FF400530E9301254FF43D
:1074000000274FF46026079409940D940F9407F019
:1074100087F92548694600978DF804408DF80540A6
:10742000029603948DF8105007F03CF81F48694607
:1074300000978DF804408DF80540029603948DF86E
:10744000105007F02FF81848294607F04FF8164853
:1074500007F05EF8144807F060F80028FAD11248E7
:1074600007F05FF8104807F061F80028FAD10F48DC
:10747000012107F03BF80D4807F04AF80B4807F0E8
:107480004CF80028FAD1094807F04BF8074807F0F4
:107490004DF80028FAD111B0F0BD00BF080002403D
:1074A0004C240140501300200024014000280140DA
:1074B000092870B504469CBF00F10A04A4B200F08C
:1074C000F7FC28B1A4F10D03022B01D8002070BDF8
:1074D00000F062FB01F09EF918B1A4F11203012B38
:1074E000F4D9142CF2D8394D182303FB04539A799C
:1074F000FF2AEBD095F8FA11914206D09B7B2046EB
:10750000062185F8F831FFF745FE95F8FB31012B90
:1075100005D1FFF74DFF2D4B002283F8FB211823E7
:1075200003FB045495F8FA31A179284E8B420FD011
:107530002748012296F8F93107F005F896F8F93155
:107540002448A179012206F0FEFFA37986F8FA31DA
:107550000021214C002344F8213001310A29F8D1BF
:107560001E4807F00EF91B48012107F034F81B48AC
:10757000012107F0F3F81648012106F0C0FF144876
:10758000012106F0D7FF022007F0FEF80028FAD00C
:10759000022007F007F90E48002106F0B0FF0F485F
:1075A000002107F0DBF800231A4654F8230054F8B2
:1075B0002310013389B201EB10410A2B0A44F4D1A4
:1075C0001420B2FBF0F290B270BD00BF200000208A
:1075D0000024014000280140501300200800024010
:1075E0002DE9F043142889B005460E4600F2A48028
:1075F000534F182303FB00739B68002B00F09C8003
:1076000000F056FC20B1A5F10D03022B40F294804E
:1076100000F0C2FA10B1012D40F28E8001F0FAF8AC
:1076200020B1A5F11203012B40F28680182404FB3F
:107630000574A37B13F0FB0F7ED1424B4BF68038D1
:1076400008FB06F81A68404B0120B2FBF3F901462B
:10765000FF2398FBF3F807F0A9FA28460421FFF767
:1076600099FDA36809F1FF39B3F1804F1FFA89F939
:107670001FFA88F802D10120014609E0334A9342FB
:1076800008BF022003D0324A934203D104200121D3
:1076900007F098FA182404FB057400264BF67F3394
:1076A000A06801A9ADF80830ADF80A60ADF8066031
:1076B000ADF8049007F070FB6023ADF81860A68960
:1076C000ADF810300123ADF81230ADF8168046B990
:1076D000A06804A907F0AAFBA068082107F0E6FC4F
:1076E0001FE0042E08D1A06804A907F0E3FBA068FE
:1076F000082107F0E3FC14E0082E08D1A06804A9D3
:1077000007F01CFCA068314607F0E2FC09E00C2EF3
:1077100007D1A06804A907F053FCA068082107F06E
:10772000DFFC182303FB05750121A86807F0B2FCF4
:10773000A868012107F08BFC09B0BDE8F08300BF09
:1077400020000020BC03002000366E010004004031
:107750000008004006F09ABB13B5084C00210091C8
:107760000A460B46204600F083FA0549054A2046A2
:1077700002B0BDE810400CF0E5BF00BF7813002058
:10778000195A0008D007002038B5184B05461C8848
:1077900003F580631B88A4B29BB22BB94EF6EE6250
:1077A000A21A18BF012205E0F4B94EF6EE629B1A48
:1077B0005A425A4192020E4B02F1006404F5804491
:1077C00013449C420ED22268013209D1204607F0B0
:1077D000A5F8042809D1A01C294607F09FF838BD58
:1077E0000434EEE7802038BDAB2038BD00400008EF
:1077F000FE43000808B5084807F072F804280AD1CB
:107800000548002107F08AF8042804D1BDE80840A3
:10781000024807F065B808BD0040000800440008B1
:10782000104B10B51C8803F580631B88A4B29BB273
:107830001CB10BB1AB2010BD01240B4BA40223449F
:107840000A4A224493420AD91A8892B2824204D147
:1078500033F8023C00200B8010BD043BF0E7012010
:1078600010BD00BF00400008FE43000802400008B1
:10787000F8B5444E06F0F4FF434D34884EF6EE6101
:10788000A4B22B888C429BB24FF6FF7210D0944268
:1078900002D0002C73D142E00BB930466CE08B4231
:1078A0006DD1304607F01CF804286AD1284632E032
:1078B0004BBB1C461646354B354A1B8832F81450D4
:1078C0009BB2AB4208BFA6B233B29C4203D1013493
:1078D000642CF0D10FE02E4F284607F1C801FFF7C6
:1078E0009FFF0128F3D02846B7F8C810FFF74CFFD8
:1078F0000428ECD0F8BD2348002107F00FF8042835
:107900003FD1214838E0934239D1284606F0E8FFBC
:10791000042836D13046002107F000F8F8BD73B3D3
:10792000934201D1284627E016461A4B184A1B8875
:1079300032F814509BB2AB4208BFA6B233B29C429D
:1079400003D10134642CF0D10FE0114F284607F128
:10795000C801FFF765FF0128F3D02846B7F8C81023
:10796000FFF712FF0428ECD0F8BD0748002106F00D
:10797000D5FF042805D1034806F0B2FFF8BDFFF794
:1079800039FFF8BD00400008004400080640000828
:1079900080130020064400082DE9F84306460C46F3
:1079A00006F05EFF30462146FFF7EEFE802840D10C
:1079B000214B22481988028889B292B221B1002A4B
:1079C00036D11D46814601E00546994628464EF6C9
:1079D000EE6106F0A3FF04282BD130462146FFF7C5
:1079E000D3FE042825D10024154F34F80780B04574
:1079F00003D10234C82CF7D10FE0404607F1C8018B
:107A0000FFF70EFF0128F4D04046B7F8C810FFF783
:107A1000BBFE0428EDD0BDE8F883484606F060FFC1
:107A2000042806D12846002106F078FFBDE8F88337
:107A3000AB20BDE8F88300BF004000080044000808
:107A40008013002010B50446FFF712FF0023044AFC
:107A500022F813300133642BF9D1204610BD00BF4A
:107A600080130020632907B507DC074B33F81100AA
:107A70000DF10601FFF7D4FE08B1FF2001E09DF8EB
:107A8000060003B05DF804FB8013002063290B4659
:107A900005DC034931F813001146FFF77DBF70473D
:107AA000801300200148FFF7CDBF00BF4A1400201B
:107AB000024B18785B78C01A704700BF4C14002046
:107AC000064B5A781978914204D99918013288786E
:107AD0005A7070474FF0FF30704700BF4C140020C1
:107AE000044B5A781978914286BF9B1898784FF0CA
:107AF000FF3070474C14002070470000014B0360BA
:107B0000704700BFA067010810B5034B044603602F
:107B1000FEF798FF204610BDA0670108F8B5094B95
:107B2000054693F82230164653B10C468F18BC42D6
:107B300006D02B6828469B6814F8011B9847F6E787
:107B40003046F8BD4C14002010B50C4B012293F8C0
:107B500022408CB193F823401F2C02D942600020B0
:107B600010BD93F824001C1884F82510411CC9B2DC
:107B700083F8241083F82310104610BD4C14002005
:107B8000002242604FF47A728260014A02607047BC
:107B90006067010870477047014B93F859007047C0
:107BA0004C14002073B50E4C002104F164050D4EF9
:107BB0000B4600910A46284600F05AF86C343246CB
:107BC000094928460CF0BEFD2046FFF7D9FF0749BA
:107BD0002046324602B0BDE870400CF0B3BD00BF95
:107BE0004C140020D0070020195A0008FD7A000824
:107BF00008B5034B53F8203003B1984708BD00BFC8
:107C0000C814002013B5084C002100910A460B4609
:107C1000204600F02DF80549054A204602B0BDE88F
:107C200010400CF08FBD00BF08150020195A000845
:107C3000D00700202DE9F041002407460E462546D6
:107C40003B1919790A22304600F0F6F82E218046B9
:107C5000304600F07AF801344044032C0544EFD15B
:107C60003046F9790A2200F0E7F82844BDE8F081AF
:107C700030B58371034D9DF80C3005600171427180
:107C8000C37130BD886701080548064B064903608B
:107C9000064A0023037143718371C3710CF052BD16
:107CA0001015002088670108195A0008D007002025
:107CB00013B5084C002100910A460B462046FFF7F9
:107CC000D7FF0549054A204602B0BDE810400CF038
:107CD00039BD00BF18150020195A0008D007002030
:107CE000014B0360704700BFA0670108F8B5064666
:107CF0000C468F180025BC4207D0336830469B687D
:107D000014F8011B98470544F5E72846F8BD000024
:107D100010B5034B04460360FEF794FE204610BDE9
:107D2000A067010838B505460C46084641B10CF07D
:107D3000EAFE2B680246DB6828462146984738BD94
:107D400038BD08B5FFF7EEFF08BD08B503689B68AE
:107D5000984708BD38B50D210546FFF7F6FF0A2103
:107D600004462846FFF7F1FF204438BD38B50446E5
:107D7000FFF7D8FF05462046FFF7ECFF284438BD43
:107D800038B50446FFF7E1FF05462046FFF7E2FF5E
:107D9000284438BD30B500238BB08DF82430012A3B
:107DA00098BF0A220DF12304B1FBF2F303FB121179
:107DB000CDB2092D94BF30353735EDB2214604F8E8
:107DC00001590BB11946EFE7FFF7ACFF0BB030BD1F
:107DD000F8B506460D46144622B90368C9B29B6839
:107DE0009847F8BD0A2A0CD100290BDA2D21FFF79C
:107DF000ACFF6942074622463046FFF7CBFF3844C6
:107E0000F8BDD2B2BDE8F840FFF7C4BF38B50446AC
:107E1000FFF7DEFF05462046FFF79CFF284438BDEC
:107E200010B522B90268C9B29268904710BDD2B2AB
:107E3000BDE81040FFF7AEBFFFF7F2BF38B504460C
:107E4000FFF7EEFF05462046FFF784FF284438BDC4
:107E500013B5084C002100910A460B462046FFF757
:107E600007FF0549054A204602B0BDE810400CF066
:107E700069BC00BF28150020195A0008D00700204F
:107E800013B5084C002100910A460B462046FFF727
:107E9000EFFE0549054A204602B0BDE810400CF04F
:107EA00051BC00BF30150020195A0008D00700202F
:107EB000014B587D704700BF381500207047000007
:107EC00013B5084C002100910A460B462046FFF7E7
:107ED000CFFE0549054A204602B0BDE810400CF02F
:107EE00031BC00BF50150020195A0008D0070020EF
:107EF00013B5084C002100910A460B462046FFF7B7
:107F0000B7FE0549054A204602B0BDE810400CF016
:107F100019BC00BF5C150020195A0008D0070020CA
:107F200010B5044600680CF065FC204610BD10B585
:107F30000446006808B10CF05DFC00232360A360D8
:107F4000636010BD38B504460D46006801310CF081
:107F500067FD10B184E82100012038BD036810B529
:107F6000044613B143688B4207D22046FFF7EAFF6D
:107F700020B1A3680BB922681370012010BD70B541
:107F80000E46114604461546FFF7E8FF18B920468D
:107F9000FFF7CDFF04E0A560206831460CF0ABFD93
:107FA000204670BD38B500230446036043608360FB
:107FB00003730D4639B108460CF0A5FD294602466B
:107FC0002046FFF7DCFF204638BD884210B50B463F
:107FD000044607D0096819B19A68FFF7D0FF01E09D
:107FE000FFF7A5FF204610BD10B50023044603602F
:107FF000436083600373FFF7E8FF204610BD38B588
:1080000005460C4641B108460CF07DFD214602466E
:108010002846FFF7B4FF01E0FFF789FF284638BD87
:10802000826808B50B4612B919B9012008BD11B90B
:108030000368187802E00068FDF76AF8D0F10100E3
:1080400038BF002008BD10B58B688468E41AA242CE
:108050000CD8006868B1096851B110441A460CF098
:108060005AFDD0F1010038BF002010BD002010BD26
:10807000084610BD82688B689A4202D30022FFF73F
:10808000E2BF002070478368994203D2006810B1B4
:10809000405C704700207047FFF7F5BF9A422DE91A
:1080A000F04107460D4614461E4601D93446164691
:1080B00038460C49FFF776FFAB689C420FD89E42CA
:1080C00028BF1E462B68002213F806809A5529689F
:1080D00038462144FFF793FF2B6803F806803846A3
:1080E000BDE8F081F695010810B58B680446FFF7EE
:1080F000D5FF204610BD006808B10CF058BB704792
:1081000013B5026802AB03F8011DD46819460122B9
:10811000A04702B010BD10B5B0F89620B0F894306A
:1081200004469A4207D0B4F894305A1CA4F894201C
:108130001C44207D10BD03681B6998470028F2D1BC
:108140004FF0FF3010BD10B5B0F89620B0F8943065
:1081500004469A4204D0B4F894301C44207D10BDEB
:1081600003681B6998470028F5D14FF0FF3010BD18
:108170000023A0F89430A0F896307047F8B5174661
:10818000B0F89430B0F8962004469A420E4606D1D4
:1081900003681B69984710B94FF0FF3512E0B4F837
:1081A0009430B4F89650E118ED1ABD4228BF3D4610
:1081B000304614312A460CF034FBB4F894302B448A
:1081C000A4F894302846F8BD10B504460069082884
:1081D00001D004F00FF80823236110BD30B5B0F8CA
:1081E000963087B0044633B1B0F894209A4202D159
:1081F0000368DB69984700F08FFB022823D12069D0
:10820000082820D0B4F896307F2B1CD8430906AA42
:1082100002EB8303012100F01F029140002503952A
:1082200053F80C2C01300A4343F80C2C41F28833EC
:10823000059304AB009303A92A462B46049504F04A
:1082400067F8A84206DCB4F89600B4F89430C01A77
:1082500007B030BD206906AB420903EB820252F839
:108260000C2C00F01F0342FA03F3DB07EBD5B4F844
:1082700096202B46A1181431C2F1800204F0E8F8D0
:108280000028E0DDB4F896300BB9A4F8943003442C
:10829000A4F89630D7E700002DE9F04188B00646F3
:1082A0000F46904600F038FB02284FF0000422D120
:1082B00008AD384645F8144D0CF025FC2A4681B22D
:1082C000384603F0BDFFA04215DD039B04A8DAB2D7
:1082D0000092190EC3F30742C3F30723FFF7C8FC4C
:1082E000336830461C6A064B06A90693059B424636
:1082F0000793A04700E0204608B0BDE8F08100BF2A
:1083000088670108F0B585B004460D46164600F0B2
:1083100003FB0228074634D10121062203F03AFF6D
:10832000002820612DDB23682046DB699847330A4B
:108330008DF802302B794FF4FA508DF804306B79B8
:108340008DF803608DF80530AB79ADF800708DF8CD
:108350000630EB798DF8073000F0F2FC69460546EF
:1083600010222069FEF7F6FE0646284600F0E8FCDB
:10837000002E04DA23682046DB6A984701E00120DA
:1083800000E0002005B0F0BD4FF47A71816005492E
:1083900000220160082142600161A0F89420A0F849
:1083A00096207047B8670108036910B5082B04468A
:1083B00001D1002010BD00F0AFFA0228F9D12069E8
:1083C00003F006F9D0F1010038BF002010BD70B5F0
:1083D00004460E461546FFF7E7FF30B120693146E7
:1083E0002A46002304F0B2F870BD4FF0FF3070BD94
:1083F00070B50446FFF7D8FF012819D0B4F89620CD
:10840000B4F894309A4212D12069082803D003F0BE
:10841000DFF8012801D0002070BD236820461B69C9
:10842000984720B923682046DB6A9847F3E7012084
:1084300070BD08B5FFF7B8FF003018BF012008BDB8
:1084400013B5084C002100910A460B462046FFF761
:108450000FFC0549054A204602B0BDE810400CF06B
:1084600071B900BF64150020195A0008D007002018
:1084700013B5084C002100910A460B462046FFF731
:10848000F7FB0549054A204602B0BDE810400CF054
:1084900059B900BF6C150020195A0008D0070020F8
:1084A00038B5184C94F92C305BB394F82D3043B3A5
:1084B00006F0D0FB94F82C2094F82D5051B20029EE
:1084C00095FBF1F106DD01290BDC013A84F82C2043
:1084D000002307E0013104DB013284F82C20022361
:1084E00000E0012394F82D20013A84F82D20C418CF
:1084F00006F0E2FB204606F0BFFBBDE8384006F080
:10850000DBBB38BD7415002010B5044606F0A2FB95
:10851000001B00F17F02FE2A08D906F0CDFB2046A1
:1085200006F0AAFBBDE8104006F0C6BB054A80EA8B
:10853000E073A3EBE0735B0082F82C0082F82D302F
:1085400010BD00BF7415002013B5084C0021009128
:108550000A460B462046FFF78BFB0549054A204695
:1085600002B0BDE810400CF0EDB800BFA41500202B
:10857000195A0008D007002013B5084C00210091BB
:108580000A460B462046FFF773FB0549054A20467D
:1085900002B0BDE810400CF0D5B800BFB015002007
:1085A000195A0008D007002013B5084C002100918B
:1085B0000A460B462046FFF75BFB0549054A204665
:1085C00002B0BDE810400CF0BDB800BFB8150020E7
:1085D000195A0008D0070020014B0360704700BF04
:1085E000A0670108426D836DD01A00F03F0070470C
:1085F000426D836D9A421DBF836DC018007D4FF0A0
:10860000FF307047426D836D9A4209D0836D826D51
:1086100003441B7D013202F03F0282651846704719
:108620004FF0FF307047000010B5034B0446036065
:10863000FEF708FA204610BDA067010810B50446F1
:10864000D4F89C20D4F8A0309A42F9D1237C13B9F5
:108650000023237410BDD4F8A4304021186806F01C
:1086600078FD0028F4D1F1E7D0F8A43070B50446C5
:108670000E46186840F2277106F071FD28B9D4F84B
:108680009C20D4F8A0309A4215D1D4F89C500135E2
:1086900005F03F05D4F8A0309D42D4F8A43013D0A3
:1086A000EFF31082D20742D5D4F89C10D4F8A02062
:1086B000914209D13BE0D4F8A43040F22771186808
:1086C000012206F026FDE0E7186840F2277106F067
:1086D00046FD0028DED0D4F8A4308021186806F0CA
:1086E00038FD0028D6D0D4F8A43040F2277118689D
:1086F000002206F00EFDD4F8A4301868D4F8A0309B
:108700005A1C2344C4F8A02093F85C1006F019FD0D
:10871000D4F8A03040F2277103F03F03C4F8A03032
:10872000D4F8A4300122186806F0F3FCB2E7D4F8BC
:108730009C2040F22771224482F85C60C4F89C506F
:108740000125186825742A4606F0E3FC284670BD0A
:1087500010B540F225510446006806F000FD70B1E6
:10876000206806F0F2FCE369C0B21A6C596C013261
:1087700002F03F028A4202D0196C58541A642068F1
:1087800040F2277106F0EBFCB8B1A3692068196CC0
:108790005A6C914206D1BDE8104040F22771002288
:1087A00006F0B7BC5A6C511C5964995C06F0C9FCC0
:1087B000A3695A6C02F03F025A6410BDF8B54FF439
:1087C0007A7383600C4B0446002503604560C0F853
:1087D000A41004F15C07482614308F613246C8614A
:1087E00029460CF042F83846294632460CF03DF84E
:1087F00025742046F8BD00BFF86701080148FFF75F
:10880000A7BF00BF1C0200200148FFF7A1BF00BFA7
:108810003C020020014B187C704700BFC0150020AF
:1088200073B50E4C002104F114050D4E0B4600915A
:108830000A462846FFF71CFA1C34324628460949E6
:108840000BF080FF20460849FFF7B8FF0749204694
:10885000324602B0BDE870400BF074BFC015002076
:10886000D0070020195A00081C020020D9850008F2
:1088700070474FF0FF307047014B0360704700BFF7
:10888000A067010810B5034B04460360FEF7DAF851
:10889000204610BDA0670108FDF7F0BF08B5FDF741
:1088A000D9FF08BD08B50846FEF708F8012008BD45
:1088B000002242604FF47A728260014A026070477F
:1088C000206801080846FDF7ADBF000037B50D4C24
:1088D00000210D4D0B4600910A462046FFF7C8F9CE
:1088E0002A460A49204608340BF02CFF2046FFF7A1
:1088F000DFFF074920462A4603B0BDE830400BF0B1
:1089000021BF00BF84160020D0070020195A00089C
:108910007988000870470000054B1B7803F0FF00C2
:108920002BB1044B1B78002B14BF02200120704791
:10893000E5160020B416002037B50B4C00210B4D76
:108940000B4600910A462046FFF792F92A46204638
:1089500007490BF0F7FE074904F108002A4603B067
:10896000BDE830400BF0EEBE9C160020D007002082
:10897000195A00081589000800230360184670473B
:1089800000230360184670470023036018467047B1
:108990002DE9F0410B7890B004460D4616462BB1F8
:1089A000032A54D8DFE802F002113C3C20460CF0C8
:1089B000AAF8012302460020009301900290039040
:1089C00004900590214603463DE008460CF09BF8D4
:1089D00000264FEA50088DF81E60464505F1020555
:1089E00008AF0FD015F8023C07A88DF81C3015F819
:1089F000013C002110228DF81D300CF0F5F9B8551E
:108A00000136EAE720460CF07EF8002302460120FA
:108A10008DE841000293039304970593214612E0E9
:108A20000CF071F8074628460CF06DF80121182269
:108A30001E234FF0020E8DE80E400590049530463F
:108A400021463A46002303F0C3FE044B1870034B43
:108A500001225A7010B0BDE8F08100BFA8160020B6
:108A6000034610B548F21004A34208464CD00DDC72
:108A700048F20102934224D048F2020293422AD0E3
:108A8000992B64D1324B01229A7410BD48F28004B4
:108A9000A3420FD0B3F5084F49D048F240008342BB
:108AA00055D12B4C04F114000BF0BBFEA36A01332B
:108AB000A36210BD264B01229A70DA7000221A714F
:108AC00010BD234C01236371FEF744FE00F5EA401C
:108AD0003030A06010BD1E4C637963B1FEF73AFEE2
:108AE00000F5EA403030A0604FF47F4004F0D2FB44
:108AF000E72004F04BFC0023637123736373A373BB
:108B0000E3732374637410BD0A7D114B62B99A60DC
:108B10004FF47F4001221A731A7404F0BBFBBDE8C6
:108B20001040E72004F032BC00221A7310BD00216F
:108B300002F04BF90121044602F08EF9054B1B6847
:108B40009C4204D1024B0022DA739A735A7310BD0F
:108B5000A8160020180000201FB54FF461504FF4F4
:108B600061610A2200238DE80F00064B44F6206263
:108B70001A60684601A902AA03AB02F02FFE05B0F5
:108B80005DF804FBF01700201FB50023009301934C
:108B90000293039301A8694602AA03AB02F0E4FD25
:108BA00005B05DF804FB000070B500210A4C0E20F2
:108BB00002F0E6FE102510210E2002F0E1FE2A460A
:108BC000204600210BF051FE294623460E200022AC
:108BD000BDE8704002F088BED416002030B5524D7A
:108BE00000249FB0FF20AC70EC706C706C712C7323
:108BF000AC746C73AC73EC732C7404F04BFBE72017
:108C000004F0C4FB21462246204603F0BDFD2B465E
:108C1000012103F82D4F0E200A4602F065FE6B7904
:108C2000012B05D1642004F0DFF902F035FAF6E7F4
:108C300010210C2002F0A4FE3C4803F067FA3C48E7
:108C400003F016FF012003F0F7FE6846394900F0F3
:108C5000F1FDAB786A78344C1A4317D194F83C3064
:108C6000002B57D0FF2003F099FE002852D11A2480
:108C7000013C06D0E72004F0B7FB322004F0B4F941
:108C8000F6E7FFF791FF85F83C40E2E7E72004F0C4
:108C90007DFB04F12C030E200121002202F0F6FDE1
:108CA000A37813B103F004FF20702B780121013366
:108CB00085F82C300022204B0E2002F015FE0020FB
:108CC00001240146012203F05FFD214622461B4B91
:108CD0000E2085F82D4002F007FE03F0D9FC642039
:108CE00004F082F9002003F09DFC85F83D404FF42C
:108CF0007F4000242C7404F0CDFAE72004F046FBFA
:108D000048F2042003F066FEFFF726FF85F83E4098
:108D10001FB030BDE72004F067FBFA2004F064F9CF
:108D2000684600F0E3FD94E7A816002040680108BB
:108D30005C02002091890008D4160020D51600207E
:108D4000024B1A6818601046704700BFF0170020E9
:108D50007FB5364C0025206404F0FCFD04F03CFD9A
:108D6000334B344A0093344B34490193344B3548E8
:108D70000293354B0393354B03F03CFC642004F025
:108D800033F9002003F04EFC012348F2042084F85C
:108D90003D30257403F01EFE2D4B1A881E46012A15
:108DA00031D00E2010212A4604F12C0302F06EFD72
:108DB000102828D123791D4DABB995F82C301BB95B
:108DC000012385F83E300EE095F82D0058B9014694
:108DD000012203F0D9FC01212B4603F82D1F0E20A0
:108DE0000A4602F081FD2379BBB9104B93F83E305F
:108DF0009BB1184802F0AAFDFFF7C6FE04B0BDE81B
:108E00007040FFF7A9BEFF2003F0C8FDFFF7CCFEBE
:108E10000023338004F0F0FECCE74FF47F4004F0F1
:108E200039FAE72004F0B2FAE3E700BFA816002001
:108E300091D8000881890008A5D800087989000820
:108E400011D90008618A000839D900088989000809
:108E5000AA030020EC1600202DE9F341AE4C05F0EA
:108E60002FFE0023A36494F84C304BB994F84D3096
:108E700033B9A3687BB3FEF76DFCA36898422AD38D
:108E800094F83D30A44D002B40D000266E71AE60AA
:108E90002E732E6585F84C60012785F83D606E7352
:108EA000AE73EE736E7403F0F3FB6FF07F402F74BC
:108EB00004F0F0F9E72004F069FA642004F094F873
:108EC00095F83E3013B3304603F0ACFB85F83D70A7
:108ED000FFF784FE1AE094F83D308F4DB3B92B793B
:108EE0002BB9FEF737FC00F5EA403030A8600020CF
:108EF00003F098FB012384F83D304FF47F400023BA
:108F0000237404F0C7F9E72004F040FA94F83E30E7
:108F1000814E13B1FFF762FE05E033791BB1337B5D
:108F200003F0FF05FBB1E2787B4B012A13D11A7BDA
:108F3000012A10D15B79012B0DD1032577480BF065
:108F4000E2FD013D82B27549012003F015FB15F0E9
:108F5000FF05F3D1E570237B6F4DE3B195F84D30FC
:108F6000002B74D017E029462A462846B56003F046
:108F70000BFC6B480BF0C7FD6A4F804638460BF080
:108F8000C2FD00970190791F032042462B4603F053
:108F900095FB3571C7E794F8573023B1624800213B
:108FA0003A220BF062FC94F88E205B4B32B95A7B6C
:108FB000002A58D19B7B002B55D1BBE01A7BFAB11C
:108FC00093F84D20E2B95A7B002A5CD018E02B467A
:108FD00003F82F2F0E200121032202F085FC00262A
:108FE0004FF6FF70267404F055F9E72004F0CEF92F
:108FF000FEF708F8B042484D65DB01232E656B7320
:10900000637B454D002B00F09580AB7BBBB9FDF732
:1090100079FF002811D002DA4FF47F0007E0012821
:1090200001D1424803E0022803D14FF0FF1004F0C1
:1090300031F9E72004F0AAF901E00123AB73FDF751
:1090400025FF002876D1E073A073607372E095F875
:109050005730002BA7D1642003F0C6FF05F1540060
:1090600002F002FC9FE7FDF7BDFF00234FF47F40B5
:10907000E373A373637304F00DF9E72002B0BDE856
:10908000F04104F083B95B7C002BA8D04FF47F0043
:1090900004F000F9637C204D03F0FF02002B96D012
:1090A000E72004F073F94FF4FA7003F09DFFE72016
:1090B00004F07AF94FF4FA7003F096FF6B7C013BF1
:1090C000DBB26B74E6E795F84C309BBB2B6D01333C
:1090D000022B2B6504BF012385F84C30FDF750FFB0
:1090E00000280ADA236D0133022B236503D10A4BD2
:1090F000012283F84C20022300E003236374637C85
:109100000E2084F82F300121094B032202F0ECFBE2
:109110000023637374E700BFA81600205F020020DD
:10912000660200206B020020FC1600200060FF0099
:10913000D716002002B0BDE8F08100BF13B5084C7F
:10914000002100910A460B462046FEF791FD054995
:10915000054A204602B0BDE810400BF0F3BA00BF4C
:1091600038170020195A0008D0070020704708B5AA
:10917000012005F0B9F8FEE708B5032005F0B4F8C2
:10918000FEE708B5042005F0AFF8FEE708B50520B6
:1091900005F0AAF8FEE770477047704708B504F07D
:1091A0006DFEBDE80840FDF771BA000008B5024B3E
:1091B0000BB1AFF3008008BD0000000008B5024B02
:1091C0000BB1FFF721FB08BD0988000808B5024B69
:1091D0000BB1FFF713FB08BDFD87000808B5024B74
:1091E0000BB1FEF7D7FC08BD957B000808B5024B14
:1091F0000BB1FEF7D0FC08BD977B000808B5024B09
:109200000BB1FEF75BFE08BDBD7E000808B501206E
:1092100005F012FB38B1012005F01CFB024B13B125
:109220000020FEF7E5FC08BDF17B000808B5022030
:1092300005F002FB38B1022005F00CFB024B13B124
:109240000120FEF7D5FC08BDF17B000808B504201D
:1092500005F0F2FA78B1042005F0FCFA0020064B84
:109260000146188004F048F9BDE808400348102181
:10927000012205F006BF08BD10180020002C014097
:1092800008B5082005F0D8FA38B1082005F0E2FA50
:10929000024B13B10320FEF7ABFC08BDF17B0008C5
:1092A00008B5102005F0C8FA38B1102005F0D2FA40
:1092B000024B13B10420FEF79BFC08BDF17B0008B4
:1092C00008B5202005F0B8FA38B1202005F0C2FA20
:1092D0000E4B13B10520FEF78BFC402005F0ACFAD5
:1092E00038B1402005F0B6FA084B13B10620FEF75E
:1092F0007FFC802005F0A0FA38B1802005F0AAFAA2
:10930000024B13B10720FEF773FC08BDF17B000888
:1093100008B54FF4005005F08FFA40B14FF40050FB
:1093200005F098FA174B13B10D20FEF761FC4FF4CE
:10933000804005F081FA40B14FF4804005F08AFA90
:10934000104B13B10E20FEF753FC4FF4004005F014
:1093500073FA40B14FF4004005F07CFA094B13B1A9
:109360000F20FEF745FC4FF4006005F065FA38B1B8
:109370004FF4006005F06EFABDE8084003F0BEBD92
:1093800008BD00BFF17B000808B50F48102105F0AB
:10939000B1FEC0B10C48102105F0B7FE002004F06A
:1093A0006FF928B9094B1A880A3292B21A8008BD9F
:1093B00005481021002205F064FEBDE808400020A9
:1093C000012104F099B808BD002C014010180020BC
:1093D00008B5024B1B6803B1984708BD441700202D
:1093E00008B5024B5B6803B1984708BD44170020DD
:1093F00008B5024B9B6803B1984708BD441700208D
:1094000008B5012005F06EFC50B1012005F07AFC92
:10941000044B0BB1FFF744F8BDE8084005F04CBC25
:1094200008BD00BFA184000808B5022005F05AFC61
:10943000B0B10C4B00224FF400301A7005F00AFA5C
:10944000012005F067FB10B1012005F06DFB05F070
:1094500033FC022005F056FCBDE8084005F02CBCAA
:1094600008BD00BFF516002003F0DABC00F064B8B8
:1094700038B514490B78012B23D1134A13680BB963
:109480000B7038BD114C402B206881B205D940309B
:10949000403B20601360402504E09DB203442360FC
:1094A000002313600A482A460844C02106F062FBE4
:1094B0000120294606F066FCBDE83840012006F090
:1094C000CBBB38BDBC070020C4070020C00700206C
:1094D000BC06002008B5094B01221A70084B002277
:1094E00003201A8006F07CFC064B024618804FF4DD
:1094F00088710548BDE8084006F054BB700600209E
:10950000740600207206002076060020084B1B68B7
:10951000052B0BD1074B1A68052A02F1010101D076
:109520001960704700221A60FDF7E6B9704700BF66
:109530003C1800205017002070B52B4D2B4C2B6889
:109540002B4E9BB22380228833881340990508D57F
:109550004FF6FF532B60A3780133DBB2A370FFF704
:10956000D5FF2288338813401A0401D506F04CFA3F
:109570002288338813405B0505D54FF6FF332B60F7
:109580001C4B5B689847228833881A40900444BF7C
:109590004DF6FF722A6022881340D90405D54EF695
:1095A000FF732B60002004F05DFE22883388134097
:1095B0001A050BD5104B1B7813B104F033FE02E0F3
:1095C000022004F04FFE4FF2FF732B602288338895
:1095D0001340DB0507D54FF6FF632B600720BDE87E
:1095E000704004F03FBE70BD445C00405417002042
:1095F000FC210020D0020020D0030020034B9B7AE6
:1096000013B1034B05221A60704700BFD821002018
:109610003C180020014B04221A6070473C180020BF
:10962000034B1A78202A04BF00221A70704700BF2B
:109630005817002070470000212810B508D1114BA1
:109640001B681B7803F07F03212B10D0022010BD74
:109650002028FBD10B4B0C4A1B681B78107003F0C1
:109660007F03212B094B18BF00230BB9EEE7084BF2
:10967000044A002412682046936154829847204689
:1096800010BD00BFF821002058170020E196000807
:10969000C9960008074B1B681B7803F07F03212B3A
:1096A00006D100F0DF0002280CBF00200220704726
:1096B00002207047F821002021B9022834BF002081
:1096C000022070470220704720B9034B08221B6814
:1096D0001A82704701487047F8210020C802002014
:1096E00020B9034B08221B681A8270470148704753
:1096F000F8210020C802002010B5FDF749F9054BFC
:1097000000241B689C7204F075FD06F07FFB024B81
:109710001C6010BDF82100203C180020334B344A57
:109720001B68D27910B500245A729C72DC722046F4
:1097300006F04AFA20464FF4007106F04DFA204632
:10974000102106F057FA2046402106F0EFFA80215A
:10975000204606F0DBFA204606F0A4FA254B204608
:1097600093F8341006F01CFB204606F088FA01201E
:10977000214606F031FA0120C02106F0C7FA012087
:10978000202106F037FA0120214606F04CFA02208B
:109790004FF4C06106F020FA02204FF4807106F009
:1097A000B5FA0220214606F03EFA0220202106F0FA
:1097B00021FA0320214606F00FFA03204FF48871A6
:1097C00006F0B4FA0320402106F0EAFA03204FF431
:1097D000405106F028FA0320214606F00BFA2046F5
:1097E00006F0A6F8044B01221A6010BDF8210020F3
:1097F000AD680108C80200203C180020014905F0AE
:1098000093BE00BF00030020014905F08DBE00BFDC
:1098100008030020054B1B68DB78042B04D804499F
:1098200001EBC30105F080BE00207047F821002045
:109830001003002038B504460D46FFF739F82046DE
:1098400025614FF41651FFF73DF8204638BD70B53D
:1098500006460D46002428460BF055F9844208D2EE
:10986000295D3046FFF71EF8012003F0BDFB0134EF
:10987000F1E770BD2DE9F04104460E469046002503
:109880002046FFF70BF80028FADD2046FFF704F822
:109890004545C1B206D10023337020461249FFF777
:1098A000D6FF15E00D29F6D00A29F4D0082901D0F9
:1098B0007F2904D1002DE3D0771E013D02E0771C03
:1098C000317001352046EDB2FEF7ECFF3E46D7E79A
:1098D0002046FEF7E3FF002803DD2046FEF7DCFF0D
:1098E000F6E7BDE8F08100BFF4950108F0B585B05A
:1098F0000446FEF7D3FF002840F39B802046FEF786
:10990000CBFFC0B2772867D104F1140600212122D1
:10991000304604F135050AF0A8FF4122002128460F
:109920000AF0A3FF04F17607002384F8763020467E
:1099300041497B70FFF78BFF204631462022FFF71D
:1099400099FF20463D49FFF782FF01222046394614
:10995000FFF790FF94F87630A3F13002032AF0D895
:10996000312B0BD120463649FFF771FF2046354990
:10997000FFF76DFF20463449FFF769FF94F8762022
:10998000B2F1300708D020463049FFF760FF20468B
:1099900029464022FFF76EFF20462D49FFF757FF6B
:1099A00023693A4630462946984720462949FFF719
:1099B0004EFF20462849FFF74AFF20462749FFF778
:1099C00046FF20462649FFF742FF20462549FFF77C
:1099D0003EFF2046244927E069282AD1234B01ADC8
:1099E00093E8070085E8070020462149FFF72FFF8D
:1099F0000026AF5D20463B0903F13001392988BFBD
:109A000003F1570107F00F07FEF74CFF07F1300194
:109A1000392988BF07F1570120460136FEF742FF7A
:109A20000C2EE6D11349204605B0BDE8F040FFF703
:109A30000EBF05B0F0BD00BF489401084F94010867
:109A40007C940108B2940108DD9401082395010873
:109A50002E9501087195010891950108C49501089A
:109A6000F79501083696010867960108E8F7FF1F89
:109A70001E940108F495010813B5084C00210091CB
:109A80000A460B462046FEF7F3F80549054A2046EC
:109A900002B0BDE810400AF055BE00BF5C170020C0
:109AA000195A0008D00700202DE9F34781460C46DB
:109AB0000026484600F03CFF00287FD000238DF8A8
:109AC00004308DF805308DF80630484600F01FFF51
:109AD000032596FBF5F303EB4303F31A02AA1344A1
:109AE00003F8040C4846013600F022FF28B196FB2B
:109AF000F5F505EB4505AE42E7D1032396FBF3F3FD
:109B000003EB4303F31A012B9DF804709DF80580C5
:109B10002C4D11D13B0103F03003BF0843EA181864
:109B2000E95D2046FEF711F915F808102046FEF70A
:109B30000CF920463D211BE0022B9DF806A01CD10C
:109B40004FEA880303F03C0343EA9A1ABB083F013B
:109B500007F03007E95C204647EA1818FEF7F5F8E9
:109B600015F808102046FEF7F0F815F80A10204600
:109B7000FEF7EBF820463D211DE0BB083F0107F052
:109B8000300747EA18174FEA8808E95C204608F0D2
:109B90003C08FEF7DAF848EA9A18E95D2046FEF735
:109BA000D4F80AF03F0A15F808102046FEF7CDF861
:109BB00015F80A102046FEF7C8F87AE702B0BDE8AB
:109BC000F08700BF0269010803464138C0B2192876
:109BD00014D9A3F16102192A01D8473B04E0A3F18B
:109BE0003002092A02D80433D8B270472B2B04D094
:109BF0002F2B14BFFF203F2070473E2070470000EE
:109C00002DE9F34106460D460024335D9BB31B4B03
:109C10001868019004F003070134331913F8010C9C
:109C2000FFF7D2FF02AB1F44335D07F8040C0BB102
:109C3000A307EFD19DF805809DF80410C8F3011328
:109C400043EA81012846C9B200F052FE9DF8067031
:109C50002846C7F3830343EA0811C9B200F048FE5F
:109C60009DF80730284603F03F0343EA8711C9B245
:109C700000F03EFEC9E702B0BDE8F081426901088C
:109C800013B5084C002100910A460B462046FDF70B
:109C9000EFFF0549054A204602B0BDE810400AF032
:109CA00051BD00BF64170020195A0008D0070020DA
:109CB0002DE9F04305684C5D002C00F0F8802C2C59
:109CC00000F0F18011D80D2C00F0ED8004D8093C93
:109CD000012C00F2BB80E6E0202C00F0E480222C76
:109CE00040F0B4806F1C076072E05D2C36D005D860
:109CF0003A2C00F0D8805B2C08D0A7E07B2C05D054
:109D00007D2C40F0A3804FF0010C29E046689E4274
:109D100080F0E080771C4FEA0618476002EB080CE1
:109D20004FF0FF37CCF80870CCF804700027CCF85F
:109D30000C708768B7F1FF3F06D002EB0719D9F81E
:109D40000C700137C9F80C707B2C14BF022401245D
:109D500002F80840CCF804508660A4E04FF0020CF2
:109D60004468013C02EB04160436002C15DB37680E
:109D7000A6F1040801370DD07768B7F1FF3F09D18C
:109D800016F8046C664540F0A78001358760C8F876
:109D9000085005E0013C103EE7E7661C00F09C809F
:109DA00002EB04150835002C7DDB55F8046C0136F8
:109DB00004D02E68013601D1846074E0013C103D6E
:109DC000F1E7222C09D05C2C19D00468013404601E
:109DD00006688C5D002CF4D12AE044689C424AD28B
:109DE000651C4560250154194FF0000CC4F80CC0E7
:109DF0004FF0030C02F805C06760A6604BE0013627
:109E000006608C5D662CE0D008D82F2CDDD001D800
:109E1000222C07E05C2CD8D0622C03E0722CD4D02A
:109E200002D86E2CD1D005E0743C012CCDD901E0D4
:109E3000056053E005604FE0202C19D00FD8092CA5
:109E400009D2203C5E2CF5D80136066006688C5D90
:109E5000002CF1D10CE00A2C0AD90D2C07E03A2C89
:109E600006D001D82C2C02E05D2C01D07D2CE8D14D
:109E700044689C4201D305602CE0671C47602701C1
:109E8000D4194FF0000CC4F80CC002F807C0A6604B
:109E9000013E656006608468651C04D002EB041412
:109EA000E5680135E56004680134046002E7416853
:109EB0004B1E02EB0112002B0ADB52F80C1C013185
:109EC00003D052F8081C013108D0013B103AF2E7E8
:109ED000002004E0FF2002E0FE2000E0FD2040B270
:109EE000BDE8F0830023036043604FF0FF338360DD
:109EF0007047000008B5024800F01AFD08BD00BF19
:109F00006C17002008B5054800F012FD18B1034891
:109F100000F0FDFC08BD4FF0FF3008BD6C170020BD
:109F200008B5054800F004FD18B1034800F0FCFC3A
:109F300008BD4FF0FF3008BD6C17002038B590F811
:109F4000CF500C460B4865B10B49FDF7FAFE214690
:109F50000848FDF715FF0948214600F0C9FC01201B
:109F600038BD0749FDF7EDFE21460248FDF708FF21
:109F7000284638BD8C1600208C9601087C170020DE
:109F80007D960108002242604FF47A728260024A94
:109F900001610260704700BF5069010810B50446B6
:109FA000FDF7D8FBC4F8D000206903681B69984707
:109FB00028B1206903681B699847C0B210BDFDF73E
:109FC000C9FBD4F8D03042F21072C01A9042F0D8D7
:109FD000EAE70000F8B5064600690D460368174633
:109FE0005B6998470024C1B20A2907D100232B5589
:109FF0000E480134FDF7AEFEE0B2F8BDFF29F5D002
:10A0000071B10D290CD07A1E944202DA295501341F
:10A0100003E008460AF0F6FEC1B20448FDF795FEDB
:10A02000306903685B699847C1B2DDE78C16002090
:10A0300008B5002380F8CE3080F8CF30006903687F
:10A04000DB6A984708BD0000936D70B51546002285
:10A05000CA540C46696D064621440548FDF786FE44
:10A06000D6F8D43013B1686D2044984770BD00BF56
:10A070008C16002010B58EB0044601A80AF03BFDF6
:10A0800001A90448FDF75DFE206901A9FDF759FE0D
:10A090000EB010BD8C16002038B504460D4604489D
:10A0A000FDF74FFE20692946BDE83840FDF749BE5F
:10A0B0008C16002038B504460D460448FDF745FED1
:10A0C00020692946BDE83840FDF73FBE8C160020C8
:10A0D000F8B5134D1F46012380F8CF300446114ECA
:10A0E00028461149FDF72DFE20460021FFF7E2FF2B
:10A0F000204606F12801FFF7CFFF20463946FFF73B
:10A10000CBFF204606F12D01FFF7B4FF2046FF21CB
:10A11000FFF7D0FF2846BDE8F840FDF71BBE00BFA3
:10A120008C160020486901089696010870B50C4D00
:10A1300004460C4928461646FDF703FE204600213A
:10A14000FFF7B8FF20460849FFF7A6FF2046FF218A
:10A15000FFF7B0FF2846FDF7FDFD304670BD00BF9C
:10A160008C160020A69601088869010810B50446DF
:10A17000104800F0DDFBE0B10F491048FDF7E1FDAC
:10A1800020460021FFF796FF20460D49FFF784FF88
:10A190000C490A48FDF7D5FD21690648FFF784FC04
:10A1A0002046FF21FFF786FFBDE810400348FDF77A
:10A1B000D1BD10BD7C170020B79601088C16002079
:10A1C00088690108C89601082DE9F0410F469046BC
:10A1D0001E460024B4420EDAE51908482946FDF768
:10A1E00041FC18F80420904203D004482946FDF7AA
:10A1F0004DFC0134EEE7BDE8F08100BF4A140020B9
:10A20000F8B50D4616461F460024BC4206DA611911
:10A210000348FDF727FC30550134F6E7F8BD00BFD1
:10A220004A14002010B50C46212301212246FFF7D5
:10A23000E7FF002384F8203010BD000008B50A466F
:10A2400021230121FFF7C0FFBDE80840024800219B
:10A250005322FDF71BBC00BF4A14002010B50C466A
:10A26000252322212246FFF7CBFF002384F8243048
:10A2700010BD000030B504468BB00D461B481C498C
:10A28000FDF75FFD20460021FFF714FF2046194926
:10A29000FFF702FF20461849FFF7ECFE2046CDB13C
:10A2A0006946FFF7DBFF20461449FFF7E3FE20462F
:10A2B0006946FFF7F1FE20466946FFF7B3FF2046E7
:10A2C0000F49FFF7D7FE20466946FFF7E5FE204617
:10A2D0000C4900E00C49FFF7CDFE2046FF21FFF7B7
:10A2E000E9FE0248FDF736FD0BB030BD8C160020AC
:10A2F000D39601088D69010892690108AF690108C8
:10A30000B8690108C5690108CA69010810B50021CA
:10A3100004460648FDF7A6FBB0F153035942204618
:10A320005941BDE81040FFF7A5BF00BF4A14002007
:10A3300008B50A4625232221FFF746FFBDE808405D
:10A34000024800215322FDF7A1BB00BF4A140020A0
:10A3500070B504460D460B480B491646FDF706FD41
:10A36000012384F8CE30D6F8D41020462944FFF7D4
:10A37000DFFFD6F8F41020462944BDE87040FFF70F
:10A380005DBF00BF8C160020E79601082DE9F04361
:10A39000C5B00D46064601A89146FFF7A3FD01A8EA
:10A3A000294604AA1023FFF783FC044648B1384924
:10A3B0003848FDF7C6FC21460A223648FDF726FD3F
:10A3C00062E00D990E9C6F18641A38463249224695
:10A3D0000AF0A1FB58B9082C09D12F492D48FDF7E7
:10A3E000C5FC3046294604AAFFF790FF4CE03846EA
:10A3F0002A4922460AF08FFB58B9052C09D1274972
:10A400002448FDF7B3FC3046294604AAFFF7A0FF15
:10A410003AE03846224922460AF07DFB804650B990
:10A42000082C08D11E491B48FDF7A0FC30464146C8
:10A43000FFF720FF28E038461A4922460AF06BFB56
:10A4400060B90A2C0AD117491248FDF78FFC304633
:10A45000294604AA4B46FFF73BFE15E03846124951
:10A4600022460AF058FB58B9072C09D10E49094871
:10A47000FDF77CFC3046294604AAFFF7E5FD03E022
:10A4800004480A49FDF75DFC45B0BDE8F08300BF14
:10A49000F69601088C160020CE690108D7690108DC
:10A4A000DD690108E6690108F169010805970108FD
:10A4B0002DE9F34190F8CE300446012B09D1FDF788
:10A4C00049F9D4F8D0304EF65F22C01A904200F21B
:10A4D000898023682046DB699847206903681B69E7
:10A4E0009847002800F0968004F11405BA22294606
:10A4F0002046FFF76FFD28463A210AF0EFFA451C87
:10A5000006463A2128460AF0E9FA3A210746013080
:10A510000AF0E4FABF1BBE1E033F032F80461AD881
:10A5200031460A223E48FDF771FC29463C48FDF7BA
:10A530001DFC3246294668460AF003FB02AA16446F
:10A5400000233849364806F8083CFDF7FAFB344842
:10A550006946FDF70BFC267D08F10105A6F13003E5
:10A560002F48052B36D8DFE803F003071C0B351303
:10A570002D49FDF7FBFB4AE02C49FDF7F7FB49E0CD
:10A580002B49FDF7F3FB28462A49FFF739FB41E049
:10A590002949FDF7EBFB204629466A46FFF7F6FE00
:10A5A00038E02649FDF7CDFBFDF7D4F80A22014635
:10A5B000C4F8D0001A48FDF741FC20460021FFF7FF
:10A5C00079FD20461E49FFF767FD2046FF21FFF772
:10A5D00071FD1FE01B49FDF7B4FB31461048FDF744
:10A5E000CFFB17E018490E48FDF7ABFBFDF7B2F8BB
:10A5F0000A2201460A48FDF721FC14490848FDF7E4
:10A60000A0FB0748D4F8D0100A22FDF717FC20461B
:10A61000FFF70EFD94F8CE0002B0BDE8F08100BF58
:10A620008C1600200E970108149701081F97010847
:10A630002E9701086C170020339701083B970108FB
:10A64000F96901084A970108519701085B970108C9
:10A650002DE9F041002380F8CE3080F8CF3088B06B
:10A66000044688466D486E491546FDF77FFB206914
:10A670002A46036841465B6A9847054630B9206917
:10A680000368DB6A98476548664916E020466649D4
:10A69000FFF7F0FC20464146FFF7FEFC20466349E9
:10A6A000FFF7E8FC2046FFF779FC054640B9206932
:10A6B0000368DB6A984759485D49FDF757FBA8E0F6
:10A6C00004F1140620463146BA22FFF783FC002825
:10A6D00062D0304657490AF066FA00285CD0072756
:10A6E00020463146BA22FFF775FC054630B920698D
:10A6F0000368DB6A984749484F49DEE7013FEFD1DD
:10A700003B46E218127D01AF3A2A02D0FA540133D7
:10A71000F7E708AA134449490022404803F81C2CD3
:10A72000FDF70FFB3D483946FDF720FB2069036824
:10A730001B699847054620B1206903685B69984703
:10A74000F4E720463E49FFF795FC20463946FFF7DF
:10A75000A3FC20463B49FFF78DFC20464146FFF70E
:10A760009BFC20463849FFF785FC2046FFF716FC86
:10A7700030B920690368DB6A9847284833499CE769
:10A7800020463146BA22FFF725FC78B130463049E1
:10A790000AF009FA98B909E0206900250368DB6A24
:10A7A00098471E482B49FDF7E1FA32E02A491B4839
:10A7B000FDF7DCFA20690368DB6A984729E017484F
:10A7C0002649FDF7D3FA052520463146BA22FFF780
:10A7D00001FC013DF8D1FCF7BDFFC4F8D0002046D4
:10A7E000FFF766FE40B9FCF7B5FFD4F8D03042F26F
:10A7F0001072C01A9042F2D994F8CE303BB9074893
:10A800001749FDF7B3FA20690368DB6A984794F8A3
:10A81000CE50284608B0BDE8F08100BF8C1600205D
:10A820006697010875970108FD690108216A01080A
:10A83000809701088C9701089097010849940108B6
:10A84000266A0108426A0108546A0108A8970108AB
:10A85000B3970108D0970108E7970108FC97010812
:10A86000B7970108F7B5144C002104F12006134DE9
:10A870000B4600910A463046FDF7FAF904F110073D
:10A880002A4630460E490F4E09F05CFF38469621A5
:10A8900000F01AF82A463146384609F053FF2046A0
:10A8A000402100F011F8204631462A4603B0BDE8A9
:10A8B000F04009F047BF00BF6C170020D007002010
:10A8C000195A0008E1A80008002310B504464160A9
:10A8D0008360C3600846FCF7B3F82060204610BDD3
:10A8E00010B50446006808B1FCF7AEF8204610BD6C
:10A8F000826830B54468531CB3FBF4F504FB153390
:10A90000C468A34202D00468A154836030BD10B56E
:10A91000C16802680346505C5A680131B1FBF2F429
:10A9200002FB1412DA6010BD0268C368D05C704785
:10A930008268C068101A18BF0120704738B50546F4
:10A9400000680C46036801F07F019B6898472868FF
:10A95000C4F3C61103689B68984738BD08B5006802
:10A96000F02103689B68984708BD08B50068F72187
:10A9700003689B68984708BD10B504460068F92134
:10A9800003689B6898472068022103689B68984782
:10A990002068032103689B68984710BD38B5037988
:10A9A00004461BB3FFF7DAFF20687921036802250C
:10A9B0009B6898472068A368026819789268904756
:10A9C0002068A36802685978926890472379AB425F
:10A9D00007D9A3682046595D0135FFF7AFFFEDB2F7
:10A9E000F4E72046BDE83840FFF7BFBF38BD10B5DB
:10A9F00004460160FFF7C0FF2046BDE81040FFF7A6
:10AA0000CDBF00002DE9F8430D460446084616491F
:10AA1000914698460AF0C7F82F21074628460AF0C3
:10AA2000AFF8461C27B11EB1BF1B0237277105E0E6
:10AA300028460AF068F8023020712E46A06809F016
:10AA4000D9FE2579284609F0CDFE0023A0604355A4
:10AA500080F8009080F80180227931460230023A75
:10AA6000BDE8F8430AF06DB8F893010808B500682E
:10AA700003681B69984708BD70B5C37B0446712BFA
:10AA800005D0792B25D1BDE87040FFF787BFC36C97
:10AA900043B3056B0223013D95FBF3F5EDB2284668
:10AAA00009F0A0FE01220346191AC9B2A9420DD22B
:10AAB000A118C97B561CF6B219702644F67B0232E7
:10AAC00001EBC61103F8011BD2B2EDE7E36C984726
:10AAD00070BD056D35B1016B04F1100201391846E6
