:020000040800F2
:105000000050002031A00008858300088783000835
:10501000918300089B830008A5830008000000001E
:10502000000000000000000000000000AF83000846
:10503000B183000800000000B3830008B5830008B6
:1050400085A0000885A0000885A00008D985000873
:1050500085A0000885A00008158400083584000894
:105060005584000889840008A984000885A00008E8
:1050700085A0000885A0000885A0000841860008DA
:1050800085A0000885A00008C583000885A0000849
:105090004586000885A0000885A00008C98400088E
:1050A00085A0000885A0000885A00008918500085B
:1050B00085A0000885A0000885A00008E5830008F9
:1050C000F583000885A0000885A000080584000875
:1050D00085A0000885A00008D583000885A00008E9
:1050E000198500080186000885A00008000000005E
:1050F00000000000000000000000000000000000B0
:0C51000000000000000000005FF808F153
:10511000844641EA000313F0030349D1403A23D304
:105120000B6803604B6843608B688360CB68C36027
:105130000B6903614B6943618B698361CB69C3610F
:105140000B6A03624B6A43628B6A8362CB6AC362F7
:105150000B6B03634B6B43638B6B8363CB6BC363DF
:1051600040304031403ADBD230320BD30B68036021
:105170004B6843608B688360CB68C360103010312C
:10518000103AF3D20C3205D351F8043B40F8043BFB
:10519000043AF9D2043208D0D2071CBF11F8013BFF
:1051A00000F8013B01D30B8803806046704700BFC5
:1051B000082A13D38B07B1D010F00303AED0C3F18C
:1051C0000403D21ADB071CBF11F8013B00F8013BB6
:1051D000A4D331F8023B20F8023B9FE7043AD9D32D
:1051E000013A11F8013B00F8013BF9D20B7803704A
:1051F0004B7843708B78837060467047014B036037
:10520000704700BF30500108014B0360704700BF7A
:105210004850010802289CBF014B1954704700BF39
:10522000300B0020014B0360704700BF485001085D
:1052300010B5034B0446036000F0A4FE204610BDE9
:105240003050010810B5034B0446036000F09AFE8D
:10525000204610BD4850010810B5034B04460360BA
:1052600000F090FE204610BD48500108F8B5C60079
:105270000F4635460024A5F10803012B0FD9132D45
:105280000DDC0A4B33441B5D012B08D847FA04F3AD
:1052900013F00101A8B218BF012101F045FA013451
:1052A000082C05F10105E6D1F8BD00BF330B002045
:1052B00007280BD80122064B02FA00F019B99969A8
:1052C00021EA000101E0996901439961704700BF3B
:1052D000300B0020F8B5A0F10A06F6B2072E0446FE
:1052E0000F46384D06D88B1E594230465941FFF7BC
:1052F000DFFF01E007280BD8012F4FEAD40304F0A9
:10530000070208D107FA02F22B44197F0A4309E089
:10531000092E08D8F0E7012101FA02F22B44197F87
:1053200021EA02021A7705EB840300221A62062F93
:1053300040D8DFE807F02011042F453F4500072E35
:105340003ED82046012101F077F92046002101F0E6
:10535000EBF92C4402232BE0072C01D9092E2FD87E
:105360002046012101F068F92046002101F0DCF916
:105370002C4401231CE0072C01D9092E20D82046FB
:10538000002101F0D1F92046002101F055F92C440B
:1053900000230DE0072C01D9092E11D82046002149
:1053A00001F04AF92046002101F04CFB2C44032374
:1053B000E370F8BD04480549BDE8F84004F059BD64
:1053C000F8BD00BF300B0020AC1E0020D47A0108CD
:1053D00038B5114B00221A701A7783F870205A7072
:1053E0005A7783F871209A709A7783F8722014465E
:1053F0001D46E0B2A0F10803012B07D9A0F10A0372
:10540000072B94BF02210021FFF764FF0134142C05
:10541000EFD10023AB6138BD300B0020132870B5ED
:1054200004460D4617D80C4B1A18D2781E46032A8C
:1054300004D0042A0FD103EB80040BE0072803D922
:10544000A0F10A03092B03D82046E9B201F0FAFAC9
:1054500006EB8404256270BD300B00206D2870B50A
:105460000B4672D005D8692800F0A3806B2826D09F
:1054700070BD6F280FD07A2840F0B080012940F22B
:10548000AD801378527803EBC212092A544BD8BF6F
:105490000A221A6070BD012940F2A080022B5178C7
:1054A00008D0032B907818BFD37841EAC01118BFF9
:1054B00041EA83311078BDE87040FFF7AFBF49483B
:1054C000F02104F0DAFC47486C2104F0D6FCF62405
:1054D0000025EEB2072E01D9092C1AD84148012126
:1054E00004F0CBFC3F48012104F0C7FC3D480021FB
:1054F00004F0C3FC3B48012104F0BFFC072C08D892
:105500003848022104F0B9FC36480A2104F0B5FC01
:1055100001E0072E08D83348032104F0AEFC3148DF
:10552000082104F0AAFC01E0092CF4D92D487F21C0
:10553000013504F0A2FC0134142DE4B2C9D129488C
:10554000F721BDE8704004F098BC002946D01478DB
:105550002448F02104F091FC22486E2104F08DFCD7
:105560002048214604F089FC132CE8D81E4D1D4824
:105570002B19A400D9782E1904F07FFC316A194840
:1055800001F07F0104F079FC316A4FF680730B4023
:1055900023B11448C1F3C61104F06FFC2C44216AF6
:1055A00011F4404FCBD00F48C1F3863104F065FCB5
:1055B000C5E70C48F02104F060FC0A486A2104F0B9
:1055C0005CFCF624082C34BF21467F2101340548B9
:1055D000E4B204F052FC0A2CF4D1B0E770BD00BF75
:1055E00000000020AC1E0020300B002070B50546E6
:1055F000094843191C7F06460C401AB993F87030CD
:10560000A34207D0294605482246354404F0F0FB62
:1056100085F8704070BD00BF300B0020AC1E00202C
:1056200070B56B4E3378002B43D0357FE90740F1DE
:105630009B80002001F0B6F8002800F0958001243E
:10564000AA0705D5012001F0ADF8002840F08E80B2
:105650006B0705D5022001F0A5F8002840F08980ED
:10566000280705D5032001F09DF8002840F084802C
:10567000E90604D5042001F095F800287FD1AA0698
:1056800004D5052001F08EF800287BD16B0604D5E7
:10569000062001F087F8002877D12D0604D50720D1
:1056A00001F080F8002873D1002021460246FFF760
:1056B0009DFF7378002B31D0454B5D7F6C076AD519
:1056C0000A2001F06FF8002865D00424280704D5CB
:1056D0000B2001F067F800285FD1E90604D50C2003
:1056E00001F060F800285BD1AA0604D50D2001F076
:1056F00059F8002857D16B0604D50E2001F052F856
:10570000002853D12D0604D50F2001F04BF80028B6
:105710004FD1012021460022FFF768FFB378002B0C
:1057200055D02B4B9D7FE80746D5102001F03AF865
:10573000002841D00124A90703D5112001F032F837
:10574000E0BB6A0703D5122001F02CF8C8BB2B0779
:1057500003D5132001F026F8B0BB21460220002219
:10576000BDE87040FFF742BF002469E744F002043F
:105770006EE744F0040473E744F0080478E744F06B
:1057800010047CE744F0200480E744F0400484E700
:1057900044F0800488E7002498E744F008049CE77C
:1057A00044F01004A0E744F02004A4E744F04004CF
:1057B000A8E744F08004ACE70024BCE744F002040E
:1057C000BFE744F00404C2E744F00804C5E770BD35
:1057D000300B002010B51B4C1B484FF4E13102F098
:1057E000BBF9032320461949022204F07FFA204620
:1057F000E021174A04F047FB20469021154A04F0A7
:1058000042FB2046C021144A04F03DFB2046D02133
:10581000124A04F038FB2046F421114A04F033FB0D
:105820002046F0210F4A04F049FB2046FF210E4A92
:1058300004F040FB20460D4904F04DFABDE810404D
:10584000FFF7C6BDAC1E0020B01D0020E57A0108A0
:105850001D5400086D520008B1520008155200088E
:10586000D55200085D540008D1530008A40B002055
:1058700073B5134C002104F5A676124D0B4600912A
:105880000A46304601F01EFC2A460F49304604F510
:10589000AA760DF0B3FF304601F01CFF74342A469F
:1058A00030460A490DF0AAFF3146204603F056FC67
:1058B000074920462A4602B0BDE870400DF09EBF61
:1058C000300B00200C100020FD5100080952000888
:1058D0002552000870B58EB0454803F05DFF0028E2
:1058E00050D14449444801F06BFC444B4048191DD9
:1058F0001A8A04F021F80028F3D041493E4801F00B
:105900005FFC3B4804A903F0BFFD3E493A4801F063
:1059100042FC04A9384801F053FC354804A903F0BF
:1059200097FD3949344801F036FC04A9324801F0AA
:1059300047FC364B01AC93E8070084E807002E488B
:10594000334901F028FC0025665D2B48330903F13B
:105950003001392988BF03F1570106F00F0602F024
:10596000EBF806F13001392988BF06F157012248CA
:10597000013502F0E1F80C2DE6D126491E4801F070
:105980000AFCA9E7FFF74CFE234804F0E3F90446BC
:1059900018B1214804F0B0FAF6E701F005F91F4B01
:1059A0001649D3F870230968C3F86C03801A88423B
:1059B0001BD90A44C3F87023A4F10A05EDB2072DE0
:1059C00010D8164BDA1CA25C022A0BD19B692B4122
:1059D000DB0707D5284600F0A1FF294602460E48FE
:1059E00004F0F5F90134142CE6D10EB070BD00BFFF
:1059F000A40B0020FC7A0108B01D0020000000204C
:105A0000037B01080E7B0108157B0108E8F7FF1FE7
:105A10001D7B0108EA7C0108AC1E0020300B002031
:105A2000013101EB420291420BD0030F092B94BFCD
:105A30003033373301F8013C0023000101F8023B09
:105A4000F1E770471F4B10B51A88032A04D80420C9
:105A50000146188007F042FF4FF000604FF4A0416C
:105A600007F090FE0124184B184821461C7008F0DE
:105A700049F906F01FFF06F005FC2146402008F01A
:105A800003FA6FF07F4006F06FFDE72006F0E8FDB7
:105A90000F4B1C7006F040FC7D2008F019FA18B17D
:105AA0000C4B1C7008F028FA40F6B83006F08EFC5B
:105AB00007F0E4F907F06EFC074A01231370074A68
:105AC000137010BD501F00202C1F00200004300058
:105AD000DC1D0020F4280020641E00205A1E002037
:105AE00038B52F4C2388042B04D8052104202180AD
:105AF00007F0F4FE2B4D2B7813B12B4802F034FA4B
:105B00002B7853B12388052B05D8254B062104207B
:105B1000198007F0E3FE02F0ABFA2B7863B1234B58
:105B20001B784BB9224B1B7833B1224B1B781BB926
:105B3000214B1B78002BE3D0204B1B78002BDFD1AF
:105B40001F4B1B78002BDBD11B4B1B78012B0FD07D
:105B50001C4B6BB12388062B05D8114B0721042061
:105B6000198007F0BBFEFFF735FE134B01221A70B8
:105B7000154B002BC4D02388072B05D8084B0821D0
:105B80000420198007F0AAFEFFF7A4FE2388082B43
:105B9000B6D8034B09210420198007F09FFEAFE718
:105BA000501F0020641E002041630008191E0020C1
:105BB0005A1E0020DA1D0020A40E0020DB1D00204C
:105BC000F4280020D5570008D5580008F8B5524BE6
:105BD0001A6812B11A68013A1A60504B504D1B787E
:105BE0003BB1504B1B78002B28D04F4B002B47D19B
:105BF00024E04E4C2368264613B12368013B0FE096
:105C00004B4B1B78D3B94B4B1B78BBB94A4B1B781A
:105C1000A3B94A4F3B782BB1E72006F095FD14233A
:105C200023600BE02B78002B2DD1E72006F046FDFA
:105C3000434B1B78002B34D0322333602B7833B1A5
:105C4000404C23781BB92EE05A6801325A603E4B13
:105C50001A68B2F57A7F0FD300221A6008F0AAF80A
:105C60003A4B4FF6FF711A888A4254D019800420AB
:105C7000BDE8F84007F032BE1A6801321A60F8BD7C
:105C800000F0A6FBDAE7324B1B78002BCDD04FF6A5
:105C9000FF7006F069FCE72006F0E2FC01233B7090
:105CA000CCE76423C9E7234B1B788BB1294B47F220
:105CB0002F5259689142C7D9BFF34F8F264A274BBD
:105CC000D16801F4E0610B43D360BFF34F8FFEE76F
:105CD000174D2B7803F0FF0633B9304606F04AFE25
:105CE00040F6B73398420DD8002006F043FE41F647
:105CF00057339842ABD9002006F044FE184B0122DE
:105D00001A70A4E7304606F03DFE2378002B9ED1A2
:105D100001232B709BE7F8BDFC2800200C1F0020FE
:105D2000641E002040120020D1630008F8280020E3
:105D30000A1E0020DB1D0020DD1D0020DC1D0020D0
:105D4000D91D0020191E002000290020501F00200E
:105D5000DA1D0020A40E002000ED00E00400FA058A
:105D6000081E002008B5094B186007F02DF8002028
:105D700007F076F8064806F0A9FA07F03DF807F0B4
:105D80005BF8BDE8084008F09DBF00BFE0010020BF
:105D9000A0860100074B1B68052B08D1064B1A7A19
:105DA000012A04D1987A1B7BC01AC0B27047002028
:105DB000704700BF541F0020A40E00200D4B10B5EB
:105DC0001B68052B13D10C4C237A012B0FD1628950
:105DD000A389D31A012B04D100230320237209F0D5
:105DE000C8F8A3895A1CA2811C44A07B10BD4FF0A7
:105DF000FF3010BD541F0020A40E002008B50C4B2E
:105E00001B68052B12D10B4B1A6D99180132B2F594
:105E1000807F08BF002281F854001A6506F0A2FEB8
:105E200020B16420BDE8084006F050BA08BD00BFAC
:105E3000541F0020A40E0020F8B5234B93F85421E2
:105E4000012A3FD0D3F85821196DB2F5807F04BFE5
:105E50000022C3F85821D3F858411B4A8C4203D181
:105E6000002382F85431F8BD8CBFC4F58071C4EBB7
:105E70000101C2F85C11D3F85C61134D402EA2B24F
:105E800007D94034403EC5F85841C5F85C61402709
:105E900006E034440021B7B2C5F85841C5F85C119A
:105EA0000A4801241044C0213A4683F8544108F0BE
:105EB000DBFF2046394609F0DFF82046BDE8F84010
:105EC00009F044B8F8BD00BFA40E0020F80E002071
:105ED000094B10B593E8140008331B68D0180AD09A
:105EE00006490822FFF79CFD204605490422BDE82B
:105EF0001040FFF795BD10BDE8F7FF1F8F01002090
:105F00009F01002013B5084C002100910A460B4662
:105F1000204601F0D7F80549054A204602B0BDE801
:105F200010400DF06BBC00BF04100020FD510008B4
:105F30000C10002038B504460D46AC4203D254F88C
:105F4000043B9847F9E738BD08B507480749FFF70C
:105F5000F1FF07480749FFF7EDFFBDE80840064895
:105F60000649FFF7E7BF00BFC8810108C8810108E3
:105F7000C88101082C8201082C8201082C820108AA
:105F80000DF074BD0DF07ABD0DF078BD08B5072099
:105F900007F024FBFEE70000074A08B51368184421
:105FA0001060064A904204D9082007F017FB0DF054
:105FB0002BFC184608BD00BF14000020004800203C
:105FC0004FF0FF3070470120704708B50C2007F0F4
:105FD00005FBFEE7014B1868704700BF101000205A
:105FE000064B0246582000FB013101F1080303CBA8
:105FF0001060516018689060704700BF101000205A
:10600000014BD3F86401704710100020064B024684
:10601000142000FB013101F5B67303CB1060516011
:1060200018689060704700BF1010002038B5054612
:10603000064C28B106F03AFB012384F8303238BD13
:1060400006F0E2FA84F8305238BD00BF101000208C
:106050000E4B2DE9F041D3F8647180460024BC4218
:1060600011DA14256543094E414606F5B6702844F9
:106070000C220EF045FC20B93544D5F86801BDE886
:10608000F0810134EBE70020BDE8F0811010002022
:10609000044B01221A70044B00224FF4C0201A60F6
:1060A00006F072BFDB1D0020A80E0020034A00236B
:1060B0001370034A136006F0C5BF00BFDB1D00204C
:1060C000A80E0020024B00221A6006F085BF00BF18
:1060D000A80E00202DE9F04788B0804668460D469E
:1060E00001F08AF91E4B0024D3F800A054452DDAA4
:1060F00055B3582666431A4F414607F1080030440D
:106100000C2207F104090EF0FBFBE8B928460EF05B
:10611000C7FB06F11003402834BF0246402229463F
:1061200009EB0300FEF7F4FF3E44012386F85830E4
:10613000694604A8746801F081F904A8A0470446E0
:1061400004A801F017F903E00134CFE74FF0FF3462
:10615000684601F00FF9204608B0BDE8F08700BF9F
:106160001010002010B5064C206804F0A1FB236835
:10617000013303D0431E5842584110BD012010BDC9
:106180001800002070B50B4B05461B780C4673B900
:10619000094B1B785BB9FFF7E5FF034638B9074A9F
:1061A000294610682246BDE8704005F03BBB4FF021
:1061B000FF3070BD181E0020191E0020180000209E
:1061C0002DE9F041264B86B01B7880460F46002B08
:1061D00041D1244B1B78002B3DD1FFF7C3FF044670
:1061E000002838D1204D8DF80C008DF80D008DF869
:1061F0000E008DF80F00286806AA460902EB8606F5
:10620000012100F01F02914056F80C2C01300A4386
:1062100046F80C2C41F28832059204AA009203A998
:1062200022462346049405F0DFF9002815DD2B688B
:1062300006AA590902EB810151F80C5C03F01F0218
:10624000154115F0010008D0184641463A4623464C
:1062500005F06AFA01E04FF0FF3006B0BDE8F081CA
:10626000181E0020191E00201800002030B51E48FE
:10627000ADF5797D08F069FF002832D11B4B15A8D8
:1062800004931B4B5FAD05931A4B039006931A4B77
:106290000CAC0793194B02950893194B0993194BB2
:1062A0000A93194B0B93194B0C93194B0D93194BE4
:1062B0000E93194B0F93194B1093194B1193194BC4
:1062C0001293194B1393194B149306F001FF2846B0
:1062D00006F004FF00940448154902AA04AB08F034
:1062E0003BFF0DF5797D30BD44120020856100082B
:1062F000C161000891600008AD6000080DD1000880
:10630000C56000082D600008A96B0008D55F000873
:10631000E15F0008D5600008016000080D6000081A
:10632000DD65000851600008E9D00008FDD00008D4
:10633000E8F7FF1F014809F050BD00BF44120020DC
:1063400030B502208DB00146112205F093F8051EEC
:1063500028DB07A8144909F022F80223ADF80C3015
:1063600016238DF80E3033238DF80F30E0238DF88F
:10637000103000238DF8113001238DF81230BB232B
:106380008DF81330032403AB0093102301932846A8
:1063900007A91322002305F04FFA013CF3D1284648
:1063A00005F096F80DB030BDE8F7FF1F10B5074CAB
:1063B000FFF75CFF204608F0CBFE204609F03FFACD
:1063C0000446FFF7BDFF204610BD00BF4412002069
:1063D00038B5114CD4F8445A2DB1D4F8443A013BA5
:1063E000C4F8443A38BDD4F8483A0C4A52F823006D
:1063F00006F0E2F8E72006F033F96423084AC4F80F
:10640000443AD4F8483A526801339342C4F8483ABF
:10641000A8BFC4F8485A38BD10100020D84F010852
:10642000180000207FB502200121062205F022F885
:10643000041E24DB0223ADF8003000238DF8023067
:1064400035238DF803304FF4FA5008238DF80430CB
:106450008DF805308DF806308DF8073001F07CFDA1
:10646000694610220546204605F090F80646284663
:1064700001F072FD204605F02BF8304601E04FF0A8
:10648000FF3004B070BD000010B5064C2068002835
:1064900005DB05F01DF84FF0FF33236010BD002031
:1064A00010BD00BF18000020F0B5A7B0FFF7ECFF4B
:1064B00002200121062204F0DDFF324F002838605F
:1064C00050DB314D0223A5F84C3A162385F84E3A9D
:1064D00005A8332385F84F3A06F0C6FD0023009344
:1064E0009DF814303BB1012B17D0284B01AC03F1C0
:1064F000100E224602E0069B009313E018685968CC
:10650000264603C6083373453446F7D10FCA06AC96
:1065100007C424F8023B1B0C23700A24009B0BB910
:10652000013C22D1009B0BB9194B0093009B4FF407
:10653000FA501A0E85F8502A1A0C85F8512A1A0AB0
:1065400085F8533A85F8522A01F006FD11490446B0
:106550001022386805F01AF80546204601F0FCFCC8
:1065600028460CE04FF0FF3009E006A87E210EF02F
:1065700053FA6A4681B206A804F0D0FFCEE727B0EE
:10658000F0BD00BF18000020101000202E7B010875
:1065900004E5D0365C1A00200F4B2DE9F041D3F80A
:1065A000647180460024BC4211DA142565430A4E0A
:1065B000414606F5B67028440C220EF0A1F920B928
:1065C000354495F87801BDE8F0810134EBE74FF0F0
:1065D000FF30BDE8F08100BF1010002008B5FFF7C4
:1065E000DBFF013808289DBF024BC018007F022046
:1065F00008BD00BFD84F010804F0C8BF37B50B4C29
:10660000002104F65C250B4600910A46284600F05E
:1066100059FD28460649074A0DF0F0F804F50D70BB
:1066200003B0BDE8304008F07BBD00BF1010002073
:10663000FD5100080C10002014282DE9F3410446F8
:106640000E4667D8FF2965D000F05CFE18B1A4F1B2
:106650000D03022B5ED900F0C9FC08B1012C59D9F9
:1066600001F012FA18B1A4F11203012B52D92B4DEB
:1066700024012B192F59B3F80480294B9F4201D1D3
:10668000042003E0274B9F4203D10820012107F09B
:1066900007FCADF80480062E38D8DFE806F0040DBC
:1066A00013191F28310010238DF8073003238DF8AC
:1066B00006302C44002328E004238DF807302C44B6
:1066C000012322E048238DF807302C4402231CE0EC
:1066D00028238DF807302C44032316E018238DF867
:1066E000073003238DF806302C4404230DE01C23CF
:1066F0008DF8073003238DF806302C44052304E081
:1067000000238DF807302C440623A373384601A9D3
:1067100007F09AFA02B0BDE8F08100BF2000002027
:1067200000080140000C01401428F8B505460F464A
:1067300035D81B4E040133199B7B5A1E022A2ED9D1
:10674000062B2CD0FF2B2AD000F0DCFD20B1A5F1C8
:106750000D03022B00D8F8BD00F048FC10B1012D4C
:1067600000D8F8BD01F090F920B1A5F11203012B7A
:1067700000D8F8BD33199B7B042B03D12846002198
:10678000FFF75AFF012F04D13219335992881A6149
:10679000F8BD27B93219335992885A61F8BDF8BD4E
:1067A00020000020142870B5044614D81A4E0501A4
:1067B00073199B7BFF2B0ED0043B012B0BD900F0F0
:1067C000A1FD18B1A4F10D03022B04D900F00EFCB9
:1067D00018B1012C01D8002070BD01F055F918B195
:1067E000A4F11203012BF6D973199B7B062B07D159
:1067F000094B93F85011FF29EDD02046FFF71CFFFD
:106800002E44054BB27BB188585912B907F070FA83
:1068100070BD07F067FA70BD20000020F0B54FF49E
:10682000004091B007F008FB0120014607F02CFB67
:1068300001214FF4C06007F033FB334807F072F8D2
:10684000324B00240593324B2F4806930A230893BA
:1068500080230A934FF400730B934FF400630C935F
:1068600005A94FF400530E9301254FF400274FF470
:106870006026079409940D940F9407F0CBF82548EF
:10688000694600978DF804408DF805400296039400
:106890008DF8105006F080FF1F48694600978DF86C
:1068A00004408DF80540029603948DF8105006F0D0
:1068B00073FF1848294606F093FF164806F0A2FF1A
:1068C000144806F0A4FF0028FAD1124806F0A3FFEE
:1068D000104806F0A5FF0028FAD10F48012106F064
:1068E0007FFF0D4806F08EFF0B4806F090FF002852
:1068F000FAD1094806F08FFF074806F091FF0028FB
:10690000FAD111B0F0BD00BF080002404C24014094
:10691000781A00200024014000280140092870B5A1
:1069200004469CBF00F10A04A4B200F0EBFC28B1BD
:10693000A4F10D03022B01D8002070BD00F056FB1E
:1069400001F0A2F818B1A4F11203012BF4D9142C10
:10695000F2D8374D2601AB199A79FF2AECD095F879
:106960005211914206D09B7B2046062185F850317A
:10697000FFF762FE95F85331012B05D1FFF74EFF6B
:106980002B4B002283F853212E44B17995F85231D4
:10699000274C8B420FD02748012294F8513106F042
:1069A0004CFF94F851312448B179012206F045FF9B
:1069B000B37984F852310021204C002344F821306F
:1069C00001310A29F8D11E4807F055F81A4801216B
:1069D00006F07BFF1A48012107F03AF8154801211B
:1069E00006F007FF1348012106F01EFF022007F002
:1069F00045F80028FAD0022007F04EF80D48002193
:106A000006F0F7FE0E48002107F022F800231A4690
:106A100054F8230054F82310013389B201EB1041DC
:106A20000A2B0A44F4D11420B2FBF0F290B270BDEC
:106A3000200000200024014000280140781A002096
:106A4000080002402DE9F043142889B00446884626
:106A500000F29C804F4F0601BB199B68002B00F091
:106A6000958000F04FFC20B1A4F10D03022B40F201
:106A70008D8000F0BBFA10B1012C40F2878001F04C
:106A800003F818B1A4F11203012B7FD9BD19AB7B18
:106A900013F0FB0F7AD1404B01201A683F4B01469F
:106AA000B2FBF3F94BF6803303FB08F8FF2398FBA6
:106AB000F3F807F0F5F920460421FFF7BDFDAB68B8
:106AC00009F1FF39B3F1804F1FFA89F91FFA88F8ED
:106AD00002D10120014609E0314A934208BF022059
:106AE00003D0304A934203D10420012107F0E4F996
:106AF000BC1900254BF67F33A06801A9ADF808301A
:106B0000ADF80A50ADF80650ADF8049007F0BEFAA3
:106B10006023ADF81850A589ADF810300123ADF809
:106B20001230ADF8168045B9A06804A907F0F8FA4C
:106B3000A068082107F034FC1FE0042D08D1A068EC
:106B400004A907F031FBA068082107F031FC14E02C
:106B5000082D08D1A06804A907F06AFBA06829469F
:106B600007F030FC09E00C2D07D1A06804A907F05C
:106B7000A1FBA068082107F02DFC3E44B06801216C
:106B800007F002FCB068012107F0DBFB09B0BDE8AB
:106B9000F08300BF20000020D402002000366E01E8
:106BA000000400400008004006F0EABA13B5084CA3
:106BB000002100910A460B46204600F083FA054961
:106BC000054A204602B0BDE810400CF017BE00BFD9
:106BD000A01A0020FD5100080C10002038B5184BF9
:106BE00005461C8803F580631B88A4B29BB22BB9B1
:106BF0004EF6EE62A21A18BF012205E0F4B94EF675
:106C0000EE629B1A5A425A4192020E4B02F1006404
:106C100004F5804413449C420ED22268013209D10B
:106C2000204606F0F5FF042809D1A01C294606F0ED
:106C3000EFFF38BD0434EEE7802038BDAB2038BD0F
:106C400000400008FE43000808B5084806F0C2FFEF
:106C500004280AD10548002106F0DAFF042804D1EF
:106C6000BDE80840024806F0B5BF08BD0040000876
:106C700000440008104B10B51C8803F580631B8886
:106C8000A4B29BB21CB10BB1AB2010BD01240B4BC5
:106C9000A40223440A4A224493420AD91A8892B28F
:106CA000824204D133F8023C00200B8010BD043B2B
:106CB000F0E7012010BD00BF00400008FE430008BF
:106CC00002400008F8B5444E06F044FF434D3488B6
:106CD0004EF6EE61A4B22B888C429BB24FF6FF7247
:106CE00010D0944202D0002C73D142E00BB9304650
:106CF0006CE08B426DD1304606F06CFF04286AD1FF
:106D0000284632E04BBB1C461646354B354A1B889D
:106D100032F814509BB2AB4208BFA6B233B29C42C9
:106D200003D10134642CF0D10FE02E4F284607F137
:106D3000C801FFF79FFF0128F3D02846B7F8C81015
:106D4000FFF74CFF0428ECD0F8BD2348002106F0E3
:106D50005FFF04283FD1214838E0934239D12846CB
:106D600006F038FF042836D13046002106F050FFE7
:106D7000F8BD73B3934201D1284627E016461A4B5B
:106D8000184A1B8832F814509BB2AB4208BFA6B217
:106D900033B29C4203D10134642CF0D10FE0114F87
:106DA000284607F1C801FFF765FF0128F3D0284600
:106DB000B7F8C810FFF712FF0428ECD0F8BD074859
:106DC000002106F025FF042805D1034806F002FF44
:106DD000F8BDFFF739FFF8BD004000080044000887
:106DE00006400008A81A0020064400082DE9F843D0
:106DF00006460C4606F0AEFE30462146FFF7EEFE94
:106E0000802840D1214B22481988028889B292B249
:106E100021B1002A36D11D46814601E0054699463A
:106E200028464EF6EE6106F0F3FE04282BD13046DC
:106E30002146FFF7D3FE042825D10024154F34F84E
:106E40000780B04503D10234C82CF7D10FE040468B
:106E500007F1C801FFF70EFF0128F4D04046B7F84C
:106E6000C810FFF7BBFE0428EDD0BDE8F883484604
:106E700006F0B0FE042806D12846002106F0C8FE20
:106E8000BDE8F883AB20BDE8F88300BF00400008F0
:106E900000440008A81A002010B50446FFF712FFAE
:106EA0000023044A22F813300133642BF9D1204621
:106EB00010BD00BFA81A0020632907B507DC074BE7
:106EC00033F811000DF10601FFF7D4FE08B1FF20E1
:106ED00001E09DF8060003B05DF804FBA81A00204D
:106EE00063290B4605DC034931F813001146FFF70F
:106EF0007DBF7047A81A00200148FFF7CDBF00BF33
:106F0000721B0020024B18785B78C01A704700BFD4
:106F1000741B0020064B5A781978914204D99918AD
:106F2000013288785A7070474FF0FF30704700BFC9
:106F3000741B0020044B5A781978914286BF9B1825
:106F400098784FF0FF307047741B002070470000A6
:106F5000014B0360704700BF4850010810B5034B58
:106F600004460360FFF70EF8204610BD48500108A4
:106F7000F8B5094B054693F82230164653B10C4636
:106F80008F18BC4206D02B6828469B6814F8011B5A
:106F90009847F6E73046F8BD741B002010B50C4B3F
:106FA000012293F822408CB193F823401F2C02D980
:106FB0004260002010BD93F824001C1884F82510AE
:106FC000411CC9B283F8241083F82310104610BD69
:106FD000741B0020002242604FF47A728260014AE2
:106FE000026070470850010870477047014B93F8E2
:106FF00059007047741B002073B50E4C002104F13A
:1070000064050D4E0B4600910A46284600F05AF8DA
:107010006C343246094928460CF0F0FB2046FFF755
:10702000D9FF07492046324602B0BDE870400CF057
:10703000E5BB00BF741B00200C100020FD510008B0
:10704000516F000808B5034B53F8203003B198473F
:1070500008BD00BFF01B002013B5084C00210091B3
:107060000A460B46204600F02DF80549054A204601
:1070700002B0BDE810400CF0C1BB00BF301C0020C6
:10708000FD5100080C1000202DE9F04100240746B6
:107090000E4625463B1919790A22304600F0F6F8CB
:1070A0002E218046304600F07AF801344044032C0B
:1070B0000544EFD13046F9790A2200F0E7F8284478
:1070C000BDE8F08130B58371034D9DF80C3005604B
:1070D00001714271C37130BD305001080548064B43
:1070E00006490360064A0023037143718371C3712B
:1070F0000CF084BB381C002030500108FD51000802
:107100000C10002013B5084C002100910A460B46D4
:107110002046FFF7D7FF0549054A204602B0BDE8E3
:1071200010400CF06BBB00BF401C0020FD5100085C
:107130000C100020014B0360704700BF485001084D
:10714000F8B506460C468F180025BC4207D03368B8
:1071500030469B6814F8011B98470544F5E728461C
:10716000F8BD000010B5034B04460360FEF70AFFAC
:10717000204610BD4850010838B505460C46084663
:1071800041B10DF08DFB2B680246DB682846214695
:10719000984738BD38BD08B5FFF7EEFF08BD08B504
:1071A00003689B68984708BD38B50D210546FFF771
:1071B000F6FF0A2104462846FFF7F1FF204438BDB8
:1071C00038B50446FFF7D8FF05462046FFF7ECFF29
:1071D000284438BD38B50446FFF7E1FF0546204690
:1071E000FFF7E2FF284438BD30B500238BB08DF89F
:1071F0002430012A98BF0A220DF12304B1FBF2F3D7
:1072000003FB1211CDB2092D94BF30353735EDB2E5
:10721000214604F801590BB11946EFE7FFF7ACFF1F
:107220000BB030BDF8B506460D46144622B90368CA
:10723000C9B29B689847F8BD0A2A0CD100290BDA1D
:107240002D21FFF7ACFF6942074622463046FFF783
:10725000CBFF3844F8BDD2B2BDE8F840FFF7C4BF59
:1072600038B50446FFF7DEFF05462046FFF79CFFD2
:10727000284438BD10B522B90268C9B29268904757
:1072800010BDD2B2BDE81040FFF7AEBFFFF7F2BFAE
:1072900038B50446FFF7EEFF05462046FFF784FFAA
:1072A000284438BD13B5084C002100910A460B460E
:1072B0002046FFF707FF0549054A204602B0BDE812
:1072C00010400CF09BBA00BF501C0020FD5100087C
:1072D0000C10002013B5084C002100910A460B4603
:1072E0002046FFF7EFFE0549054A204602B0BDE8FB
:1072F00010400CF083BA00BF581C0020FD5100085C
:107300000C100020014B587D704700BF601C00200E
:107310007047000013B5084C002100910A460B4647
:107320002046FFF7CFFE0549054A204602B0BDE8DA
:1073300010400CF063BA00BF781C0020FD5100081B
:107340000C10002013B5084C002100910A460B4692
:107350002046FFF7B7FE0549054A204602B0BDE8C2
:1073600010400CF04BBA00BF841C0020FD510008F7
:107370000C10002010B5044600680CF07FFB20467E
:1073800010BD10B50446006808B10CF077FB00236F
:107390002360A360636010BD38B504460D460068E5
:1073A00001310CF061FF10B184E82100012038BDEB
:1073B000036810B5044613B143688B4207D22046D8
:1073C000FFF7EAFF20B1A3680BB922681370012010
:1073D00010BD70B50E46114604461546FFF7E8FF8E
:1073E00018B92046FFF7CDFF04E0A56020683146BC
:1073F0000DF0F8F9204670BD38B50023044603604F
:107400004360836003730D4639B108460DF048FAB6
:10741000294602462046FFF7DCFF204638BD884259
:1074200010B50B46044607D0096819B19A68FFF7F2
:10743000D0FF01E0FFF7A5FF204610BD10B50023E7
:1074400004460360436083600373FFF7E8FF204650
:1074500010BD13B5026802AB03F8011DD4681946CC
:107460000122A04702B010BD10B5B0F81622B0F846
:10747000143204469A4207D0B4F814325A1CA4F8C5
:1074800014221C44207D10BD03681B699847002806
:10749000F2D14FF0FF3010BD10B5B0F81622B0F8A1
:1074A000143204469A4204D0B4F814321C44207DAD
:1074B00010BD03681B6998470028F5D14FF0FF30D5
:1074C00010BD0023A0F81432A0F816327047F8B5AA
:1074D0001746B0F81432B0F8162204469A420E4607
:1074E00006D103681B69984710B94FF0FF3512E0C9
:1074F000B4F81432B4F81652E118ED1ABD4228BFA0
:107500003D46304614312A46FDF702FEB4F81432E7
:107510002B44A4F814322846F8BD10B5044600697F
:10752000082801D003F0D4FF0823236110BD30B533
:10753000B0F8163287B0044633B1B0F814229A423C
:1075400002D10368DB69984700F030FB022821D1A3
:10755000206908281ED0B4F81632B3F5007F19D27E
:10756000430906AA02EB8303012100F01F0201FA7E
:1075700002F243F80C2C41F288330025059304AB4A
:10758000009308442A4603A92B46049504F02CF8DE
:10759000A84206DCB4F81602B4F81432C01A07B0D8
:1075A00030BD206906AB420903EB820252F80C2C75
:1075B00000F01F0342FA03F3DB07EBD5B4F8162201
:1075C0002B46A1181431C2F5007204F0ADF8002862
:1075D000E0DDB4F816320BB9A4F814320344A4F871
:1075E0001632D7E72DE9F04188B006460F4690469F
:1075F00000F0DCFA02284FF0000422D108AD384632
:1076000045F8144D0DF04CF92A4681B2384603F086
:1076100085FFA04215DD039B04A8DAB20092190E83
:10762000C3F30742C3F30723FFF74CFD336830462B
:107630001C6A064B06A90693059B42460793A04782
:1076400000E0204608B0BDE8F08100BF30500108DE
:10765000F0B585B004460D46164600F0A7FA02289C
:10766000074634D10121062203F004FF00282061DF
:107670002DDB23682046DB699847330A8DF80230FA
:107680002B794FF4FA508DF804306B798DF8036044
:107690008DF80530AB79ADF800708DF80630EB79D8
:1076A0008DF8073000F058FC694605461022206925
:1076B000FEF7A2FF0646284600F04EFC002E04DA34
:1076C00023682046DB6A984701E0012000E00020A3
:1076D00005B0F0BD4FF47A71816005490022016068
:1076E000082142600161A0F81422A0F81622704718
:1076F00060500108036910B5082B044601D1002031
:1077000010BD00F053FA0228F9D1206903F0D0F837
:10771000D0F1010038BF002010BD70B504460E4600
:107720001546FFF7E7FF38B1206931462A460023A6
:10773000BDE8704004F076B84FF0FF3070BD70B512
:107740000446FFF7D7FF012819D0B4F81622B4F881
:1077500014329A4212D12069082803D003F0A8F805
:10776000012801D0002070BD236820461B6998477E
:1077700020B923682046DB6A9847F3E7012070BDF3
:1077800008B5FFF7B7FF003018BF012008BD0000A3
:1077900013B5084C002100910A460B462046FFF71E
:1077A00091FC0549054A204602B0BDE810400CF0A6
:1077B00025B800BF8C1C0020FD5100080C100020D3
:1077C00013B5084C002100910A460B462046FFF7EE
:1077D00079FC0549054A204602B0BDE810400CF08E
:1077E0000DB800BF941C0020FD5100080C100020B3
:1077F00038B5184C94F92C305BB394F82D3043B362
:1078000006F0A2FB94F82C2094F82D5051B20029D8
:1078100095FBF1F106DD01290BDC013A84F82C20FF
:10782000002307E0013104DB013284F82C2002231D
:1078300000E0012394F82D20013A84F82D20C4188B
:1078400006F0B4FB204606F091FBBDE8384006F098
:10785000ADBB38BD9C1C002013B5084C0021009125
:107860000A460B462046FFF72DFC0549054A2046EF
:1078700002B0BDE810400BF0C1BF00BFCC1C00201F
:10788000FD5100080C10002013B5084C0021009198
:107890000A460B462046FFF715FC0549054A2046D7
:1078A00002B0BDE810400BF0A9BF00BFD81C0020FB
:1078B000FD5100080C100020014B0360704700BF11
:1078C000485001080369186C5B6CC01A00F03F0057
:1078D00070470369196C5A6C91421ABF5A6C985CD4
:1078E0004FF0FF3070470369196C5A6C914207D012
:1078F0005A6C985C5A6C013202F03F025A6470472D
:107900004FF0FF307047000010B5034B0446036092
:10791000FEF738FB204610BD48500108436910B5FA
:107920000446196C5A6C9142FBD1237E13B9002393
:10793000237610BD0348402106F085FD0028F6D1CE
:10794000F3E700BF0044004070B504460E462C48E3
:1079500040F2277106F07DFD20B963691A6C5B6CFB
:107960009A4211D163691D6C013505F03F056369C9
:107970005A6C95420FD0EFF31082D20732D5196CB2
:107980005A6C914207D12DE01D4840F22771012227
:1079900006F039FDE6E71A4840F2277106F059FD76
:1079A0000028E4D01648802106F04DFD0028DED0E6
:1079B000134840F22771002206F025FD6369104844
:1079C0005A6C511C5964995C06F035FD63690C488A
:1079D0005A6C40F2277102F03F025A64012206F00D
:1079E00012FDC4E71A6C06489E54636940F2277181
:1079F0001D64012525762A4606F005FD284670BD42
:107A00000044004010B51E4840F2255106F021FD0B
:107A100078B11B4806F013FD1A4BC0B25A6D996D30
:107A2000013202F03F028A4203D0596D5A6519446F
:107A30000875134840F2277106F00BFDF8B1114CA0
:107A4000D4F89C20D4F8A0309A4207D1BDE8104069
:107A50000B4840F22771002206F0D5BCD4F8A030C4
:107A600007485A1C234493F85C10C4F8A02006F081
:107A7000E2FCD4F8A03003F03F03C4F8A03010BDFE
:107A800000440040E01C0020014B187C704700BF00
:107A9000E01C0020F7B5164C002504F1A406154F94
:107AA0002B4629462A4600953046FFF70BFB3A46FF
:107AB000304611490BF0A2FE4FF47A73C4F8B4308B
:107AC0000E4B0F49C4F8AC3004F11403C4F8BC30B9
:107AD00004F1AC0004F15C033A46C4F8B050C4F8B9
:107AE000C03084F8C45003B0BDE8F0400BF086BE4F
:107AF000E01C00200C100020FD510008A0500108DF
:107B0000B978000870474FF0FF307047014B0360B1
:107B1000704700BF4850010810B5034B044603608E
:107B2000FEF730FA204610BD48500108FEF746B96E
:107B300008B5FEF72FF908BD08B50846FEF75EF94F
:107B4000012008BD002242604FF47A728260014A2F
:107B500002607047C85001080846FEF703B90000EC
:107B600037B50D4C00210D4D0B4600910A462046BD
:107B7000FFF7A8FA2A460A49204608340BF03EFED1
:107B80002046FFF7DFFF074920462A4603B0BDE83D
:107B900030400BF033BE00BFA81D00200C100020A9
:107BA000FD5100080D7B000870470000054B1B7855
:107BB00003F0FF002BB1044B1B78002B14BF0220F5
:107BC00001207047091E0020D81D002037B50B4C3E
:107BD00000210B4D0B4600910A462046FFF772FA32
:107BE0002A46204607490BF009FE074904F1080020
:107BF0002A4603B0BDE830400BF000BEC01D002097
:107C00000C100020FD510008A97B00080023036030
:107C1000184670470023036018467047002303602E
:107C2000184670472DE9F0410B7886B0002B0C46C2
:107C300014BF90464FF0000806460CF031FE074690
:107C400020460CF02DFE182301931E2301250293DC
:107C500002230393059000950494404631463A462A
:107C6000002303F01DFF034B18705D7006B0BDE8E4
:107C7000F08100BFCC1D0020034610B548F210046F
:107C8000A34208464CD00DDC48F20102934224D0B6
:107C900048F2020293422AD0992B64D1324B01223E
:107CA0009A7410BD48F28004A3420FD0B3F5084F78
:107CB00049D048F24000834255D12B4C04F11400C6
:107CC000FDF726FAA36A0133A36210BD264B0122F9
:107CD0009A70DA7000221A7110BD234C012363716F
:107CE000FEF762FF00F5EA403030A06010BD1E4C88
:107CF000637963B1FEF758FF00F5EA403030A060C9
:107D00004FF47F4004F030FCE72004F0A9FC00238E
:107D1000637123736373A373E3732374637410BD7C
:107D20000A7D114B62B99A604FF47F4001221A73A9
:107D30001A7404F019FCBDE81040E72004F090BC70
:107D400000221A7310BD002102F0B3F9012104468C
:107D500002F0F6F9054B1B689C4204D1024B00224D
:107D6000DA739A735A7310BDCC1D002018000020DE
:107D70001FB54FF461504FF461610A2200238DE872
:107D80000F00064B44F620621A60684601A902AA59
:107D900003AB02F093FE05B05DF804FB081F002062
:107DA0001FB50023009301930293039301A8694632
:107DB00002AA03AB02F048FE05B05DF804FB000028
:107DC00070B500210A4C0E2002F04AFF1025102148
:107DD0000E2002F045FF2A46204600210CF0D6F97D
:107DE000294623460E200022BDE8704002F0ECBE7A
:107DF000F81D002030B5524D00249FB0FF20AC701C
:107E0000EC706C706C712C73AC746C73AC73EC7341
:107E10002C7404F0A9FBE72004F022FC2146224642
:107E2000204603F019FE2B46012103F82D4F0E20AA
:107E30000A4602F0C9FE6B79012B05D1642004F0DB
:107E40003DFA02F09DFAF6E710210C2002F008FF3F
:107E50003C4803F0CBFA3C4803F074FF012003F0E8
:107E600055FF6846394900F0D1FDAB786A78344C4B
:107E70001A4317D194F83C30002B57D0FF2003F061
:107E8000F7FE002852D11A24013C06D0E72004F066
:107E900015FC322004F012FAF6E7FFF791FF85F89F
:107EA0003C40E2E7E72004F0DBFB04F12C030E206A
:107EB0000121002202F05AFEA37813B103F062FF01
:107EC00020702B780121013385F82C300022204BC3
:107ED0000E2002F079FE002001240146012203F069
:107EE000BBFD214622461B4B0E2085F82D4002F09B
:107EF0006BFE03F035FD642004F0E0F9002003F090
:107F0000F9FC85F83D404FF47F4000242C7404F0C8
:107F10002BFBE72004F0A4FB48F2042003F0C4FE8E
:107F2000FFF726FF85F83E401FB030BDE72004F084
:107F3000C5FBFA2004F0C2F9684600F0C3FD94E7DF
:107F4000CC1D0020E850010874010020257C0008A9
:107F5000F81D0020F91D0020024B1A681860104619
:107F6000704700BF081F00207FB5364C00252064F5
:107F700004F05AFE04F09AFD334B344A0093344B1C
:107F800034490193344B35480293354B0393354BB9
:107F900003F098FC642004F091F9002003F0AAFC9F
:107FA000012348F2042084F83D30257403F07CFE60
:107FB0002D4B1A881E46012A31D00E2010212A4648
:107FC00004F12C0302F0D2FD102828D123791D4D95
:107FD000ABB995F82C301BB9012385F83E300EE083
:107FE00095F82D0058B90146012203F035FD012115
:107FF0002B4603F82D1F0E200A4602F0E5FD2379DB
:10800000BBB9104B93F83E309BB1184802F00EFEFE
:10801000FFF7C6FE04B0BDE87040FFF7A9BEFF2021
:1080200003F026FEFFF7CCFE0023338004F054FF5C
:10803000CCE74FF47F4004F097FAE72004F010FB00
:10804000E3E700BFCC1D002065CB0008157C0008CD
:1080500079CB00080D7C0008E5CB0008797C00088E
:108060000DCC00081D7C0008C2020020101E00205C
:108070002DE9F341AE4C05F09DFE0023A36494F876
:108080004C304BB994F84D3033B9A3687BB3FEF74D
:108090008BFDA36898422AD394F83D30A44D002B61
:1080A00040D000266E71AE602E732E6585F84C6050
:1080B000012785F83D606E73AE73EE736E7403F046
:1080C0004FFC6FF07F402F7404F04EFAE72004F06D
:1080D000C7FA642004F0F2F895F83E3013B3304646
:1080E00003F008FC85F83D70FFF784FE1AE094F871
:1080F0003D308F4DB3B92B792BB9FEF755FD00F507
:10810000EA403030A860002003F0F4FB012384F83B
:108110003D304FF47F400023237404F025FAE7201C
:1081200004F09EFA94F83E30814E13B1FFF762FEE0
:1081300005E033791BB1337B03F0FF05FBB1E27837
:108140007B4B012A13D11A7B012A10D15B79012BB9
:108150000DD1032577480CF0A3FB013D82B2754990
:10816000012003F075FB15F0FF05F3D1E570237BCB
:108170006F4DE3B195F84D30002B74D017E02946D0
:108180002A462846B56003F067FC6B480CF088FB74
:108190006A4F804638460CF083FB00970190791FA8
:1081A000032042462B4603F0F1FB3571C7E794F8F4
:1081B000573023B1624800213A220BF0E7FF94F8D0
:1081C0008E205B4B32B95A7B002A58D19B7B002B07
:1081D00055D1BBE01A7BFAB193F84D20E2B95A7B36
:1081E000002A5CD018E02B4603F82F2F0E20012127
:1081F000032202F0E9FC00264FF6FF70267404F01B
:10820000B3F9E72004F02CFAFEF74EF9B042484DDE
:1082100065DB01232E656B73637B454D002B00F0FE
:108220009580AB7BBBB9FEF7C1F8002811D002DA0C
:108230004FF47F0007E0012801D1424803E0022803
:1082400003D14FF0FF1004F08FF9E72004F008FA93
:1082500001E00123AB73FEF76DF8002876D1E073DF
:10826000A073607372E095F85730002BA7D164209B
:1082700004F024F805F1540002F066FC9FE7FEF7D5
:1082800003F900234FF47F40E373A373637304F097
:108290006BF9E72002B0BDE8F04104F0E1B95B7C86
:1082A000002BA8D04FF47F0004F05EF9637C204DD2
:1082B00003F0FF02002B96D0E72004F0D1F94FF431
:1082C000FA7003F0FBFFE72004F0D8F94FF4FA70DE
:1082D00003F0F4FF6B7C013BDBB26B74E6E795F8CF
:1082E0004C309BBB2B6D0133022B2B6504BF01234C
:1082F00085F84C30FEF796F800280ADA236D013332
:10830000022B236503D10A4B012283F84C20022360
:1083100000E003236374637C0E2084F82F30012176
:10832000094B032202F050FC0023637374E700BF83
:10833000CC1D0020770100207E0100208301002059
:10834000201E00200060FF00FB1D002002B0BDE8E1
:10835000F08100BF13B5084C002100910A460B467E
:108360002046FEF7AFFE0549054A204602B0BDE8AB
:1083700010400BF043BA00BF5C1E0020FD51000806
:108380000C100020704708B5012005F027F9FEE722
:1083900008B5032005F022F9FEE708B5042005F032
:1083A0001DF9FEE708B5052005F018F9FEE770474E
:1083B0007047704708B504F0DBFEBDE80840FDF7E4
:1083C00005BC000008B5024B0BB1AFF3008008BD3F
:1083D0000000000008B5024B0BB1FFF713FB08BD0E
:1083E000057A000808B5024B0BB1FEF7FDFD08BD8C
:1083F000E96F000808B5024B0BB1FEF7F6FD08BDAA
:10840000EB6F000808B5024B0BB1FEF781FF08BD0A
:108410001173000808B5012005F088FB38B1012070
:1084200005F092FB024B13B10020FEF70BFE08BDD6
:108430004570000808B5022005F078FB38B102202D
:1084400005F082FB024B13B10120FEF7FBFD08BDD6
:108450004570000808B5042005F068FB78B10420D9
:1084600005F072FB0020064B0146188004F0AEF9BF
:10847000BDE8084003481021012205F07CBF08BD7B
:10848000281F0020002C014008B5082005F04EFBF5
:1084900038B1082005F058FB024B13B10320FEF75A
:1084A000D1FD08BD4570000808B5102005F03EFB61
:1084B00038B1102005F048FB024B13B10420FEF741
:1084C000C1FD08BD4570000808B5202005F02EFB51
:1084D00038B1202005F038FB0E4B13B10520FEF714
:1084E000B1FD402005F022FB38B1402005F02CFB07
:1084F000084B13B10620FEF7A5FD802005F016FB02
:1085000038B1802005F020FB024B13B10720FEF7A5
:1085100099FD08BD4570000808B54FF4005005F0FE
:1085200005FB40B14FF4005005F00EFB174B13B1A3
:108530000D20FEF787FD4FF4804005F0F7FA40B1BB
:108540004FF4804005F000FB104B13B10E20FEF7F6
:1085500079FD4FF4004005F0E9FA40B14FF40040D6
:1085600005F0F2FA094B13B10F20FEF76BFD4FF443
:10857000006005F0DBFA38B14FF4006005F0E4FA72
:10858000BDE8084003F024BE08BD00BF45700008E8
:1085900008B50F48102105F027FFC0B10C48102185
:1085A00005F02DFF002004F0D5F928B9094B1A88F1
:1085B0000A3292B21A8008BD05481021002205F047
:1085C000DAFEBDE808400020012104F0FFB808BD34
:1085D000002C0140281F002008B5012005F0FCFCFC
:1085E00050B1012005F008FD044B0BB1FFF700F975
:1085F000BDE8084005F0DABC08BD00BFF17700080F
:1086000008B5022005F0E8FCB0B10C4B00224FF495
:1086100000301A7005F098FA012005F0F5FB10B152
:10862000012005F0FBFB05F0C1FC022005F0E4FC95
:10863000BDE8084005F0BABC08BD00BF191E002007
:1086400003F058BD00F064B838B514490B78012B1D
:1086500023D1134A13680BB90B7038BD114C402B52
:10866000206881B205D94030403B2060136040252E
:1086700004E09DB203442360002313600A482A46A5
:108680000844C02106F0F0FB0120294606F0F4FC66
:10869000BDE83840012006F059BC38BDF80F002075
:1086A00000100020FC0F0020F80E002008B5094B38
:1086B00001221A70084B002203201A8006F00AFDDE
:1086C000064B024618804FF488710548BDE8084003
:1086D00006F0E2BBAC0E0020B00E0020AE0E002073
:1086E000B20E0020084B1B68052B0BD1074B1A68F4
:1086F000052A02F1010101D01960704700221A60B9
:10870000FDF79ABB704700BF541F0020681E002071
:1087100070B52B4D2B4C2B682B4E9BB2238022889F
:1087200033881340990508D54FF6FF532B60A37883
:108730000133DBB2A370FFF7D5FF228833881340E3
:108740001A0401D506F0DAFA2288338813405B0553
:1087500005D54FF6FF332B601C4B5B68984722888A
:1087600033881A40900444BF4DF6FF722A60228875
:108770001340D90405D54EF6FF732B60002004F09A
:10878000EBFE2288338813401A050BD5104B1B785B
:1087900013B104F0C1FE02E0022004F0DDFE4FF24E
:1087A000FF732B60228833881340DB0507D54FF613
:1087B000FF632B600720BDE8704004F0CDBE70BDA4
:1087C000445C00406C1E002040290020E80100208D
:1087D000E8020020034B9B7A13B1034B05221A6079
:1087E000704700BF1C290020541F0020014B0422A9
:1087F0001A607047541F0020034B1A78202A04BFC8
:1088000000221A70704700BF701E002070470000E1
:10881000212810B508D1114B1B681B7803F07F038A
:10882000212B10D0022010BD2028FBD10B4B0C4A6D
:108830001B681B78107003F07F03212B094B18BFB6
:1088400000230BB9EEE7084B044A002412682046C7
:10885000936154829847204610BD00BF3C290020F8
:10886000701E0020B9880008A1880008074B1B680B
:108870001B7803F07F03212B06D100F0DF000228D4
:108880000CBF002002207047022070473C290020C6
:1088900021B9022834BF002002207047022070470F
:1088A00020B9034B08221B681A82704701487047A1
:1088B0003C290020E001002020B9034B08221B685E
:1088C0001A827047014870473C290020E0010020CF
:1088D00010B5FDF7FDFA054B00241B689C7204F0EF
:1088E00003FE06F00DFC024B1C6010BD3C2900206D
:1088F000541F0020334B344A1B68D27910B5002432
:108900005A729C72DC72204606F0D8FA20464FF468
:10891000007106F0DBFA2046102106F0E5FA204649
:10892000402106F07DFB8021204606F069FB2046B1
:1089300006F032FB254B204693F8341006F0AAFBD4
:10894000204606F016FB0120214606F0BFFA012062
:10895000C02106F055FB0120202106F0C5FA0120B8
:10896000214606F0DAFA02204FF4C06106F0AEFAB2
:1089700002204FF4807106F043FB0220214606F0EE
:10898000CCFA0220202106F0AFFA0320214606F09F
:108990009DFA03204FF4887106F042FB032040212A
:1089A00006F078FB03204FF4405106F0B6FA03209E
:1089B000214606F099FA204606F034F9044B0122CC
:1089C0001A6010BD3C29002055510108E00100202B
:1089D000541F0020014905F021BF00BF18020020EC
:1089E000014905F01BBF00BF20020020054B1B689A
:1089F000DB78042B04D8044901EBC30105F00EBF5A
:108A0000002070473C2900202802002038B5044689
:108A10000D46FFF797F8204625614FF41651FFF7F2
:108A20009BF8204638BD70B506460D460024284602
:108A30000BF036FF844208D2295D3046FFF77CF800
:108A4000012003F03BFC0134F1E770BD2DE9F0415A
:108A500004460E46904600252046FFF769F8002898
:108A6000FADD2046FFF762F84545C1B206D1002382
:108A7000337020461249FFF7D6FF15E00D29F6D0D6
:108A80000A29F4D0082901D07F2904D1002DE3D090
:108A9000771E013D02E0771C317001352046EDB2B2
:108AA000FFF74AF83E46D7E72046FFF741F800288F
:108AB00003DD2046FFF73AF8F6E7BDE8F08100BF96
:108AC000EA7C0108F0B585B00446FFF731F80028CC
:108AD00040F39B802046FFF729F8C0B2772867D182
:108AE00004F1140600212122304604F135050BF073
:108AF0004DFB4122002128460BF048FB04F176078C
:108B0000002384F87630204641497B70FFF78BFFC5
:108B1000204631462022FFF799FF20463D49FFF7C6
:108B200082FF012220463946FFF790FF94F8763005
:108B3000A3F13002032AF0D8312B0BD1204636495D
:108B4000FFF771FF20463549FFF76DFF2046344996
:108B5000FFF769FF94F87620B2F1300708D020467D
:108B60003049FFF760FF204629464022FFF76EFF9D
:108B700020462D49FFF757FF23693A4630462946DC
:108B8000984720462949FFF74EFF20462849FFF71E
:108B90004AFF20462749FFF746FF20462649FFF7B0
:108BA00042FF20462549FFF73EFF2046244927E0A3
:108BB00069282AD1234B01AD93E8070085E8070017
:108BC00020462149FFF72FFF0026AF5D20463B09D5
:108BD00003F13001392988BF03F1570107F00F076E
:108BE000FEF7AAFF07F13001392988BF07F15701C5
:108BF00020460136FEF7A0FF0C2EE6D11349204691
:108C000005B0BDE8F040FFF70EBF05B0F0BD00BFF6
:108C10003E7B0108457B0108727B0108A87B0108A7
:108C2000D37B0108197C0108247C0108677C0108BA
:108C3000877C0108BA7C0108ED7C01082C7D0108C5
:108C40005D7D0108E8F7FF1F1D7B0108EA7C010834
:108C500013B5084C002100910A460B462046FEF74A
:108C600031FA0549054A204602B0BDE810400AF035
:108C7000C5BD00BF741E0020FD5100080C1000206F
:108C80002DE9F34781460C460026484600F0C4FF14
:108C900000287FD000238DF804308DF805308DF842
:108CA0000630484600F0A7FF032596FBF5F303EBDB
:108CB0004303F31A02AA134403F8040C484601368E
:108CC00000F0AAFF28B196FBF5F505EB4505AE428D
:108CD000E7D1032396FBF3F303EB4303F31A012BD2
:108CE0009DF804709DF805802C4D11D13B0103F0D7
:108CF0003003BF0843EA1818E95D2046FEF74FFA33
:108D000015F808102046FEF74AFA20463D211BE0E0
:108D1000022B9DF806A01CD14FEA880303F03C0308
:108D200043EA9A1ABB083F0107F03007E95C204686
:108D300047EA1818FEF733FA15F808102046FEF730
:108D40002EFA15F80A102046FEF729FA20463D2192
:108D50001DE0BB083F0107F0300747EA18174FEA4C
:108D60008808E95C204608F03C08FEF718FA48EA53
:108D70009A18E95D2046FEF712FA0AF03F0A15F844
:108D800008102046FEF70BFA15F80A102046FEF7E9
:108D900006FA7AE702B0BDE8F08700BFAA510108E1
:108DA00003464138C0B2192814D9A3F16102192A27
:108DB00001D8473B04E0A3F13002092A02D804336A
:108DC000D8B270472B2B04D02F2B14BFFF203F208D
:108DD00070473E20704700002DE9F34106460D46DE
:108DE0000024335D9BB31B4B1868019004F003070C
:108DF0000134331913F8010CFFF7D2FF02AB1F4403
:108E0000335D07F8040C0BB1A307EFD19DF8058083
:108E10009DF80410C8F3011343EA81012846C9B242
:108E200000F0DAFE9DF806702846C7F3830343EA94
:108E30000811C9B200F0D0FE9DF80730284603F0B3
:108E40003F0343EA8711C9B200F0C6FEC9E702B08A
:108E5000BDE8F081EA51010813B5084C00210091EA
:108E60000A460B462046FEF72DF90549054A2046DD
:108E700002B0BDE810400AF0C1BC00BF7C1E00205B
:108E8000FD5100080C1000202DE9F04305684C5DF1
:108E9000002C00F0F8802C2C00F0F18011D80D2C63
:108EA00000F0ED8004D8093C012C00F2BB80E6E024
:108EB000202C00F0E480222C40F0B4806F1C07606E
:108EC00072E05D2C36D005D83A2C00F0D8805B2CAF
:108ED00008D0A7E07B2C05D07D2C40F0A3804FF07C
:108EE000010C29E046689E4280F0E080771C4FEA42
:108EF0000618476002EB080C4FF0FF37CCF80870FB
:108F0000CCF804700027CCF80C708768B7F1FF3FED
:108F100006D002EB0719D9F80C700137C9F80C70AC
:108F20007B2C14BF0224012402F80840CCF8045022
:108F30008660A4E04FF0020C4468013C02EB04168A
:108F40000436002C15DB3768A6F1040801370DD074
:108F50007768B7F1FF3F09D116F8046C664540F019
:108F6000A78001358760C8F8085005E0013C103E35
:108F7000E7E7661C00F09C8002EB04150835002C26
:108F80007DDB55F8046C013604D02E68013601D122
:108F9000846074E0013C103DF1E7222C09D05C2C88
:108FA00019D004680134046006688C5D002CF4D18B
:108FB0002AE044689C424AD2651C45602501541948
:108FC0004FF0000CC4F80CC04FF0030C02F805C0C1
:108FD0006760A6604BE0013606608C5D662CE0D0D1
:108FE00008D82F2CDDD001D8222C07E05C2CD8D05B
:108FF000622C03E0722CD4D002D86E2CD1D005E0C4
:10900000743C012CCDD901E0056053E005604FE0D0
:10901000202C19D00FD8092C09D2203C5E2CF5D871
:109020000136066006688C5D002CF1D10CE00A2C3C
:109030000AD90D2C07E03A2C06D001D82C2C02E0DE
:109040005D2C01D07D2CE8D144689C4201D30560A1
:109050002CE0671C47602701D4194FF0000CC4F8BE
:109060000CC002F807C0A660013E65600660846817
:10907000651C04D002EB0414E5680135E560046862
:109080000134046002E741684B1E02EB0112002B21
:109090000ADB52F80C1C013103D052F8081C0131D4
:1090A00008D0013B103AF2E7002004E0FF2002E084
:1090B000FE2000E0FD2040B2BDE8F0830023036005
:1090C00043604FF0FF3383607047000008B50248EB
:1090D00000F0A2FD08BD00BF841E002008B50548B1
:1090E00000F09AFD18B1034800F085FD08BD4FF06F
:1090F000FF3008BD841E002008B5054800F08CFD37
:1091000018B1034800F084FD08BD4FF0FF3008BDE2
:10911000841E002038B590F8CF500C460B4865B13E
:109120000B49FEF738F821460848FEF753F809487E
:10913000214600F051FD012038BD0749FEF72BF80C
:1091400021460248FEF746F8284638BDB01D0020EB
:10915000827D0108941E0020737D01080022426078
:109160004FF47A728260024A01610260704700BF68
:10917000F851010810B50446FDF716FDC4F8D000FB
:10918000206903681B69984728B1206903681B6937
:109190009847C0B210BDFDF707FDD4F8D03042F2B9
:1091A0001072C01A9042F0D8EAE70000F8B50646FF
:1091B00000690D46036817465B6998470024C1B2F1
:1091C0000A2907D100232B550E480134FDF7ECFF87
:1091D000E0B2F8BDFF29F5D071B10D290CD07A1E8F
:1091E000944202DA2955013403E008460BF094FE5C
:1091F000C1B20448FDF7D3FF306903685B69984743
:10920000C1B2DDE7B01D002008B5002380F8CE30E4
:1092100080F8CF3000690368DB6A984708BD00001A
:10922000936D70B515460022CA540C46696D06460A
:1092300021440548FDF7C4FFD6F8D43013B1686D5A
:109240002044984770BD00BFB01D002038B50446CB
:109250000D460448FDF79FFF20692946BDE83840C8
:10926000FDF799BFB01D002038B504460D460448EF
:10927000FDF795FF20692946BDE83840FDF78FBF0F
:10928000B01D002038B51D460123044680F8CF30BC
:109290000C490D48FDF77FFF20460021FFF7E4FF52
:1092A00020460A49FFF7D2FF20462946FFF7CEFFA6
:1092B00020460749FFF7CAFF2046FF21BDE8384096
:1092C000FFF7D2BF8C7D0108B01D00209B7D0108F7
:1092D000A07D010838B50A4904460A481546FDF73D
:1092E0005AFF20460021FFF7BFFF20460649FFF73F
:1092F000ADFF2046FF21FFF7B7FF284638BD00BF6E
:10930000B37D0108B01D0020BE7D010810B50446E4
:109310000F4800F081FCC8B10E490F48FDF73BFF34
:1093200020460021FFF7A0FF20460C49FFF78EFFE3
:109330000B490948FDF72FFF21690548FFF7A0FCFD
:109340002046FF21BDE81040FFF78EBF10BD00BFD3
:10935000941E0020C37D0108B01D0020BE7D0108C1
:10936000CD7D010882B070B50D4604A981E80C00DE
:10937000059C0646069B9C4209DA295D0648FDF7D6
:109380000EFF295D3069FDF70AFF0134F2E7BDE801
:10939000704002B0704700BFB01D002073B5044696
:1093A0000E46144814491546FDF7F5FE20460021E7
:1093B000FFF75AFF20461149FFF748FF20461049A2
:1093C000FFF744FF05F1B80393E803008DE80300BD
:1093D000B03595E80C0020463146FFF7C3FF204624
:1093E0000849FFF733FF2046FF2102B0BDE8704077
:1093F000FFF73ABFB01D0020C37D0108D87D0108EA
:10940000DD7D0108067E0108F8B50D4616461F46AB
:109410000024BC4206DA6119325D0348FDF760FDA5
:109420000134F6E7F8BD00BF721B0020F8B50D4609
:1094300016461F460024BC4206DA61190348FDF7B0
:109440003BFD30550134F6E7F8BD00BF721B00202C
:1094500010B50C46212301212246FFF7E7FF002328
:1094600084F8203010BD000008B50A4621230121F0
:10947000FFF7CAFFBDE80840024800215322FDF76C
:109480002FBD00BF721B002010B50C4625232221E2
:109490002246FFF7CBFF002384F8243010BD0000E4
:1094A00070B504468CB00E46224823491546FDF798
:1094B00072FE20460021FFF7D7FE20461F49FFF726
:1094C000C5FE20461E49FFF7C1FE05F1780393E86B
:1094D00003008DE80300703595E80C002046314606
:1094E000FFF740FF17480021FDF7E6FC532817D18E
:1094F000204602A9FFF7C8FF20461349FFF7A6FE42
:10950000204602A9FFF7A2FE204602A9FFF7A0FF0E
:1095100020460E49FFF79AFE204602A9FFF796FE65
:1095200020460B49FFF792FE2046FF21FFF79CFEE5
:109530000CB070BDB01D0020C37D0108D87D0108AE
:10954000DD7D0108721B00200B7E0108177E0108DB
:10955000067E010808B50A4625232221FFF754FF9D
:10956000BDE80840024800215322FDF7B9BC00BF06
:10957000721B0020F0B505468BB00E4636483749C1
:109580001446FDF71DFE01232846694685F8CE30B6
:10959000FFF77AFFD4F8D400D4F8D87069463F1AA0
:1095A0003A4630440BF0ACF920B968460BF078F934
:1095B000B84219D02A492848FDF702FED4F8D43021
:1095C000D4F8D820F118D21A68460BF0F3F92549DF
:1095D0002148FDF7E0FD69461F48FDF7F1FD2846EB
:1095E0006946FFF7B7FF03E01B481F49FDF7E8FD99
:1095F00028466946FFF72CFFD4F8F400D4F8F87039
:1096000069463F1A3A4630440BF07AF920B9684669
:109610000BF046F9B84219D014490F48FDF7D0FDB8
:10962000D4F8F430D4F8F820F118D21A68460BF0C8
:10963000C1F90C490848FDF7AEFD69460648FDF73B
:10964000BFFD28466946FFF70FFF03E002480849BF
:10965000FDF7B6FD0BB0F0BDB01D0020247E010863
:10966000337E0108407E0108467E0108607E0108C5
:109670006E7E01082DE9F041C4B00D46064601A8F2
:109680009046FFF71BFD01A8294604AA1023FFF707
:10969000FBFB044648B138493848FDF77CFD2146BC
:1096A0000A223648FDF7DCFD62E00D990E9C6F182A
:1096B000641A3846324922460BF022F958B9082C70
:1096C00009D12F492D48FDF77BFD3046294604AAD4
:1096D000FFF7E6FE4CE038462A4922460BF010F927
:1096E00058B9052C09D127492448FDF769FD3046B2
:1096F000294604AAFFF73EFF3AE0384622492246AF
:109700000BF0FEF858B9082C09D11F491B48FDF78A
:1097100057FD3046294604AAFFF740FE28E03846A8
:109720001A4922460BF0ECF860B90A2C0AD1174905
:109730001248FDF745FD3046294604AA4346FFF787
:10974000A1FD15E03846124922460BF0D9F858B968
:10975000072C09D10E490948FDF732FD304629464C
:1097600004AAFFF75DFD03E004480A49FDF713FD75
:1097700044B0BDE8F08100BF897E0108B01D002023
:10978000987E0108A17E0108A77E0108B07E01082D
:10979000BB7E0108C37E01082DE9F34190F8CE306D
:1097A0000446012B09D1FDF7FFF9D4F8D0304EF66D
:1097B0005F22C01A904200F2898023682046DB694C
:1097C0009847206903681B699847002800F0968035
:1097D00004F11405BA2229462046FFF7E7FC284683
:1097E0003A210AF085FF451C06463A2128460AF030
:1097F0007FFF3A21074601300AF07AFFBF1BBE1EE9
:10980000033F032F80461AD831460A223E48FDF70F
:1098100027FD29463C48FDF7D3FC324629466846D9
:109820000BF0C8F802AA164400233849364806F857
:10983000083CFDF7B0FC34486946FDF7C1FC267DC5
:1098400008F10105A6F130032F48052B36D8DFE8D3
:1098500003F003071C0B35132D49FDF7B1FC4AE05B
:109860002C49FDF7ADFC49E02B49FDF7A9FC284642
:109870002A49FFF7B1FA41E02949FDF7A1FC20464A
:1098800029466A46FFF7F6FE38E02649FDF783FCD5
:10989000FDF78AF90A220146C4F8D0001A48FDF7FC
:1098A000F7FC20460021FFF7DFFC20461E49FFF7AA
:1098B000CDFC2046FF21FFF7D7FC1FE01B49FDF739
:1098C0006AFC31461048FDF785FC17E018490E4840
:1098D000FDF761FCFDF768F90A2201460A48FDF729
:1098E000D7FC14490848FDF756FC0748D4F8D010B7
:1098F0000A22FDF7CDFC2046FFF786FC94F8CE0047
:1099000002B0BDE8F08100BFB01D0020CC7E010890
:10991000D27E0108DD7E0108EC7E0108841E002055
:10992000F17E0108F97E0108087F01080C7F01081B
:10993000137F01081D7F01082DE9F041002380F805
:10994000CE3080F8CF3088B0044688466D486E49E6
:109950001546FDF735FC20692A46036841465B6AD7
:109960009847054630B920690368DB6A984765481F
:10997000664916E020466649FFF768FC20464146E6
:10998000FFF764FC20466349FFF760FC2046FFF7C1
:10999000F1FB054640B920690368DB6A98475948DE
:1099A0005D49FDF70DFCA8E004F1140620463146A0
:1099B000BA22FFF7FBFB002862D0304657490BF074
:1099C000ABF900285CD0072720463146BA22FFF7C2
:1099D000EDFB054630B920690368DB6A98474948C2
:1099E0004F49DEE7013FEFD13B46E218127D01AF60
:1099F0003A2A02D0FA540133F7E708AA1344494936
:109A00000022404803F81C2CFDF7C5FB3D483946B1
:109A1000FDF7D6FB206903681B699847054620B10E
:109A2000206903685B699847F4E720463E49FFF7E1
:109A30000DFC20463946FFF709FC20463B49FFF75D
:109A400005FC20464146FFF701FC20463849FFF758
:109A5000FDFB2046FFF78EFB30B920690368DB6A07
:109A60009847284833499CE720463146BA22FFF7F9
:109A70009DFB78B1304630490BF04EF998B909E0BA
:109A8000206900250368DB6A98471E482B49FDF7CB
:109A900097FB32E02A491B48FDF792FB20690368D7
:109AA000DB6A984729E017482649FDF789FB052519
:109AB00020463146BA22FFF779FB013DF8D1FDF788
:109AC00073F8C4F8D0002046FFF766FE40B9FDF7F2
:109AD0006BF8D4F8D03042F21072C01A9042F2D92A
:109AE00094F8CE303BB907481749FDF769FB206968
:109AF0000368DB6A984794F8CE50284608B0BDE862
:109B0000F08100BFB01D0020287F0108377F0108C9
:109B1000427F0108E87C0108667F0108727F010826
:109B2000767F01083F7B01088E7F0108547F010882
:109B3000AA7F0108D87F0108E37F0108008001089F
:109B4000178001082C800108E77F0108F7B5144C45
:109B5000002104F12006134D0B4600910A463046C1
:109B6000FDF7B0FA04F110072A4630460E490F4EB1
:109B700009F044FE3846962100F01AF82A4631468C
:109B8000384609F03BFE2046402100F011F82046FF
:109B900031462A4603B0BDE8F04009F02FBE00BFB1
:109BA000841E00200C100020FD510008C99B0008F5
:109BB000002310B5044641608360C3600846FCF78B
:109BC000DFF92060204610BD10B50446006808B1DA
:109BD000FCF7DAF9204610BD826830B54468531CA2
:109BE000B3FBF4F504FB1533C468A34202D0046848
:109BF000A154836030BD10B5C16802680346505C53
:109C00005A680131B1FBF2F402FB1412DA6010BDA4
:109C10000268C368D05C70478268C068101A18BFB9
:109C20000120704738B5054600680C46036801F00E
:109C30007F019B6898472868C4F3C61103689B6836
:109C4000984738BD08B50068F02103689B689847BD
:109C500008BD08B50068F72103689B68984708BDF0
:109C600010B504460068F92103689B68984720688E
:109C7000022103689B6898472068032103689B685A
:109C8000984710BD38B5037904461BB3FFF7DAFFD8
:109C900020687921036802259B6898472068A3689B
:109CA00002681978926890472068A368026859781A
:109CB000926890472379AB4207D9A3682046595D43
:109CC0000135FFF7AFFFEDB2F4E72046BDE83840BD
:109CD000FFF7BFBF38BD10B504460160FFF7C0FFF6
:109CE0002046BDE81040FFF7CDBF00002DE9F84346
:109CF0000D46044608461649914698460BF00CF866
:109D00002F21074628460AF09FFE461C27B11EB1A8
:109D1000BF1B0237277105E028460AF0C1FD02305B
:109D200020712E46A06809F0A9FE2579284609F081
:109D30009DFE0023A060435580F8009080F80180CC
:109D4000227931460230023ABDE8F8430AF032BEC9
:109D5000F77A010808B5006803681B69984708BDD1
:109D600070B5C37B0446712B05D0792B25D1BDE896
:109D70007040FFF787BFC36C43B3056B0223013DFF
:109D800095FBF3F5EDB2284609F070FE012203467B
:109D9000191AC9B2A9420DD2A118C97B561CF6B234
:109DA00019702644F67B023201EBC61103F8011B41
:109DB000D2B2EDE7E36C984770BD056D35B1016B2C
:109DC00004F1100201391846C9B2A84770BD38B570
:109DD0000446006801F00F01036815469B6841F0D6
:109DE000E001984720462946BDE83840FFF71ABFF2
:109DF00038B50446006801F00F01036841F0900196
:109E00009B6815469847206805F07F0103689B68AA
:109E100098472068C5F3C71103689B68984738BD09
:109E2000F8B505460C4616461F46FFF70BFF286897
:109E30002146036800249B689847E3B2B342284652
:109E400004D2395DFFF7EEFE0134F6E7BDE8F840D5
:109E5000FFF7FFBE70B50546104614460E460AF0E1
:109E60001FFD3146C2B223462846BDE87040FFF7C9
:109E7000D7BF0A467121FFF7EDBF08B50068036838
:109E80009B68984708BDD02910D004D8902909D0E4
:109E9000C02909D07047E02902D0F42908D07047C2
:109EA0004263704782637047C263704702647047C1
:109EB00042647047FF2908BF82647047026570479B
:109EC00008B50023037343738373C1180133002261
:109ED000202BCA73F9D1836C80F82F20026303B161
:109EE000984708BD10B50023044603718360FFF74F
:109EF000E7FF204610BD000010B504460068036867
:109F00005B69984794F82F3073B1F72807D1002385
:109F100084F82F302046BDE81040FFF721BF236BA7
:109F2000E218D073013358E0237B002B2FD07F2819
:109F30002DDC013BDBB2E2182373D073002B58D128
:109F4000637B002B55D0D02B19D005D8902B0AD08D
:109F5000C02B19D1E36B13E0E02B02D0F42B0AD015
:109F600012E0636B00E0A36B73B1E17B227CA07B0A
:109F700002EBC11107E0636C33B1207C02E0236C7B
:109F800013B1A07BE17B98470023637310BDEF28DA
:109F900004DC00F00F03A37300F0F000E02812D0FF
:109FA00006DCC02811D0D0280FD0902821D10AE09B
:109FB000F42808D002DCF0280BD010BDF92813D00B
:109FC000FF280CD010BD022300E00123237360732F
:109FD00010BD012384F82F300023236310BD2046D9
:109FE000BDE81040FFF76CBF0248BDE81040FFF726
:109FF00037BE10BDAC1E002037B50A4C002104F15D
:10A0000054050B4600910A462846FDF75BF82846A2
:10A010000549064A09F0F2FB204603B0BDE830408E
:10A02000FFF760BFAC1E0020FD5100080C1000209F
:10A03000002100F004B80E4B5B58435004310D482A
:10A040000D4B42189A42FFF4F6AF0C4A00F003B8E9
:10A05000002342F8043B0A4B9A42FFF4F9AF03F0A5
:10A06000C9F9FBF7EFFCFBF76FFFFBF739FD704712
:10A070002C82010800000020300B0020300B002053
:10A080004C290020FFF7FEBF0B0A017043700B0C38
:10A09000090E8370C170043070470170090A417065
:10A0A0000230704743185A78435C03EB022080B2B9
:10A0B000704710B543189A78DC78415C120402EBC3
:10A0C000046258780A4402EB002010BD73B544794D
:10A0D0000023022C01930FD0032C19D0012C2BD17B
:10A0E000164D2B692E4623B12B6901A898470246CD
:10A0F000B8B9B16801201BE0104DEB682E4623B1C2
:10A10000EB6801A89847024658B9B16802200FE0F1
:10A110000A4D6B692E464BB16B6901A89847024600
:10A1200020B1A9682046BDF8043003E0B1680320DF
:10A130000022134600F024FC02B070BD84200020F1
:10A14000072830B512D8012910D8EFF3108472B661
:10A150000125854001FA00F0054B1A6822EA050244
:10A1600002431A602346DB0700D462B630BD00BF4D
:10A170007002002070B5012186B00546FFF792FFFE
:10A180004304044629D5B0F5824F26D1284605213F
:10A19000FFF788FF05EB8000EE1D0024C51DAE42D1
:10A1A00006D030460221FFF77DFF04360444F6E76F
:10A1B000724B1A8E224492B21A86DA6B1444DC6314
:10A1C000D96B9A6B914240F0CA8093F84020002AE4
:10A1D00000F0C5809B69992031E024F4FF4020F015
:10A1E0007F0080B2002800F0978048F210039C4264
:10A1F00028D00CD8B4F5004F40F2BC8048F20203DE
:10A200009C4215D948F204039C4211D0B2E048F2B6
:10A2100080039C420CD004D848F240039C424FD0AB
:10A22000A8E0B4F5024F03D0B4F5084F6BD0A1E01D
:10A23000524B9A69002A00F092809B6920460021C7
:10A240000A4667E00023EA1852790DF8032001332B
:10A25000042BF8D16B7A05F10D008DF80430AB7A40
:10A260008DF80530EB7A8DF806302B7B8DF80730B2
:10A27000002300AA1A44C15C0133042B1172F8D1E7
:10A2800005F11100002300AA1A44C15C0133042B1C
:10A290001173F8D105F11500002300AA1A44C15C1E
:10A2A0000133042B1174F8D12B798DF81430334B12
:10A2B0009A69002A53D09B6920466946152229E0F5
:10A2C000053500212846FFF7F4FE042100902846BA
:10A2D000FFF7EFFE082101902846FFF7EAFE0C2168
:10A2E00002902846FFF7E5FE102103902846FFF76D
:10A2F000E0FE224B04909A69002A30D09B692046E8
:10A300006946142206E01D4B9A6942B39B692046B8
:10A31000691D0122984722E041F203039C4205D0C7
:10A32000A4F580530E3B9BB2012B1AD86C1D20461E
:10A330000421FFF7BEFE39301CD12A790F4B0021D2
:10A340002046DA62FFF7B5FE042105462046FFF7F6
:10A35000B0FE393003D128460121FFF7F1FE01207C
:10A3600009E0064B1B889BB29C4204D0B4F5805F89
:10A37000F5D100E0002006B070BD00BF84200020B1
:10A3800070B50E4C6688B6B2B6B1606805782B1F02
:10A390005D425D412DB1FFF7EDFE003018BF012099
:10A3A00000E02846064618B935B194F841301BB98B
:10A3B0000023638001F0B4FD304670BD842000208E
:10A3C0002DE9F04F85B004468A46914602F0D8FE4A
:10A3D00000250190DFF83083B8F8023046469BB282
:10A3E000002B40F0938003F0E5FC02F0C9FE0290E0
:10A3F000029A019BD31A0393039B002B03DA019B60
:10A40000029A13440393BF4B1B68002BE2D0039ABC
:10A410009A42DFD3338841F207029BB2934227D896
:10A4200041F20602934261D240F2022293425DD091
:10A430000FD80C2B08D8082B58D2002B4FD0062B46
:10A4400088BF00235AD851E00D2B4CD040F2012296
:10A450000BE041F2020293424BD8B3F5805F45D83E
:10A46000B3F5017F3FD940F20722934237D13AE05A
:10A4700041F21102934236D014D841F20B029342BA
:10A4800034D005D841F2090293422FD031D82AE0C6
:10A4900041F20F0293422CD028D841F20D02934290
:10A4A00027D01CE042F2060293421CD007D8B3F535
:10A4B000005F14D942F20402934221D813E0B3F5AD
:10A4C000804F00F0EE8105D8A3F50053083B012B27
:10A4D00009D904E044F20B02934200F0E2810B2020
:10A4E00003F07CF8DDE1FF232370DAE14FF0FF3366
:10A4F00004E04FF0FF3323606360D2E12360D0E1DA
:10A50000204600213A2209F041FECAE1D8F8046051
:10A510003378042B40F0798130460121FFF7C2FDEA
:10A5200005463046FFF726FE002840F0638141F2E1
:10A5300007039D4206F1050755D841F206039D42E7
:10A5400080F0AE8040F202239D4200F0A98014D832
:10A550000C2D09D8082D80F0A380002D00F04A8131
:10A56000062D00F2E5809BE00D2D00F0968040F274
:10A5700001239D4200F091803CE141F202039D42A3
:10A5800018D8B5F5805F00F28B80B5F5017F40F2F9
:10A59000848040F207239D4240F02C813379384675
:10A5A00004F8013B0021FFF784FD01462046FFF738
:10A5B0006BFD1FE141F204039D4200F08B8040F2ED
:10A5C000A58000213846FFF774FD0421206038463D
:10A5D000FFF76FFD083444F8040C06F10D03224622
:10A5E00006F11D016FE041F211039D4255D02BD8B9
:10A5F00041F20B039D4253D01CD841F209039D4206
:10A600004ED000F2908000213846FFF752FD042121
:10A6100020603846FFF74DFD082160603846FFF79F
:10A6200048FD0C21A0603846FFF743FD04F10C0BF8
:10A63000E060DEE041F20F039D4267D036D841F280
:10A640000D039D4246D0D5E042F206039D4224D040
:10A650000BD8B5F5005F40F2CD8042F204039D4275
:10A6600088BF002300F2888017E042F208039D4271
:10A67000C0F0C08042F209039D420ED944F20B03A0
:10A680009D4240F0B780737938460121A8F83030F8
:10A69000FFF708FDA8F83200ACE033792370A9E099
:10A6A00038460021FFF705FD2060A3E00021384671
:10A6B000FFF7FFFCA3464BF8040B04213846FFF7D5
:10A6C000F8FC606095E053F8040B8B4242F8040BF1
:10A6D000F9D18FE000213846FFF7EBFC0421206020
:10A6E0003846FFF7E6FC082160603846FFF7E1FCDA
:10A6F000E36804F1080B3933A0607AD10121FFF738
:10A700001FFD76E0081F002084200020002138462D
:10A71000FFF7CFFC042120603846FFF7CAFC08345D
:10A7200044F8040C66E0337923713B68236061E0F0
:10A7300000213846FFF7BDFC042120603846FFF7B2
:10A74000B8FC082160603846FFF7ACFC0A21A06025
:10A750003846FFF7A7FC0C3444F8020C06F111034D
:10A76000224606F1350153F8040B8B4242F8040BE4
:10A77000F9D11B8813803DE0F2185279E25401337D
:10A78000042BF9D106F109000023C15CE218013362
:10A79000042B1171F9D106F10D000023C15CE21800
:10A7A0000133042B1172F9D106F111000023C15CB1
:10A7B000E2180133042B1173F9D106F115000023BF
:10A7C000C15CE2180133042B1174F9D106F11900B0
:10A7D0000023C15CE2180133062B1175F9D106F193
:10A7E0001F000023C15CE2180133202B9176F9D1C0
:10A7F00000E05C46B8F800202C4B92B2954236D16E
:10A8000000221A8083F8412031E0B8F836309BB23C
:10A810006BB33046032196F802B0FFF743FC0746BE
:10A82000BAF1000F0BD00421701DFFF742FC06F1B6
:10A8300015010246C9F800005046FAF769FCCBEB57
:10A8400007077B1EB3F5806F07D20BF10501204689
:10A8500031443A46FAF75CFC01E04FF0FF37B9F1BA
:10A86000000F01D0C9F800700023A8F8363000238B
:10A87000A8F8023001F054FB3378042B05D1B5F56C
:10A88000805F02D13046FFF721FCB8F800309BB260
:10A89000002B7FF49FAD054BDB8E9BB2002B7FF42A
:10A8A00099AD002005B0BDE8F08F00BF84200020E6
:10A8B00007284FF001030FD8EFF3108272B603FAA6
:10A8C00000F0064B1968134608420CBF0020012017
:10A8D000DB0702D462B6704718467047700200204A
:10A8E000034B1880084600210A46FFF769BD00BFE8
:10A8F0008420002010B5034B0124DC86BDE8104005
:10A90000FFF75EBD8420002038B5034615460122BE
:10A910004A710C46881D1946FFF7BFFB291D0570BB
:10A92000204601F06DFB002038BD38B5BDF814504D
:10A930000C462B44D518ADB202216171A071E271B1
:10A94000294604F10800FFF7A8FB691D204689B2DB
:10A9500001F056FB002038BD38B513440C469DB2BB
:10A9600002216171A0712946E27104F10800FFF72C
:10A9700094FB691D204689B2BDE8384001F040BB18
:10A980002DE9F84F1C4604F1020B032301F10709DE
:10A990001FFA8BFB88710D464B7148465946164687
:10A9A000FFF77BFBB4F57A7F824605F10B0812D8DE
:10A9B0002146FFF772FB21465046FFF76EFB3146FA
:10A9C00040462246FAF7A4FBA11D284689B2BDE8FD
:10A9D000F84F01F015BB4FF47A77B4FBF7F30BEBAC
:10A9E000430189B2FFF759FB39465046FFF755FB43
:10A9F000314640463A46FAF78BFBA4F57A7428466E
:10AA000040F2EE31A4B23E4401F0FAFAB4F57A7F96
:10AA100084BFA4F57A74A7B2A84688BF4FF47A74AD
:10AA2000314628F8054F4846224698BF0027FAF7D6
:10AA30006FFBA11C404689B2264401F0E1FA0FB138
:10AA40003C46E3E7BDE8F88FF7B51E46FF238DF8D7
:10AA50000730194B00259C68475D63190135042DAB
:10AA60005F72F9D100200D5C2318013004285D735A
:10AA7000F9D10021505C6318013104295874F9D1CF
:10AA800004F115000021FFF7FFFA0022B35C8354A4
:10AA90000132042AFAD12146142242F20100FFF7C2
:10AAA00033FF42F201000DF10701FFF719FF9DF995
:10AAB000070003B0F0BD00BF842000202DE9F34162
:10AAC0001F46FF238DF807301E4B0646D3F808803B
:10AAD00033680C46013B122B9CBF142333600B6878
