:020000040800F2
:105000000050002029A30008C58A0008C78A0008AC
:10501000D18A0008DB8A0008E58A00080000000049
:10502000000000000000000000000000EF8A0008FF
:10503000F18A000800000000F38A0008F58A0008E1
:105040007DA300087DA300087DA30008598D0008FA
:105050007DA300087DA30008658B0008858B0008F0
:10506000A58B0008D98B0008F98B00087DA30008E8
:105070007DA300087DA300087DA30008C18D000862
:105080007DA300087DA30008058B00087DA3000810
:10509000C58D00087DA300087DA30008198C0008B9
:1050A0007DA300087DA300087DA30008E18C000813
:1050B000298D0008398D0008498D0008358B0008BE
:1050C000458B00087DA300087DA30008558B0008D0
:1050D0007DA30008158B0008258B00087DA3000820
:1050E000698C0008818D00087DA300080000000085
:1050F00000000000000000000000000000000000B0
:0C51000000000000000000005FF808F153
:1051100010F8012B11F8013B012A28BF9A42F7D061
:10512000D01A704781F0004102E000BF83F00043D5
:1051300030B54FEA41044FEA430594EA050F08BF32
:1051400090EA020F1FBF54EA000C55EA020C7FEAF6
:10515000645C7FEA655C00F0E2804FEA5454D4EB73
:105160005555B8BF6D420CDD2C4480EA020281EA3D
:10517000030382EA000083EA010180EA020281EA75
:105180000303362D88BF30BD11F0004F4FEA0131C7
:105190004FF4801C4CEA113102D0404261EB4101D6
:1051A00013F0004F4FEA03334CEA133302D052425C
:1051B00063EB430394EA050F00F0A780A4F1010418
:1051C000D5F1200E0DDB02FA0EFC22FA05F2801852
:1051D00041F1000103FA0EF2801843FA05F3594138
:1051E0000EE0A5F120050EF1200E012A03FA0EFCB7
:1051F00028BF4CF0020C43FA05F3C01851EBE371E1
:1052000001F0004507D54FF0000EDCF1000C7EEBFD
:1052100000006EEB0101B1F5801F1BD3B1F5001F3B
:105220000CD349085FEA30004FEA3C0C04F101045A
:105230004FEA445212F5800F80F09A80BCF1004F83
:1052400008BF5FEA500C50F1000041EB045141EA05
:10525000050130BD5FEA4C0C404141EB010111F406
:10526000801FA4F10104E9D191F0000F04BF0146B1
:105270000020B1FA81F308BF2033A3F10B03B3F18F
:1052800020020CDA0C3208DD02F1140CC2F10C021F
:1052900001FA0CF021FA02F10CE002F11402D8BF7D
:1052A000C2F1200C01FA02F120FA0CFCDCBF41EA49
:1052B0000C019040E41AA2BF01EB0451294330BD18
:1052C0006FEA04041F3C1CDA0C340EDC04F11404F5
:1052D000C4F1200220FA04F001FA02F340EA0300CC
:1052E00021FA04F345EA030130BDC4F10C04C4F112
:1052F000200220FA02F001FA04F340EA03002946F2
:1053000030BD21FA04F0294630BD94F0000F83F43B
:10531000801306BF81F480110134013D4EE77FEA1E
:10532000645C18BF7FEA655C29D094EA050F08BF6A
:1053300090EA020F05D054EA000C04BF194610464B
:1053400030BD91EA030F1EBF0021002030BD5FEA8F
:10535000545C05D14000494128BF41F0004130BDB7
:1053600014F580043CBF01F5801130BD01F000450B
:1053700045F0FE4141F470014FF0000030BD7FEA7E
:10538000645C1ABF194610467FEA655C1CBF0B4679
:10539000024650EA013406BF52EA033591EA030F90
:1053A00041F4002130BD00BF90F0000F04BF002188
:1053B000704730B54FF4806404F132044FF00005BB
:1053C0004FF0000150E700BF90F0000F04BF002134
:1053D000704730B54FF4806404F1320410F000459A
:1053E00048BF40424FF000013EE700BF42004FEA95
:1053F000E2014FEA31014FEA02701FBF12F07F4312
:1054000093F07F4F81F06051704792F0000F14BF0E
:1054100093F07F4F704730B54FF4607401F0004552
:1054200021F0004120E700BF50EA010208BF7047A9
:1054300030B54FF000050AE050EA010208BF70479E
:1054400030B511F0004502D5404261EB41014FF407
:10545000806404F132045FEA915C3FF4DCAE4FF00B
:1054600003025FEADC0C18BF03325FEADC0C18BFF2
:10547000033202EBDC02C2F1200300FA03FC20FA43
:1054800002F001FA03FE40EA0E0021FA02F1144490
:10549000C1E600BF70B54FF0FF0C4CF4E06C1CEAA5
:1054A00011541DBF1CEA135594EA0C0F95EA0C0F1A
:1054B00000F0DEF82C4481EA030621EA4C5123EA8D
:1054C0004C5350EA013518BF52EA033541F48011BC
:1054D00043F4801338D0A0FB02CE4FF00005E1FB6F
:1054E00002E506F00042E0FB03E54FF00006E1FBB9
:1054F00003569CF0000F18BF4EF0010EA4F1FF04FC
:10550000B6F5007F64F5407404D25FEA4E0E6D413B
:1055100046EB060642EAC62141EA55514FEAC5204C
:1055200040EA5E504FEACE2EB4F1FD0C88BFBCF5C8
:10553000E06F1ED8BEF1004F08BF5FEA500E50F179
:10554000000041EB045170BD06F0004646EA01013F
:1055500040EA020081EA0301B4EB5C04C2BFD4EB71
:105560000C0541EA045170BD41F480114FF0000E6A
:10557000013C00F3AB8014F1360FDEBF002001F0D8
:10558000004170BDC4F10004203C35DA0C341BDC52
:1055900004F11404C4F1200500FA05F320FA04F024
:1055A00001FA05F240EA020001F0004221F0004158
:1055B00010EBD37021FA04F642EB06015EEA430ECB
:1055C00008BF20EAD37070BDC4F10C04C4F12005FB
:1055D00000FA04F320FA05F001FA04F240EA0200AE
:1055E00001F0004110EBD37041F100015EEA430E7F
:1055F00008BF20EAD37070BDC4F1200500FA05F29F
:105600004EEA020E20FA04F301FA05F243EA02031D
:1056100021FA04F001F0004121FA04F220EA02002C
:1056200000EBD3705EEA430E08BF20EAD37070BD72
:1056300094F0000F0FD101F00046400041EB010152
:1056400011F4801F08BF013CF7D041EA060195F034
:10565000000F18BF704703F00046520043EB0303EE
:1056600013F4801F08BF013DF7D043EA06037047DB
:1056700094EA0C0F0CEA135518BF95EA0C0F0CD0E6
:1056800050EA410618BF52EA4306D1D181EA03012C
:1056900001F000414FF0000070BD50EA410606BF26
:1056A0001046194652EA430619D094EA0C0F02D16B
:1056B00050EA013613D195EA0C0F05D152EA0336B0
:1056C0001CBF104619460AD181EA030101F00041CE
:1056D00041F0FE4141F470014FF0000070BD41F017
:1056E000FE4141F4780170BD70B54FF0FF0C4CF4F1
:1056F000E06C1CEA11541DBF1CEA135594EA0C0F10
:1057000095EA0C0F00F0A7F8A4EB050481EA030E5C
:1057100052EA03354FEA013100F088804FEA033343
:105720004FF0805545EA131343EA12634FEA022211
:1057300045EA111545EA10654FEA00260EF00041D2
:105740009D4208BF964244F1FD0404F5407402D224
:105750005B084FEA3202B61A65EB03055B084FEAB5
:1057600032024FF480104FF4002CB6EB020E75EBB2
:10577000030E22BFB61A754640EA0C005B084FEADA
:105780003202B6EB020E75EB030E22BFB61A754657
:1057900040EA5C005B084FEA3202B6EB020E75EBA2
:1057A000030E22BFB61A754640EA9C005B084FEA1A
:1057B0003202B6EB020E75EB030E22BFB61A754627
:1057C00040EADC0055EA060E18D04FEA051545EA16
:1057D00016754FEA06164FEAC30343EA52734FEABF
:1057E000C2025FEA1C1CC0D111F4801F0BD141EA38
:1057F00000014FF000004FF0004CB6E711F4801F9D
:1058000004BF01430020B4F1FD0C88BFBCF5E06F7C
:105810003FF6AFAEB5EB030C04BFB6EB020C5FEA8C
:10582000500C50F1000041EB045170BD0EF0004EE1
:105830004EEA113114EB5C04C2BFD4EB0C0541EA13
:10584000045170BD41F480114FF0000E013C90E610
:1058500045EA060E8DE60CEA135594EA0C0F08BFD4
:1058600095EA0C0F3FF43BAF94EA0C0F0AD150EAD3
:1058700001347FF434AF95EA0C0F7FF425AF104666
:1058800019462CE795EA0C0F06D152EA03353FF48E
:10589000FDAE1046194622E750EA410618BF52EA0B
:1058A00043067FF4C5AE50EA41047FF40DAF52EADF
:1058B00043057FF4EBAE12E74FF0FF3C06E000BF7C
:1058C0004FF0010C02E000BF4FF0010C4DF804CD89
:1058D0004FEA410C7FEA6C5C4FEA430C18BF7FEA49
:1058E0006C5C1BD001B050EA410C0CBF52EA430C77
:1058F00091EA030F02BF90EA020F0020704710F1F7
:10590000000F91EA030F58BF994208BF90422CBF85
:10591000D8176FEAE37040F0010070474FEA410C7E
:105920007FEA6C5C02D150EA013C07D14FEA430C9C
:105930007FEA6C5CD6D152EA033CD3D05DF8040B0D
:10594000704700BF8446104662468C46194663463F
:1059500000E000BF01B5FFF7B7FF002848BF10F116
:10596000000F01BD4DF808EDFFF7F4FF0CBF01205B
:1059700000205DF808FB00BF4DF808EDFFF7EAFFD7
:1059800034BF012000205DF808FB00BF4DF808ED92
:10599000FFF7E0FF94BF012000205DF808FB00BF87
:1059A0004DF808EDFFF7CEFF94BF012000205DF811
:1059B00008FB00BF4DF808EDFFF7C4FF34BF01201E
:1059C00000205DF808FB00BF4FEA410212F500120B
:1059D00015D211D56FF47873B3EB625212D94FEA36
:1059E000C12343F0004343EA505311F0004F23FA20
:1059F00002F018BF404270474FF00000704750EA75
:105A0000013005D111F0004008BF6FF00040704731
:105A10004FF00000704700BF014B0360704700BFAC
:105A2000405D0108014B0360704700BF585D0108ED
:105A3000014B0360704700BF585D010810B5034B70
:105A40000446036000F0AAFC204610BD405D01083A
:105A500010B5034B0446036000F0A0FC204610BDC7
:105A6000585D010810B5034B0446036000F096FC36
:105A7000204610BD585D0108F0B5012185B00546EE
:105A800001F0B6FFA0F13006072E044625D81649CE
:105A9000684601F033FF2846694601F097FF074644
:105AA000684601F0E9FE0FB1B4B20EE00F49684656
:105AB00001F024FF2846694601F088FF0546684644
:105AC00001F0DAFE65B1263CA4B22046032101F0C4
:105AD0000DF8204601F0D6F804E04FF0FF3001E069
:105AE0006FF0010005B0F0BD50890108528901082E
:105AF000F0B5012185B0044601F07AFFA0F130062F
:105B0000072E49D8684621460322072301F072FF79
:105B10006846264901F030FF0546684601F0ACFEB4
:105B20007DB9684621460322062301F063FF6846DB
:105B30001F4901F021FF0746684601F09DFE0FB99D
:105B40002DE001251B49684601F0D8FE2046694634
:105B500001F03CFF0746684601F08EFE1FB1B6B269
:105B60003046002110E01449684601F0C7FE204687
:105B7000694601F02BFF0446684601F07DFE8CB1BA
:105B80000A36B6B23046394600F0B0FF30462946F4
:105B900001F032F8012007E04FF0FF3004E06FF031
:105BA000010001E06FF0020005B0F0BD548901086A
:105BB000598901085089010852890108F0B501216D
:105BC00085B0054601F014FFA0F13006072E04460B
:105BD00025D81649684601F091FE2846694601F02D
:105BE000F5FE0746684601F047FE0FB1B4B20EE07D
:105BF0000F49684601F082FE2846694601F0E6FE3C
:105C00000546684601F038FE65B1263CA4B2204640
:105C1000012100F06BFF204601F0F6F804E04FF0A0
:105C2000FF3001E06FF0010005B0F0BD50890108C0
:105C300052890108F0B5012189B0044601F0D8FE6F
:105C4000A0F13007072F06463ED8032268462146BA
:105C500001F0F6FE1F4904A801F050FE204604A9F9
:105C600001F0B4FE054604A801F006FE55B1BFB22E
:105C70000021384600F03AFF684601F0E8FEC1B264
:105C8000384617E0144904A801F038FE204604A95C
:105C900001F09CFE044604A801F0EEFD74B1263E1E
:105CA000B6B22946304600F021FF684601F0CFFE2B
:105CB000C1B2304601F040F9012401E06FF0010467
:105CC000684601F0D9FD01E04FF0FF34204609B0ED
:105CD000F0BD00BF508901085289010808B50B4882
:105CE0000B4900F04BFC0B480B4900F047FC0B48FC
:105CF0000B4900F043FC0B480B4900F03FFCBDE8AA
:105D000008400A484FF4165102F088BA5D8901082C
:105D1000795A000869890108F15A00087689010852
:105D2000BD5B000881890108355C00081016002061
:105D300010B58AB01F4C204604F066F838BB1E49E7
:105D40001E4801F0BFFC1E491A488A8904F02CF94C
:105D50000028F4D01B49194801F0B4FC69461548E5
:105D600003F028FF1849154801F097FC69461348CD
:105D700001F0A8FC69460F4803F000FF13490F48E3
:105D800001F08BFC69460D4801F09CFCD2E701F064
:105D90008DF9D4F8D83041F28732C01A904207D931
:105DA00001F084F90A49C4F8D800204604F006FA44
:105DB0000AB010BD700400208D8901081016002063
:105DC00000000020948901089F890108A689010824
:105DD000AE89010873B5134C002104F1DC06124DA5
:105DE0000B4600910A46304601F0EEFB2A460F4969
:105DF000304604F1E4060DF095FF304601F070FFE7
:105E00002A4630460A490DF08DFF3146204603F000
:105E100065FD084920462A4602B0BDE870400DF0F5
:105E200081BF00BF7004002054070020195A0008E9
:105E3000255A0008315A0008013101EB4202914213
:105E40000BD0030F092B94BF3033373301F8013CDB
:105E50000023000101F8023BF1E770471F4B10B52A
:105E60001A88032A04D804200146188007F0ACFEE3
:105E70004FF000604FF4A04107F0FAFD0124184BE9
:105E8000184821461C7008F0B3F806F099FE06F099
:105E90007FFB2146402008F06DF96FF07F4006F04F
:105EA000E9FCE72006F062FD0F4B1C7006F0BAFB20
:105EB0007D2008F083F918B10C4B1C7008F092F9A2
:105EC00040F6B83006F008FC07F05EF907F0D8FBA2
:105ED000074A01231370074A137010BD6017002092
:105EE0003C170020000430003C160020D820002081
:105EF000C4160020BA16002038B52F4C2388042B76
:105F000004D805210420218007F05EFE2B4D2B785C
:105F100013B12B4802F0C8FB2B7853B12388052B13
:105F200005D8254B06210420198007F04DFE02F00C
:105F30003FFC2B7863B1234B1B784BB9224B1B786A
:105F400033B1224B1B781BB9214B1B78002BE3D0BC
:105F5000204B1B78002BDFD11F4B1B78002BDBD194
:105F60001B4B1B78012B0FD01C4B6BB12388062BCE
:105F700005D8114B07210420198007F025FEFFF7F3
:105F8000ADFE134B01221A70154B002BC4D0238891
:105F9000072B05D8084B08210420198007F014FEB0
:105FA000FFF7C6FE2388082BB6D8034B092104202F
:105FB000198007F009FEAFE760170020C416002023
:105FC000F167000879160020BA1600203A16002062
:105FD000EC0500203B160020D8200020DD5C0008E6
:105FE000315D0008F8B5524B1A6812B11A68013ACF
:105FF0001A60504B504D1B783BB1504B1B78002B17
:1060000028D04F4B002B47D124E04E4C2368264626
:1060100013B12368013B0FE04B4B1B78D3B94B4BBB
:106020001B78BBB94A4B1B78A3B94A4F3B782BB1BD
:10603000E72006F00FFD142323600BE02B78002BE4
:106040002DD1E72006F0C0FC434B1B78002B34D049
:10605000322333602B7833B1404C23781BB92EE0C8
:106060005A6801325A603E4B1A68B2F57A7F0FD3F4
:1060700000221A6008F014F83A4B4FF6FF711A88A4
:106080008A4254D019800420BDE8F84007F09CBD36
:106090001A6801321A60F8BD00F0F4FBDAE7324BFF
:1060A0001B78002BCDD04FF6FF7006F0E3FBE72006
:1060B00006F05CFC01233B70CCE76423C9E7234B6B
:1060C0001B788BB1294B47F22F5259689142C7D99F
:1060D000BFF34F8F264A274BD16801F4E0610B4391
:1060E000D360BFF34F8FFEE7174D2B7803F0FF0609
:1060F00033B9304606F0C4FD40F6B73398420DD8A8
:10610000002006F0BDFD41F657339842ABD9002080
:1061100006F0BEFD184B01221A70A4E7304606F0C7
:10612000B7FD2378002B9ED101232B709BE7F8BD90
:10613000E02000201C170020C41600208809002041
:1061400085680008DC2000206A1600203B1600202D
:106150003D1600203C16002039160020791600203C
:10616000E4200020601700203A160020EC050020F3
:1061700000ED00E00400FA056816002008B5094BA0
:10618000186006F0A7FF002006F0F0FF064806F0B2
:1061900023FA06F0B7FF06F0D5FFBDE8084008F087
:1061A00007BF00BFC4020020A0860100074B1B6888
:1061B000052B08D1064B1A7A012A04D1987A1B7B49
:1061C000C01AC0B270470020704700BF641700209B
:1061D000EC0500200D4B10B51B68052B13D10C4CA2
:1061E000237A012B0FD16289A389D31A012B04D101
:1061F00000230320237209F032F8A3895A1CA281DC
:106200001C44A07B10BD4FF0FF3010BD6417002070
:10621000EC05002008B50C4B1B68052B12D10B4B6D
:106220001A6D99180132B2F5807F08BF002281F8FB
:1062300054001A6506F01CFE20B16420BDE8084039
:1062400006F0CAB908BD00BF64170020EC050020A5
:10625000F8B5234B93F85421012A3FD0D3F85821A5
:10626000196DB2F5807F04BF0022C3F85821D3F81E
:1062700058411B4A8C4203D1002382F85431F8BDA7
:106280008CBFC4F58071C4EB0101C2F85C11D3F876
:106290005C61134D402EA2B207D94034403EC5F890
:1062A0005841C5F85C61402706E034440021B7B28C
:1062B000C5F85841C5F85C110A4801241044C021B2
:1062C0003A4683F8544108F045FF2046394609F024
:1062D00049F82046BDE8F84008F0AEBFF8BD00BF61
:1062E000EC05002040060020094B10B593E814008F
:1062F00008331B68D0180AD006490822FFF79CFD16
:10630000204605490422BDE81040FFF795BD10BDA9
:10631000E8F7FF1F730200208302002013B5084C2A
:10632000002100910A460B46204601F04DF905492F
:10633000054A204602B0BDE810400DF0F3BC00BF96
:106340004C070020195A00085407002038B50446AD
:106350000D46AC4203D254F8043B9847F9E738BDE8
:1063600008B507480749FFF7F1FF07480749FFF756
:10637000EDFFBDE8084006480649FFF7E7BF00BF4C
:10638000849001088490010884900108E890010835
:10639000E8900108E89001080DF014BD0DF01ABD59
:1063A0000DF018BD08B5072007F08EFAFEE70000D3
:1063B000074A08B5136818441060064A904204D989
:1063C000082007F081FA0DF0DBFC184608BD00BF7D
:1063D00010000020004800204FF0FF3070470120DF
:1063E000704708B50C2007F06FFAFEE7014B1868FC
:1063F000704700BF58070020064B0246582000FB9C
:10640000013101F1080303CB1060516018689060FE
:10641000704700BF58070020014BD3F86401704754
:1064200058070020064B0246142000FB013101F5FD
:10643000B67303CB1060516018689060704700BF5E
:106440005807002038B50546064C28B106F0B4FAC6
:10645000012384F8303238BD06F05CFA84F83052FB
:1064600038BD00BF580700200E4B2DE9F041D3F88E
:10647000647180460024BC4211DA14256543094E3C
:10648000414606F5B67028440C220DF034FE20B9C2
:106490003544D5F86801BDE8F0810134EBE7002010
:1064A000BDE8F08158070020044B01221A70044B0C
:1064B00000224FF4C0201A6006F0DCBE3B1600201C
:1064C000F0050020034A00231370034A136006F00E
:1064D0002FBF00BF3B160020F0050020024B00221A
:1064E0001A6006F0EFBE00BFF00500202DE9F0476E
:1064F00088B0804668460D4601F000FA1E4B002425
:10650000D3F800A054452DDA55B3582666431A4FE8
:10651000414607F1080030440C2207F104090DF050
:10652000EAFDE8B928460DF0DEFD06F1100340282B
:1065300034BF02464022294609EB03000DF061FCFE
:106540003E44012386F85830694604A8746801F077
:10655000F7F904A8A047044604A801F08DF903E068
:106560000134CFE74FF0FF34684601F085F920464B
:1065700008B0BDE8F08700BF580700202DE9F84FAC
:106580000446894600293DD000283BD01E4D2E6888
:10659000042E37D005F108074FF0000805F1040A72
:1065A000B0450DDA57F8043C4B4505D13846214635
:1065B0000C220DF0A0FD28B308F101085837EFE7D1
:1065C0004FF0580808FB06F805EB080708F1100023
:1065D00000214022C7F8049050440DF036FC0AEB2D
:1065E0000800002104300C220DF02FFC20686168A7
:1065F00007F1080303C3A06801361860002387F879
:1066000058302E60BDE8F88F5807002010B5064CB2
:10661000206804F0CDFA2368013303D0431E5842AA
:10662000584110BD012010BD1400002038B50B4B9F
:1066300005461B780C466BB9094B1B7853B9FFF71D
:10664000E5FF034630B9074A29461068224605F09F
:106650006DFA38BD4FF0FF3038BD00BF781600200E
:1066600079160020140000202DE9F041264B86B059
:106670001B7880460F46002B41D1244B1B78002B02
:106680003DD1FFF7C3FF0446002838D1204D8DF8D7
:106690000C008DF80D008DF80E008DF80F002868A5
:1066A00006AA460902EB8606012100F01F0291406E
:1066B00056F80C2C01300A4346F80C2C41F2883273
:1066C000059204AA009203A922462346049405F0E9
:1066D0000FF9002815DD2B6806AA590902EB810184
:1066E00051F80C5C03F01F02154115F0010008D0B1
:1066F000184641463A46234605F09AF901E04FF024
:10670000FF3006B0BDE8F081781600207916002031
:106710001400002030B51F48ADF57B7D08F08BFEDE
:10672000002834D11C4B17A805931C4B61AD069370
:106730001B4B049007931B4B0EAC08931A4B03950D
:1067400009931A4B0A931A4B0B931A4B0C931A4B3F
:106750000D931A4B0E931A4B0F931A4B10931A4B1F
:1067600011931A4B12931A4B13931A4B14931A4BFF
:1067700015931A4B169306F021FE284606F024FEC8
:1067800000940448164903AA05AB08F05BFE0DF51A
:106790007B7D30BD8C0900202D66000869660008ED
:1067A000A9640008C5640008F9D30008DD64000886
:1067B00045640008AD700008617E0008ED630008C4
:1067C000F9630008ED6400081964000825640008F6
:1067D000916A000869640008D5D30008E9D300086D
:1067E000E8F7FF1F014809F061BD00BF8C090020D8
:1067F00030B502208DB00146112204F0BBFF051E0A
:1068000028DB07A8144908F06DFF0223ADF80C300F
:1068100016238DF80E3033238DF80F30E0238DF8DA
:10682000103000238DF8113001238DF81230BB2376
:106830008DF81330032403AB0093102301932846F3
:1068400007A91322002305F07BF9013CF3D1284668
:1068500004F0C0FF0DB030BDE8F7FF1F38B5084C9D
:10686000FFF758FF204608F0E9FD204609F0C3F97C
:106870000546FFF7BDFF204609F02CF9284638BD34
:106880008C09002038B5114CD4F8585B2DB1D4F8E0
:10689000583B013BC4F8583B38BDD4F85C3B0C4A2C
:1068A00052F8230006F00EF8E72006F05FF86423A4
:1068B000084AC4F8583BD4F85C3B52680133934211
:1068C000C4F85C3BA8BFC4F85C5B38BD5807002027
:1068D000E85C0108140000207FB502200121062297
:1068E00004F048FF041E24DB0223ADF8003000232F
:1068F0008DF8023035238DF803304FF4FA50082319
:106900008DF804308DF805308DF806308DF807309D
:1069100001F0C2FE694610220546204604F0BAFF87
:106920000646284601F0B8FE204604F053FF3046E4
:1069300001E04FF0FF3004B070BD000010B5064C10
:106940002068002805DB04F045FF4FF0FF3323608B
:1069500010BD002010BD00BF14000020F0B5A7B08E
:10696000FFF7ECFF02200121062204F003FF324F63
:106970000028386050DB314D0223A5F8603B162318
:1069800085F8623B05A8332385F8633B06F0E2FCFB
:10699000002300939DF814303BB1012B17D0284BF6
:1069A00001AC03F1100E224602E0069B009313E0B7
:1069B00018685968264603C6083373453446F7D12C
:1069C0000FCA06AC07C424F8023B1B0C23700A2430
:1069D000009B0BB9013C22D1009B0BB9194B0093D2
:1069E000009B4FF4FA501A0E85F8642B1A0C85F8A8
:1069F000652B1A0A85F8673B85F8662B01F04CFE7B
:106A0000114904461022386804F044FF0546204628
:106A100001F042FE28460CE04FF0FF3009E006A8E6
:106A20007E210DF090FB6A4681B206A804F0F8FEC4
:106A3000CEE727B0F0BD00BF1400002058070020AB
:106A4000D189010804E5D036B81200200F4B2DE99A
:106A5000F041D3F8647180460024BC4211DA142559
:106A600065430A4E414606F5B67028440C220DF0E7
:106A700042FB20B9354495F87801BDE8F081013436
:106A8000EBE74FF0FF30BDE8F08100BF5807002072
:106A900008B5FFF7DBFF013808289DBF024BC0187F
:106AA000007F022008BD00BFE85C010804F0F2BED0
:106AB00037B50B4C002104F537650B4600910A46AB
:106AC000284600F081FD28460649074A0DF02AF9BC
:106AD00004F50D7003B0BDE8304008F097BC00BF6E
:106AE00058070020195A00085407002014282DE9DF
:106AF000F34104460E4675D8FF2973D000F084FE9A
:106B000018B1A4F10D03022B6CD900F0F1FC08B10F
:106B1000012C67D901F02AFB18B1A4F11203012B53
:106B200060D918236343314DEA18EF58304BB2F85F
:106B300004809F4201D1042003E02E4B9F4203D1E9
:106B40000820012107F022FBADF80480062E45D86D
:106B5000DFE806F0040F171F27313C0010238DF8E3
:106B6000073003238DF80630182303FB0454002359
:106B700033E004238DF80730182303FB045401236A
:106B80002BE048238DF80730182303FB045402231D
:106B900023E028238DF80730182303FB0454032334
:106BA0001BE0182303228DF8073003FB04548DF8F3
:106BB0000620042311E01C238DF8073003238DF8F1
:106BC0000630182303FB0454052306E000238DF848
:106BD0000730182303FB04540623A373384601A986
:106BE00007F0A8F902B0BDE8F08100BF1C0000204A
:106BF00000080140000C0140142870B504460E4600
:106C00003CD81F4D182303FB00539B7B5A1E022ABE
:106C100034D9062B32D0FF2B30D000F0F5FD20B157
:106C2000A4F10D03022B00D870BD00F061FC10B17F
:106C3000012C00D870BD01F099FA20B1A4F1120323
:106C4000012B00D870BD182303FB04539B7B042B3E
:106C500003D120460021FFF749FF012E06D118235A
:106C60005C432A192B5992881A6170BD36B91823D2
:106C70005C432A192B5992885A6170BD70BD00BFC0
:106C80001C000020142838B5044615D81D4D1823C3
:106C900003FB00539B7BFF2B0ED0043B012B0BD936
:106CA00000F0B2FD18B1A4F10D03022B04D900F0DD
:106CB0001FFC18B1012C01D8002038BD01F056FA94
:106CC00018B1A4F11203012BF6D9182303FB0453C6
:106CD0009B7B062B07D10B4B93F8F811FF29EBD0C8
:106CE0002046FFF703FF182254432544054BAA7B97
:106CF000A988185912B907F071F938BD07F068F979
:106D000038BD00BF1C000020F0B54FF4004091B02A
:106D100007F008FA0120014607F02CFA01214FF490
:106D2000C06007F033FA334806F072FF324B00249C
:106D30000593324B2F4806930A23089380230A9326
:106D40004FF400730B934FF400630C9305A94FF4B9
:106D500000530E9301254FF400274FF4602607944B
:106D600009940D940F9406F0CBFF254869460097CF
:106D70008DF804408DF80540029603948DF810506C
:106D800006F080FE1F48694600978DF804408DF894
:106D90000540029603948DF8105006F073FE1848D3
:106DA000294606F093FE164806F0A2FE144806F0A7
:106DB000A4FE0028FAD1124806F0A3FE104806F0FF
:106DC000A5FE0028FAD10F48012106F07FFE0D48EC
:106DD00006F08EFE0B4806F090FE0028FAD1094816
:106DE00006F08FFE074806F091FE0028FAD111B098
:106DF000F0BD00BF080002404C240140D412002026
:106E00000024014000280140092870B504469CBFB9
:106E100000F10A04A4B200F0F7FC28B1A4F10D03BC
:106E2000022B01D8002070BD00F062FB01F09EF93A
:106E300018B1A4F11203012BF4D9142CF2D8394D56
:106E4000182303FB04539A79FF2AEBD095F8FA1123
:106E5000914206D09B7B2046062185F8F831FFF74A
:106E600045FE95F8FB31012B05D1FFF74DFF2D4B6A
:106E7000002283F8FB21182303FB045495F8FA3110
:106E8000A179284E8B420FD02748012296F8F9317C
:106E900006F049FE96F8F9312448A179012206F05E
:106EA00042FEA37986F8FA310021214C002344F8F0
:106EB000213001310A29F8D11E4806F052FF1B4843
:106EC000012106F078FE1B48012106F037FF164825
:106ED000012106F004FE1448012106F01BFE0220E9
:106EE00006F042FF0028FAD0022006F04BFF0E48C1
:106EF000002106F0F4FD0F48002106F01FFF0023DB
:106F00001A4654F8230054F82310013389B201EBD8
:106F100010410A2B0A44F4D11420B2FBF0F290B2D3
:106F200070BD00BF1C00002000240140002801406B
:106F3000D4120020080002402DE9F043142889B043
:106F400005460E4600F2A480534F182303FB00733E
:106F50009B68002B00F09C8000F056FC20B1A5F14E
:106F60000D03022B40F2948000F0C2FA10B1012D03
:106F700040F28E8001F0FAF820B1A5F11203012B46
:106F800040F28680182404FB0574A37B13F0FB0FEA
:106F90007ED1424B4BF6803808FB06F81A68404B0E
:106FA0000120B2FBF3F90146FF2398FBF3F807F049
:106FB000EDF828460421FFF799FDA36809F1FF3990
:106FC000B3F1804F1FFA89F91FFA88F802D1012026
:106FD000014609E0334A934208BF022003D0324AF7
:106FE000934203D10420012107F0DCF8182404FBAC
:106FF000057400264BF67F33A06801A9ADF8083070
:10700000ADF80A60ADF80660ADF8049007F0B4F989
:107010006023ADF81860A689ADF810300123ADF8F3
:107020001230ADF8168046B9A06804A907F0EEF951
:10703000A068082107F02AFB1FE0042E08D1A068F1
:1070400004A907F027FAA068082107F027FB14E03D
:10705000082E08D1A06804A907F060FAA06831469C
:1070600007F026FB09E00C2E07D1A06804A907F061
:1070700097FAA068082107F023FB182303FB057586
:107080000121A86807F0F6FAA868012107F0CFFAF5
:1070900009B0BDE8F08300BF1C000020B803002049
:1070A00000366E01000400400008004006F0DEB922
:1070B00013B5084C002100910A460B46204600F00B
:1070C00083FA0549054A204602B0BDE810400CF09D
:1070D00029BE00BFFC120020195A000854070020E6
:1070E00038B5184B05461C8803F580631B88A4B28D
:1070F0009BB22BB94EF6EE62A21A18BF012205E030
:10710000F4B94EF6EE629B1A5A425A4192020E4B65
:1071100002F1006404F5804413449C420ED22268BC
:10712000013209D1204606F0E9FE042809D1A01C4D
:10713000294606F0E3FE38BD0434EEE7802038BD72
:10714000AB2038BD00400008FE43000808B50848E1
:1071500006F0B6FE04280AD10548002106F0CEFE4E
:10716000042804D1BDE80840024806F0A9BE08BDC5
:107170000040000800440008104B10B51C8803F5BF
:1071800080631B88A4B29BB21CB10BB1AB2010BDB5
:1071900001240B4BA40223440A4A224493420AD9F5
:1071A0001A8892B2824204D133F8023C00200B804C
:1071B00010BD043BF0E7012010BD00BF00400008F7
:1071C000FE43000802400008F8B5444E06F038FEC1
:1071D000434D34884EF6EE61A4B22B888C429BB2AC
:1071E0004FF6FF7210D0944202D0002C73D142E0CF
:1071F0000BB930466CE08B426DD1304606F060FE34
:1072000004286AD1284632E04BBB1C461646354B53
:10721000354A1B8832F814509BB2AB4208BFA6B265
:1072200033B29C4203D10134642CF0D10FE02E4FD5
:10723000284607F1C801FFF79FFF0128F3D0284631
:10724000B7F8C810FFF74CFF0428ECD0F8BD23486E
:10725000002106F053FE04283FD1214838E0934234
:1072600039D1284606F02CFE042836D130460021BC
:1072700006F044FEF8BD73B3934201D1284627E0DF
:1072800016461A4B184A1B8832F814509BB2AB4270
:1072900008BFA6B233B29C4203D10134642CF0D1B2
:1072A0000FE0114F284607F1C801FFF765FF0128DD
:1072B000F3D02846B7F8C810FFF712FF0428ECD027
:1072C000F8BD0748002106F019FE042805D103483F
:1072D00006F0F6FDF8BDFFF739FFF8BD00400008E5
:1072E000004400080640000804130020064400087B
:1072F0002DE9F84306460C4606F0A2FD304621462D
:10730000FFF7EEFE802840D1214B224819880288E1
:1073100089B292B221B1002A36D11D46814601E0E0
:107320000546994628464EF6EE6106F0E7FD04282C
:107330002BD130462146FFF7D3FE042825D1002467
:10734000154F34F80780B04503D10234C82CF7D16B
:107350000FE0404607F1C801FFF70EFF0128F4D007
:107360004046B7F8C810FFF7BBFE0428EDD0BDE8D3
:10737000F883484606F0A4FD042806D128460021DB
:1073800006F0BCFDBDE8F883AB20BDE8F88300BF84
:1073900000400008004400080413002010B5044613
:1073A000FFF712FF0023044A22F813300133642B45
:1073B000F9D1204610BD00BF04130020632907B592
:1073C00007DC074B33F811000DF10601FFF7D4FE7F
:1073D00008B1FF2001E09DF8060003B05DF804FB52
:1073E0000413002063290B4605DC034931F8130020
:1073F0001146FFF77DBF7047041300200148FFF7D7
:10740000CDBF00BFCE130020024B18785B78C01AA6
:10741000704700BFD0130020064B5A78197891426C
:1074200004D99918013288785A7070474FF0FF30AC
:10743000704700BFD0130020044B5A78197891424E
:1074400086BF9B1898784FF0FF307047D01300200C
:1074500070470000014B0360704700BF585D010892
:1074600010B5034B04460360FEF798FF204610BD9D
:10747000585D0108F8B5094B054693F822301646C9
:1074800053B10C468F18BC4206D02B6828469B6827
:1074900014F8011B9847F6E73046F8BDD0130020DA
:1074A00010B50C4B012293F822408CB193F8234085
:1074B0001F2C02D94260002010BD93F824001C1834
:1074C00084F82510411CC9B283F8241083F82310D6
:1074D000104610BDD0130020002242604FF47A7293
:1074E0008260014A02607047185D0108704770476A
:1074F000014B93F859007047D013002073B50E4C20
:10750000002104F164050D4E0B4600910A46284601
:1075100000F05AF86C343246094928460CF002FC57
:107520002046FFF7D9FF07492046324602B0BDE8A2
:1075300070400CF0F7BB00BFD013002054070020B0
:10754000195A00085574000808B5034B53F8203049
:1075500003B1984708BD00BF4C14002013B5084C78
:10756000002100910A460B46204600F02DF80549FF
:10757000054A204602B0BDE810400CF0D3BB00BF66
:107580008C140020195A0008540700202DE9F041FE
:10759000002407460E4625463B1919790A22304633
:1075A00000F0F6F82E218046304600F07AF80134DB
:1075B0004044032C0544EFD13046F9790A2200F00B
:1075C000E7F82844BDE8F08130B58371034D9DF89C
:1075D0000C30056001714271C37130BD405D01081E
:1075E0000548064B06490360064A002303714371B0
:1075F0008371C3710CF096BB94140020405D0108A8
:10760000195A00085407002013B5084C00210091B6
:107610000A460B462046FFF7D7FF0549054A204694
:1076200002B0BDE810400CF07DBB00BF9C140020F0
:10763000195A000854070020014B0360704700BF2F
:10764000585D0108F8B506460C468F180025BC4267
:1076500007D0336830469B6814F8011B98470544EF
:10766000F5E72846F8BD000010B5034B044603605B
:10767000FEF794FE204610BD585D010838B505465A
:107680000C46084641B10CF02EFD2B680246DB6823
:1076900028462146984738BD38BD08B5FFF7EEFFAC
:1076A00008BD08B503689B68984708BD38B50D212B
:1076B0000546FFF7F6FF0A2104462846FFF7F1FFCB
:1076C000204438BD38B50446FFF7D8FF05462046AC
:1076D000FFF7ECFF284438BD38B50446FFF7E1FF5B
:1076E00005462046FFF7E2FF284438BD30B50023A9
:1076F0008BB08DF82430012A98BF0A220DF12304A3
:10770000B1FBF2F303FB1211CDB2092D94BF30355A
:107710003735EDB2214604F801590BB11946EFE7B0
:10772000FFF7ACFF0BB030BDF8B506460D4614466A
:1077300022B90368C9B29B689847F8BD0A2A0CD1E0
:1077400000290BDA2D21FFF7ACFF694207462246DC
:107750003046FFF7CBFF3844F8BDD2B2BDE8F84061
:10776000FFF7C4BF38B50446FFF7DEFF05462046E5
:10777000FFF79CFF284438BD10B522B90268C9B292
:107780009268904710BDD2B2BDE81040FFF7AEBF7F
:10779000FFF7F2BF38B50446FFF7EEFF0546204677
:1077A000FFF784FF284438BD13B5084C0021009131
:1077B0000A460B462046FFF707FF0549054A2046C3
:1077C00002B0BDE810400CF0ADBA00BFAC14002010
:1077D000195A00085407002013B5084C00210091E5
:1077E0000A460B462046FFF7EFFE0549054A2046AC
:1077F00002B0BDE810400CF095BA00BFB4140020F0
:10780000195A000854070020014B587D704700BFEB
:10781000BC1400207047000013B5084C00210091F3
:107820000A460B462046FFF7CFFE0549054A20468B
:1078300002B0BDE810400CF075BA00BFD4140020AF
:10784000195A00085407002013B5084C0021009174
:107850000A460B462046FFF7B7FE0549054A204673
:1078600002B0BDE810400CF05DBA00BFE01400208B
:10787000195A00085407002010B5044600680CF09F
:10788000A9FA204610BD10B50446006808B10CF0F6
:10789000A1FA00232360A360636010BD38B50446DD
:1078A0000D46006801310CF0ABFB10B184E82100FB
:1078B000012038BD036810B5044613B143688B42FC
:1078C00007D22046FFF7EAFF20B1A3680BB9226870
:1078D0001370012010BD70B50E46114604461546C2
:1078E000FFF7E8FF18B92046FFF7CDFF04E0A560D9
:1078F000206831460CF0EFFB204670BD38B5002300
:10790000044603604360836003730D4639B1084643
:107910000CF0E9FB294602462046FFF7DCFF204633
:1079200038BD884210B50B46044607D0096819B126
:107930009A68FFF7D0FF01E0FFF7A5FF204610BDD2
:1079400010B5002304460360436083600373FFF7B0
:10795000E8FF204610BD38B505460C4641B1084643
:107960000CF0C1FB214602462846FFF7B4FF01E0B8
:10797000FFF789FF284638BD826808B50B4612B963
:1079800019B9012008BD11B90368187802E0006830
:10799000FDF7BEFBD0F1010038BF002008BD10B5D7
:1079A0008B688468E41AA2420CD8006868B1096840
:1079B00051B110441A460CF09EFBD0F1010038BFC3
:1079C000002010BD002010BD084610BD82688B68E5
:1079D0009A4202D30022FFF7E2BF0020704783687B
:1079E000994203D2006810B1405C70470020704794
:1079F000FFF7F5BF9A422DE9F04107460D461446C0
:107A00001E4601D93446164638460C49FFF776FF24
:107A1000AB689C420FD89E4228BF1E462B680022AE
:107A200013F806809A55296838462144FFF793FFDA
:107A30002B6803F806803846BDE8F081988B010872
:107A400010B58B680446FFF7D5FF204610BD0068CF
:107A500008B10CF09CB9704713B5026802AB03F88B
:107A6000011DD46819460122A04702B010BD10B50F
:107A7000B0F89620B0F8943004469A4207D0B4F893
:107A800094305A1CA4F894201C44207D10BD036837
:107A90001B6998470028F2D14FF0FF3010BD10B598
:107AA000B0F89620B0F8943004469A4204D0B4F866
:107AB00094301C44207D10BD03681B699847002842
:107AC000F5D14FF0FF3010BD0023A0F89430A0F89E
:107AD00096307047F8B51746B0F89430B0F8962055
:107AE00004469A420E4606D103681B69984710B9AE
:107AF0004FF0FF3512E0B4F89430B4F89650E11826
:107B0000ED1ABD4228BF3D46304614312A460CF0DE
:107B100078F9B4F894302B44A4F894302846F8BD92
:107B200010B504460069082801D003F053FE08236D
:107B3000236110BD30B5B0F8963087B0044633B13C
:107B4000B0F894209A4202D10368DB69984700F0AC
:107B50008FFB022823D12069082820D0B4F8963062
:107B60007F2B1CD8430906AA02EB8303012100F0F6
:107B70001F0291400025039553F80C2C01300A4355
:107B800043F80C2C41F28833059304AB009303A90E
:107B90002A462B46049503F0ABFEA84206DCB4F857
:107BA0009600B4F89430C01A07B030BD206906AB17
:107BB000420903EB820252F80C2C00F01F0342FA38
:107BC00003F3DB07EBD5B4F896202B46A11814314C
:107BD000C2F1800203F02CFF0028E0DDB4F89630FB
:107BE0000BB9A4F894300344A4F89630D7E700000A
:107BF0002DE9F04188B006460F46904600F038FB6C
:107C000002284FF0000422D108AD384645F8144D43
:107C10000CF069FA2A4681B2384603F001FEA04210
:107C200015DD039B04A8DAB20092190EC3F30742D4
:107C3000C3F30723FFF7C8FC336830461C6A064BC2
:107C400006A90693059B42460793A04700E02046FD
:107C500008B0BDE8F08100BF405D0108F0B585B017
:107C600004460D46164600F003FB0228074634D1B1
:107C70000121062203F07EFD002820612DDB236810
:107C80002046DB699847330A8DF802302B794FF490
:107C9000FA508DF804306B798DF803608DF805305B
:107CA000AB79ADF800708DF80630EB798DF80730C0
:107CB00000F0F2FC6946054610222069FEF7F6FE48
:107CC0000646284600F0E8FC002E04DA2368204629
:107CD000DB6A984701E0012000E0002005B0F0BD1C
:107CE0004FF47A71816005490022016008214260E9
:107CF0000161A0F89420A0F896207047705D0108FB
:107D0000036910B5082B044601D1002010BD00F016
:107D1000AFFA0228F9D1206902F04AFFD0F1010040
:107D200038BF002010BD70B504460E461546FFF75B
:107D3000E7FF30B1206931462A46002303F0F6FE02
:107D400070BD4FF0FF3070BD70B50446FFF7D8FF2F
:107D5000012819D0B4F89620B4F894309A4212D180
:107D60002069082803D002F023FF012801D0002059
:107D700070BD236820461B69984720B923682046B8
:107D8000DB6A9847F3E7012070BD08B5FFF7B8FF3D
:107D9000003018BF012008BD13B5084C0021009128
:107DA0000A460B462046FFF70FFC0549054A2046C8
:107DB00002B0BDE810400BF0B5BF00BFE8140020D2
:107DC000195A00085407002013B5084C00210091EF
:107DD0000A460B462046FFF7F7FB0549054A2046B1
:107DE00002B0BDE810400BF09DBF00BFF0140020B2
:107DF000195A00085407002038B5184C94F92C3053
:107E00005BB394F82D3043B306F014FA94F82C20A9
:107E100094F82D5051B2002995FBF1F106DD0129AE
:107E20000BDC013A84F82C20002307E0013104DB4D
:107E3000013284F82C20022300E0012394F82D2045
:107E4000013A84F82D20C41806F026FA204606F0E0
:107E500003FABDE8384006F01FBA38BDF814002018
:107E600010B5044606F0E6F9001B00F17F02FE2A79
:107E700008D906F011FA204606F0EEF9BDE81040E8
:107E800006F00ABA054A80EAE073A3EBE0735B00F0
:107E900082F82C0082F82D3010BD00BFF8140020AD
:107EA00013B5084C002100910A460B462046FFF707
:107EB0008BFB0549054A204602B0BDE810400BF097
:107EC00031BF00BF28150020195A000854070020B0
:107ED00013B5084C002100910A460B462046FFF7D7
:107EE00073FB0549054A204602B0BDE810400BF07F
:107EF00019BF00BF34150020195A0008540700208C
:107F000013B5084C002100910A460B462046FFF7A6
:107F10005BFB0549054A204602B0BDE810400BF066
:107F200001BF00BF3C150020195A0008540700206B
:107F3000014B0360704700BF585D0108426D836DBF
:107F4000D01A00F03F007047426D836D9A421DBF0A
:107F5000836DC018007D4FF0FF307047426D836D18
:107F60009A4209D0836D826D03441B7D013202F079
:107F70003F028265184670474FF0FF30704700009F
:107F800010B5034B04460360FEF708FA204610BD07
:107F9000585D010810B50446D4F89C20D4F8A030F0
:107FA0009A42F9D1237C13B90023237410BDD4F86D
:107FB000A4304021186806F0BCFB0028F4D1F1E79A
:107FC000D0F8A43070B504460E46186840F2277108
:107FD00006F0B5FB28B9D4F89C20D4F8A0309A421A
:107FE00015D1D4F89C50013505F03F05D4F8A030E8
:107FF0009D42D4F8A43013D0EFF31082D20742D5BB
:10800000D4F89C10D4F8A020914209D13BE0D4F8D8
:10801000A43040F227711868012206F06AFBE0E7FD
:10802000186840F2277106F08AFB0028DED0D4F8E9
:10803000A4308021186806F07CFB0028D6D0D4F844
:10804000A43040F227711868002206F052FBD4F8E1
:10805000A4301868D4F8A0305A1C2344C4F8A020D7
:1080600093F85C1006F05DFBD4F8A03040F2277165
:1080700003F03F03C4F8A030D4F8A43001221868FC
:1080800006F037FBB2E7D4F89C2040F22771224477
:1080900082F85C60C4F89C500125186825742A4653
:1080A00006F027FB284670BD10B540F22551044666
:1080B000006806F044FB70B1206806F036FBE36907
:1080C000C0B21A6C596C013202F03F028A4202D0EF
:1080D000196C58541A64206840F2277106F02FFB7F
:1080E000B8B1A3692068196C5A6C914206D1BDE8F9
:1080F000104040F22771002206F0FBBA5A6C511C66
:108100005964995C06F00DFBA3695A6C02F03F02BA
:108110005A6410BDF8B54FF47A7383600C4B044673
:10812000002503604560C0F8A41004F15C074826F0
:1081300014308F613246C86129460BF086FE3846FE
:10814000294632460BF081FE25742046F8BD00BF5B
:10815000B05D01080148FFF7A7BF00BF180200206B
:108160000148FFF7A1BF00BF38020020014B187C77
:10817000704700BF4415002073B50E4C002104F178
:1081800014050D4E0B4600910A462846FFF71CFACF
:108190001C343246284609490BF0C4FD20460849E4
:1081A000FFF7B8FF07492046324602B0BDE87040ED
:1081B0000BF0B8BD4415002054070020195A0008E0
:1081C00018020020317F000870474FF0FF307047E1
:1081D000014B0360704700BF585D010810B5034BA9
:1081E00004460360FEF7DAF8204610BD585D01082A
:1081F000FDF7F0BF08B5FDF7D9FF08BD08B5084683
:10820000FEF708F8012008BD002242604FF47A72A0
:108210008260014A02607047D85D01080846FDF798
:10822000ADBF000037B50D4C00210D4D0B46009140
:108230000A462046FFF7C8F92A460A49204608346C
:108240000BF070FD2046FFF7DFFF074920462A4666
:1082500003B0BDE830400BF065BD00BF081600203C
:1082600054070020195A0008D18100087047000007
:10827000054B1B7803F0FF002BB1044B1B78002B40
:1082800014BF022001207047691600203816002014
:1082900037B50B4C00210B4D0B4600910A4620468A
:1082A000FFF792F92A46204607490BF03BFD0749A4
:1082B00004F108002A4603B0BDE830400BF032BD9F
:1082C0002016002054070020195A00086D8200086B
:1082D0000023036018467047002303601846704768
:1082E00000230360184670472DE9F0410B7890B0E9
:1082F00004460D4616462BB1032A54D8DFE802F097
:1083000002113C3C20460BF0EEFE01230246002009
:10831000009301900290039004900590214603463B
:108320003DE008460BF0DFFE00264FEA50088DF8CE
:108330001E60464505F1020508AF0FD015F8023C56
:1083400007A88DF81C3015F8013C002110228DF88B
:108350001D300CF027F8B8550136EAE720460BF03F
:10836000C2FE0023024601208DE8410002930393E0
:1083700004970593214612E00BF0B5FE0746284608
:108380000BF0B1FE012118221E234FF0020E8DE8E2
:108390000E4005900495304621463A46002303F0EE
:1083A00007FD044B1870034B01225A7010B0BDE852
:1083B000F08100BF2C160020034610B548F21004CF
:1083C000A34208464CD00DDC48F20102934224D06F
:1083D00048F2020293422AD0992B64D1324B0122F7
:1083E0009A7410BD48F28004A3420FD0B3F5084F31
:1083F00049D048F24000834255D12B4C04F114007F
:108400000BF0FFFCA36A0133A36210BD264B0122CF
:108410009A70DA7000221A7110BD234C0123637127
:10842000FEF744FE00F5EA403030A06010BD1E4C5F
:10843000637963B1FEF73AFE00F5EA403030A060A0
:108440004FF47F4004F016FAE72004F08FFA00237F
:10845000637123736373A373E3732374637410BD35
:108460000A7D114B62B99A604FF47F4001221A7362
:108470001A7404F0FFF9BDE81040E72004F076BA62
:1084800000221A7310BD002101F08FFF0121044664
:1084900001F0D2FF054B1B689C4204D1024B002225
:1084A000DA739A735A7310BD2C1600201400002042
:1084B0001FB54FF461504FF461610A2200238DE82B
:1084C0000F00064B44F620621A60684601A902AA12
:1084D00003AB02F073FC05B05DF804FB1817002035
:1084E0001FB50023009301930293039301A86946EB
:1084F00002AA03AB02F028FC05B05DF804FB000003
:1085000070B500210A4C0E2002F02AFD1025102122
:108510000E2002F025FD2A46204600210BF095FC96
:10852000294623460E200022BDE8704002F0CCBC54
:108530005816002030B5524D00249FB0FF20AC707B
:10854000EC706C706C712C73AC746C73AC73EC73FA
:108550002C7404F08FF9E72004F008FA2146224633
:10856000204603F001FC2B46012103F82D4F0E207D
:108570000A4602F0A9FC6B79012B05D1642004F0B6
:1085800023F802F079F8F6E710210C2002F0E8FC5D
:108590003C4803F0ABF83C4803F05AFD012003F0DF
:1085A0003BFD6846394900F0F1FDAB786A78344C00
:1085B0001A4317D194F83C30002B57D0FF2003F01A
:1085C000DDFC002852D11A24013C06D0E72004F03B
:1085D000FBF9322003F0F8FFF6E7FFF791FF85F88B
:1085E0003C40E2E7E72004F0C1F904F12C030E203F
:1085F0000121002202F03AFCA37813B103F048FDF8
:1086000020702B780121013385F82C300022204B7B
:108610000E2002F059FC002001240146012203F043
:10862000A3FB214622461B4B0E2085F82D4002F06D
:108630004BFC03F01DFB642003F0C6FF002003F099
:10864000E1FA85F83D404FF47F4000242C7404F09B
:1086500011F9E72004F08AF948F2042003F0AAFC9B
:10866000FFF726FF85F83E401FB030BDE72004F03D
:10867000ABF9FA2003F0A8FF684600F0E3FD94E7A9
:108680002C160020F85D010858020020E98200083D
:108690005816002059160020024B1A681860104620
:1086A000704700BF181700207FB5364C00252064A6
:1086B00004F040FC04F080FB334B344A0093344B0D
:1086C00034490193344B35480293354B0393354B72
:1086D00003F080FA642003F077FF002003F092FAA1
:1086E000012348F2042084F83D30257403F062FC35
:1086F0002D4B1A881E46012A31D00E2010212A4601
:1087000004F12C0302F0B2FB102828D123791D4D6F
:10871000ABB995F82C301BB9012385F83E300EE03B
:1087200095F82D0058B90146012203F01DFB0121E7
:108730002B4603F82D1F0E200A4602F0C5FB2379B5
:10874000BBB9104B93F83E309BB1184802F0EEFBDA
:10875000FFF7C6FE04B0BDE87040FFF7A9BEFF20DA
:1087600003F00CFCFFF7CCFE0023338004F034FD53
:10877000CCE74FF47F4004F07DF8E72004F0F6F8F2
:10878000E3E700BF2C16002071CE0008D982000854
:1087900085CE0008D1820008F1CE0008B983000818
:1087A00019CF0008E1820008A603002070160020FF
:1087B0002DE9F341AE4C05F073FC0023A36494F85B
:1087C0004C304BB994F84D3033B9A3687BB3FEF706
:1087D0006DFCA36898422AD394F83D30A44D002B39
:1087E00040D000266E71AE602E732E6585F84C6009
:1087F000012785F83D606E73AE73EE736E7403F0FF
:1088000037FA6FF07F402F7404F034F8E72004F05B
:10881000ADF8642003F0D8FE95F83E3013B330462F
:1088200003F0F0F985F83D70FFF784FE1AE094F844
:108830003D308F4DB3B92B792BB9FEF737FC00F5DE
:10884000EA403030A860002003F0DCF9012384F80E
:108850003D304FF47F400023237404F00BF8E720F1
:1088600004F084F894F83E30814E13B1FFF762FEB5
:1088700005E033791BB1337B03F0FF05FBB1E278F0
:108880007B4B012A13D11A7B012A10D15B79012B72
:108890000DD1032577480BF026FC013D82B27549C6
:1088A000012003F059F915F0FF05F3D1E570237BA2
:1088B0006F4DE3B195F84D30002B74D017E0294689
:1088C0002A462846B56003F04FFA6B480BF00BFCC4
:1088D0006A4F804638460BF006FC00970190791FDE
:1088E000032042462B4603F0D9F93571C7E794F8C7
:1088F000573023B1624800213A220BF0A6FA94F8CF
:108900008E205B4B32B95A7B002A58D19B7B002BBF
:1089100055D1BBE01A7BFAB193F84D20E2B95A7BEE
:10892000002A5CD018E02B4603F82F2F0E200121DF
:10893000032202F0C9FA00264FF6FF70267403F0F6
:1089400099FFE72004F012F8FEF708F8B042484D0E
:1089500065DB01232E656B73637B454D002B00F0B7
:108960009580AB7BBBB9FDF779FF002811D002DA07
:108970004FF47F0007E0012801D1424803E00228BC
:1089800003D14FF0FF1003F075FFE72003F0EEFF77
:1089900001E00123AB73FDF725FF002876D1E073DA
:1089A000A073607372E095F85730002BA7D1642054
:1089B00003F00AFE05F1540002F046FA9FE7FDF7C6
:1089C000BDFF00234FF47F40E373A373637303F091
:1089D00051FFE72002B0BDE8F04103F0C7BF5B7C68
:1089E000002BA8D04FF47F0003F044FF637C204DA0
:1089F00003F0FF02002B96D0E72003F0B7FF4FF4FF
:108A0000FA7003F0E1FDE72003F0BEFF4FF4FA70C7
:108A100003F0DAFD6B7C013BDBB26B74E6E795F8A3
:108A20004C309BBB2B6D0133022B2B6504BF012304
:108A300085F84C30FDF750FF00280ADA236D01332A
:108A4000022B236503D10A4B012283F84C20022319
:108A500000E003236374637C0E2084F82F3001212F
:108A6000094B032202F030FA0023637374E700BF5E
:108A70002C1600205B02002062020020670200200A
:108A8000801600200060FF005B16002002B0BDE8E9
:108A9000F08100BF13B5084C002100910A460B4637
:108AA0002046FEF791FD0549054A204602B0BDE883
:108AB00010400BF037B900BFBC160020195A00084F
:108AC00054070020704708B5012004F0FDFEFEE7C2
:108AD00008B5032004F0F8FEFEE708B5042004F012
:108AE000F3FEFEE708B5052004F0EEFEFEE7704752
:108AF0007047704708B504F0B1FCBDE80840FDF7C9
:108B000071BA000008B5024B0BB1AFF3008008BD8D
:108B10000000000008B5024B0BB1FFF721FB08BDB8
:108B20006181000808B5024B0BB1FFF713FB08BDCC
:108B30005581000808B5024B0BB1FEF7D7FC08BD04
:108B4000ED74000808B5024B0BB1FEF7D0FC08BD70
:108B5000EF74000808B5024B0BB1FEF75BFE08BDD1
:108B60001578000808B5012005F056F938B1012044
:108B700005F060F9024B13B10020FEF7E5FC08BDDB
:108B80004975000808B5022005F046F938B1022001
:108B900005F050F9024B13B10120FEF7D5FC08BDDA
:108BA0004975000808B5042005F036F978B10420AD
:108BB00005F040F90020064B0146188003F08CFFB9
:108BC000BDE8084003481021012205F04ABD08BD58
:108BD00038170020002C014008B5082005F01CF9CA
:108BE00038B1082005F026F9024B13B10320FEF737
:108BF000ABFC08BD4975000808B5102005F00CF95C
:108C000038B1102005F016F9024B13B10420FEF71D
:108C10009BFC08BD4975000808B5202005F0FCF84C
:108C200038B1202005F006F90E4B13B10520FEF7F0
:108C30008BFC402005F0F0F838B1402005F0FAF840
:108C4000084B13B10620FEF77FFC802005F0E4F806
:108C500038B1802005F0EEF8024B13B10720FEF783
:108C600073FC08BD4975000808B54FF4005005F0C5
:108C7000D3F840B14FF4005005F0DCF8174B13B1B6
:108C80000D20FEF761FC4FF4804005F0C5F840B1BF
:108C90004FF4804005F0CEF8104B13B10E20FEF7D4
:108CA00053FC4FF4004005F0B7F840B14FF40040DA
:108CB00005F0C0F8094B13B10F20FEF745FC4FF447
:108CC000006005F0A9F838B14FF4006005F0B2F883
:108CD000BDE8084003F002BC08BD00BF49750008AC
:108CE00008B50F48102105F0F5FCC0B10C48102163
:108CF00005F0FBFC002003F0B3FF28B9094B1A88EC
:108D00000A3292B21A8008BD05481021002205F0EF
:108D1000A8FCBDE808400020012103F0DDBE08BD2D
:108D2000002C01403817002008B5024B1B6803B126
:108D3000984708BDC816002008B5024B5B6803B110
:108D4000984708BDC816002008B5024B9B6803B1C0
:108D5000984708BDC816002008B5012005F0B2FAF2
:108D600050B1012005F0BEFA044B0BB1FFF744F8F7
:108D7000BDE8084005F090BA08BD00BFF97D0008C5
:108D800008B5022005F09EFAB0B10C4B00224FF45A
:108D900000301A7005F04EF8012005F0ABF910B163
:108DA000012005F0B1F905F077FA022005F09AFAF2
:108DB000BDE8084005F070BA08BD00BF7916002074
:108DC00003F01EBB00F064B838B514490B78012BD2
:108DD00023D1134A13680BB90B7038BD114C402BCB
:108DE000206881B205D94030403B206013604025A7
:108DF00004E09DB203442360002313600A482A461E
:108E00000844C02106F0A6F90120294606F0AAFA76
:108E1000BDE83840012006F00FBA38BD40070020F9
:108E200048070020440700204006002008B5094BF1
:108E300001221A70084B002203201A8006F0C0FAA3
:108E4000064B024618804FF488710548BDE808407B
:108E500006F098B9F4050020F8050020F60500207A
:108E6000FA050020084B1B68052B0BD1074B1A682D
:108E7000052A02F1010101D01960704700221A6031
:108E8000FDF7E6B9704700BF64170020D416002034
:108E900070B52B4D2B4C2B682B4E9BB22380228818
:108EA00033881340990508D54FF6FF532B60A378FC
:108EB0000133DBB2A370FFF7D5FF2288338813405C
:108EC0001A0401D506F090F82288338813405B0518
:108ED00005D54FF6FF332B601C4B5B689847228803
:108EE00033881A40900444BF4DF6FF722A602288EE
:108EF0001340D90405D54EF6FF732B60002004F013
:108F0000A1FC2288338813401A050BD5104B1B781F
:108F100013B104F077FC02E0022004F093FC4FF25E
:108F2000FF732B60228833881340DB0507D54FF68B
:108F3000FF632B600720BDE8704004F083BC70BD68
:108F4000445C0040D816002024210020CC020020E0
:108F5000CC030020034B9B7A13B1034B05221A600C
:108F6000704700BF0021002064170020014B04223D
:108F70001A60704764170020034B1A78202A04BF38
:108F800000221A70704700BFDC16002070470000F6
:108F9000212810B508D1114B1B681B7803F07F0303
:108FA000212B10D0022010BD2028FBD10B4B0C4AE6
:108FB0001B681B78107003F07F03212B094B18BF2F
:108FC00000230BB9EEE7084B044A00241268204640
:108FD000936154829847204610BD00BF2021002095
:108FE000DC1600203990000821900008074B1B6810
:108FF0001B7803F07F03212B06D100F0DF0002284D
:109000000CBF002002207047022070472021002062
:1090100021B9022834BF0020022070470220704787
:1090200020B9034B08221B681A8270470148704719
:1090300020210020C402002020B9034B08221B6815
:109040001A8270470148704720210020C402002086
:1090500010B5FDF749F9054B00241B689C7204F01C
:10906000B9FB06F0C3F9024B1C6010BD20210020A3
:1090700064170020334B344A1B68D27910B50024A2
:109080005A729C72DC72204606F08EF820464FF42D
:10909000007106F091F82046102106F09BF820465A
:1090A000402106F033F98021204606F01FF92046C2
:1090B00006F0E8F8254B204693F8341006F060F9E6
:1090C000204606F0CCF80120214606F075F8012074
:1090D000C02106F00BF90120202106F07BF80120C9
:1090E000214606F090F802204FF4C06106F064F8C3
:1090F00002204FF4807106F0F9F80220214606F0B4
:1091000082F80220202106F065F80320214606F0AF
:1091100053F803204FF4887106F0F8F8032040213B
:1091200006F02EF903204FF4405106F06CF80320AE
:10913000214606F04FF8204605F0EAFE044B0122D6
:109140001A6010BD20210020655E0108C4020020C5
:1091500064170020014905F0D7BC00BFFC020020C5
:10916000014905F0D1BC00BF04030020054B1B687A
:10917000DB78042B04D8044901EBC30105F0C4BC1F
:1091800000207047202100200C03002038B5044641
:109190000D46FFF739F8204625614FF41651FFF7C9
:1091A0003DF8204638BD70B506460D4600242846D9
:1091B0000AF099FF844208D2295D3046FFF71EF875
:1091C000012003F001FA0134F1E770BD2DE9F0410F
:1091D00004460E46904600252046FFF70BF800286F
:1091E000FADD2046FFF704F84545C1B206D1002359
:1091F000337020461249FFF7D6FF15E00D29F6D04F
:109200000A29F4D0082901D07F2904D1002DE3D008
:10921000771E013D02E0771C317001352046EDB22A
:10922000FEF7ECFF3E46D7E72046FEF7E3FF0028B7
:1092300003DD2046FEF7DCFFF6E7BDE8F08100BF66
:10924000968B0108F0B585B00446FEF7D3FF0028E1
:1092500040F39B802046FEF7CBFFC0B2772867D152
:1092600004F1140600212122304604F135050AF0EC
:10927000ECFD4122002128460AF0E7FD04F17607C3
:10928000002384F87630204641497B70FFF78BFF3E
:10929000204631462022FFF799FF20463D49FFF73F
:1092A00082FF012220463946FFF790FF94F876307E
:1092B000A3F13002032AF0D8312B0BD120463649D6
:1092C000FFF771FF20463549FFF76DFF204634490F
:1092D000FFF769FF94F87620B2F1300708D02046F6
:1092E0003049FFF760FF204629464022FFF76EFF16
:1092F00020462D49FFF757FF23693A463046294655
:10930000984720462949FFF74EFF20462849FFF796
:109310004AFF20462749FFF746FF20462649FFF728
:1093200042FF20462549FFF73EFF2046244927E01B
:1093300069282AD1234B01AD93E8070085E807008F
:1093400020462149FFF72FFF0026AF5D20463B094D
:1093500003F13001392988BF03F1570107F00F07E6
:10936000FEF74CFF07F13001392988BF07F157019B
:1093700020460136FEF742FF0C2EE6D11349204667
:1093800005B0BDE8F040FFF70EBF05B0F0BD00BF6F
:10939000EA890108F18901081E8A0108548A010836
:1093A0007F8A0108C58A0108D08A0108138B010849
:1093B000338B0108668B0108998B0108D88B010853
:1093C000098C0108E8F7FF1F1F8C0108968B010824
:1093D00013B5084C002100910A460B462046FEF7C3
:1093E000F3F80549054A204602B0BDE810400AF0EE
:1093F00099BC00BFE0160020195A0008540700204D
:109400002DE9F34781460C460026484600F086FFCA
:1094100000287FD000238DF804308DF805308DF8BA
:109420000630484600F069FF032596FBF5F303EB91
:109430004303F31A02AA134403F8040C4846013606
:1094400000F06CFF28B196FBF5F505EB4505AE4243
:10945000E7D1032396FBF3F303EB4303F31A012B4A
:109460009DF804709DF805802C4D11D13B0103F04F
:109470003003BF0843EA1818E95D2046FEF711F9EA
:1094800015F808102046FEF70CF920463D211BE098
:10949000022B9DF806A01CD14FEA880303F03C0381
:1094A00043EA9A1ABB083F0107F03007E95C2046FF
:1094B00047EA1818FEF7F5F815F808102046FEF7E9
:1094C000F0F815F80A102046FEF7EBF820463D218B
:1094D0001DE0BB083F0107F0300747EA18174FEAC5
:1094E0008808E95C204608F03C08FEF7DAF848EA0C
:1094F0009A18E95D2046FEF7D4F80AF03F0A15F8FD
:1095000008102046FEF7CDF815F80A102046FEF7A1
:10951000C8F87AE702B0BDE8F08700BFBA5E01087C
:1095200003464138C0B2192814D9A3F16102192A9F
:1095300001D8473B04E0A3F13002092A02D80433E2
:10954000D8B270472B2B04D02F2B14BFFF203F2005
:1095500070473E20704700002DE9F34106460D4656
:109560000024335D9BB31B4B1868019004F0030784
:109570000134331913F8010CFFF7D2FF02AB1F447B
:10958000335D07F8040C0BB1A307EFD19DF80580FC
:109590009DF80410C8F3011343EA81012846C9B2BB
:1095A00000F09CFE9DF806702846C7F3830343EA4B
:1095B0000811C9B200F092FE9DF80730284603F06A
:1095C0003F0343EA8711C9B200F088FEC9E702B041
:1095D000BDE8F081FA5E010813B5084C0021009146
:1095E0000A460B462046FDF7EFFF0549054A20468F
:1095F00002B0BDE810400AF095BB00BFE81600209D
:10960000195A0008540700202DE9F04305684C5D05
:10961000002C00F0F8802C2C00F0F18011D80D2CDB
:1096200000F0ED8004D8093C012C00F2BB80E6E09C
:10963000202C00F0E480222C40F0B4806F1C0760E6
:1096400072E05D2C36D005D83A2C00F0D8805B2C27
:1096500008D0A7E07B2C05D07D2C40F0A3804FF0F4
:10966000010C29E046689E4280F0E080771C4FEABA
:109670000618476002EB080C4FF0FF37CCF8087073
:10968000CCF804700027CCF80C708768B7F1FF3F66
:1096900006D002EB0719D9F80C700137C9F80C7025
:1096A0007B2C14BF0224012402F80840CCF804509B
:1096B0008660A4E04FF0020C4468013C02EB041603
:1096C0000436002C15DB3768A6F1040801370DD0ED
:1096D0007768B7F1FF3F09D116F8046C664540F092
:1096E000A78001358760C8F8085005E0013C103EAE
:1096F000E7E7661C00F09C8002EB04150835002C9F
:109700007DDB55F8046C013604D02E68013601D19A
:10971000846074E0013C103DF1E7222C09D05C2C00
:1097200019D004680134046006688C5D002CF4D103
:109730002AE044689C424AD2651C456025015419C0
:109740004FF0000CC4F80CC04FF0030C02F805C039
:109750006760A6604BE0013606608C5D662CE0D049
:1097600008D82F2CDDD001D8222C07E05C2CD8D0D3
:10977000622C03E0722CD4D002D86E2CD1D005E03C
:10978000743C012CCDD901E0056053E005604FE049
:10979000202C19D00FD8092C09D2203C5E2CF5D8EA
:1097A0000136066006688C5D002CF1D10CE00A2CB5
:1097B0000AD90D2C07E03A2C06D001D82C2C02E057
:1097C0005D2C01D07D2CE8D144689C4201D305601A
:1097D0002CE0671C47602701D4194FF0000CC4F837
:1097E0000CC002F807C0A660013E65600660846890
:1097F000651C04D002EB0414E5680135E5600468DB
:109800000134046002E741684B1E02EB0112002B99
:109810000ADB52F80C1C013103D052F8081C01314C
:1098200008D0013B103AF2E7002004E0FF2002E0FC
:10983000FE2000E0FD2040B2BDE8F083002303607D
:1098400043604FF0FF3383607047000008B5024863
:1098500000F064FD08BD00BFF016002008B5054803
:1098600000F05CFD18B1034800F047FD08BD4FF063
:10987000FF3008BDF016002008B5054800F04EFD89
:1098800018B1034800F046FD08BD4FF0FF3008BD99
:10989000F016002038B590F8CF500C460B4865B153
:1098A0000B49FDF7FAFE21460848FDF715FF094868
:1098B000214600F013FD012038BD0749FDF7EDFEFC
:1098C00021460248FDF708FF284638BD1016002043
:1098D0003F8C010800170020308C010800224260F4
:1098E0004FF47A728260024A01610260704700BFE1
:1098F000085F010810B50446FDF7D8FBC4F8D00096
:10990000206903681B69984728B1206903681B69AF
:109910009847C0B210BDFDF7C9FBD4F8D03042F271
:109920001072C01A9042F0D8EAE70000F8B5064677
:1099300000690D46036817465B6998470024C1B269
:109940000A2907D100232B550E480134FDF7AEFE3E
:10995000E0B2F8BDFF29F5D071B10D290CD07A1E07
:10996000944202DA2955013403E008460AF028FD42
:10997000C1B20448FDF795FE306903685B699847FA
:10998000C1B2DDE71016002008B5002380F8CE3004
:1099900080F8CF3000690368DB6A984708BD000093
:1099A000936D70B515460022CA540C46696D064683
:1099B00021440548FDF786FED6F8D43013B1686D12
:1099C0002044984770BD00BF1016002010B58EB01F
:1099D000044601A80AF07FFB01A90448FDF75DFEDB
:1099E000206901A9FDF759FE0EB010BD1016002028
:1099F00038B504460D460448FDF74FFE2069294658
:109A0000BDE83840FDF749BE1016002038B50446C1
:109A10000D460448FDF745FE20692946BDE838405B
:109A2000FDF73FBE10160020F8B5134D1F46012369
:109A300080F8CF300446114E28461149FDF72DFE1F
:109A400020460021FFF7E2FF204606F12801FFF73C
:109A5000CFFF20463946FFF7CBFF204606F12D0108
:109A6000FFF7B4FF2046FF21FFF7D0FF2846BDE8EF
:109A7000F840FDF71BBE00BF10160020005F010874
:109A8000498C010870B50C4D04460C492846164611
:109A9000FDF703FE20460021FFF7B8FF20460849E6
:109AA000FFF7A6FF2046FF21FFF7B0FF2846FDF78E
:109AB000FDFD304670BD00BF10160020598C010816
:109AC000405F010810B50446104800F027FCE0B1E3
:109AD0000F491048FDF7E1FD20460021FFF796FFF2
:109AE00020460D49FFF784FF0C490A48FDF7D5FDD4
:109AF00021690648FFF784FC2046FF21FFF786FF17
:109B0000BDE810400348FDF7D1BD10BD001700208F
:109B10006A8C010810160020405F01087B8C010848
:109B20002DE9F0410F4690461E460024B4420EDA5D
:109B3000E51908482946FDF741FC18F80420904231
:109B400003D004482946FDF74DFC0134EEE7BDE89B
:109B5000F08100BFCE130020F8B50D4616461F4613
:109B60000024BC4206DA61190348FDF727FC305592
:109B70000134F6E7F8BD00BFCE13002010B50C4647
:109B8000212301212246FFF7E7FF002384F820303C
:109B900010BD000008B50A4621230121FFF7C0FFD0
:109BA000BDE80840024800215322FDF71BBC00BF5E
:109BB000CE13002010B50C46252322212246FFF7A4
:109BC000CBFF002384F8243010BD000030B50446DC
:109BD0008BB00D461B481C49FDF75FFD2046002158
:109BE000FFF714FF20461949FFF702FF20461849E6
:109BF000FFF7ECFE2046CDB16946FFF7DBFF2046BC
:109C00001449FFF7E3FE20466946FFF7F1FE2046C0
:109C10006946FFF7B3FF20460F49FFF7D7FE2046FE
:109C20006946FFF7E5FE20460C4900E00C49FFF7C6
:109C3000CDFE2046FF21FFF7E9FE0248FDF736FD85
:109C40000BB030BD10160020868C0108455F01085E
:109C50004A5F0108675F0108705F01087D5F0108C6
:109C6000825F010810B5002104460648FDF7A6FBF7
:109C7000B0F15303594220465941BDE81040FFF767
:109C8000A5BF00BFCE13002008B50A462523222118
:109C9000FFF746FFBDE80840024800215322FDF7C8
:109CA000A1BB00BFCE13002070B504460D460B4883
:109CB0000B491646FDF706FD012384F8CE30D6F891
:109CC000D41020462944FFF7DFFFD6F8F4102046D1
:109CD0002944BDE87040FFF75DBF00BF10160020AB
:109CE0009A8C01082DE9F043C5B00D46064601A83F
:109CF0009146FFF7A3FD01A8294604AA1023FFF708
:109D000083FC044648B138493848FDF7C6FC214673
:109D10000A223648FDF726FD62E00D990E9C6F1869
:109D2000641A3846324922460AF0E5F958B9082C37
:109D300009D12F492D48FDF7C5FC3046294604AA14
:109D4000FFF790FF4CE038462A4922460AF0D3F943
:109D500058B9052C09D127492448FDF7B3FC3046F2
:109D6000294604AAFFF7A0FF3AE0384622492246D6
:109D70000AF0C1F9804650B9082C08D11E491B4889
:109D8000FDF7A0FC30464146FFF720FF28E03846AB
:109D90001A4922460AF0AFF960B90A2C0AD11749CC
:109DA0001248FDF78FFC3046294604AA4B46FFF7C0
:109DB0003BFE15E03846124922460AF09CF958B994
:109DC000072C09D10E490948FDF77CFC304629468D
:109DD00004AAFFF7E5FD03E004480A49FDF75DFC2E
:109DE00045B0BDE8F08300BFA98C01081016002023
:109DF000865F01088F5F0108955F01089E5F01087B
:109E0000A95F0108B88C01082DE9F34190F8CE3024
:109E10000446012B09D1FDF749F9D4F8D0304EF6AC
:109E20005F22C01A904200F2898023682046DB69D5
:109E30009847206903681B699847002800F09680BE
:109E400004F11405BA2229462046FFF76FFD284683
:109E50003A210AF033F9451C06463A2128460AF011
:109E60002DF93A21074601300AF028F9BF1BBE1E22
:109E7000033F032F80461AD831460A223E48FDF799
:109E800071FC29463C48FDF71DFC324629466846D0
:109E90000AF047F902AA164400233849364806F862
:109EA000083CFDF7FAFB34486946FDF70BFC267DBC
:109EB00008F10105A6F130032F48052B36D8DFE85D
:109EC00003F003071C0B35132D49FDF7FBFB4AE09C
:109ED0002C49FDF7F7FB49E02B49FDF7F3FB28463A
:109EE0002A49FFF739FB41E02949FDF7EBFB204602
:109EF00029466A46FFF7F6FE38E02649FDF7CDFB16
:109F0000FDF7D4F80A220146C4F8D0001A48FDF73C
:109F100041FC20460021FFF779FD20461E49FFF74E
:109F200067FD2046FF21FFF771FD1FE01B49FDF78C
:109F3000B4FB31461048FDF7CFFB17E018490E4837
:109F4000FDF7ABFBFDF7B2F80A2201460A48FDF720
:109F500021FC14490848FDF7A0FB0748D4F8D010AD
:109F60000A22FDF717FC2046FFF70EFD94F8CE00FD
:109F700002B0BDE8F08100BF10160020C18C0108BE
:109F8000C78C0108D28C0108E18C0108F016002072
:109F9000E68C0108EE8C0108B15F0108FD8C010818
:109FA000048D01080E8D01082DE9F041002380F891
:109FB000CE3080F8CF3088B0044688466D486E4970
:109FC0001546FDF77FFB20692A46036841465B6A18
:109FD0009847054630B920690368DB6A98476548A9
:109FE000664916E020466649FFF7F0FC20464146E8
:109FF000FFF7FEFC20466349FFF7E8FC2046FFF729
:10A0000079FC054640B920690368DB6A98475948DE
:10A010005D49FDF757FBA8E004F1140620463146E0
:10A02000BA22FFF783FC002862D0304657490AF075
:10A0300097F800285CD0072720463146BA22FFF760
:10A0400075FC054630B920690368DB6A98474948C2
:10A050004F49DEE7013FEFD13B46E218127D01AFE9
:10A060003A2A02D0FA540133F7E708AA13444949BF
:10A070000022404803F81C2CFDF70FFB3D483946F1
:10A08000FDF720FB206903681B699847054620B14E
:10A09000206903685B699847F4E720463E49FFF76B
:10A0A00095FC20463946FFF7A3FC20463B49FFF7C5
:10A0B0008DFC20464146FFF79BFC20463849FFF7C0
:10A0C00085FC2046FFF716FC30B920690368DB6A7F
:10A0D0009847284833499CE720463146BA22FFF783
:10A0E00025FC78B1304630490AF03AF898B909E0D1
:10A0F000206900250368DB6A98471E482B49FDF755
:10A10000E1FA32E02A491B48FDF7DCFA20690368CE
:10A11000DB6A984729E017482649FDF7D3FA052559
:10A1200020463146BA22FFF701FC013DF8D1FCF789
:10A13000BDFFC4F8D0002046FFF766FE40B9FCF72B
:10A14000B5FFD4F8D03042F21072C01A9042F2D962
:10A1500094F8CE303BB907481749FDF7B3FA2069A8
:10A160000368DB6A984794F8CE50284608B0BDE8EB
:10A17000F08100BF10160020198D0108288D0108FC
:10A18000B55F0108D95F0108338D01083F8D0108D3
:10A19000438D0108EB890108DE5F0108FA5F0108C1
:10A1A0000C6001085B8D0108668D0108838D010834
:10A1B0009A8D0108AF8D01086A8D0108F0B5214E16
:10A1C0008BB00446204D0F4630462049FDF765FA16
:10A1D00020460021FFF71AFC204605F14501FFF754
:10A1E00007FC204605F26F11FFF7F0FB20463946C9
:10A1F000FFF7FEFB204605F5C471FFF7E7FB20469D
:10A200006946FFF7D7FC20466946FFF7F1FB204679
:10A2100005F17001FFF7DAFB20466946FFF7AEFC57
:10A2200020466946FFF7E4FB204605F17D01FFF774
:10A23000CDFB2046FF21FFF7E9FB3046FDF736FA5C
:10A240000BB0F0BD10160020005F0108D68D01088C
:10A25000F7B5144C002104F12006134D0B46009174
:10A260000A463046FDF7B0F904F110072A46304699
:10A270000E490F4E09F056FD3846962100F01AF8A7
:10A280002A463146384609F04DFD2046402100F06F
:10A2900011F8204631462A4603B0BDE8F04009F0E7
:10A2A00041BD00BFF016002054070020195A0008D5
:10A2B000CDA20008002310B5044641608360C3604E
:10A2C0000846FCF769F82060204610BD10B504462A
:10A2D000006808B1FCF764F8204610BD826830B50C
:10A2E0004468531CB3FBF4F504FB1533C468A34264
:10A2F00002D00468A154836030BD10B5C168026803
:10A300000346505C5A680131B1FBF2F402FB1412AF
:10A31000DA6010BD0268C368D05C70478268C068AC
:10A32000101A18BF01207047002100F004B80E4B2E
:10A330005B58435004310D480D4B42189A42FFF4CC
:10A34000F6AF0C4A00F003B8002342F8043B0A4B76
:10A350009A42FFF4F9AF03F0C3F9FBF77FFDFBF777
:10A36000FFFFFBF7C9FD7047E890010800000020DF
:10A37000700400207004002030210020FFF7FEBF91
:10A380000B0A017043700B0C090E8370C17004300E
:10A3900070470170090A41700230704743185A78BB
:10A3A000435C03EB022080B2704710B543189A78E3
:10A3B000DC78415C120402EB046258780A4402EB38
:10A3C000002010BD73B544790023022C01930FD0F7
:10A3D000032C19D0012C2BD1164D2B692E4623B1FD
:10A3E0002B6901A898470246B8B9B16801201BE063
:10A3F000104DEB682E4623B1EB6801A89847024642
:10A4000058B9B16802200FE00A4D6B692E464BB176
:10A410006B6901A89847024620B1A9682046BDF89B
:10A42000043003E0B16803200022134600F028FC4A
:10A4300002B070BD68180020072830B512D8012975
:10A4400010D8EFF3108472B60125854001FA00F0B0
:10A45000054B1A6822EA050202431A602346DB070D
:10A4600000D462B630BD00BF5403002070B5012196
:10A4700086B00546FFF792FF4304044629D5B0F5A0
:10A48000824F26D128460521FFF788FF05EB800083
:10A49000EE1D0024C51DAE4206D030460221FFF756
:10A4A0007DFF04360444F6E7724B1A8E224492B2C2
:10A4B0001A86DA6B1444DC63D96B9A6B914240F0D4
:10A4C000CA8093F84020002A00F0C5809B6999203B
:10A4D00031E024F4FF4020F07F0080B2002800F03B
:10A4E000978048F210039C4228D00CD8B4F5004F56
:10A4F00040F2BC8048F202039C4215D948F20403A2
:10A500009C4211D0B2E048F280039C420CD004D8A7
:10A5100048F240039C424FD0A8E0B4F5024F03D06C
:10A52000B4F5084F6BD0A1E0524B9A69002A00F0B5
:10A5300092809B69204600210A4667E00023EA18C2
:10A5400052790DF803200133042BF8D16B7A05F111
:10A550000D008DF80430AB7A8DF80530EB7A8DF86C
:10A5600006302B7B8DF80730002300AA1A44C15C0B
:10A570000133042B1172F8D105F11100002300AA58
:10A580001A44C15C0133042B1173F8D105F1150095
:10A59000002300AA1A44C15C0133042B1174F8D1C2
:10A5A0002B798DF81430334B9A69002A53D09B696C
:10A5B00020466946152229E0053500212846FFF787
:10A5C000F4FE042100902846FFF7EFFE08210190D9
:10A5D0002846FFF7EAFE0C2102902846FFF7E5FE29
:10A5E000102103902846FFF7E0FE224B04909A6961
:10A5F000002A30D09B6920466946142206E01D4B94
:10A600009A6942B39B692046691D0122984722E05E
:10A6100041F203039C4205D0A4F580530E3B9BB24C
:10A62000012B1AD86C1D20460421FFF7BEFE3930DD
:10A630001CD12A790F4B00212046DA62FFF7B5FEC4
:10A64000042105462046FFF7B0FE393003D12846E5
:10A650000121FFF7F1FE012009E0064B1B889BB2A8
:10A660009C4204D0B4F5805FF5D100E0002006B034
:10A6700070BD00BF6818002070B50E4C6688B6B279
:10A68000B6B1606805782B1F5D425D412DB1FFF7C3
:10A69000EDFE003018BF012000E02846064618B93C
:10A6A00035B194F841301BB90023638001F0BEFD41
:10A6B000304670BD681800202DE9F04F85B0044683
:10A6C0008A46914602F0D2FE00250190DFF8088309
:10A6D000B8F8023046469BB2002B40F0938003F05E
:10A6E000DFFC02F0C3FE0290029A019BD31A03938F
:10A6F000039B002B03DA019B029A13440393B54B8F
:10A700001B68002BE2D0039A9A42DFD3338841F2D0
:10A7100007029BB2934227D841F20602934261D2CC
:10A7200040F2022293425DD00FD80C2B08D8082BA0
:10A7300058D2002B4FD0062B88BF00235AD851E0A7
:10A740000D2B4CD040F201220BE041F20202934269
:10A750004BD8B3F5805F45D8B3F5017F3FD940F2C0
:10A760000722934237D13AE041F21102934236D0A8
:10A7700014D841F20B02934234D005D841F20902B9
:10A7800093422FD031D82AE041F20F0293422CD0CD
:10A7900028D841F20D02934227D01CE042F2060273
:10A7A00093421CD007D8B3F5005F14D942F20402DB
:10A7B000934221D813E0B3F5804F00F0F38105D820
:10A7C000A3F50053083B012B09D904E044F20B0226
:10A7D000934200F0E7810B2003F076F8E2E1FF23DB
:10A7E0002370DFE14FF0FF3304E04FF0FF332360CD
:10A7F0006360D7E12360D5E1204600213A2209F0C9
:10A8000024FBCFE1D8F804603378042B40F07D813D
:10A8100001213046FFF7C2FD05463046FFF726FE10
:10A820000146002840F0668141F207039D4206F18F
:10A83000050752D841F206039D4280F0AC8040F2F9
:10A8400002239D4200F0A78011D80C2D09D8082DB5
:10A8500080F0A180002D00F04D81062D00F2E880EF
:10A8600099E00D2D00F0948040F201237EE041F24A
:10A8700002039D4218D8B5F5805F00F28C80B5F5D3
:10A88000017F40F2858040F207239D4240F03281F3
:10A890003379384604F8013B0021FFF786FD014675
:10A8A0002046FFF76DFD25E141F204039D4200F0D3
:10A8B000958040F2AB8000213846FFF776FD0421F9
:10A8C00020603846FFF771FD083444F8040C06F1A7
:10A8D0000D03224606F11D0175E041F211039D4270
:10A8E00056D02BD841F20B039D4254D01CD841F2D4
:10A8F00009039D424FD000F2968000213846FFF7B1
:10A9000054FD042120603846FFF74FFD08216060A8
:10A910003846FFF74AFD0C21A0603846FFF745FD99
:10A9200004F10C0BE060E4E041F20F039D426DD0B6
:10A9300037D841F20D039D4250D0DBE042F20503CF
:10A940009D4200F0998007D841F212039D4235D014
:10A95000B5F5005F1CD8CDE042F209039D4208D84E
:10A9600042F208039D4213D242F206039D420FD0E9
:10A97000C0E044F20B039D4240F0BC80737938463E
:10A980000121A8F83030FFF709FDA8F83200B1E046
:10A9900033792370AEE038460021FFF706FD2060D2
:10A9A000A8E000213846FFF700FDA3464BF8040B52
:10A9B00004213846FFF7F9FC60609AE03846FFF75B
:10A9C000EDFC208096E053F8040B8B4242F8040B18
:10A9D000F9D18FE0181700206818002000213846B0
:10A9E000FFF7E3FC042120603846FFF7DEFC082176
:10A9F00060603846FFF7D9FCE36804F1080B39338F
:10AA0000A06076D10121FFF717FD72E000213846E2
:10AA1000FFF7CBFC042120603846FFF7C6FC083462
:10AA200044F8040C66E0337923713B68236061E0ED
:10AA300000213846FFF7B9FC042120603846FFF7B3
:10AA4000B4FC082160603846FFF7A8FC0A21A0602A
:10AA50003846FFF7A3FC0C3444F8020C06F111034E
:10AA6000224606F1350153F8040B8B4242F8040BE1
:10AA7000F9D11B8813803DE073185B796354013171
:10AA80000429F9D106F109000023C15CE218013361
:10AA9000042B1171F9D106F10D000023C15CE218FD
:10AAA0000133042B1172F9D106F111000023C15CAE
:10AAB000E2180133042B1173F9D106F115000023BC
:10AAC000C15CE2180133042B1174F9D106F11900AD
:10AAD0000023C15CE2180133062B1175F9D106F190
