:020000040800F2
:105000000050002011920008ED770008EF770008AB
:10501000F9770008037800080D7800080000000008
:1050200000000000000000000000000017780008E9
:1050300019780008000000001B7800081D7800089F
:10504000659200086592000865920008417A0008A0
:1050500065920008659200087D7800089D78000838
:10506000BD780008F1780008117900086592000801
:10507000659200086592000865920008A97A000808
:1050800065920008659200082D7800086592000876
:10509000AD7A000865920008659200083179000831
:1050A000659200086592000865920008F979000889
:1050B0006592000865920008659200084D78000826
:1050C0005D78000865920008659200086D78000818
:1050D00065920008659200083D7800086592000816
:1050E00081790008697A00086592000800000000D4
:1050F00000000000000000000000000000000000B0
:0C51000000000000000000005FF808F153
:10511000844641EA000313F0030349D1403A23D304
:105120000B6803604B6843608B688360CB68C36027
:105130000B6903614B6943618B698361CB69C3610F
:105140000B6A03624B6A43628B6A8362CB6AC362F7
:105150000B6B03634B6B43638B6B8363CB6BC363DF
:1051600040304031403ADBD230320BD30B68036021
:105170004B6843608B688360CB68C360103010312C
:10518000103AF3D20C3205D351F8043B40F8043BFB
:10519000043AF9D2043208D0D2071CBF11F8013BFF
:1051A00000F8013B01D30B8803806046704700BFC5
:1051B000082A13D38B07B1D010F00303AED0C3F18C
:1051C0000403D21ADB071CBF11F8013B00F8013BB6
:1051D000A4D331F8023B20F8023B9FE7043AD9D32D
:1051E000013A11F8013B00F8013BF9D20B7803704A
:1051F0004B7843708B78837060467047014B036037
:10520000704700BF80400108014B0360704700BF3A
:1052100098400108014B0360704700BF98400108A7
:1052200010B5034B0446036000F064FB204610BD3C
:105230008040010810B5034B0446036000F05AFBA0
:10524000204610BD9840010810B5034B044603608A
:1052500000F050FB204610BD9840010810B5084CE6
:105260004FF4E131204601F0ABFE41F2883000F00E
:105270009DFE20460349BDE8104001F0E1B900BFA2
:10528000E01B00205C6C010810B58AB01F4C204662
:1052900003F0FEFC38BB1E491E4801F0D1F91E493F
:1052A0001A488A8903F0C4FD0028F4D01B49194824
:1052B00001F0C6F96946154803F056FB1849154830
:1052C00001F0A9F96946134801F0BAF969460F4897
:1052D00003F02EFB13490F4801F09DF969460D4874
:1052E00001F0AEF9D2E700F05FFED4F8D83041F219
:1052F0008732C01A904207D900F056FE0A49C4F816
:10530000D800204603F0C2FE0AB010BDD809002024
:10531000656C0108E01B0020000000206C6C010897
:10532000776C01087E6C0108866C010873B5134C1C
:10533000002104F1DC06124D0B4600910A4630466E
:1053400001F000F92A460F49304604F1E4060DF059
:1053500091FA304601F0F8FB2A4630460A490DF032
:1053600089FA3146204603F089F9084920462A4641
:1053700002B0BDE870400DF07DBA00BFD809002032
:105380003C0E0020FD51000809520008155200088B
:10539000013101EB420291420BD0030F092B94BF64
:1053A0003033373301F8013C0023000101F8023BA0
:1053B000F1E770471F4B10B51A88032A04D8042060
:1053C0000146188007F0D8FA4FF000604FF4A04172
:1053D00007F0C8FA0124184B184821461C7007F042
:1053E000D7FC06F057FB06F03DF82146402007F0B9
:1053F00087FD6FF07F4006F0A7F9E72006F020FA5E
:105400000F4B1C7006F078F87D2007F09DFD18B159
:105410000C4B1C7007F0ACFD40F6B83006F0C6F837
:1054200006F01CFE07F0A6F8074A01231370074A8E
:10543000137010BD241D0020001D0020000430004A
:105440000C1C0020C8260020941C00208A1C002070
:1054500038B52F4C2388042B04D805210420218043
:1054600007F08AFA2B4D2B7813B12B4801F0B0FFCF
:105470002B7853B12388052B05D8254B0621042012
:10548000198007F079FA02F027F82B7863B1234BE3
:105490001B784BB9224B1B7833B1224B1B781BB9BD
:1054A000214B1B78002BE3D0204B1B78002BDFD146
:1054B0001F4B1B78002BDBD11B4B1B78012B0FD014
:1054C0001C4B6BB12388062B05D8114B07210420F8
:1054D000198007F051FAFFF7C1FE134B01221A7031
:1054E000154B002BC4D02388072B05D8084B082167
:1054F0000420198007F040FAFFF7C6FE2388082B26
:10550000B6D8034B09210420198007F035FAAFE71C
:10551000241D0020941C0020B15C0008491C0020C0
:105520008A1C00200A1C0020D40C00200B1C002028
:10553000C82600205D52000889520008F8B5524B79
:105540001A6812B11A68013A1A60504B504D1B7814
:105550003BB1504B1B78002B28D04F4B002B47D131
:1055600024E04E4C2368264613B12368013B0FE02C
:105570004B4B1B78D3B94B4B1B78BBB94A4B1B78B1
:10558000A3B94A4F3B782BB1E72006F0CDF914239D
:1055900023600BE02B78002B2DD1E72006F07EF95D
:1055A000434B1B78002B34D0322333602B7833B13C
:1055B000404C23781BB92EE05A6801325A603E4BAA
:1055C0001A68B2F57A7F0FD300221A6007F038FC10
:1055D0003A4B4FF6FF711A888A4254D01980042042
:1055E000BDE8F84007F0C8B91A6801321A60F8BD82
:1055F00000F0A6FBDAE7324B1B78002BCDD04FF63C
:10560000FF7006F0A1F8E72006F01AF901233B70BD
:10561000CCE76423C9E7234B1B788BB1294B47F2B6
:105620002F5259689142C7D9BFF34F8F264A274B53
:10563000D16801F4E0610B43D360BFF34F8FFEE705
:10564000174D2B7803F0FF0633B9304606F082FA87
:1056500040F6B73398420DD8002006F07BFA41F6A9
:1056600057339842ABD9002006F07CFA184B012240
:105670001A70A4E7304606F075FA2378002B9ED105
:1056800001232B709BE7F8BDD0260020E01C0020F2
:10569000941C002070100020415D0008CC260020E2
:1056A0003A1C00200B1C00200D1C00200C1C0020AC
:1056B000091C0020491C0020D4260020241D0020A5
:1056C0000A1C0020D40C002000ED00E00400FA05C4
:1056D000381C002008B5094B186006F065FC002056
:1056E00006F0AEFC064805F0E1FE06F075FC06F09B
:1056F00093FCBDE8084008F021BB00BF88000020F3
:10570000A0860100074B1B68052B08D1064B1A7AAF
:10571000012A04D1987A1B7BC01AC0B270470020BE
:10572000704700BF281D0020D40C00200D4B10B581
:105730001B68052B13D10C4C237A012B0FD16289E6
:10574000A389D31A012B04D100230320237208F06C
:105750004CFCA3895A1CA2811C44A07B10BD4FF0B5
:10576000FF3010BD281D0020D40C002008B50C4BC4
:105770001B68052B12D10B4B1A6D99180132B2F52B
:10578000807F08BF002281F854001A6506F0DAFA1B
:1057900020B16420BDE8084005F088BE08BD00BF08
:1057A000281D0020D40C0020F8B5234B93F8542179
:1057B000012A3FD0D3F85821196DB2F5807F04BF7C
:1057C0000022C3F85821D3F858411B4A8C4203D118
:1057D000002382F85431F8BD8CBFC4F58071C4EB4E
:1057E0000101C2F85C11D3F85C61134D402EA2B2E6
:1057F00007D94034403EC5F85841C5F85C614027A0
:1058000006E034440021B7B2C5F85841C5F85C1130
:105810000A4801241044C0213A4683F8544108F054
:105820005FFB2046394608F063FC2046BDE8F8409F
:1058300008F0C8BBF8BD00BFD40C0020280D002024
:10584000094B10B593E8140008331B68D0180AD030
:1058500006490822FFF79CFD204605490422BDE8C1
:105860001040FFF795BD10BDE8F7FF1F370000207F
:105870004700002013B5084C002100910A460B4652
:10588000204600F05FFE0549054A204602B0BDE80B
:1058900010400CF0EFBF00BF340E0020FD51000897
:1058A0003C0E002038B504460D46AC4203D254F8F5
:1058B000043B9847F9E738BD08B507480749FFF7A3
:1058C000F1FF07480749FFF7EDFFBDE8084006482C
:1058D0000649FFF7E7BF00BF2472010824720108E0
:1058E000247201088472010884720108847201081C
:1058F0000DF0F8B80DF0FEB80DF0FCB808B50720B3
:1059000006F05CFFFEE70000074A08B5136818447C
:105910001060064A904204D9082006F04FFF0CF0B0
:10592000AFFF184608BD00BF10000020004800204F
:105930004FF0FF3070470120704708B50C2006F08B
:105940003DFFFEE7014B1868704700BF400E002086
:10595000064B0246582000FB013101F1080303CB3E
:105960001060516018689060704700BF400E0020C2
:10597000014BD3F864017047400E0020064B0246ED
:10598000142000FB013101F5B67303CB10605160A8
:1059900018689060704700BF400E002038B505467B
:1059A000064C28B105F072FF012384F8303238BD6F
:1059B00005F01AFF84F8305238BD00BF400E0020B9
:1059C0000E4B2DE9F041D3F8647180460024BC42AF
:1059D00011DA14256543094E414606F5B670284490
:1059E0000C220DF0C9FF20B93544D5F86801BDE897
:1059F000F0810134EBE70020BDE8F081400E00208B
:105A0000044B01221A70044B00224FF4C0201A608C
:105A100006F0AABB0B1C0020D80C0020034A002370
:105A20001370034A136006F0FDBB00BF0B1C00207F
:105A3000D80C0020024B00221A6006F0BDBB00BF4C
:105A4000D80C00202DE9F04788B0804668460D4606
:105A500000F00CFF1E4B0024D3F800A054452DDAB3
:105A600055B3582666431A4F414607F108003044A3
:105A70000C2207F104090DF07FFFE8B928460DF06C
:105A80004BFF06F11003402834BF0246402229464E
:105A900009EB0300FFF73CFB3E44012386F8583036
:105AA000694604A8746800F003FF04A8A0470446F0
:105AB00004A800F099FE03E00134CFE74FF0FF3473
:105AC000684600F091FE204608B0BDE8F08700BFB0
:105AD000400E002010B5064C206803F0D9FF236863
:105AE000013303D0431E5842584110BD012010BD60
:105AF0001400002070B50B4B05461B780C4673B99B
:105B0000094B1B785BB9FFF7E5FF034638B9074A35
:105B1000294610682246BDE8704004F073BF4FF07C
:105B2000FF3070BD481C0020491C002014000020DC
:105B30002DE9F041264B86B01B7880460F46002B9E
:105B400041D1244B1B78002B3DD1FFF7C3FF044606
:105B5000002838D1204D8DF80C008DF80D008DF8FF
:105B60000E008DF80F00286806AA460902EB86068B
:105B7000012100F01F02914056F80C2C01300A431D
:105B800046F80C2C41F28832059204AA009203A92F
:105B900022462346049404F017FE002815DD2B68E6
:105BA00006AA590902EB810151F80C5C03F01F02AF
:105BB000154115F0010008D0184641463A462346E3
:105BC00004F0A2FE01E04FF0FF3006B0BDE8F08126
:105BD000481C0020491C00201400002030B51E483D
:105BE000ADF5797D08F0EDFA002832D11B4B15A8F0
:105BF00004931B4B5FAD05931A4B039006931A4B0E
:105C00000CAC0793194B02950893194B0993194B48
:105C10000A93194B0B93194B0C93194B0D93194B7A
:105C20000E93194B0F93194B1093194B1193194B5A
:105C30001293194B1393194B149306F039FB284612
:105C400006F03CFB00940448154902AA04AB08F096
:105C5000BFFA0DF5797D30BD74100020F55A0008AB
:105C6000315B0008015A00081D5A0008EDC2000807
:105C7000355A00089D590008A95F000845590008D9
:105C800051590008455A0008715900087D5900080B
:105C90004D5F0008C1590008C9C20008DDC20008F4
:105CA000E8F7FF1F014809F0D4B800BF74100020C6
:105CB00030B502208DB00146112204F0CBFC051E48
:105CC00028DB07A8144908F0A6FB0223ADF80C3026
:105CD00016238DF80E3033238DF80F30E0238DF826
:105CE000103000238DF8113001238DF81230BB23C2
:105CF0008DF81330032403AB00931023019328463F
:105D000007A91322002304F087FE013CF3D12846A3
:105D100004F0CEFC0DB030BDE8F7FF1F10B5074C06
:105D2000FFF75CFF204608F04FFA204608F0C3FD5D
:105D30000446FFF7BDFF204610BD00BF74100020D1
:105D400038B5114CD4F8445A2DB1D4F8443A013B3B
:105D5000C4F8443A38BDD4F8483A0C4A52F8230003
:105D600005F01AFDE72005F06BFD6423084AC4F82E
:105D7000443AD4F8483A526801339342C4F8483A56
:105D8000A8BFC4F8485A38BD400E0020284001087A
:105D9000140000207FB502200121062204F05AFCE5
:105DA000041E24DB0223ADF8003000238DF80230FE
:105DB00035238DF803304FF4FA5008238DF8043062
:105DC0008DF805308DF806308DF8073001F0F8FABF
:105DD000694610220546204604F0C8FC06462846BF
:105DE00001F0EEFA204604F063FC304601E04FF08B
:105DF000FF3004B070BD000010B5064C20680028CC
:105E000005DB04F055FC4FF0FF33236010BD00208C
:105E100010BD00BF14000020F0B5A7B0FFF7ECFFE5
:105E200002200121062204F015FC324F00283860C0
:105E300050DB314D0223A5F84C3A162385F84E3A33
:105E400005A8332385F84F3A06F0FEF900230093A6
:105E50009DF814303BB1012B17D0284B01AC03F156
:105E6000100E224602E0069B009313E01868596862
:105E7000264603C6083373453446F7D10FCA06AC2D
:105E800007C424F8023B1B0C23700A24009B0BB9A7
:105E9000013C22D1009B0BB9194B0093009B4FF49E
:105EA000FA501A0E85F8502A1A0C85F8512A1A0A47
:105EB00085F8533A85F8522A01F082FA11490446CE
:105EC0001022386804F052FC0546204601F078FAAA
:105ED00028460CE04FF0FF3009E006A87E210DF0C7
:105EE000D7FD6A4681B206A804F008FCCEE727B0C9
:105EF000F0BD00BF14000020400E0020A96C010876
:105F000004E5D0368C1800200F4B2DE9F041D3F872
:105F1000647180460024BC4211DA142565430A4EA0
:105F2000414606F5B67028440C220DF025FD20B937
:105F3000354495F87801BDE8F0810134EBE74FF086
:105F4000FF30BDE8F08100BF400E002008B5FFF72C
:105F5000DBFF013808289DBF024BC018007F0220DC
:105F600008BD00BF2840010804F000BC37B50B4C49
:105F7000002104F65C250B4600910A46284600F0F5
:105F8000E1FA28460649074A0CF074FC04F50D7046
:105F900003B0BDE8304008F0FFB800BF400E00205D
:105FA000FD5100083C0E002006F0DAB930B54FF480
:105FB0007A7385B01C4C0093236805460344236024
:105FC00006F0CEF9019006F03BFF06F0C9F9029009
:105FD000029A019BD31A0393039B002B03DA019BC4
:105FE000029A13440393039BAB421AD20F4B1B78C4
:105FF000002BE8D00E4B1B78002BE4D1039A009BBA
:106000009A4203D22368B3F57A7FDCD3039B03F56E
:106010007A73009301F060FA064B1B78002BF9D1DC
:10602000D1E705B030BD00BF441C0020941C002007
:10603000491C00200B1C002013B5084C00210091C6
:106040000A460B46204600F07DFA0549054A2046DF
:1060500002B0BDE810400CF00DBC00BFD01800200D
:10606000FD5100083C0E002038B5184B05461C8831
:1060700003F580631B88A4B29BB22BB94EF6EE6287
:10608000A21A18BF012205E0F4B94EF6EE629B1A7F
:106090005A425A4192020E4B02F1006404F58044C8
:1060A00013449C420ED22268013209D1204606F0E8
:1060B000FBFD042809D1A01C294606F0F5FD38BDDA
:1060C0000434EEE7802038BDAB2038BD0040000826
:1060D000FE43000808B5084806F0C8FD04280AD1A8
:1060E0000548002106F0E0FD042804D1BDE8084081
:1060F000024806F0BBBD08BD00400008004400088F
:10610000104B10B51C8803F580631B88A4B29BB2AA
:106110001CB10BB1AB2010BD01240B4BA4022344D6
:106120000A4A224493420AD91A8892B2824204D17E
:1061300033F8023C00200B8010BD043BF0E7012047
:1061400010BD00BF00400008FE43000802400008E8
:10615000F8B5444E06F04AFD434D34884EF6EE61E4
:10616000A4B22B888C429BB24FF6FF7210D094429F
:1061700002D0002C73D142E00BB930466CE08B4268
:106180006DD1304606F072FD04286AD1284632E00F
:106190004BBB1C461646354B354A1B8832F814500B
:1061A0009BB2AB4208BFA6B233B29C4203D10134CA
:1061B000642CF0D10FE02E4F284607F1C801FFF7FD
:1061C0009FFF0128F3D02846B7F8C810FFF74CFF0F
:1061D0000428ECD0F8BD2348002106F065FD042812
:1061E0003FD1214838E0934239D1284606F03EFDA0
:1061F000042836D13046002106F056FDF8BD73B3B1
:10620000934201D1284627E016461A4B184A1B88AC
:1062100032F814509BB2AB4208BFA6B233B29C42D4
:1062200003D10134642CF0D10FE0114F284607F15F
:10623000C801FFF765FF0128F3D02846B7F8C8105A
:10624000FFF712FF0428ECD0F8BD0748002106F044
:106250002BFD042805D1034806F008FDF8BDFFF723
:1062600039FFF8BD0040000800440008064000085F
:10627000D8180020064400082DE9F84306460C46CD
:1062800006F0B4FC30462146FFF7EEFE802840D1F0
:10629000214B22481988028889B292B221B1002A82
:1062A00036D11D46814601E00546994628464EF600
:1062B000EE6106F0F9FC04282BD130462146FFF7A9
:1062C000D3FE042825D10024154F34F80780B045AB
:1062D00003D10234C82CF7D10FE0404607F1C801C2
:1062E000FFF70EFF0128F4D04046B7F8C810FFF7BB
:1062F000BBFE0428EDD0BDE8F883484606F0B6FCA6
:10630000042806D12846002106F0CEFCBDE8F8831B
:10631000AB20BDE8F88300BF00400008004400083F
:10632000D818002010B50446FFF712FF0023044AD6
:1063300022F813300133642BF9D1204610BD00BF81
:10634000D8180020632907B507DC074B33F8110084
:106350000DF10601FFF7D4FE08B1FF2001E09DF822
:10636000060003B05DF804FBD818002063290B4633
:1063700005DC034931F813001146FFF77DBF704774
:10638000D81800200148FFF7CDBF00BFA219002098
:10639000024B18785B78C01A704700BFA419002020
:1063A000064B5A781978914204D9991801328878A5
:1063B0005A7070474FF0FF30704700BFA41900209B
:1063C000044B5A781978914286BF9B1898784FF001
:1063D000FF307047A419002070470000014B036094
:1063E000704700BF9840010810B5034B0446036096
:1063F000FFF780FA204610BD98400108F8B5094B18
:10640000054693F82230164653B10C468F18BC420D
:1064100006D02B6828469B6814F8011B9847F6E7BE
:106420003046F8BDA419002010B50C4B012293F89A
:1064300022408CB193F823401F2C02D942600020E7
:1064400010BD93F824001C1884F82510411CC9B213
:1064500083F8241083F82310104610BDA4190020DF
:10646000002242604FF47A728260014A02607047F3
:10647000584001087047704773B50E4C002104F175
:1064800064050D4E0B4600910A46284600F05AF866
:106490006C343246094928460CF0ECF92046FFF7E7
:1064A000DFFF07492046324602B0BDE870400CF0DD
:1064B000E1B900BFA41900203C0E0020FD510008E6
:1064C000DD63000808B5034B53F8203003B198474B
:1064D00008BD00BF201A002013B5084C0021009110
:1064E0000A460B46204600F02DF80549054A20468D
:1064F00002B0BDE810400CF0BDB900BF601A00202A
:10650000FD5100083C0E00202DE9F0410024074613
:106510000E4625463B1919790A22304600F0F6F856
:106520002E218046304600F07AF801344044032C96
:106530000544EFD13046F9790A2200F0E7F8284403
:10654000BDE8F08130B58371034D9DF80C300560D6
:1065500001714271C37130BD804001080548064B8E
:1065600006490360064A0023037143718371C371B6
:106570000CF080B9681A002080400108FD51000825
:106580003C0E002013B5084C002100910A460B4632
:106590002046FFF7D7FF0549054A204602B0BDE86F
:1065A00010400CF067B900BF701A0020FD510008C0
:1065B0003C0E0020014B0360704700BF984001086B
:1065C000F8B506460C468F180025BC4207D0336844
:1065D00030469B6814F8011B98470544F5E72846A8
:1065E000F8BD000010B5034B04460360FFF782F9C5
:1065F000204610BD9840010838B505460C460846AF
:1066000041B10DF089F92B680246DB682846214626
:10661000984738BD38BD08B5FFF7EEFF08BD08B58F
:1066200003689B68984708BD38B50D210546FFF7FC
:10663000F6FF0A2104462846FFF7F1FF204438BD43
:1066400038B50446FFF7D8FF05462046FFF7ECFFB4
:10665000284438BD38B50446FFF7E1FF054620461B
:10666000FFF7E2FF284438BD30B500238BB08DF82A
:106670002430012A98BF0A220DF12304B1FBF2F362
:1066800003FB1211CDB2092D94BF30353735EDB271
:10669000214604F801590BB11946EFE7FFF7ACFFAB
:1066A0000BB030BDF8B506460D46144622B9036856
:1066B000C9B29B689847F8BD0A2A0CD100290BDAA9
:1066C0002D21FFF7ACFF6942074622463046FFF70F
:1066D000CBFF3844F8BDD2B2BDE8F840FFF7C4BFE5
:1066E00038B50446FFF7DEFF05462046FFF79CFF5E
:1066F000284438BD10B522B90268C9B292689047E3
:1067000010BDD2B2BDE81040FFF7AEBFFFF7F2BF39
:1067100038B50446FFF7EEFF05462046FFF784FF35
:10672000284438BD13B5084C002100910A460B4699
:106730002046FFF707FF0549054A204602B0BDE89D
:1067400010400CF097B800BF801A0020FD510008DF
:106750003C0E002013B5084C002100910A460B4660
:106760002046FFF7EFFE0549054A204602B0BDE886
:1067700010400CF07FB800BF881A0020FD510008BF
:106780003C0E00207047000013B5084C002100911A
:106790000A460B462046FFF7D5FE0549054A204626
:1067A00002B0BDE810400CF065B800BFA81A002088
:1067B000FD5100083C0E002013B5084C002100914B
:1067C0000A460B462046FFF7BDFE0549054A20460E
:1067D00002B0BDE810400CF04DB800BFB41A002064
:1067E000FD5100083C0E002010B5044600680CF076
:1067F00081F9204610BD10B50446006808B10CF0C0
:1068000079F900232360A360636010BD38B50446A6
:106810000D46006801310CF063FD10B184E82100E1
:10682000012038BD036810B5044613B143688B429C
:1068300007D22046FFF7EAFF20B1A3680BB9226810
:106840001370012010BD70B50E4611460446154662
:10685000FFF7E8FF18B92046FFF7CDFF04E0A56079
:10686000206831460CF0FAFF204670BD38B5002391
:10687000044603604360836003730D4639B10846E4
:106880000DF04AF8294602462046FFF7DCFF204675
:1068900038BD884210B50B46044607D0096819B1C7
:1068A0009A68FFF7D0FF01E0FFF7A5FF204610BD73
:1068B00010B5002304460360436083600373FFF751
:1068C000E8FF204610BD13B5026802AB03F8011DB6
:1068D000D46819460122A04702B010BD10B5B0F827
:1068E0001622B0F8143204469A4207D0B4F8143293
:1068F0005A1CA4F814221C44207D10BD03681B6997
:1069000098470028F2D14FF0FF3010BD10B5B0F815
:106910001622B0F8143204469A4204D0B4F8143265
:106920001C44207D10BD03681B6998470028F5D1E1
:106930004FF0FF3010BD0023A0F81432A0F816323B
:106940007047F8B51746B0F81432B0F8162204466E
:106950009A420E4606D103681B69984710B94FF05A
:10696000FF3512E0B4F81432B4F81652E118ED1AFB
:10697000BD4228BF3D46304614312A46FEF7C8FBCB
:10698000B4F814322B44A4F814322846F8BD10B5DC
:1069900004460069082801D003F08AFE0823236119
:1069A00010BD30B5B0F8163287B0044633B1B0F838
:1069B00014229A4202D10368DB69984700F02AFB4F
:1069C000022821D1206908281ED0B4F81632B3F568
:1069D000007F19D2430906AA02EB8303012100F0CC
:1069E0001F0201FA02F243F80C2C41F28833002511
:1069F000059304AB009308442A4603A92B4604954B
:106A000003F0E2FEA84206DCB4F81602B4F8143231
:106A1000C01A07B030BD206906AB420903EB820201
:106A200052F80C2C00F01F0342FA03F3DB07EBD5FE
:106A3000B4F816222B46A1181431C2F5007203F0E7
:106A400063FF0028E0DDB4F816320BB9A4F8143265
:106A50000344A4F81632D7E72DE9F04188B0064682
:106A60000F46904600F0D6FA02284FF0000422D1DB
:106A700008AD384645F8144D0CF04EFF2A4681B259
:106A8000384603F03BFEA04215DD039B04A8DAB2B2
:106A90000092190EC3F30742C3F30723FFF752FD19
:106AA000336830461C6A064B06A90693059B42468E
:106AB0000793A04700E0204608B0BDE8F08100BF82
:106AC00080400108F0B585B004460D46164600F03A
:106AD000A1FA0228074634D10121062203F0BAFDAB
:106AE000002820612DDB23682046DB699847330AA4
:106AF0008DF802302B794FF4FA508DF804306B7911
:106B00008DF803608DF80530AB79ADF800708DF825
:106B10000630EB798DF8073000F052FC69460546E7
:106B200010222069FFF720FA0646284600F048FCAC
:106B3000002E04DA23682046DB6A984701E0012032
:106B400000E0002005B0F0BD4FF47A718160054986
:106B500000220160082142600161A0F81422A0F81F
:106B600016227047B0400108036910B5082B04468F
:106B700001D1002010BD00F04DFA0228F9D12069A2
:106B800002F086FFD0F1010038BF002010BD70B5C3
:106B900004460E461546FFF7E7FF38B12069314637
:106BA0002A460023BDE8704003F02CBF4FF0FF30B1
:106BB00070BD70B50446FFF7D7FF012819D0B4F8AF
:106BC0001622B4F814329A4212D12069082803D050
:106BD00002F05EFF012801D0002070BD236820462E
:106BE0001B69984720B923682046DB6A9847F3E77A
:106BF000012070BD08B5FFF7B7FF003018BF0120B6
:106C000008BD000013B5084C002100910A460B4650
:106C10002046FFF797FC0549054A204602B0BDE82B
:106C200010400BF027BE00BFBC1A0020FD51000829
:106C30003C0E002013B5084C002100910A460B467B
:106C40002046FFF77FFC0549054A204602B0BDE813
:106C500010400BF00FBE00BFC41A0020FD51000809
:106C60003C0E002038B5184C94F92C305BB394F8E6
:106C70002D3043B306F0A4F994F82C2094F82D504D
:106C800051B2002995FBF1F106DD01290BDC013A37
:106C900084F82C20002307E0013104DB013284F862
:106CA0002C20022300E0012394F82D20013A84F8DF
:106CB0002D20C41806F0B6F9204606F093F9BDE879
:106CC000384006F0AFB938BDCC1A002013B5084CD7
:106CD000002100910A460B462046FFF733FC054988
:106CE000054A204602B0BDE810400BF0C3BD00BF0E
:106CF000FC1A0020FD5100083C0E002013B5084C82
:106D0000002100910A460B462046FFF71BFC05496F
:106D1000054A204602B0BDE810400BF0ABBD00BFF5
:106D2000081B0020FD5100083C0E0020014B0360B1
:106D3000704700BF984001080369186C5B6CC01A6B
:106D400000F03F0070470369196C5A6C91421ABFFA
:106D50005A6C985C4FF0FF3070470369196C5A6C9D
:106D6000914207D05A6C985C5A6C013202F03F0293
:106D70005A6470474FF0FF307047000010B5034B66
:106D800004460360FEF7B6FD204610BD984001089A
:106D9000436910B50446196C5A6C9142FBD1237EAD
:106DA00013B90023237610BD0348402106F087FB6A
:106DB0000028F6D1F3E700BF0044004070B5044658
:106DC0000E462C4840F2277106F07FFB20B963691C
:106DD0001A6C5B6C9A4211D163691D6C013505F028
:106DE0003F0563695A6C95420FD0EFF31082D207CA
:106DF00032D5196C5A6C914207D12DE01D4840F2F2
:106E00002771012206F03BFBE6E71A4840F22771A2
:106E100006F05BFB0028E4D01648802106F04FFB0B
:106E20000028DED0134840F22771002206F027FB2D
:106E3000636910485A6C511C5964995C06F037FB21
:106E400063690C485A6C40F2277102F03F025A64A1
:106E5000012206F014FBC4E71A6C06489E546369CD
:106E600040F227711D64012525762A4606F007FBAE
:106E7000284670BD0044004010B51E4840F2255120
:106E800006F023FB78B11B4806F015FB1A4BC0B285
:106E90005A6D996D013202F03F028A4203D0596D5A
:106EA0005A6519440875134840F2277106F00DFB26
:106EB000F8B1114CD4F89C20D4F8A0309A4207D1F4
:106EC000BDE810400B4840F22771002206F0D7BA07
:106ED000D4F8A03007485A1C234493F85C10C4F837
:106EE000A02006F0E4FAD4F8A03003F03F03C4F881
:106EF000A03010BD00440040101B0020F7B5164C18
:106F0000002504F1A406154F2B4629462A46009574
:106F10003046FFF717FB3A46304611490BF0AAFC02
:106F20004FF47A73C4F8B4300E4B0F49C4F8AC3048
:106F300004F11403C4F8BC3004F1AC0004F15C03A8
:106F40003A46C4F8B050C4F8C03084F8C45003B016
:106F5000BDE8F0400BF08EBC101B00203C0E002062
:106F6000FD510008F04001082D6D000870474FF0FA
:106F7000FF307047014B0360704700BF9840010825
:106F800010B5034B04460360FEF7B4FC204610BD69
:106F900098400108FEF7CABB08B5FEF7B3FB08BD71
:106FA00008B50846FEF7E2FB012008BD002242605A
:106FB0004FF47A728260014A0260704718410108FA
:106FC0000846FEF787BB000037B50D4C00210D4D7C
:106FD0000B4600910A462046FFF7B4FA2A460A49B2
:106FE000204608340BF046FC2046FFF7DFFF074938
:106FF00020462A4603B0BDE830400BF03BBC00BF42
:10700000D81B00203C0E0020FD510008756F0008C1
:1070100070470000054B1B7803F0FF002BB1044BB9
:107020001B78002B14BF022001207047391C002060
:10703000081C002037B50B4C00210B4D0B4600916E
:107040000A462046FFF77EFA2A46204607490BF0FB
:1070500011FC074904F108002A4603B0BDE830409E
:107060000BF008BCF01B00203C0E0020FD51000876
:107070001170000800230360184670470023036066
:107080001846704700230360184670472DE9F04109
:107090000B7886B0002B0C4614BF90464FF00008CA
:1070A00006460CF039FC074620460CF035FC182348
:1070B00001931E230125029302230393059000955B
:1070C0000494404631463A46002303F0D9FD034B71
:1070D00018705D7006B0BDE8F08100BFFC1B002099
:1070E000034610B548F21004A34208464CD00DDC0C
:1070F00048F20102934224D048F2020293422AD07D
:10710000992B64D1324B01229A7410BD48F280044D
:10711000A3420FD0B3F5084F49D048F24000834254
:1071200055D12B4C04F11400FDF7F2FFA36A013393
:10713000A36210BD264B01229A70DA7000221A71E8
:1071400010BD234C01236371FEF72EFF00F5EA40CA
:107150003030A06010BD1E4C637963B1FEF724FF90
:1071600000F5EA403030A0604FF47F4004F0ECFAC4
:10717000E72004F065FB0023637123736373A3733B
:10718000E3732374637410BD0A7D114B62B99A6076
:107190004FF47F4001221A731A7404F0D5FABDE847
:1071A0001040E72004F04CBB00221A7310BD0021F0
:1071B00002F06FF80121044602F0B2F8054B1B689B
:1071C0009C4204D1024B0022DA739A735A7310BDA9
:1071D000FC1B0020140000201FB54FF461504FF439
:1071E00061610A2200238DE80F00064B44F62062FD
:1071F0001A60684601A902AA03AB02F04FFD05B070
:107200005DF804FBDC1C00201FB5002300930193F4
:107210000293039301A8694602AA03AB02F004FD9E
:1072200005B05DF804FB000070B500210A4C0E208B
:1072300002F006FE102510210E2002F001FE2A4663
:10724000204600210BF0DEFF294623460E200022B7
:10725000BDE8704002F0A8BD281C002030B5524D9A
:1072600000249FB0FF20AC70EC706C706C712C73BC
:10727000AC746C73AC73EC732C7404F065FAE72097
:1072800004F0DEFA21462246204603F0D5FC2B46C8
:10729000012103F82D4F0E200A4602F085FD6B797F
:1072A000012B05D1642004F0F9F802F059F9F6E752
:1072B00010210C2002F0C4FD3C4803F087F93C4843
:1072C00003F030FE012003F011FE6846394900F05A
:1072D000D1FDAB786A78344C1A4317D194F83C301E
:1072E000002B57D0FF2003F0B3FD002852D11A2401
:1072F000013C06D0E72004F0D1FA322004F0CEF8A9
:10730000F6E7FFF791FF85F83C40E2E7E72004F05D
:1073100097FA04F12C030E200121002202F016FD41
:10732000A37813B103F01EFE20702B7801210133E6
:1073300085F82C300022204B0E2002F035FD002075
:1073400001240146012203F077FC214622461B4B13
:107350000E2085F82D4002F027FD03F0F1FB64209C
:1073600004F09CF8002003F0B5FB85F83D404FF495
:107370007F4000242C7404F0E7F9E72004F060FA61
:1073800048F2042003F080FDFFF726FF85F83E4019
:107390001FB030BDE72004F081FAFA2004F07EF837
:1073A000684600F0C3FD94E7FC1B0020384101084B
:1073B0001C0000208D700008281C0020291C0020C3
:1073C000024B1A6818601046704700BFDC1C002092
:1073D0007FB5364C0025206404F016FD04F056FC01
:1073E000334B344A0093344B34490193344B354882
:1073F0000293354B0393354B03F054FB642004F0A8
:107400004DF8002003F066FB012348F2042084F8C5
:107410003D30257403F038FD2D4B1A881E46012A95
:1074200031D00E2010212A4604F12C0302F08EFCEC
:10743000102828D123791D4DABB995F82C301BB9F4
:10744000012385F83E300EE095F82D0058B901462D
:10745000012203F0F1FB01212B4603F82D1F0E2022
:107460000A4602F0A1FC2379BBB9104B93F83E30D9
:107470009BB1184802F0CAFCFFF7C6FE04B0BDE895
:107480007040FFF7A9BEFF2003F0E2FCFFF7CCFE3F
:107490000023338004F010FECCE74FF47F4004F06B
:1074A00053F9E72004F0CCF9E3E700BFFC1B002010
:1074B00045BD00087D70000859BD000875700008C2
:1074C000C5BD0008E1700008EDBD0008857000082A
:1074D0006A010020401C00202DE9F341AE4C05F06C
:1074E000AFFC0023A36494F84C304BB994F84D30B2
:1074F00033B9A3687BB3FEF757FDA36898422AD33C
:1075000094F83D30A44D002B40D000266E71AE6043
:107510002E732E6585F84C60012785F83D606E73EB
:10752000AE73EE736E7403F00BFB6FF07F402F743D
:1075300004F00AF9E72004F083F9642003F0AEFFB9
:1075400095F83E3013B3304603F0C4FA85F83D7029
:10755000FFF784FE1AE094F83D308F4DB3B92B79D4
:107560002BB9FEF721FD00F5EA403030A86000207D
:1075700003F0B0FA012384F83D304FF47F4000233C
:10758000237404F0E1F8E72004F05AF994F83E304F
:10759000814E13B1FFF762FE05E033791BB1337BF7
:1075A00003F0FF05FBB1E2787B4B012A13D11A7B74
:1075B000012A10D15B79012B0DD1032577480CF0FE
:1075C000ABF9013D82B27549012003F031FA15F0A3
:1075D000FF05F3D1E570237B6F4DE3B195F84D3096
:1075E000002B74D017E029462A462846B56003F0E0
:1075F00023FB6B480CF090F96A4F804638460CF03C
:107600008BF900970190791F032042462B4603F027
:10761000ADFA3571C7E794F8573023B162480021BD
:107620003A220BF0EFFD94F88E205B4B32B95A7B77
:10763000002A58D19B7B002B55D1BBE01A7BFAB1B5
:1076400093F84D20E2B95A7B002A5CD018E02B4613
:1076500003F82F2F0E200121032202F0A5FB0026A4
:107660004FF6FF70267404F06FF8E72004F0E8F896
:10767000FEF7D2FBB042484D65DB01232E656B73EC
:10768000637B454D002B00F09580AB7BBBB9FEF7CB
:1076900045FB002811D002DA4FF47F0007E00128F3
:1076A00001D1424803E0022803D14FF0FF1004F05B
:1076B0004BF8E72004F0C4F801E00123AB73FEF7B8
:1076C000F1FA002876D1E073A073607372E095F848
:1076D0005730002BA7D1642003F0E0FE05F15400E1
:1076E00002F022FB9FE7FEF787FB00234FF47F4069
:1076F000E373A373637304F027F8E72002B0BDE8D7
:10770000F04104F09DB85B7C002BA8D04FF47F00C3
:1077100004F01AF8637C204D03F0FF02002B96D092
:10772000E72004F08DF84FF4FA7003F0B7FEE7207D
:1077300004F094F84FF4FA7003F0B0FE6B7C013B58
:10774000DBB26B74E6E795F84C309BBB2B6D0133D5
:10775000022B2B6504BF012385F84C30FEF71AFB82
:1077600000280ADA236D0133022B236503D10A4B6B
:10777000012283F84C20022300E003236374637C1E
:107780000E2084F82F300121094B032202F00CFB5C
:107790000023637374E700BFFC1B00201F00002060
:1077A000260000202B000020501C00200060FF005D
:1077B0002B1C002002B0BDE8F08100BF13B5084CBF
:1077C000002100910A460B462046FEF7BBFE054904
:1077D000054A204602B0BDE810400BF04BB800BF90
:1077E0008C1C0020FD5100083C0E0020704708B59D
:1077F000012004F0E3FFFEE708B5032004F0DEFFFC
:10780000FEE708B5042004F0D9FFFEE708B505201F
:1078100004F0D4FFFEE770477047704708B504F0E6
:1078200097FDBDE80840FDF789BE000008B5024B92
:107830000BB1AFF3008008BD0000000008B5024B9B
:107840000BB1FFF719FB08BD796E000808B5024BB4
:107850000BB1FEF70FFE08BD7564000808B5024BBA
:107860000BB1FEF708FE08BD7764000808B5024BAF
:107870000BB1FEF787FF08BD8567000808B501203A
:1078800005F0A0F938B1012005F0AAF9024B13B1B7
:107890000020FEF717FE08BDC564000808B50220E9
:1078A00005F090F938B1022005F09AF9024B13B1B6
:1078B0000120FEF707FE08BDC564000808B50420D6
:1078C00005F080F978B1042005F08AF90020064B14
:1078D0000146188004F06AF8BDE80840034810210A
:1078E000012205F084BD08BDFC1C0020002C0140D5
:1078F00008B5082005F066F938B1082005F070F9E0
:10790000024B13B10320FEF7DDFD08BDC56400087E
:1079100008B5102005F056F938B1102005F060F9CF
:10792000024B13B10420FEF7CDFD08BDC56400086D
:1079300008B5202005F046F938B1202005F050F9AF
:107940000E4B13B10520FEF7BDFD402005F03AF9BE
:1079500038B1402005F044F9084B13B10620FEF77A
:10796000B1FD802005F02EF938B1802005F038F9FE
:10797000024B13B10720FEF7A5FD08BDC564000842
:1079800008B54FF4005005F01DF940B14FF4005018
:1079900005F026F9174B13B10D20FEF793FD4FF4B8
:1079A000804005F00FF940B14FF4804005F018F920
:1079B000104B13B10E20FEF785FD4FF4004005F08B
:1079C00001F940B14FF4004005F00AF9094B13B139
:1079D0000F20FEF777FD4FF4006005F0F3F838B1A3
:1079E0004FF4006005F0FCF8BDE8084003F0E0BC8F
:1079F00008BD00BFC564000808B50F48102105F098
:107A00002FFDC0B10C48102105F035FD002004F019
:107A100091F828B9094B1A880A3292B21A8008BD27
:107A200005481021002205F0E2FCBDE808400020D6
:107A3000012103F0BBBF08BD002C0140FC1C00204D
:107A400008B5012005F004FB50B1012005F010FB42
:107A5000044B0BB1FFF706F9BDE8084005F0E2BAA8
:107A600008BD00BF656C000808B5022005F0F0FAFB
:107A7000B0B10C4B00224FF400301A7005F0B0F892
:107A8000012005F007FA10B1012005F00DFA05F00C
:107A9000C9FA022005F0ECFABDE8084005F0C2BAC8
:107AA00008BD00BF491C002003F014BC00F064B8FE
:107AB00038B514490B78012B23D1134A13680BB93D
:107AC0000B7038BD114C402B206881B205D9403075
:107AD000403B20601360402504E09DB203442360D6
:107AE000002313600A482A460844C02106F0F8F92A
:107AF0000120294606F0FCFABDE83840012006F0D6
:107B000061BA38BD280E0020300E00202C0E002057
:107B1000280D002008B5094B01221A70084B0022DD
:107B200003201A8006F012FB064B024618804FF421
:107B300088710548BDE8084006F0EAB9DC0C002071
:107B4000E00C0020DE0C0020E20C0020084B1B683B
:107B5000052B0BD1074B1A68052A02F1010101D050
:107B60001960704700221A60FDF71EBE704700BF03
:107B7000281D0020981C002070B52B4D2B4C2B6825
:107B80002B4E9BB22380228833881340990508D559
:107B90004FF6FF532B60A3780133DBB2A370FFF7DE
:107BA000D5FF2288338813401A0401D506F0E2F885
:107BB0002288338813405B0505D54FF6FF332B60D1
:107BC0001C4B5B689847228833881A40900444BF56
:107BD0004DF6FF722A6022881340D90405D54EF66F
:107BE000FF732B60002004F0A7FD22883388134028
:107BF0001A050BD5104B1B7813B104F07DFD02E084
:107C0000022004F099FD4FF2FF732B602288338825
:107C10001340DB0507D54FF6FF632B600720BDE857
:107C2000704004F089BD70BD445C00409C1C002085
:107C3000142700209000002090010020034B9B7A25
:107C400013B1034B05221A60704700BFF0260020D5
:107C5000281D0020014B04221A607047281D0020B7
:107C6000034B1A78202A04BF00221A70704700BF05
:107C7000A01C002070470000212810B508D1114B2E
:107C80001B681B7803F07F03212B10D0022010BD4E
:107C90002028FBD10B4B0C4A1B681B78107003F09B
:107CA0007F03212B094B18BF00230BB9EEE7084BCC
:107CB000044A002412682046936154829847204663
:107CC00010BD00BF10270020A01C0020217D00084F
:107CD000097D0008074B1B681B7803F07F03212BED
:107CE00006D100F0DF0002280CBF00200220704700
:107CF000022070471027002021B9022834BF00203D
:107D0000022070470220704720B9034B08221B68ED
:107D10001A82704701487047102700208800002011
:107D200020B9034B08221B681A827047014870472C
:107D3000102700208800002010B5FDF781FD054BBD
:107D400000241B689C7204F0BFFC06F015FA024B7D
:107D50001C6010BD10270020281D0020334B344A22
:107D60001B68D27910B500245A729C72DC722046CE
:107D700006F0E0F820464FF4007106F0E3F82046E4
:107D8000102106F0EDF82046402106F085F980210B
:107D9000204606F071F9204606F03AF9254B2046B8
:107DA00093F8341006F0B2F9204606F01EF90120CF
:107DB000214606F0C7F80120C02106F05DF9012038
:107DC000202106F0CDF80120214606F0E2F802203D
:107DD0004FF4C06106F0B6F802204FF4807106F04F
:107DE0004BF90220214606F0D4F80220202106F0AB
:107DF000B7F80320214606F0A5F803204FF4887158
:107E000006F04AF90320402106F080F903204FF4E0
:107E1000405106F0BEF80320214606F0A1F82046A6
:107E200005F03CFF044B01221A6010BD1027002012
:107E3000A541010888000020281D0020014905F007
:107E400029BD00BFC0000020014905F023BD00BFCF
:107E5000C8000020054B1B68DB78042B04D80449BC
:107E600001EBC30105F016BD00207047102700206C
:107E7000D000002038B504460D46FFF797F820469D
:107E800025614FF41651FFF79BF8204638BD70B5B9
:107E900006460D46002428460BF03EFD844208D2DB
:107EA000295D3046FFF77CF8012003F0F7FA013432
:107EB000F1E770BD2DE9F04104460E4690460025DD
:107EC0002046FFF769F80028FADD2046FFF762F840
:107ED0004545C1B206D10023337020461249FFF751
:107EE000D6FF15E00D29F6D00A29F4D0082901D0D3
:107EF0007F2904D1002DE3D0771E013D02E0771CDD
:107F0000317001352046EDB2FFF74AF83E46D7E71B
:107F10002046FFF741F8002803DD2046FFF73AF836
:107F2000F6E7BDE8F08100BF656E0108F0B585B0E9
:107F30000446FFF731F8002840F39B802046FFF706
:107F400029F8C0B2772867D104F114060021212254
:107F5000304604F135050BF055F941220021284641
:107F60000BF050F904F17607002384F876302046B0
:107F700041497B70FFF78BFF204631462022FFF7F7
:107F800099FF20463D49FFF782FF012220463946EE
:107F9000FFF790FF94F87630A3F13002032AF0D86F
:107FA000312B0BD120463649FFF771FF204635496A
:107FB000FFF76DFF20463449FFF769FF94F87620FC
:107FC000B2F1300708D020463049FFF760FF204665
:107FD00029464022FFF76EFF20462D49FFF757FF45
:107FE00023693A4630462946984720462949FFF7F3
:107FF0004EFF20462849FFF74AFF20462749FFF752
:1080000046FF20462649FFF742FF20462549FFF755
:108010003EFF2046244927E069282AD1234B01ADA1
:1080200093E8070085E8070020462149FFF72FFF66
:108030000026AF5D20463B0903F13001392988BF96
:1080400003F1570107F00F07FEF7AAFF07F1300110
:10805000392988BF07F1570120460136FEF7A0FFF6
:108060000C2EE6D11349204605B0BDE8F040FFF7DD
:108070000EBF05B0F0BD00BFB96C0108C06C0108AF
:10808000ED6C0108236D01084E6D0108946D010827
:108090009F6D0108E26D0108026E0108356E01084E
:1080A000686E0108A76E0108D86E0108E8F7FF1F87
:1080B000EE6E0108656E010813B5084C00210091B1
:1080C0000A460B462046FEF73DFA0549054A20467A
:1080D00002B0BDE810400AF0CDBB00BFA41C0020D8
:1080E000FD5100083C0E00202DE9F34781460C4667
:1080F0000026484601F086F800287FD000238DF83E
:1081000004308DF805308DF80630484601F069F8E6
:10811000032596FBF5F303EB4303F31A02AA13447A
:1081200003F8040C4846013601F06CF828B196FBC0
:10813000F5F505EB4505AE42E7D1032396FBF3F3D6
:1081400003EB4303F31A012B9DF804709DF805809F
:108150002C4D11D13B0103F03003BF0843EA18183E
:10816000E95D2046FEF75BFA15F808102046FEF799
:1081700056FA20463D211BE0022B9DF806A01CD19B
:108180004FEA880303F03C0343EA9A1ABB083F0115
:1081900007F03007E95C204647EA1818FEF73FFA77
:1081A00015F808102046FEF73AFA15F80A1020468E
:1081B000FEF735FA20463D211DE0BB083F0107F0E0
:1081C000300747EA18174FEA8808E95C204608F0AC
:1081D0003C08FEF724FA48EA9A18E95D2046FEF7C3
:1081E0001EFA0AF03F0A15F808102046FEF717FAA3
:1081F00015F80A102046FEF712FA7AE702B0BDE839
:10820000F08700BFFA41010803464138C0B219287F
:1082100014D9A3F16102192A01D8473B04E0A3F164
:108220003002092A02D80433D8B270472B2B04D06D
:108230002F2B14BFFF203F2070473E2070470000C7
:108240002DE9F34106460D460024335D9BB31B4BDD
:108250001868019004F003070134331913F8010C76
:10826000FFF7D2FF02AB1F44335D07F8040C0BB1DC
:10827000A307EFD19DF805809DF80410C8F3011302
:1082800043EA81012846C9B200F09CFF9DF80670C0
:108290002846C7F3830343EA0811C9B200F092FFEE
:1082A0009DF80730284603F03F0343EA8711C9B21F
:1082B00000F088FFC9E702B0BDE8F0813A4201084A
:1082C00013B5084C002100910A460B462046FEF7E4
:1082D00039F90549054A204602B0BDE810400AF0C8
:1082E000C9BA00BFAC1C0020FD5100083C0E0020A4
:1082F0002DE9F04305684C5D002C00F0F8802C2C33
:1083000000F0F18011D80D2C00F0ED8004D8093C6C
:10831000012C00F2BB80E6E0202C00F0E480222C4F
:1083200040F0B4806F1C076072E05D2C36D005D839
:108330003A2C00F0D8805B2C08D0A7E07B2C05D02D
:108340007D2C40F0A3804FF0010C29E046689E424E
:1083500080F0E080771C4FEA0618476002EB080CBB
:108360004FF0FF37CCF80870CCF804700027CCF839
:108370000C708768B7F1FF3F06D002EB0719D9F8F8
:108380000C700137C9F80C707B2C14BF0224012437
:1083900002F80840CCF804508660A4E04FF0020CCC
:1083A0004468013C02EB04160436002C15DB3768E8
:1083B000A6F1040801370DD07768B7F1FF3F09D166
:1083C00016F8046C664540F0A78001358760C8F850
:1083D000085005E0013C103EE7E7661C00F09C8079
:1083E00002EB04150835002C7DDB55F8046C0136D2
:1083F00004D02E68013601D1846074E0013C103D48
:10840000F1E7222C09D05C2C19D0046801340460F7
:1084100006688C5D002CF4D12AE044689C424AD264
:10842000651C4560250154194FF0000CC4F80CC0C0
:108430004FF0030C02F805C06760A6604BE0013600
:1084400006608C5D662CE0D008D82F2CDDD001D8DA
:10845000222C07E05C2CD8D0622C03E0722CD4D004
:1084600002D86E2CD1D005E0743C012CCDD901E0AE
:10847000056053E005604FE0202C19D00FD8092C7F
:1084800009D2203C5E2CF5D80136066006688C5D6A
:10849000002CF1D10CE00A2C0AD90D2C07E03A2C63
:1084A00006D001D82C2C02E05D2C01D07D2CE8D127
:1084B00044689C4201D305602CE0671C476027019B
:1084C000D4194FF0000CC4F80CC002F807C0A66025
:1084D000013E656006608468651C04D002EB0414EC
:1084E000E5680135E56004680134046002E741682D
:1084F0004B1E02EB0112002B0ADB52F80C1C01315F
:1085000003D052F8081C013108D0013B103AF2E7C1
:10851000002004E0FF2002E0FE2000E0FD2040B249
:10852000BDE8F0830023036043604FF0FF338360B6
:1085300070470000F8B5114C054611492046174612
:10854000104EFEF768F820460021FEF768F828690B
:108550000021FEF764F831462046FEF75CF831460C
:108560002869FEF758F82046FF21FEF773F82869BE
:10857000FF21FEF754F83846F8BD00BFE01B00208D
:10858000FF6E01080A6F010808B5024800F03AFEC4
:1085900008BD00BFB41C002008B5054800F032FE3D
:1085A00018B1034800F01DFE08BD4FF0FF3008BDB4
:1085B000B41C002008B5054800F024FE18B103489B
:1085C00000F01CFE08BD4FF0FF3008BDB41C0020B9
:1085D00038B590F8CF500C460B4865B10B49FEF703
:1085E0001AF821460848FEF735F80948214600F0F8
:1085F000E9FD012038BD0749FEF70DF82146024884
:10860000FEF728F8284638BDE01B00201E6F010841
:10861000C41C00200F6F010810B50446134800F079
:10862000F1FD08B312491348FDF7F5FF0021114889
:10863000FDF7F5FF20690021FDF7F1FF0E490D4818
:10864000FDF7E9FF20690C49FDF7E5FF21690748BF
:10865000FFF74AFDFF210748FDF7FCFF2069FF21D6
:10866000BDE81040FDF7DBBF10BD00BFC41C0020FB
:10867000286F0108E01B00200A6F010800224260F9
:108680004FF47A728260024A01610260704700BF53
:108690004842010810B50446FDF786FCC4F8D00036
:1086A000206903681B69984728B1206903681B6922
:1086B0009847C0B210BDFDF777FCD4F8D03042F235
:1086C0001072C01A9042F0D8EAE70000F8B50646EA
:1086D00000690D46036817465B6998470024C1B2DC
:1086E0000A2907D100232B550E480134FDF79CFFC2
:1086F000E0B2F8BDFF29F5D071B10D290CD07A1E7A
:10870000944202DA2955013403E008460BF02CFCB0
:10871000C1B20448FDF783FF306903685B6998477D
:10872000C1B2DDE7E01B002008B5002380F8CE30A1
:1087300080F8CF3000690368DB6A984708BD000005
:10874000936D70B515460022CA540C46696D0646F5
:1087500021440548FDF774FFD6F8D43013B1686D95
:108760002044984770BD00BFE01B002010B50C46A8
:1087700041B10069FDF74FFF21460348BDE81040B5
:10878000FDF75EBF10BD00BFE01B002010B58EB02E
:10879000044601A80BF062F8204601A9FFF7E6FFA6
:1087A0000EB010BDF8B51A4D1E46012380F8CF302B
:1087B000044618492846FDF743FF28461649FDF7A9
:1087C0002AFF164F28460021FDF729FF20690021C6
:1087D000FDF725FF39462846FDF71DFF394620697C
:1087E000FDF719FF31462846FDF715FF3146206990
:1087F000FDF711FF20460A49FFF7C8FF2846FF2171
:10880000FDF728FF2069FF21BDE8F840FDF707BF0D
:10881000E01B0020326F0108286F01083D6F01083E
:108820006842010882B070B50D4604A981E80C00C9
:10883000059C0646069B9C4209DA295D0648FDF721
:10884000EEFE295D3069FDF7EAFE0134F2E7BDE88E
:10885000704002B0704700BFE01B00202DE9F341DB
:108860001D4D0446884628461C4917461C4EFDF7F8
:10887000D2FE28460021FDF7D2FE20690021FDF737
:10888000CEFE31462846FDF7C6FE3146154E20691C
:10889000FDF7C1FE204606F13B01FFF777FF07F128
:1088A000B80393E803008DE80300B03797E80C00A5
:1088B00020464146FFF7B6FF204606F16401FFF768
:1088C00065FF2846FF21FDF7C5FE2069FF2102B0A4
:1088D000BDE8F041FDF7A3BEE01B0020286F0108B2
:1088E000426F010840420108F8B50D4616461F4682
:1088F0000024BC4206DA6119325D0348FDF736FDFB
:108900000134F6E7F8BD00BFA2190020F8B50D4606
:1089100016461F460024BC4206DA61190348FDF7DB
:1089200011FD30550134F6E7F8BD00BFA219002053
:1089300010B50C46212301212246FFF7E7FF002353
:1089400084F8203010BD000008B50A46212301211B
:10895000FFF7CAFFBDE80840024800215322FDF797
:1089600005BD00BFA219002010B50C462523222109
:108970002246FFF7CBFF002384F8243010BD00000F
:1089800070B504468CB00E46284829491546FDF7B7
:1089900042FE00212548FDF742FE00212069FDF737
:1089A0003EFE24492148FDF736FE22492069FDF7A5
:1089B00032FE20462049FFF7E9FE05F1780393E8EF
:1089C00003008DE80300703595E80C002046314621
:1089D000FFF728FF19480021FDF7B4FC532817D1F1
:1089E000204602A9FFF7C0FF20461549FFF7CEFE3B
:1089F000204602A9FFF7BAFE204602A9FFF798FF1A
:108A000020461049FFF7C2FE204602A9FFF7AEFE3E
:108A100020460D49FFF7BAFEFF210448FDF71AFE74
:108A20002069FF21FDF7FBFD0CB070BDE01B0020AD
:108A3000286F0108426F01087B420108A21900203B
:108A4000A9420108B5420108A442010808B50A4636
:108A500025232221FFF748FFBDE8084002480021F6
:108A60005322FDF783BC00BFA2190020F0B50546D4
:108A70008BB00E46364837491446FDF7E1FD012319
:108A80002846694685F8CE30FFF76EFFD4F8D4004B
:108A9000D4F8D87069463F1A3A4630440AF06CFF61
:108AA00020B968460AF038FFB84219D02A49284848
:108AB000FDF7C6FDD4F8D430D4F8D820F118D21A76
:108AC00068460AF0B3FF25492148FDF7A4FD694631
:108AD0001F48FDF7B5FD28466946FFF7B7FF03E0DD
:108AE0001B481F49FDF7ACFD28466946FFF720FFEC
:108AF000D4F8F400D4F8F87069463F1A3A46304486
:108B00000AF03AFF20B968460AF006FFB84219D0C9
:108B100014490F48FDF794FDD4F8F430D4F8F82048
:108B2000F118D21A68460AF081FF0C490848FDF78F
:108B300072FD69460648FDF783FD28466946FFF742
:108B400003FF03E002480849FDF77AFD0BB0F0BDD2
:108B5000E01B0020476F0108566F0108636F010892
:108B6000696F0108836F0108916F01082DE9F041D9
:108B7000C4B00D46064601A89046FFF7D3FC01A8F5
:108B8000294604AA1023FFF7B3FB044648B138492D
:108B90003848FDF740FD21460A223648FDF7A0FD82
:108BA00062E00D990E9C6F18641A384632492246CD
:108BB0000AF0E2FE58B9082C09D12F492D48FDF7DB
:108BC0003FFD3046294604AAFFF7DAFE4CE038465E
:108BD0002A4922460AF0D0FE58B9052C09D1274966
:108BE0002448FDF72DFD3046294604AAFFF73EFF35
:108BF0003AE03846224922460AF0BEFE58B9082C0F
:108C000009D11F491B48FDF71BFD3046294604AA20
:108C1000FFF724FE28E038461A4922460AF0ACFE47
:108C200060B90A2C0AD117491248FDF709FD3046F0
:108C3000294604AA4346FFF7B5FD15E03846124918
:108C400022460AF099FE58B9072C09D10E49094865
:108C5000FDF7F6FC3046294604AAFFF771FD03E054
:108C600004480A49FDF7D7FC44B0BDE8F08100BFD5
:108C7000AC6F0108E01B0020BB6F0108C46F010846
:108C8000CA6F0108326F0108D36F0108DB6F01085A
:108C90002DE9F34190F8CE300446012B09D1FDF7C0
:108CA00083F9D4F8D0304EF65F22C01A904200F219
:108CB000898023682046DB699847206903681B691F
:108CC0009847002800F0968004F11405BA2229463E
:108CD0002046FFF7FBFC28463A210AF045FD451CDB
:108CE00006463A2128460AF03FFD3A210746013060
:108CF0000AF03AFDBF1BBE1E033F032F80461AD861
:108D000031460A223E48FDF7EBFC29463C48FDF778
:108D100097FC3246294668460AF088FE02AA1644A5
:108D200000233849364806F8083CFDF774FC3448FF
:108D30006946FDF785FC267D08F10105A6F13003A3
:108D40002F48052B36D8DFE803F003071C0B35133B
:108D50002D49FDF775FC4AE02C49FDF771FC49E00F
:108D60002B49FDF76DFC28462A49FFF769FA41E0D7
:108D70002949FDF765FC204629466A46FFF7F6FEBD
:108D800038E02649FDF747FCFDF70EF90A220146B7
:108D9000C4F8D0001A48FDF7BBFC20690021FDF79C
:108DA0003EFC20691E49FDF736FC2069FF21FDF7D6
:108DB00036FC1FE01B49FDF72EFC31461048FDF73D
:108DC00049FC17E018490E48FDF725FCFDF7ECF8C3
:108DD0000A2201460A48FDF79BFC14490848FDF7A2
:108DE0001AFC0748D4F8D0100A22FDF791FC20465F
:108DF000FFF79AFC94F8CE0002B0BDE8F08100BF06
:108E0000E01B0020E46F0108EA6F0108F56F01081C
:108E100004700108B41C00200970010811700108D9
:108E200020700108247001082B70010835700108BA
:108E30002DE9F041002380F8CE3080F8CF3088B0A3
:108E400004460F467F4880491546FDF7F9FB206927
:108E50002A46036839465B6A9847054630B9206957
:108E60000368DB6A98477748784922E07849754873
:108E7000FDF7D1FB20467649FFF788FC394671485B
:108E8000FDF7C9FB39462069FDF7C5FB71496D48FF
:108E9000FDF7C1FB20466F49FFF778FC2046FFF73E
:108EA000F9FB054640B920690368DB6A98476548C5
:108EB0006949FDF7C5FBC0E004F1140620463146C0
:108EC000BA22FFF703FC00287AD0304663490AF043
:108ED0004BFF002874D04FF0070820463146BA22D5
:108EE000FFF7F4FB054630B920690368DB6A984751
:108EF00054485B49DDE7B8F10108EED14346E2187A
:108F0000127D0DF104083A2A03D008F8032001333A
:108F1000F5E708AA1344534900224A4803F81C2CD9
:108F2000FDF779FB47484146FDF78AFB2069036856
:108F30001B699847054620B1206903685B6998471B
:108F4000F4E749493F48FDF766FB20464649FFF7ED
:108F50001DFC41463B48FDF75EFB41462069FDF79D
:108F60005AFB42493748FDF756FB20463F49FFF779
:108F70000DFC39463348FDF74EFB39462069FDF7B5
:108F80004AFB3B492F48FDF746FB20463849FFF78F
:108F9000FDFB2046FFF77EFB30B920690368DB6AE2
:108FA00098472848334984E720463146BA22FFF7DC
:108FB0008DFB78B1304630490AF0D6FE98B909E009
:108FC000206900250368DB6A98471E482B49FDF796
:108FD00037FB32E02A491B48FDF732FB2069036862
:108FE000DB6A984729E017482649FDF729FB052544
:108FF00020463146BA22FFF769FB013DF8D1FCF764
:10900000D3FFC4F8D0002046FFF742FE40B9FCF77A
:10901000CBFFD4F8D03042F21072C01A9042F2D98D
:1090200094F8CE303BB907481749FDF709FB206992
:109030000368DB6A984794F8CE50284608B0BDE82C
:10904000F08100BFE01B0020407001084F70010854
:10905000C2420108E64201085A7001086670010820
:109060006A700108BA6C0108EB4201080743010865
:1090700019430108827001088D700108AA70010867
:10908000C1700108D670010891700108F0B5264D35
:109090008BB004460F4628462449FDF7BCFA244EFF
:1090A00028460021FDF7BBFA20690021FDF7B7FA39
:1090B00031462846FDF7AFFA31461E4E2069FDF7CE
:1090C000AAFA204606F59E71FFF760FB2046394656
:1090D000FFF74CFB204606F25511FFF757FB2046E1
:1090E0006946FFF741FC20466946FFF73FFB2046F3
:1090F00006F17501FFF74AFB20466946FFF718FCA9
:1091000020466946FFF732FB204606F16401FFF76F
:109110003DFB2846FF21FDF79DFA2069FF21FDF761
:109120007EFA0BB0F0BD00BFE01B0020EA70010822
:10913000426F010840420108F7B5144C002104F1C8
:109140002006134D0B4600910A463046FDF7FAF90A
:1091500004F110072A4630460E490F4E09F08AFBEB
:109160003846962100F01AF82A463146384609F06A
:1091700081FB2046202100F011F8204631462A4686
:1091800003B0BDE8F04009F075BB00BFB41C00207F
:109190003C0E0020FD510008B5910008002310B5D9
:1091A000044641608360C3600846FCF7A1FB206071
:1091B000204610BD10B50446006808B1FCF79CFBC2
:1091C000204610BD826830B54468531CB3FBF4F5EB
:1091D00004FB1533C468A34202D00468A154836021
:1091E00030BD10B5C16802680346505C5A68013151
:1091F000B1FBF2F402FB1412DA6010BD0268C3681E
:10920000D05C70478268C068101A18BF0120704790
:10921000002100F004B80E4B5B58435004310D4858
:109220000D4B42189A42FFF4F6AF0C4A00F003B817
:10923000002342F8043B0A4B9A42FFF4F9AF03F0D3
:10924000C9F9FCF7B7F8FCF737FBFCF701F97047F1
:109250008472010800000020D8090020D8090020ED
:1092600020270020FFF7FEBF0B0A017043700B0C94
:10927000090E8370C170043070470170090A417093
:109280000230704743185A78435C03EB022080B2E7
:10929000704710B543189A78DC78415C120402EBF1
:1092A000046258780A4402EB002010BD73B544797B
:1092B0000023022C01930FD0032C19D0012C2BD1A9
:1092C000164D2B692E4623B12B6901A898470246FB
:1092D000B8B9B16801201BE0104DEB682E4623B1F0
:1092E000EB6801A89847024658B9B16802200FE020
:1092F0000A4D6B692E464BB16B6901A8984702462F
:1093000020B1A9682046BDF8043003E0B16803200D
:109310000022134600F024FC02B070BD581E00204D
:10932000072830B512D8012910D8EFF3108472B68F
:109330000125854001FA00F0054B1A6822EA050272
:1093400002431A602346DB0700D462B630BD00BF7B
:109350001801002070B5012186B00546FFF792FF85
:109360004304044629D5B0F5824F26D1284605216D
:10937000FFF788FF05EB8000EE1D0024C51DAE42FF
:1093800006D030460221FFF77DFF04360444F6E79D
:10939000724B1A8E224492B21A86DA6B1444DC6342
:1093A000D96B9A6B914240F0CA8093F84020002A12
:1093B00000F0C5809B69992031E024F4FF4020F043
:1093C0007F0080B2002800F0978048F210039C4292
:1093D00028D00CD8B4F5004F40F2BC8048F202030C
:1093E0009C4215D948F204039C4211D0B2E048F2E5
:1093F00080039C420CD004D848F240039C424FD0DA
:10940000A8E0B4F5024F03D0B4F5084F6BD0A1E04B
:10941000524B9A69002A00F092809B6920460021F5
:109420000A4667E00023EA1852790DF80320013359
:10943000042BF8D16B7A05F10D008DF80430AB7A6E
:109440008DF80530EB7A8DF806302B7B8DF80730E0
:10945000002300AA1A44C15C0133042B1172F8D115
:1094600005F11100002300AA1A44C15C0133042B4A
:109470001173F8D105F11500002300AA1A44C15C4C
:109480000133042B1174F8D12B798DF81430334B40
:109490009A69002A53D09B6920466946152229E023
:1094A000053500212846FFF7F4FE042100902846E8
:1094B000FFF7EFFE082101902846FFF7EAFE0C2196
:1094C00002902846FFF7E5FE102103902846FFF79B
:1094D000E0FE224B04909A69002A30D09B69204616
:1094E0006946142206E01D4B9A6942B39B692046E7
:1094F000691D0122984722E041F203039C4205D0F6
:10950000A4F580530E3B9BB2012B1AD86C1D20464C
:109510000421FFF7BEFE39301CD12A790F4B002100
:109520002046DA62FFF7B5FE042105462046FFF724
:10953000B0FE393003D128460121FFF7F1FE0120AA
:1095400009E0064B1B889BB29C4204D0B4F5805FB7
:10955000F5D100E0002006B070BD00BF581E00200D
:1095600070B50E4C6688B6B2B6B1606805782B1F30
:109570005D425D412DB1FFF7EDFE003018BF0120C7
:1095800000E02846064618B935B194F841301BB9B9
:109590000023638001F0B4FD304670BD581E0020EA
:1095A0002DE9F04F85B004468A46914602F0D8FE78
:1095B00000250190DFF83083B8F8023046469BB2B0
:1095C000002B40F0938003F03BFC02F0C9FE0290B8
:1095D000029A019BD31A0393039B002B03DA019B8E
:1095E000029A13440393BF4B1B68002BE2D0039AEB
:1095F0009A42DFD3338841F207029BB2934227D8C5
:1096000041F20602934261D240F2022293425DD0BF
:109610000FD80C2B08D8082B58D2002B4FD0062B74
:1096200088BF00235AD851E00D2B4CD040F20122C4
:109630000BE041F2020293424BD8B3F5805F45D86C
:10964000B3F5017F3FD940F20722934237D13AE088
:1096500041F21102934236D014D841F20B029342E8
:1096600034D005D841F2090293422FD031D82AE0F4
:1096700041F20F0293422CD028D841F20D029342BE
:1096800027D01CE042F2060293421CD007D8B3F563
:10969000005F14D942F20402934221D813E0B3F5DB
:1096A000804F00F0EE8105D8A3F50053083B012B55
:1096B00009D904E044F20B02934200F0E2810B204E
:1096C00003F07CF8DDE1FF232370DAE14FF0FF3394
:1096D00004E04FF0FF3323606360D2E12360D0E108
:1096E000204600213A2209F08DFDCAE1D8F8046035
:1096F0003378042B40F0798130460121FFF7C2FD19
:1097000005463046FFF726FE002840F0638141F20F
:1097100007039D4206F1050755D841F206039D4215
:1097200080F0AE8040F202239D4200F0A98014D860
:109730000C2D09D8082D80F0A380002D00F04A815F
:10974000062D00F2E5809BE00D2D00F0968040F2A2
:1097500001239D4200F091803CE141F202039D42D1
:1097600018D8B5F5805F00F28B80B5F5017F40F227
:10977000848040F207239D4240F02C8133793846A3
:1097800004F8013B0021FFF784FD01462046FFF766
:109790006BFD1FE141F204039D4200F08B8040F21B
:1097A000A58000213846FFF774FD0421206038466B
:1097B000FFF76FFD083444F8040C06F10D03224650
:1097C00006F11D016FE041F211039D4255D02BD8E7
:1097D00041F20B039D4253D01CD841F209039D4234
:1097E0004ED000F2908000213846FFF752FD042150
:1097F00020603846FFF74DFD082160603846FFF7CE
:1098000048FD0C21A0603846FFF743FD04F10C0B26
:10981000E060DEE041F20F039D4267D036D841F2AE
:109820000D039D4246D0D5E042F206039D4224D06E
:109830000BD8B5F5005F40F2CD8042F204039D42A3
:1098400088BF002300F2888017E042F208039D429F
:10985000C0F0C08042F209039D420ED944F20B03CE
:109860009D4240F0B780737938460121A8F8303026
:10987000FFF708FDA8F83200ACE033792370A9E0C7
:1098800038460021FFF705FD2060A3E0002138469F
:10989000FFF7FFFCA3464BF8040B04213846FFF703
:1098A000F8FC606095E053F8040B8B4242F8040B1F
:1098B000F9D18FE000213846FFF7EBFC042120604E
:1098C0003846FFF7E6FC082160603846FFF7E1FC08
:1098D000E36804F1080B3933A0607AD10121FFF766
:1098E0001FFD76E0DC1C0020581E002000213846B9
:1098F000FFF7CFFC042120603846FFF7CAFC08348C
:1099000044F8040C66E0337923713B68236061E01E
:1099100000213846FFF7BDFC042120603846FFF7E0
:10992000B8FC082160603846FFF7ACFC0A21A06053
:109930003846FFF7A7FC0C3444F8020C06F111037B
:10994000224606F1350153F8040B8B4242F8040B12
:10995000F9D11B8813803DE0F2185279E2540133AB
:10996000042BF9D106F109000023C15CE218013390
:10997000042B1171F9D106F10D000023C15CE2182E
:109980000133042B1172F9D106F111000023C15CDF
:10999000E2180133042B1173F9D106F115000023ED
:1099A000C15CE2180133042B1174F9D106F11900DE
:1099B0000023C15CE2180133062B1175F9D106F1C1
:1099C0001F000023C15CE2180133202B9176F9D1EE
:1099D00000E05C46B8F800202C4B92B2954236D19C
:1099E00000221A8083F8412031E0B8F836309BB26B
:1099F0006BB33046032196F802B0FFF743FC0746ED
:109A0000BAF1000F0BD00421701DFFF742FC06F1E4
:109A100015010246C9F800005046FBF779FBCBEB75
:109A200007077B1EB3F5806F07D20BF105012046B7
:109A300031443A46FBF76CFB01E04FF0FF37B9F1D8
:109A4000000F01D0C9F800700023A8F836300023B9
:109A5000A8F8023001F054FB3378042B05D1B5F59A
:109A6000805F02D13046FFF721FCB8F800309BB28E
:109A7000002B7FF49FAD054BDB8E9BB2002B7FF458
:109A800099AD002005B0BDE8F08F00BF581E002042
:109A900007284FF001030FD8EFF3108272B603FAD4
:109AA00000F0064B1968134608420CBF0020012045
:109AB000DB0702D462B670471846704718010020D1
:109AC000034B1880084600210A46FFF769BD00BF16
:109AD000581E002010B5034B0124DC86BDE8104061
:109AE000FFF75EBD581E002038B50346154601221B
:109AF0004A710C46881D1946FFF7BFFB291D0570EA
:109B0000204601F06DFB002038BD38B5BDF814507B
:109B10000C462B44D518ADB202216171A071E271DF
:109B2000294604F10800FFF7A8FB691D204689B209
:109B300001F056FB002038BD38B513440C469DB2E9
:109B400002216171A0712946E27104F10800FFF75A
:109B500094FB691D204689B2BDE8384001F040BB46
:109B60002DE9F84F1C4604F1020B032301F107090C
:109B70001FFA8BFB88710D464B71484659461646B5
:109B8000FFF77BFBB4F57A7F824605F10B0812D80C
:109B90002146FFF772FB21465046FFF76EFB314628
:109BA00040462246FBF7B4FAA11D284689B2BDE81B
:109BB000F84F01F015BB4FF47A77B4FBF7F30BEBDA
:109BC000430189B2FFF759FB39465046FFF755FB71
:109BD000314640463A46FBF79BFAA4F57A7428468C
:109BE00040F2EE31A4B23E4401F0FAFAB4F57A7FC5
:109BF00084BFA4F57A74A7B2A84688BF4FF47A74DC
:109C0000314628F8054F4846224698BF0027FBF703
:109C10007FFAA11C404689B2264401F0E1FA0FB157
:109C20003C46E3E7BDE8F88FF7B51E46FF238DF805
:109C30000730194B00259C68475D63190135042DD9
:109C40005F72F9D100200D5C2318013004285D7388
:109C5000F9D10021505C6318013104295874F9D1FD
:109C600004F115000021FFF7FFFA0022B35C8354D2
:109C70000132042AFAD12146142242F20100FFF7F0
:109C800033FF42F201000DF10701FFF719FF9DF9C3
:109C9000070003B0F0BD00BF581E00202DE9F341BE
:109CA0001F46FF238DF807301E4B0646D3F8088069
:109CB00033680C46013B122B9CBF142333600B68A6
:109CC00008F10900013B122B9CBF14230B601368A1
:109CD0001546013B122B9CBF142313603B68013BCC
:109CE000122B9CBF14233B603168FFF7BDFA21683B
:109CF000FFF7BAFA2968FFF7B7FA3968FFF7B4FA3D
:109D00004146142242F20900FFF7EEFE42F209003A
:109D10000DF10701FFF7D4FE9DF9070002B0BDE881
:109D2000F08100BF581E002010B5074B044699680B
:109D300042F205000022FFF7D7FE214642F205005D
:109D4000BDE81040FFF7BCBE581E00202DE9F341CE
:109D50001F4602ACFF2304F8053D124B86469D6862
:109D60000E4605F1090071469046FFF77DFA31462F
:109D7000FFF77AFA4146FFF777FA29460C2240F2BC
:109D80000120FFF7B1FE214640F20120FFF798FEC7
:109D90003846002101AAFFF79DFE019802B0BDE8F8
:109DA000F08100BF581E00202DE9F341984602AD16
:109DB0004FF0FF3345F8043D134B86469E680C4632
:109DC00006F10A0071461746FFF74EFA0C21FFF71D
:109DD0004BFA2146FFF748FA3946FFF745FA414664
:109DE000224606F11A00FBF793F931461022A3B27E
:109DF0009020FFF7A1FE40F202202946FFF760FE07
:109E0000019802B0BDE8F081581E002013B50B4B3D
:109E100004469968002240F20720FFF765FE40F2F1
:109E200007206946FFF74CFE9DF803309DF80000BF
:109E300023709DF80430637002B010BD581E0020DE
:109E400037B50E4A034694680D4604F109001946D9
:109E5000FFF70AFA2946FFF707FA2146082240F2DF
:109E60000320FFF741FE40F203200DF10601FFF74A
:109E700027FEBDF8060003B030BD00BF581E00200D
:109E80002DE9F0430023CA5CC2540133102BFAD1F0
:109E90000022344B467B991891F801800178847B2D
:109EA00088EA01089919C97A90F80CC088EA010873
:109EB0001919CF7A417880F810804F40C17B4774E0
:109EC0005D1895F80B908578634489EA050593F849
:109ED0000B90C378FFB289EA030390F8049085746D
:109EE00088EA090890F80590EDB287EA090790F82A
:109EF0000690C37485EA090590F80790DBB283EAFF
:109F0000090390F8089080F814805FFA88F888EACE
:109F1000090890F809904775FFB287EA090790F899
:109F20000A908575EDB285EA090590F80B90C37526
:109F3000DBB283EA0903013288EA0C0C7E406C40F4
:109F400059400A2A80F8188047768576C37680F8CB
:109F50001CC046778477C17700F1100099D1BDE825
:109F6000F08300BFA043010810F0800F4FEA4000CB
:109F700018BF80F01B00C0B2704700002DE9F04F01
:109F800091F8A03090F800A042788AEA030A80F89D
:109F900000A091F8A13097B05340437082780793A6
:109FA00091F8A23090F8049053408370C2780593E2
:109FB00091F8A33046795340C370069391F8A430CA
:109FC000827989EA030980F8049091F8A53090F825
:109FD00008805E40467191F8A630477A53408371FD
:109FE000C279089391F8A73004465340C3710C938B
:109FF00091F8A8304FF0000B88EA030880F8088039
:10A0000091F8A9305F404772827A91F8AA305340A4
:10A0100083720993C07A91F8AB3094F80CC0434036
:10A02000E3720D9391F8AC3094F80DE08CEA030CD8
:10A0300084F80CC091F8AD30A57B8EEA030E84F84D
:10A040000DE091F8AE30E27B5D40A57391F8AF3042
:10A050005A40464BE2739A449AF80B0191F890A04B
:10A06000994480EA0A00207099F80BA191F8949025
:10A0700098448AEA090984F8049098F80B9191F8B9
:10A0800098809C4489EA080884F808809CF80B8131
:10A0900091F89CC09E4488EA0C0C84F80CC09EF891
:10A0A0000BC191F891E01F448CEA0E0E97F80BC19A
:10A0B00091F89D701E448CEA0707677396F80B7140
:10A0C00091F899601D447E406672079E0D981E446B
:10A0D00096F80B7191F8956084F801E07E40667106
:10A0E000059E18441E4496F80B7191F89A607740CB
:10A0F000089E1E4496F80BE191F89E608EEA0606D3
:10A10000DDF824E09E449EF80BC191F892E08CEAC1
:10A110000E0E84F802E095F80BE191F89650A772C4
:10A120008EEA0505A571069DA6731D4495F80B6181
:10A1300091F89F5075400C9E1E4496F80B7191F853
:10A14000936013447E40E67090F80B6191F897009D
:10A150007040E07193F80B2191F89B30CDF81CB062
:10A160005340E573E3720D4602E000BFA0430108CF
:10A17000A77894F80090103D87EA0900FFF7F4FEF5
:10A18000FFF7F2FEE67894F801B0824686EA0B000B
:10A19000FFF7EAFEFFF7E8FE2179A37980EA0608D7
:10A1A00080EA0B0B83EA010003910293FFF7DCFEC8
:10A1B000FFF7DAFE8AEA0909E6798AEA070A677987
:10A1C000024686EA07000492FFF7CEFEFFF7CCFEB8
:10A1D000049A029B03995340DBB294F808C006939B
:10A1E000A37A51404640C9B24740F6B283EA0C0018
:10A1F0000293CDF804C005910896FFF7B5FEFFF76E
:10A20000B3FE617AE67A024686EA0100039104927F
:10A21000FFF7AAFEFFF7A8FE049ADDF804C0039931
:10A22000029B82EA0C0C53404140C9B25FFA8CFC9D
:10A23000DBB20A91CDF824C00B9394F80CC0A37B39
:10A240004640F6B283EA0C000293CDF804C00C96A7
:10A25000FFF78AFEFFF788FE617BE67B024686EA0F
:10A26000010003910492FFF77FFEFFF77DFE049A41
:10A27000029BDDF804C00399534082EA0C0C5FFA9C
:10A2800089F95FFA8BFB5FFA8AFA5FFA88F8414036
:10A29000DBB24640C9B28BEA09005FFA8CFC0F932F
:10A2A000F6B288EA0A030E910293CDF834C01096F4
:10A2B00083EA0006FFF758FE89EA000086EA000CF0
:10A2C0005FFA8CFC84F800C08AEA0B00CDF804C069
:10A2D000FFF74AFE8BEA0000029B86EA000B5FFA5A
:10A2E0008BFB184684F801B0CDF844B0FFF73CFE74
:10A2F0008AEA000086EA000A5FFA8AFA88EA090018
:10A3000084F802A0CDF848A0FFF72EFE88EA0000EE
:10A31000059BDDF818B0DDF820A04640FFB2F6B28C
:10A3200087EA03008AEA0B08E670139688EA0006BB
:10A33000FFF71AFE059948407040C0B21490207192
:10A340008BEA0700FFF710FE784086EA0007FFB2AD
:10A35000677140461597FFF707FE8BEA0000059AE4
:10A360007040C0B20690A0718AEA0200FFF7FCFDBF
:10A370008AEA00000B990A9BDDF824A0DDF830B0D2
:10A380004640F6B283EA0A000596E6718BEA0106BA
:10A3900086EA0007FFF7E8FD8AEA00000A9B0B9AAD
:10A3A00087EA00085FFA88F882EA030084F80880E8
:10A3B000FFF7DAFDDDF828A08AEA000087EA000945
:10A3C0005FFA89F9304684F80990FFF7CDFDDDF892
:10A3D0002CB00C998BEA0000099A87EA000B5FFA0F
:10A3E0008BFB81EA020084F80AB0FFF7BDFD0C9BED
:10A3F0000D99DDF838A05840109A47408AEA0100CC
:10A40000DDF83CA0FFB282EA0A03E77283EA000AA1
:10A410000293FFF7A9FD0D990F9A48408AEA0006BA
:10A420000E99F6B282EA01002673FFF79DFD0E9A9F
:10A43000029B50408AEA0001C9B261731846039139
:10A44000FFF792FD0F9BDDF834E058408AEA0002E6
:10A45000109BD2B2A27383EA0E000492FFF784FD30
:10A46000109BDDF804C058408AEA000A494B5FFAA5
:10A470008AFA84F80FA003EB0C0090F80BC195F852
:10A4800090001E448CEA0000207014981F44184469
:10A4900090F80BC195F894008CEA0000207103EB52
:10A4A000080090F80BC195F898008CEA0000207223
:10A4B00095F89C0096F80B6103997040207319443D
:10A4C00091F80B0195F89110049A414003EB0900B3
:10A4D00090F80B6195F89D001A44704060731598D0
:10A4E000184490F80B6195F89900704060721198CB
:10A4F000184490F80B6195F89500617012997040BE
:10A500006071194491F80B0195F89A10484006992A
:10A51000194491F80B6195F89E10714003EB0B06FE
:10A5200096F80BC195F892608CEA0606A67092F830
:10A530000B6195F89620A0727240139EA1731E4481
:10A5400096F80B11A271059E95F89F201E4496F86F
:10A550000B014A4095F8931053444140E17095F83F
:10A56000971097F80B01DDF81CA04140E17193F8BA
:10A570000B1195F89B30AAF1100A4B401AF1900F7D
:10A58000E372E273CDF81CA07FF4F2AD17B0BDE822
:10A59000F08F00BFA043010838B5054C05462046A2
:10A5A000FFF76EFC28462146BDE83840FFF7E6BCC1
:10A5B000641D002008B51021034600220C20FFF77F
:10A5C000C5FB103818BF6FF0000008BD034610210E
:10A5D0000C200022FFF7E8BB30B585B0054601F03E
:10A5E000BFFE0190194CE36A4BB108F05BF9E36AD6
:10A5F00003600023E36208F055F9006823E0284671
:10A60000FFF746FA10B14FF0FF301CE001F0A8FE52
:10A610000290029A019BD31A0393039B002B03DA47
:10A62000019B029A13440393094B039A1B689A42B5
:10A63000E9D2228E054B92B2002AD3D01A8E002086
:10A64000013A92B21A8605B030BD00BF581E0020F4
:10A65000DC1C0020F7B5174602AC4FF0FF3244F87F
:10A66000042D124A034695680E4605F10900194665
:10A67000FEF7FAFD3146FEF7F7FD3946FEF7F4FD29
:10A680000C22294641F20100FFF72EFA214641F241
:10A690000100FFF715FA08F005F9019B002103609E
:10A6A0001846FEF73DFE019803B0F0BD581E00208D
:10A6B00073B54FF0FF3302AC44F8043D0E4B054632
:10A6C0009E68294606F10900FEF7CEFD04223146B8
:10A6D00041F20B00FFF708FA214641F20B00FFF7A9
:10A6E000EFF908F0DFF8019B012103602846FEF72F
:10A6F00017FE019802B070BD581E0020F7B50C4639
:10A700000746164608F0CEF84FF0FF33E62C0360FC
:10A7100025D8154B08219D6805F10900FEF7A4FD19
:10A720002146FEF7A1FD0346191A09B2A14203DA38
:10A730007A5C03F8012BF7E704F10802D2B229464C
:10A7400041F21000FFF7D0F941F210006946FFF71F
:10A75000B7F908F0A7F8009B0360019B336008F08D
:10A76000A1F8006803B0F0BD581E002037B54FF0C7
:10A77000FF320192134A034694680D4604F1090022
:10A780001946FEF771FD0821FEF76EFD0821FEF760
:10A790006BFD0023EA5CC2540133082BFAD114226A
:10A7A000214641F20700FFF79FF901A941F2070096
:10A7B000FFF786F908F076F8019B0360184603B0AE
:10A7C00030BD00BF581E00202DE9FF411D46314B12
:10A7D0008646D3F808800F4608F1090071461646F0
:10A7E0000A9CFEF741FD1421FEF73EFD1421FEF701
:10A7F0003BFD1421FEF738FD1421FEF735FDD4F1A1
:10A80000010138BF0021FEF72FFD0FB1396800E0CC
:10A810003946FEF729FD0EB1316800E03146FEF7FA
:10A8200023FD0DB1296800E02946FEF71DFD74B136
:10A83000216839B9636841F287329342DCBF41F243
:10A8400088336360FEF710FD6168FEF70DFD414639
:10A850002C2241F20800FFF747F941F2080069464F
:10A86000FFF72EF9009B002B09DB0FB10198386030
:10A870000EB1029830604DB10398286006E008F0F0
:10A8800011F8009B03604FF0FF3000E0184604B061
:10A89000BDE8F081581E00202DE9FF419846194B74
:10A8A00086469E6815460F4606F1090071460B9CC8
:10A8B000FEF7DAFC2946FEF7D7FC4146FEF7D4FC4A
:10A8C000BDF8305031460C222846FFF70DF92846D6
:10A8D00001A9FFF7F5F8029B002B0ADD38460A991B
:10A8E0006A46FFF7F7F8009B04B12360002BD8BF3E
:10A8F000029307F0D7FF029B0360184604B0BDE83F
:10A90000F08100BF581E00201FB500240094019460
:10A9100041F204040294FFF7BFFF04B010BD000031
:10A920002DE9F04F89B017468A469B46149C039048
:10A93000FFF752FEDDF80CC0024600285DD1304B17
:10A94000812C996B01F101019963D3F8088008F11A
:10A950000A0007D0832C0CD107F1080908F1220561
:10A96000182609E008F11A05914610261392129252
:10A9700002E01546914616466146FEF775FC311F0A
:10A98000FEF772FC3946FEF76FFC5946FEF76CFC89
:10A99000832C05D14946FEF767FC0821FEF764FCCD
:10A9A0002846421B12B2BA4204DA1AF8022000F812
:10A9B000012BF6E7832C01460FD0129BE0B20093E7
:10A9C000139B41469AB20192BBB23246FFF79DF803
:10A9D000832C0CD141F20F000BE0421A139B12B2F0
:10A9E0009A42EADA129B9A5C00F8012BF5E741F2F1
:10A9F000030005A9FFF764F8069809B0BDE8F08FD9
:10AA0000581E00201FB50024009401948124029454
:10AA1000FFF786FF04B010BD1FB5069C0094079C8D
:10AA2000019483240294FFF77BFF04B010BD000063
:10AA3000202A73B503460E46144624D8144A1946F4
:10AA4000956805F10900FEF70FFC0821FEF70CFCE4
:10AA50002146FEF709FC03461A1A12B2A24203DA93
:10AA6000B25C03F8012BF7E704F10C022946D2B2DD
:10AA700041F21100FFF738F841F2110001A9FFF788
:10AA80001FF8019801E04FF0FF3002B070BD00BF29
:10AA9000581E0020024B01225A805860FEF760BD0C
:10AAA000581E002010B50A4CE16022616361029BD0
:10AAB000E361039B2362049B6362059BA362012302
:10AAC000A06184F84030002384F8413010BD00BFFD
:10AAD000581E002070B5174B174D00240646174826
