:020000040800F2
:105000000050002009A1000885830008878300085C
:10501000918300089B830008A5830008000000001E
:10502000000000000000000000000000AF83000846
:10503000B183000800000000B3830008B5830008B6
:105040005DA100085DA100085DA10008D9850008E8
:105050005DA100085DA100081584000835840008E2
:105060005584000889840008A98400085DA100080F
:105070005DA100085DA100085DA10008418600084F
:105080005DA100085DA10008C58300085DA10008BE
:10509000458600085DA100085DA10008C9840008DC
:1050A0005DA100085DA100085DA1000891850008D0
:1050B0005DA100085DA100085DA10008E58300086E
:1050C000F58300085DA100085DA1000805840008C3
:1050D0005DA100085DA10008D58300085DA100085E
:1050E00019850008018600085DA100080000000085
:1050F00000000000000000000000000000000000B0
:0C51000000000000000000005FF808F153
:10511000844641EA000313F0030349D1403A23D304
:105120000B6803604B6843608B688360CB68C36027
:105130000B6903614B6943618B698361CB69C3610F
:105140000B6A03624B6A43628B6A8362CB6AC362F7
:105150000B6B03634B6B43638B6B8363CB6BC363DF
:1051600040304031403ADBD230320BD30B68036021
:105170004B6843608B688360CB68C360103010312C
:10518000103AF3D20C3205D351F8043B40F8043BFB
:10519000043AF9D2043208D0D2071CBF11F8013BFF
:1051A00000F8013B01D30B8803806046704700BFC5
:1051B000082A13D38B07B1D010F00303AED0C3F18C
:1051C0000403D21ADB071CBF11F8013B00F8013BB6
:1051D000A4D331F8023B20F8023B9FE7043AD9D32D
:1051E000013A11F8013B00F8013BF9D20B7803704A
:1051F0004B7843708B78837060467047014B036037
:10520000704700BF08510108014B0360704700BFA1
:105210002051010802289CBF014B1954704700BF60
:10522000300B0020014B0360704700BF2051010884
:1052300010B5034B0446036000F0A4FE204610BDE9
:105240000851010810B5034B0446036000F09AFEB4
:10525000204610BD2051010810B5034B04460360E1
:1052600000F090FE204610BD20510108F8B5C600A0
:105270000F4635460024A5F10803012B0FD9132D45
:105280000DDC0A4B33441B5D012B08D847FA04F3AD
:1052900013F00101A8B218BF012101F045FA013451
:1052A000082C05F10105E6D1F8BD00BF330B002045
:1052B00007280BD80122064B02FA00F019B99969A8
:1052C00021EA000101E0996901439961704700BF3B
:1052D000300B0020F8B5A0F10A06F6B2072E0446FE
:1052E0000F46384D06D88B1E594230465941FFF7BC
:1052F000DFFF01E007280BD8012F4FEAD40304F0A9
:10530000070208D107FA02F22B44197F0A4309E089
:10531000092E08D8F0E7012101FA02F22B44197F87
:1053200021EA02021A7705EB840300221A62062F93
:1053300040D8DFE807F02011042F453F4500072E35
:105340003ED82046012101F077F92046002101F0E6
:10535000EBF92C4402232BE0072C01D9092E2FD87E
:105360002046012101F068F92046002101F0DCF916
:105370002C4401231CE0072C01D9092E20D82046FB
:10538000002101F0D1F92046002101F055F92C440B
:1053900000230DE0072C01D9092E11D82046002149
:1053A00001F04AF92046002101F04CFB2C44032374
:1053B000E370F8BD04480549BDE8F84004F0C5BDF8
:1053C000F8BD00BF300B0020AC1E0020E47C0108BB
:1053D00038B5114B00221A701A7783F870205A7072
:1053E0005A7783F871209A709A7783F8722014465E
:1053F0001D46E0B2A0F10803012B07D9A0F10A0372
:10540000072B94BF02210021FFF764FF0134142C05
:10541000EFD10023AB6138BD300B0020132870B5ED
:1054200004460D4617D80C4B1A18D2781E46032A8C
:1054300004D0042A0FD103EB80040BE0072803D922
:10544000A0F10A03092B03D82046E9B201F0FAFAC9
:1054500006EB8404256270BD300B00206D2870B50A
:105460000B4672D005D8692800F0A3806B2826D09F
:1054700070BD6F280FD07A2840F0B080012940F22B
:10548000AD801378527803EBC212092A544BD8BF6F
:105490000A221A6070BD012940F2A080022B5178C7
:1054A00008D0032B907818BFD37841EAC01118BFF9
:1054B00041EA83311078BDE87040FFF7AFBF49483B
:1054C000F02104F046FD47486C2104F042FDF6242B
:1054D0000025EEB2072E01D9092C1AD84148012126
:1054E00004F037FD3F48012104F033FD3D48002121
:1054F00004F02FFD3B48012104F02BFD072C08D8B8
:105500003848022104F025FD36480A2104F021FD27
:1055100001E0072E08D83348032104F01AFD314872
:10552000082104F016FD01E0092CF4D92D487F2153
:10553000013504F00EFD0134142DE4B2C9D129481F
:10554000F721BDE8704004F004BD002946D014786E
:105550002448F02104F0FDFC22486E2104F0F9FCFF
:105560002048214604F0F5FC132CE8D81E4D1D48B8
:105570002B19A400D9782E1904F0EBFC316A1948D4
:1055800001F07F0104F0E5FC316A4FF680730B40B7
:1055900023B11448C1F3C61104F0DBFC2C44216A8A
:1055A00011F4404FCBD00F48C1F3863104F0D1FC49
:1055B000C5E70C48F02104F0CCFC0A486A2104F04D
:1055C000C8FCF624082C34BF21467F21013405484D
:1055D000E4B204F0BEFC0A2CF4D1B0E770BD00BF09
:1055E00000000020AC1E0020300B002070B50546E6
:1055F000094843191C7F06460C401AB993F87030CD
:10560000A34207D0294605482246354404F05CFCF5
:1056100085F8704070BD00BF300B0020AC1E00202C
:1056200070B56B4E3378002B43D0357FE90740F1DE
:105630009B80002001F0B6F8002800F0958001243E
:10564000AA0705D5012001F0ADF8002840F08E80B2
:105650006B0705D5022001F0A5F8002840F08980ED
:10566000280705D5032001F09DF8002840F084802C
:10567000E90604D5042001F095F800287FD1AA0698
:1056800004D5052001F08EF800287BD16B0604D5E7
:10569000062001F087F8002877D12D0604D50720D1
:1056A00001F080F8002873D1002021460246FFF760
:1056B0009DFF7378002B31D0454B5D7F6C076AD519
:1056C0000A2001F06FF8002865D00424280704D5CB
:1056D0000B2001F067F800285FD1E90604D50C2003
:1056E00001F060F800285BD1AA0604D50D2001F076
:1056F00059F8002857D16B0604D50E2001F052F856
:10570000002853D12D0604D50F2001F04BF80028B6
:105710004FD1012021460022FFF768FFB378002B0C
:1057200055D02B4B9D7FE80746D5102001F03AF865
:10573000002841D00124A90703D5112001F032F837
:10574000E0BB6A0703D5122001F02CF8C8BB2B0779
:1057500003D5132001F026F8B0BB21460220002219
:10576000BDE87040FFF742BF002469E744F002043F
:105770006EE744F0040473E744F0080478E744F06B
:1057800010047CE744F0200480E744F0400484E700
:1057900044F0800488E7002498E744F008049CE77C
:1057A00044F01004A0E744F02004A4E744F04004CF
:1057B000A8E744F08004ACE70024BCE744F002040E
:1057C000BFE744F00404C2E744F00804C5E770BD35
:1057D000300B002010B51B4C1B484FF4E13102F098
:1057E000BBF9032320461949022204F0EBFA2046B4
:1057F000E021174A04F0B3FB20469021154A04F03B
:10580000AEFB2046C021144A04F0A9FB2046D0215B
:10581000124A04F0A4FB2046F421114A04F09FFB35
:105820002046F0210F4A04F0B5FB2046FF210E4A26
:1058300004F0ACFB20460D4904F0B9FABDE8104075
:10584000FFF7C6BDAC1E0020B01D0020F57C01088E
:105850001D5400086D520008B1520008155200088E
:10586000D55200085D540008D1530008A40B002055
:1058700073B5134C002104F5A676124D0B4600912A
:105880000A46304601F01EFC2A460F49304604F510
:10589000AA760EF01FF8304601F01CFF74342A4639
:1058A00030460A490EF016F83146204603F0B2FCA5
:1058B000074920462A4602B0BDE870400EF00AB8FB
:1058C000300B00200C100020FD5100080952000888
:1058D0002552000870B58EB0454803F0A5FF00289A
:1058E00050D14449444801F06BFC444B4048191DD9
:1058F0001A8A04F069F80028F3D041493E4801F0C3
:105900005FFC3B4804A903F0FBFD3E493A4801F027
:1059100042FC04A9384801F053FC354804A903F0BF
:10592000D3FD3949344801F036FC04A9324801F06E
:1059300047FC364B01AC93E8070084E807002E488B
:10594000334901F028FC0025665D2B48330903F13B
:105950003001392988BF03F1570106F00F0602F024
:10596000EBF806F13001392988BF06F157012248CA
:10597000013502F0E1F80C2DE6D126491E4801F070
:105980000AFCA9E7FFF74CFE234804F04FFA04464F
:1059900018B1214804F01CFBF6E701F005F91F4B94
:1059A0001649D3F870230968C3F86C03801A88423B
:1059B0001BD90A44C3F87023A4F10A05EDB2072DE0
:1059C00010D8164BDA1CA25C022A0BD19B692B4122
:1059D000DB0707D5284600F0A1FF294602460E48FE
:1059E00004F061FA0134142CE6D10EB070BD00BF92
:1059F000A40B00200C7D0108B01D00200000002039
:105A0000137D01081E7D0108257D0108E8F7FF1FB1
:105A10002D7D0108FA7E0108AC1E0020300B00200D
:105A2000013101EB420291420BD0030F092B94BFCD
:105A30003033373301F8013C0023000101F8023B09
:105A4000F1E770471F4B10B51A88032A04D80420C9
:105A50000146188007F0AEFF4FF000604FF4A04100
:105A600007F0FCFE0124184B184821461C7008F072
:105A7000B5F906F08BFF06F071FC2146402008F0D6
:105A80006FFA6FF07F4006F0DBFDE72006F054FE72
:105A90000F4B1C7006F0ACFC7D2008F085FA18B1A5
:105AA0000C4B1C7008F094FA40F6B83006F0FAFC83
:105AB00007F050FA07F0DAFC074A01231370074A8F
:105AC000137010BD501F00202C1F00200004300058
:105AD000DC1D0020F4280020641E00205A1E002037
:105AE00038B52F4C2388042B04D8052104202180AD
:105AF00007F060FF2B4D2B7813B12B4802F034FADE
:105B00002B7853B12388052B05D8254B062104207B
:105B1000198007F04FFF02F0ABFA2B7863B1234BEB
:105B20001B784BB9224B1B7833B1224B1B781BB926
:105B3000214B1B78002BE3D0204B1B78002BDFD1AF
:105B40001F4B1B78002BDBD11B4B1B78012B0FD07D
:105B50001C4B6BB12388062B05D8114B0721042061
:105B6000198007F027FFFFF735FE134B01221A704B
:105B7000154B002BC4D02388072B05D8084B0821D0
:105B80000420198007F016FFFFF7A4FE2388082BD6
:105B9000B6D8034B09210420198007F00BFFAFE7AB
:105BA000501F0020641E002041630008191E0020C1
:105BB0005A1E0020DA1D0020A40E0020DB1D00204C
:105BC000F4280020D5570008D5580008F8B5524BE6
:105BD0001A6812B11A68013A1A60504B504D1B787E
:105BE0003BB1504B1B78002B28D04F4B002B47D19B
:105BF00024E04E4C2368264613B12368013B0FE096
:105C00004B4B1B78D3B94B4B1B78BBB94A4B1B781A
:105C1000A3B94A4F3B782BB1E72006F001FE1423CD
:105C200023600BE02B78002B2DD1E72006F0B2FD8E
:105C3000434B1B78002B34D0322333602B7833B1A5
:105C4000404C23781BB92EE05A6801325A603E4B13
:105C50001A68B2F57A7F0FD300221A6008F016F99D
:105C60003A4B4FF6FF711A888A4254D019800420AB
:105C7000BDE8F84007F09EBE1A6801321A60F8BD10
:105C800000F0A6FBDAE7324B1B78002BCDD04FF6A5
:105C9000FF7006F0D5FCE72006F04EFD01233B70B7
:105CA000CCE76423C9E7234B1B788BB1294B47F220
:105CB0002F5259689142C7D9BFF34F8F264A274BBD
:105CC000D16801F4E0610B43D360BFF34F8FFEE76F
:105CD000174D2B7803F0FF0633B9304606F0B6FEB9
:105CE00040F6B73398420DD8002006F0AFFE41F6DB
:105CF00057339842ABD9002006F0B0FE184B012272
:105D00001A70A4E7304606F0A9FE2378002B9ED136
:105D100001232B709BE7F8BDFC2800200C1F0020FE
:105D2000641E002040120020D1630008F8280020E3
:105D30000A1E0020DB1D0020DD1D0020DC1D0020D0
:105D4000D91D0020191E002000290020501F00200E
:105D5000DA1D0020A40E002000ED00E00400FA058A
:105D6000081E002008B5094B186007F099F80020BC
:105D700007F0E2F8064806F015FB07F0A9F807F06F
:105D8000C7F8BDE8084009F009B800BFE0010020ED
:105D9000A0860100074B1B68052B08D1064B1A7A19
:105DA000012A04D1987A1B7BC01AC0B27047002028
:105DB000704700BF541F0020A40E00200D4B10B5EB
:105DC0001B68052B13D10C4C237A012B0FD1628950
:105DD000A389D31A012B04D100230320237209F0D5
:105DE00034F9A3895A1CA2811C44A07B10BD4FF03A
:105DF000FF3010BD541F0020A40E002008B50C4B2E
:105E00001B68052B12D10B4B1A6D99180132B2F594
:105E1000807F08BF002281F854001A6506F00EFF4B
:105E200020B16420BDE8084006F0BCBA08BD00BF40
:105E3000541F0020A40E0020F8B5234B93F85421E2
:105E4000012A3FD0D3F85821196DB2F5807F04BFE5
:105E50000022C3F85821D3F858411B4A8C4203D181
:105E6000002382F85431F8BD8CBFC4F58071C4EBB7
:105E70000101C2F85C11D3F85C61134D402EA2B24F
:105E800007D94034403EC5F85841C5F85C61402709
:105E900006E034440021B7B2C5F85841C5F85C119A
:105EA0000A4801241044C0213A4683F8544109F0BD
:105EB00047F82046394609F04BF92046BDE8F8403E
:105EC00009F0B0B8F8BD00BFA40E0020F80E002005
:105ED000094B10B593E8140008331B68D0180AD09A
:105EE00006490822FFF79CFD204605490422BDE82B
:105EF0001040FFF795BD10BDE8F7FF1F8F01002090
:105F00009F01002013B5084C002100910A460B4662
:105F1000204601F0D7F80549054A204602B0BDE801
:105F200010400DF0D7BC00BF04100020FD51000848
:105F30000C10002038B504460D46AC4203D254F88C
:105F4000043B9847F9E738BD08B507480749FFF70C
:105F5000F1FF07480749FFF7EDFFBDE80840064895
:105F60000649FFF7E7BF00BFA8820108A882010821
:105F7000A88201080C8301080C8301080C83010826
:105F80000DF0E0BD0DF0E6BD0DF0E4BD08B5072055
:105F900007F090FBFEE70000074A08B513681844B5
:105FA0001060064A904204D9082007F083FB0DF0E8
:105FB00097FC184608BD00BF1400002000480020D0
:105FC0004FF0FF3070470120704708B50C2007F0F4
:105FD00071FBFEE7014B1868704700BF10100020EE
:105FE000064B0246582000FB013101F1080303CBA8
:105FF0001060516018689060704700BF101000205A
:10600000014BD3F86401704710100020064B024684
:10601000142000FB013101F5B67303CB1060516011
:1060200018689060704700BF1010002038B5054612
:10603000064C28B106F0A6FB012384F8303238BDA7
:1060400006F04EFB84F8305238BD00BF101000201F
:106050000E4B2DE9F041D3F8647180460024BC4218
:1060600011DA14256543094E414606F5B6702844F9
:106070000C220EF0B1FC20B93544D5F86801BDE81A
:10608000F0810134EBE70020BDE8F0811010002022
:10609000044B01221A70044B00224FF4C0201A60F6
:1060A00006F0DEBFDB1D0020A80E0020034A0023FF
:1060B0001370034A136007F031B800BFDB1D0020E6
:1060C000A80E0020024B00221A6006F0F1BF00BFAC
:1060D000A80E00202DE9F04788B0804668460D469E
:1060E00001F08AF91E4B0024D3F800A054452DDAA4
:1060F00055B3582666431A4F414607F1080030440D
:106100000C2207F104090EF067FCE8B928460EF0EE
:1061100033FC06F11003402834BF024640222946D2
:1061200009EB0300FEF7F4FF3E44012386F85830E4
:10613000694604A8746801F081F904A8A0470446E0
:1061400004A801F017F903E00134CFE74FF0FF3462
:10615000684601F00FF9204608B0BDE8F08700BF9F
:106160001010002010B5064C206804F00DFC2368C8
:10617000013303D0431E5842584110BD012010BDC9
:106180001800002070B50B4B05461B780C4673B900
:10619000094B1B785BB9FFF7E5FF034638B9074A9F
:1061A000294610682246BDE8704005F0A7BB4FF0B5
:1061B000FF3070BD181E0020191E0020180000209E
:1061C0002DE9F041264B86B01B7880460F46002B08
:1061D00041D1244B1B78002B3DD1FFF7C3FF044670
:1061E000002838D1204D8DF80C008DF80D008DF869
:1061F0000E008DF80F00286806AA460902EB8606F5
:10620000012100F01F02914056F80C2C01300A4386
:1062100046F80C2C41F28832059204AA009203A998
:1062200022462346049405F04BFA002815DD2B681E
:1062300006AA590902EB810151F80C5C03F01F0218
:10624000154115F0010008D0184641463A4623464C
:1062500005F0D6FA01E04FF0FF3006B0BDE8F0815E
:10626000181E0020191E00201800002030B51E48FE
:10627000ADF5797D08F0D5FF002832D11B4B15A86C
:1062800004931B4B5FAD05931A4B039006931A4B77
:106290000CAC0793194B02950893194B0993194BB2
:1062A0000A93194B0B93194B0C93194B0D93194BE4
:1062B0000E93194B0F93194B1093194B1193194BC4
:1062C0001293194B1393194B149306F06DFF284644
:1062D00006F070FF00940448154902AA04AB08F0C8
:1062E000A7FF0DF5797D30BD4412002085610008BF
:1062F000C161000891600008AD600008E5D10008A8
:10630000C56000082D600008A96B0008D55F000873
:10631000E15F0008D5600008016000080D6000081A
:10632000DD65000851600008C1D10008D5D1000822
:10633000E8F7FF1F014809F0BCBD00BF4412002070
:1063400030B502208DB00146112205F0FFF8051E80
:1063500028DB07A8144909F08EF80223ADF80C30A9
:1063600016238DF80E3033238DF80F30E0238DF88F
:10637000103000238DF8113001238DF81230BB232B
:106380008DF81330032403AB0093102301932846A8
:1063900007A91322002305F0BBFA013CF3D12846DC
:1063A00005F002F90DB030BDE8F7FF1F10B5074C3E
:1063B000FFF75CFF204608F037FF204609F0ABFAF4
:1063C0000446FFF7BDFF204610BD00BF4412002069
:1063D00038B5114CD4F8445A2DB1D4F8443A013BA5
:1063E000C4F8443A38BDD4F8483A0C4A52F823006D
:1063F00006F04EF9E72006F09FF96423084AC4F836
:10640000443AD4F8483A526801339342C4F8483ABF
:10641000A8BFC4F8485A38BD10100020B050010879
:10642000180000207FB502200121062205F08EF819
:10643000041E24DB0223ADF8003000238DF8023067
:1064400035238DF803304FF4FA5008238DF80430CB
:106450008DF805308DF806308DF8073001F07CFDA1
:10646000694610220546204605F0FCF806462846F7
:1064700001F072FD204605F097F8304601E04FF03C
:10648000FF3004B070BD000010B5064C2068002835
:1064900005DB05F089F84FF0FF33236010BD0020C5
:1064A00010BD00BF18000020F0B5A7B0FFF7ECFF4B
:1064B00002200121062205F049F8324F00283860F9
:1064C00050DB314D0223A5F84C3A162385F84E3A9D
:1064D00005A8332385F84F3A06F032FE00230093D7
:1064E0009DF814303BB1012B17D0284B01AC03F1C0
:1064F000100E224602E0069B009313E018685968CC
:10650000264603C6083373453446F7D10FCA06AC96
:1065100007C424F8023B1B0C23700A24009B0BB910
:10652000013C22D1009B0BB9194B0093009B4FF407
:10653000FA501A0E85F8502A1A0C85F8512A1A0AB0
:1065400085F8533A85F8522A01F006FD11490446B0
:106550001022386805F086F80546204601F0FCFC5C
:1065600028460CE04FF0FF3009E006A87E210EF02F
:10657000BFFA6A4681B206A805F03CF8CEE727B01C
:10658000F0BD00BF18000020101000203E7D010863
:1065900004E5D0365C1A00200F4B2DE9F041D3F80A
:1065A000647180460024BC4211DA142565430A4E0A
:1065B000414606F5B67028440C220EF00DFA20B9BB
:1065C000354495F87801BDE8F0810134EBE74FF0F0
:1065D000FF30BDE8F08100BF1010002008B5FFF7C4
:1065E000DBFF013808289DBF024BC018007F022046
:1065F00008BD00BFB050010805F034B837B50B4CEA
:10660000002104F65C250B4600910A46284600F05E
:1066100059FD28460649074A0DF05CF904F50D704E
:1066200003B0BDE8304008F0E7BD00BF1010002007
:10663000FD5100080C10002014282DE9F3410446F8
:106640000E4667D8FF2965D000F05CFE18B1A4F1B2
:106650000D03022B5ED900F0C9FC08B1012C59D9F9
:1066600001F012FA18B1A4F11203012B52D92B4DEB
:1066700024012B192F59B3F80480294B9F4201D1D3
:10668000042003E0274B9F4203D10820012107F09B
:1066900073FCADF80480062E38D8DFE806F0040D50
:1066A00013191F28310010238DF8073003238DF8AC
:1066B00006302C44002328E004238DF807302C44B6
:1066C000012322E048238DF807302C4402231CE0EC
:1066D00028238DF807302C44032316E018238DF867
:1066E000073003238DF806302C4404230DE01C23CF
:1066F0008DF8073003238DF806302C44052304E081
:1067000000238DF807302C440623A373384601A9D3
:1067100007F006FB02B0BDE8F08100BF20000020BA
:1067200000080140000C01401428F8B505460F464A
:1067300035D81B4E040133199B7B5A1E022A2ED9D1
:10674000062B2CD0FF2B2AD000F0DCFD20B1A5F1C8
:106750000D03022B00D8F8BD00F048FC10B1012D4C
:1067600000D8F8BD01F090F920B1A5F11203012B7A
:1067700000D8F8BD33199B7B042B03D12846002198
:10678000FFF75AFF012F04D13219335992881A6149
:10679000F8BD27B93219335992885A61F8BDF8BD4E
:1067A00020000020142870B5044614D81A4E0501A4
:1067B00073199B7BFF2B0ED0043B012B0BD900F0F0
:1067C000A1FD18B1A4F10D03022B04D900F00EFCB9
:1067D00018B1012C01D8002070BD01F055F918B195
:1067E000A4F11203012BF6D973199B7B062B07D159
:1067F000094B93F85011FF29EDD02046FFF71CFFFD
:106800002E44054BB27BB188585912B907F0DCFA17
:1068100070BD07F0D3FA70BD20000020F0B54FF432
:10682000004091B007F074FB0120014607F098FB8F
:1068300001214FF4C06007F09FFB334807F0DEF8FA
:10684000324B00240593324B2F4806930A230893BA
:1068500080230A934FF400730B934FF400630C935F
:1068600005A94FF400530E9301254FF400274FF470
:106870006026079409940D940F9407F037F9254882
:10688000694600978DF804408DF805400296039400
:106890008DF8105006F0ECFF1F48694600978DF800
:1068A00004408DF80540029603948DF8105006F0D0
:1068B000DFFF1848294606F0FFFF164807F00EF8DC
:1068C000144807F010F80028FAD1124807F00FF822
:1068D000104807F011F80028FAD10F48012106F0FE
:1068E000EBFF0D4806F0FAFF0B4806F0FCFF00280E
:1068F000FAD1094806F0FBFF074806F0FDFF002823
:10690000FAD111B0F0BD00BF080002404C24014094
:10691000781A00200024014000280140092870B5A1
:1069200004469CBF00F10A04A4B200F0EBFC28B1BD
:10693000A4F10D03022B01D8002070BD00F056FB1E
:1069400001F0A2F818B1A4F11203012BF4D9142C10
:10695000F2D8374D2601AB199A79FF2AECD095F879
:106960005211914206D09B7B2046062185F850317A
:10697000FFF762FE95F85331012B05D1FFF74EFF6B
:106980002B4B002283F853212E44B17995F85231D4
:10699000274C8B420FD02748012294F8513106F042
:1069A000B8FF94F851312448B179012206F0B1FFC3
:1069B000B37984F852310021204C002344F821306F
:1069C00001310A29F8D11E4807F0C1F81A480121FF
:1069D00006F0E7FF1A48012107F0A6F81548012143
:1069E00006F073FF1348012106F08AFF022007F02A
:1069F000B1F80028FAD0022007F0BAF80D480021BB
:106A000006F063FF0E48002107F08EF800231A46B7
:106A100054F8230054F82310013389B201EB1041DC
:106A20000A2B0A44F4D11420B2FBF0F290B270BDEC
:106A3000200000200024014000280140781A002096
:106A4000080002402DE9F043142889B00446884626
:106A500000F29C804F4F0601BB199B68002B00F091
:106A6000958000F04FFC20B1A4F10D03022B40F201
:106A70008D8000F0BBFA10B1012C40F2878001F04C
:106A800003F818B1A4F11203012B7FD9BD19AB7B18
:106A900013F0FB0F7AD1404B01201A683F4B01469F
:106AA000B2FBF3F94BF6803303FB08F8FF2398FBA6
:106AB000F3F807F061FA20460421FFF7BDFDAB684B
:106AC00009F1FF39B3F1804F1FFA89F91FFA88F8ED
:106AD00002D10120014609E0314A934208BF022059
:106AE00003D0304A934203D10420012107F050FA29
:106AF000BC1900254BF67F33A06801A9ADF808301A
:106B0000ADF80A50ADF80650ADF8049007F02AFB36
:106B10006023ADF81850A589ADF810300123ADF809
:106B20001230ADF8168045B9A06804A907F064FBDF
:106B3000A068082107F0A0FC1FE0042D08D1A06880
:106B400004A907F09DFBA068082107F09DFC14E054
:106B5000082D08D1A06804A907F0D6FBA068294633
:106B600007F09CFC09E00C2D07D1A06804A907F0F0
:106B70000DFCA068082107F099FC3E44B068012193
:106B800007F06EFCB068012107F047FC09B0BDE8D2
:106B9000F08300BF20000020D402002000366E01E8
:106BA000000400400008004006F056BB13B5084C36
:106BB000002100910A460B46204600F083FA054961
:106BC000054A204602B0BDE810400CF083BE00BF6D
:106BD000A01A0020FD5100080C10002038B5184BF9
:106BE00005461C8803F580631B88A4B29BB22BB9B1
:106BF0004EF6EE62A21A18BF012205E0F4B94EF675
:106C0000EE629B1A5A425A4192020E4B02F1006404
:106C100004F5804413449C420ED22268013209D10B
:106C2000204607F061F8042809D1A01C294607F086
:106C30005BF838BD0434EEE7802038BDAB2038BDAA
:106C400000400008FE43000808B5084807F02EF889
:106C500004280AD10548002107F046F8042804D189
:106C6000BDE80840024807F021B808BD0040000810
:106C700000440008104B10B51C8803F580631B8886
:106C8000A4B29BB21CB10BB1AB2010BD01240B4BC5
:106C9000A40223440A4A224493420AD91A8892B28F
:106CA000824204D133F8023C00200B8010BD043B2B
:106CB000F0E7012010BD00BF00400008FE430008BF
:106CC00002400008F8B5444E06F0B0FF434D34884A
:106CD0004EF6EE61A4B22B888C429BB24FF6FF7247
:106CE00010D0944202D0002C73D142E00BB9304650
:106CF0006CE08B426DD1304606F0D8FF04286AD193
:106D0000284632E04BBB1C461646354B354A1B889D
:106D100032F814509BB2AB4208BFA6B233B29C42C9
:106D200003D10134642CF0D10FE02E4F284607F137
:106D3000C801FFF79FFF0128F3D02846B7F8C81015
:106D4000FFF74CFF0428ECD0F8BD2348002106F0E3
:106D5000CBFF04283FD1214838E0934239D128465F
:106D600006F0A4FF042836D13046002106F0BCFF0F
:106D7000F8BD73B3934201D1284627E016461A4B5B
:106D8000184A1B8832F814509BB2AB4208BFA6B217
:106D900033B29C4203D10134642CF0D10FE0114F87
:106DA000284607F1C801FFF765FF0128F3D0284600
:106DB000B7F8C810FFF712FF0428ECD0F8BD074859
:106DC000002106F091FF042805D1034806F06EFF6C
:106DD000F8BDFFF739FFF8BD004000080044000887
:106DE00006400008A81A0020064400082DE9F843D0
:106DF00006460C4606F01AFF30462146FFF7EEFE27
:106E0000802840D1214B22481988028889B292B249
:106E100021B1002A36D11D46814601E0054699463A
:106E200028464EF6EE6106F05FFF04282BD130466F
:106E30002146FFF7D3FE042825D10024154F34F84E
:106E40000780B04503D10234C82CF7D10FE040468B
:106E500007F1C801FFF70EFF0128F4D04046B7F84C
:106E6000C810FFF7BBFE0428EDD0BDE8F883484604
:106E700006F01CFF042806D12846002106F034FF46
:106E8000BDE8F883AB20BDE8F88300BF00400008F0
:106E900000440008A81A002010B50446FFF712FFAE
:106EA0000023044A22F813300133642BF9D1204621
:106EB00010BD00BFA81A0020632907B507DC074BE7
:106EC00033F811000DF10601FFF7D4FE08B1FF20E1
:106ED00001E09DF8060003B05DF804FBA81A00204D
:106EE00063290B4605DC034931F813001146FFF70F
:106EF0007DBF7047A81A00200148FFF7CDBF00BF33
:106F0000721B0020024B18785B78C01A704700BFD4
:106F1000741B0020064B5A781978914204D99918AD
:106F2000013288785A7070474FF0FF30704700BFC9
:106F3000741B0020044B5A781978914286BF9B1825
:106F400098784FF0FF307047741B002070470000A6
:106F5000014B0360704700BF2051010810B5034B7F
:106F600004460360FFF70EF8204610BD20510108CB
:106F7000F8B5094B054693F82230164653B10C4636
:106F80008F18BC4206D02B6828469B6814F8011B5A
:106F90009847F6E73046F8BD741B002010B50C4B3F
:106FA000012293F822408CB193F823401F2C02D980
:106FB0004260002010BD93F824001C1884F82510AE
:106FC000411CC9B283F8241083F82310104610BD69
:106FD000741B0020002242604FF47A728260014AE2
:106FE00002607047E050010870477047014B93F80A
:106FF00059007047741B002073B50E4C002104F13A
:1070000064050D4E0B4600910A46284600F05AF8DA
:107010006C343246094928460CF05CFC2046FFF7E8
:10702000D9FF07492046324602B0BDE870400CF057
:1070300051BC00BF741B00200C100020FD51000843
:10704000516F000808B5034B53F8203003B198473F
:1070500008BD00BFF01B002013B5084C00210091B3
:107060000A460B46204600F02DF80549054A204601
:1070700002B0BDE810400CF02DBC00BF301C002059
:10708000FD5100080C1000202DE9F04100240746B6
:107090000E4625463B1919790A22304600F0F6F8CB
:1070A0002E218046304600F07AF801344044032C0B
:1070B0000544EFD13046F9790A2200F0E7F8284478
:1070C000BDE8F08130B58371034D9DF80C3005604B
:1070D00001714271C37130BD085101080548064B6A
:1070E00006490360064A0023037143718371C3712B
:1070F0000CF0F0BB381C002008510108FD510008BD
:107100000C10002013B5084C002100910A460B46D4
:107110002046FFF7D7FF0549054A204602B0BDE8E3
:1071200010400CF0D7BB00BF401C0020FD510008F0
:107130000C100020014B0360704700BF2051010874
:10714000F8B506460C468F180025BC4207D03368B8
:1071500030469B6814F8011B98470544F5E728461C
:10716000F8BD000010B5034B04460360FEF70AFFAC
:10717000204610BD2051010838B505460C4608468A
:1071800041B10DF0F9FB2B680246DB682846214629
:10719000984738BD38BD08B5FFF7EEFF08BD08B504
:1071A00003689B68984708BD38B50D210546FFF771
:1071B000F6FF0A2104462846FFF7F1FF204438BDB8
:1071C00038B50446FFF7D8FF05462046FFF7ECFF29
:1071D000284438BD38B50446FFF7E1FF0546204690
:1071E000FFF7E2FF284438BD30B500238BB08DF89F
:1071F0002430012A98BF0A220DF12304B1FBF2F3D7
:1072000003FB1211CDB2092D94BF30353735EDB2E5
:10721000214604F801590BB11946EFE7FFF7ACFF1F
:107220000BB030BDF8B506460D46144622B90368CA
:10723000C9B29B689847F8BD0A2A0CD100290BDA1D
:107240002D21FFF7ACFF6942074622463046FFF783
:10725000CBFF3844F8BDD2B2BDE8F840FFF7C4BF59
:1072600038B50446FFF7DEFF05462046FFF79CFFD2
:10727000284438BD10B522B90268C9B29268904757
:1072800010BDD2B2BDE81040FFF7AEBFFFF7F2BFAE
:1072900038B50446FFF7EEFF05462046FFF784FFAA
:1072A000284438BD13B5084C002100910A460B460E
:1072B0002046FFF707FF0549054A204602B0BDE812
:1072C00010400CF007BB00BF501C0020FD5100080F
:1072D0000C10002013B5084C002100910A460B4603
:1072E0002046FFF7EFFE0549054A204602B0BDE8FB
:1072F00010400CF0EFBA00BF581C0020FD510008F0
:107300000C100020014B587D704700BF601C00200E
:107310007047000013B5084C002100910A460B4647
:107320002046FFF7CFFE0549054A204602B0BDE8DA
:1073300010400CF0CFBA00BF781C0020FD510008AF
:107340000C10002013B5084C002100910A460B4692
:107350002046FFF7B7FE0549054A204602B0BDE8C2
:1073600010400CF0B7BA00BF841C0020FD5100088B
:107370000C10002010B5044600680CF0EBFB204612
:1073800010BD10B50446006808B10CF0E3FB002303
:107390002360A360636010BD38B504460D460068E5
:1073A00001310CF0CDFF10B184E82100012038BD7F
:1073B000036810B5044613B143688B4207D22046D8
:1073C000FFF7EAFF20B1A3680BB922681370012010
:1073D00010BD70B50E46114604461546FFF7E8FF8E
:1073E00018B92046FFF7CDFF04E0A56020683146BC
:1073F0000DF064FA204670BD38B5002304460360E2
:107400004360836003730D4639B108460DF0B4FA4A
:10741000294602462046FFF7DCFF204638BD884259
:1074200010B50B46044607D0096819B19A68FFF7F2
:10743000D0FF01E0FFF7A5FF204610BD10B50023E7
:1074400004460360436083600373FFF7E8FF204650
:1074500010BD13B5026802AB03F8011DD4681946CC
:107460000122A04702B010BD10B5B0F81622B0F846
:10747000143204469A4207D0B4F814325A1CA4F8C5
:1074800014221C44207D10BD03681B699847002806
:10749000F2D14FF0FF3010BD10B5B0F81622B0F8A1
:1074A000143204469A4204D0B4F814321C44207DAD
:1074B00010BD03681B6998470028F5D14FF0FF30D5
:1074C00010BD0023A0F81432A0F816327047F8B5AA
:1074D0001746B0F81432B0F8162204469A420E4607
:1074E00006D103681B69984710B94FF0FF3512E0C9
:1074F000B4F81432B4F81652E118ED1ABD4228BFA0
:107500003D46304614312A46FDF702FEB4F81432E7
:107510002B44A4F814322846F8BD10B5044600697F
:10752000082801D004F040F80823236110BD30B5CD
:10753000B0F8163287B0044633B1B0F814229A423C
:1075400002D10368DB69984700F030FB022821D1A3
:10755000206908281ED0B4F81632B3F5007F19D27E
:10756000430906AA02EB8303012100F01F0201FA7E
:1075700002F243F80C2C41F288330025059304AB4A
:10758000009308442A4603A92B46049504F098F872
:10759000A84206DCB4F81602B4F81432C01A07B0D8
:1075A00030BD206906AB420903EB820252F80C2C75
:1075B00000F01F0342FA03F3DB07EBD5B4F8162201
:1075C0002B46A1181431C2F5007204F019F90028F5
:1075D000E0DDB4F816320BB9A4F814320344A4F871
:1075E0001632D7E72DE9F04188B006460F4690469F
:1075F00000F0DCFA02284FF0000422D108AD384632
:1076000045F8144D0DF0B8F92A4681B2384603F01A
:10761000F1FFA04215DD039B04A8DAB20092190E17
:10762000C3F30742C3F30723FFF74CFD336830462B
:107630001C6A064B06A90693059B42460793A04782
:1076400000E0204608B0BDE8F08100BF0851010805
:10765000F0B585B004460D46164600F0A7FA02289C
:10766000074634D10121062203F070FF0028206173
:107670002DDB23682046DB699847330A8DF80230FA
:107680002B794FF4FA508DF804306B798DF8036044
:107690008DF80530AB79ADF800708DF80630EB79D8
:1076A0008DF8073000F058FC694605461022206925
:1076B000FEF7A2FF0646284600F04EFC002E04DA34
:1076C00023682046DB6A984701E0012000E00020A3
:1076D00005B0F0BD4FF47A71816005490022016068
:1076E000082142600161A0F81422A0F81622704718
:1076F00038510108036910B5082B044601D1002058
:1077000010BD00F053FA0228F9D1206903F03CF9CA
:10771000D0F1010038BF002010BD70B504460E4600
:107720001546FFF7E7FF38B1206931462A460023A6
:10773000BDE8704004F0E2B84FF0FF3070BD70B5A6
:107740000446FFF7D7FF012819D0B4F81622B4F881
:1077500014329A4212D12069082803D003F014F998
:10776000012801D0002070BD236820461B6998477E
:1077700020B923682046DB6A9847F3E7012070BDF3
:1077800008B5FFF7B7FF003018BF012008BD0000A3
:1077900013B5084C002100910A460B462046FFF71E
:1077A00091FC0549054A204602B0BDE810400CF0A6
:1077B00091B800BF8C1C0020FD5100080C10002067
:1077C00013B5084C002100910A460B462046FFF7EE
:1077D00079FC0549054A204602B0BDE810400CF08E
:1077E00079B800BF941C0020FD5100080C10002047
:1077F00038B5184C94F92C305BB394F82D3043B362
:1078000006F00EFC94F82C2094F82D5051B200296B
:1078100095FBF1F106DD01290BDC013A84F82C20FF
:10782000002307E0013104DB013284F82C2002231D
:1078300000E0012394F82D20013A84F82D20C4188B
:1078400006F020FC204606F0FDFBBDE8384006F0BF
:1078500019BC38BD9C1C002013B5084C00210091B8
:107860000A460B462046FFF72DFC0549054A2046EF
:1078700002B0BDE810400CF02DB800BFCC1C0020B9
:10788000FD5100080C10002013B5084C0021009198
:107890000A460B462046FFF715FC0549054A2046D7
:1078A00002B0BDE810400CF015B800BFD81C002095
:1078B000FD5100080C100020014B0360704700BF11
:1078C000205101080369186C5B6CC01A00F03F007E
:1078D00070470369196C5A6C91421ABF5A6C985CD4
:1078E0004FF0FF3070470369196C5A6C914207D012
:1078F0005A6C985C5A6C013202F03F025A6470472D
:107900004FF0FF307047000010B5034B0446036092
:10791000FEF738FB204610BD20510108436910B521
:107920000446196C5A6C9142FBD1237E13B9002393
:10793000237610BD0348402106F0F1FD0028F6D162
:10794000F3E700BF0044004070B504460E462C48E3
:1079500040F2277106F0E9FD20B963691A6C5B6C8F
:107960009A4211D163691D6C013505F03F056369C9
:107970005A6C95420FD0EFF31082D20732D5196CB2
:107980005A6C914207D12DE01D4840F22771012227
:1079900006F0A5FDE6E71A4840F2277106F0C5FD9E
:1079A0000028E4D01648802106F0B9FD0028DED07A
:1079B000134840F22771002206F091FD63691048D8
:1079C0005A6C511C5964995C06F0A1FD63690C481E
:1079D0005A6C40F2277102F03F025A64012206F00D
:1079E0007EFDC4E71A6C06489E54636940F2277115
:1079F0001D64012525762A4606F071FD284670BDD6
:107A00000044004010B51E4840F2255106F08DFD9F
:107A100078B11B4806F07FFD1A4BC0B25A6D996DC4
:107A2000013202F03F028A4203D0596D5A6519446F
:107A30000875134840F2277106F077FDF8B1114C34
:107A4000D4F89C20D4F8A0309A4207D1BDE8104069
:107A50000B4840F22771002206F041BDD4F8A03057
:107A600007485A1C234493F85C10C4F8A02006F081
:107A70004EFDD4F8A03003F03F03C4F8A03010BD91
:107A800000440040E01C0020014B187C704700BF00
:107A9000E01C0020F7B5164C002504F1A406154F94
:107AA0002B4629462A4600953046FFF70BFB3A46FF
:107AB000304611490BF00EFF4FF47A73C4F8B4301E
:107AC0000E4B0F49C4F8AC3004F11403C4F8BC30B9
:107AD00004F1AC0004F15C033A46C4F8B050C4F8B9
:107AE000C03084F8C45003B0BDE8F0400BF0F2BEE3
:107AF000E01C00200C100020FD5100087851010806
:107B0000B978000870474FF0FF307047014B0360B1
:107B1000704700BF2051010810B5034B04460360B5
:107B2000FEF730FA204610BD20510108FEF746B995
:107B300008B5FEF72FF908BD08B50846FEF75EF94F
:107B4000012008BD002242604FF47A728260014A2F
:107B500002607047A05101080846FEF703B9000013
:107B600037B50D4C00210D4D0B4600910A462046BD
:107B7000FFF7A8FA2A460A49204608340BF0AAFE65
:107B80002046FFF7DFFF074920462A4603B0BDE83D
:107B900030400BF09FBE00BFA81D00200C1000203D
:107BA000FD5100080D7B000870470000054B1B7855
:107BB00003F0FF002BB1044B1B78002B14BF0220F5
:107BC00001207047091E0020D81D002037B50B4C3E
:107BD00000210B4D0B4600910A462046FFF772FA32
:107BE0002A46204607490BF075FE074904F10800B4
:107BF0002A4603B0BDE830400BF06CBEC01D00202B
:107C00000C100020FD510008A97B00080023036030
:107C1000184670470023036018467047002303602E
:107C2000184670472DE9F0410B7886B0002B0C46C2
:107C300014BF90464FF0000806460CF09DFE074624
:107C400020460CF099FE182301931E230125029370
:107C500002230393059000950494404631463A462A
:107C6000002303F089FF034B18705D7006B0BDE878
:107C7000F08100BFCC1D0020034610B548F210046F
:107C8000A34208464CD00DDC48F20102934224D0B6
:107C900048F2020293422AD0992B64D1324B01223E
:107CA0009A7410BD48F28004A3420FD0B3F5084F78
:107CB00049D048F24000834255D12B4C04F11400C6
:107CC000FDF726FAA36A0133A36210BD264B0122F9
:107CD0009A70DA7000221A7110BD234C012363716F
:107CE000FEF762FF00F5EA403030A06010BD1E4C88
:107CF000637963B1FEF758FF00F5EA403030A060C9
:107D00004FF47F4004F09CFCE72004F015FD0023B5
:107D1000637123736373A373E3732374637410BD7C
:107D20000A7D114B62B99A604FF47F4001221A73A9
:107D30001A7404F085FCBDE81040E72004F0FCBC98
:107D400000221A7310BD002102F01FFA012104461F
:107D500002F062FA054B1B689C4204D1024B0022E0
:107D6000DA739A735A7310BDCC1D002018000020DE
:107D70001FB54FF461504FF461610A2200238DE872
:107D80000F00064B44F620621A60684601A902AA59
:107D900003AB02F0FFFE05B05DF804FB081F0020F6
:107DA0001FB50023009301930293039301A8694632
:107DB00002AA03AB02F0B4FE05B05DF804FB0000BC
:107DC00070B500210A4C0E2002F0B6FF10251021DC
:107DD0000E2002F0B1FF2A46204600210CF042FAA4
:107DE000294623460E200022BDE8704002F058BF0D
:107DF000F81D002030B5524D00249FB0FF20AC701C
:107E0000EC706C706C712C73AC746C73AC73EC7341
:107E10002C7404F015FCE72004F08EFC2146224669
:107E2000204603F085FE2B46012103F82D4F0E203E
:107E30000A4602F035FF6B79012B05D1642004F06E
:107E4000A9FA02F009FBF6E710210C2002F074FFFA
:107E50003C4803F037FB3C4803F0E0FF012003F00F
:107E6000C1FF6846394900F0D1FDAB786A78344CDF
:107E70001A4317D194F83C30002B57D0FF2003F061
:107E800063FF002852D11A24013C06D0E72004F0F9
:107E900081FC322004F07EFAF6E7FFF791FF85F8C7
:107EA0003C40E2E7E72004F047FC04F12C030E20FD
:107EB0000121002202F0C6FEA37813B103F0CEFF29
:107EC00020702B780121013385F82C300022204BC3
:107ED0000E2002F0E5FE002001240146012203F0FD
:107EE00027FE214622461B4B0E2085F82D4002F02E
:107EF000D7FE03F0A1FD642004F04CFA002003F04B
:107F000065FD85F83D404FF47F4000242C7404F05B
:107F100097FBE72004F010FC48F2042003F030FF48
:107F2000FFF726FF85F83E401FB030BDE72004F084
:107F300031FCFA2004F02EFA684600F0C3FD94E705
:107F4000CC1D0020C051010874010020257C0008D0
:107F5000F81D0020F91D0020024B1A681860104619
:107F6000704700BF081F00207FB5364C00252064F5
:107F700004F0C6FE04F006FE334B344A0093344B43
:107F800034490193344B35480293354B0393354BB9
:107F900003F004FD642004F0FDF9002003F016FD59
:107FA000012348F2042084F83D30257403F0E8FEF4
:107FB0002D4B1A881E46012A31D00E2010212A4648
:107FC00004F12C0302F03EFE102828D123791D4D28
:107FD000ABB995F82C301BB9012385F83E300EE083
:107FE00095F82D0058B90146012203F0A1FD0121A9
:107FF0002B4603F82D1F0E200A4602F051FE23796E
:10800000BBB9104B93F83E309BB1184802F07AFE92
:10801000FFF7C6FE04B0BDE87040FFF7A9BEFF2021
:1080200003F092FEFFF7CCFE0023338004F0C0FF84
:10803000CCE74FF47F4004F003FBE72004F07CFB27
:10804000E3E700BFCC1D00203DCC0008157C0008F4
:1080500051CC00080D7C0008BDCC0008797C0008DC
:10806000E5CC00081D7C0008C2020020101E002084
:108070002DE9F341AE4C05F009FF0023A36494F809
:108080004C304BB994F84D3033B9A3687BB3FEF74D
:108090008BFDA36898422AD394F83D30A44D002B61
:1080A00040D000266E71AE602E732E6585F84C6050
:1080B000012785F83D606E73AE73EE736E7403F046
:1080C000BBFC6FF07F402F7404F0BAFAE72004F095
:1080D00033FB642004F05EF995F83E3013B330466C
:1080E00003F074FC85F83D70FFF784FE1AE094F805
:1080F0003D308F4DB3B92B792BB9FEF755FD00F507
:10810000EA403030A860002003F060FC012384F8CE
:108110003D304FF47F400023237404F091FAE720B0
:1081200004F00AFB94F83E30814E13B1FFF762FE73
:1081300005E033791BB1337B03F0FF05FBB1E27837
:108140007B4B012A13D11A7B012A10D15B79012BB9
:108150000DD1032577480CF00FFC013D82B2754923
:10816000012003F0E1FB15F0FF05F3D1E570237B5F
:108170006F4DE3B195F84D30002B74D017E02946D0
:108180002A462846B56003F0D3FC6B480CF0F4FB9C
:108190006A4F804638460CF0EFFB00970190791F3C
:1081A000032042462B4603F05DFC3571C7E794F887
:1081B000573023B1624800213A220CF053F894F86A
:1081C0008E205B4B32B95A7B002A58D19B7B002B07
:1081D00055D1BBE01A7BFAB193F84D20E2B95A7B36
:1081E000002A5CD018E02B4603F82F2F0E20012127
:1081F000032202F055FD00264FF6FF70267404F0AE
:108200001FFAE72004F098FAFEF74EF9B042484D05
:1082100065DB01232E656B73637B454D002B00F0FE
:108220009580AB7BBBB9FEF7C1F8002811D002DA0C
:108230004FF47F0007E0012801D1424803E0022803
:1082400003D14FF0FF1004F0FBF9E72004F074FABB
:1082500001E00123AB73FEF76DF8002876D1E073DF
:10826000A073607372E095F85730002BA7D164209B
:1082700004F090F805F1540002F0D2FC9FE7FEF7FD
:1082800003F900234FF47F40E373A373637304F097
:10829000D7F9E72002B0BDE8F04104F04DBA5B7CAD
:1082A000002BA8D04FF47F0004F0CAF9637C204D66
:1082B00003F0FF02002B96D0E72004F03DFA4FF4C4
:1082C000FA7004F067F8E72004F044FA4FF4FA700B
:1082D00004F060F86B7C013BDBB26B74E6E795F869
:1082E0004C309BBB2B6D0133022B2B6504BF01234C
:1082F00085F84C30FEF796F800280ADA236D013332
:10830000022B236503D10A4B012283F84C20022360
:1083100000E003236374637C0E2084F82F30012176
:10832000094B032202F0BCFC0023637374E700BF17
:10833000CC1D0020770100207E0100208301002059
:10834000201E00200060FF00FB1D002002B0BDE8E1
:10835000F08100BF13B5084C002100910A460B467E
:108360002046FEF7AFFE0549054A204602B0BDE8AB
:1083700010400BF0AFBA00BF5C1E0020FD5100089A
:108380000C100020704708B5012005F093F9FEE7B6
:1083900008B5032005F08EF9FEE708B5042005F0C6
:1083A00089F9FEE708B5052005F084F9FEE7704776
:1083B0007047704708B504F047FFBDE80840FDF777
:1083C00005BC000008B5024B0BB1AFF3008008BD3F
:1083D0000000000008B5024B0BB1FFF713FB08BD0E
:1083E000057A000808B5024B0BB1FEF7FDFD08BD8C
:1083F000E96F000808B5024B0BB1FEF7F6FD08BDAA
:10840000EB6F000808B5024B0BB1FEF781FF08BD0A
:108410001173000808B5012005F0F4FB38B1012004
:1084200005F0FEFB024B13B10020FEF70BFE08BD6A
:108430004570000808B5022005F0E4FB38B10220C1
:1084400005F0EEFB024B13B10120FEF7FBFD08BD6A
:108450004570000808B5042005F0D4FB78B104206D
:1084600005F0DEFB0020064B0146188004F01AFAE6
:10847000BDE8084003481021012205F0E8BF08BD0F
:10848000281F0020002C014008B5082005F0BAFB89
:1084900038B1082005F0C4FB024B13B10320FEF7EE
:1084A000D1FD08BD4570000808B5102005F0AAFBF5
:1084B00038B1102005F0B4FB024B13B10420FEF7D5
:1084C000C1FD08BD4570000808B5202005F09AFBE5
:1084D00038B1202005F0A4FB0E4B13B10520FEF7A8
:1084E000B1FD402005F08EFB38B1402005F098FB2F
:1084F000084B13B10620FEF7A5FD802005F082FB96
:1085000038B1802005F08CFB024B13B10720FEF739
:1085100099FD08BD4570000808B54FF4005005F0FE
:1085200071FB40B14FF4005005F07AFB174B13B1CB
:108530000D20FEF787FD4FF4804005F063FB40B14E
:108540004FF4804005F06CFB104B13B10E20FEF78A
:1085500079FD4FF4004005F055FB40B14FF4004069
:1085600005F05EFB094B13B10F20FEF76BFD4FF4D6
:10857000006005F047FB38B14FF4006005F050FB98
:10858000BDE8084003F090BE08BD00BF457000087C
:1085900008B50F48102105F093FFC0B10C48102119
:1085A00005F099FF002004F041FA28B9094B1A8818
:1085B0000A3292B21A8008BD05481021002205F047
:1085C00046FFBDE808400020012104F06BB908BD5A
:1085D000002C0140281F002008B5012005F068FD8F
:1085E00050B1012005F074FD044B0BB1FFF700F909
:1085F000BDE8084005F046BD08BD00BFF1770008A2
:1086000008B5022005F054FDB0B10C4B00224FF428
:1086100000301A7005F004FB012005F061FC10B178
:10862000012005F067FC05F02DFD022005F050FD4E
:10863000BDE8084005F026BD08BD00BF191E00209A
:1086400003F0C4BD00F064B838B514490B78012BB1
:1086500023D1134A13680BB90B7038BD114C402B52
:10866000206881B205D94030403B2060136040252E
:1086700004E09DB203442360002313600A482A46A5
:108680000844C02106F05CFC0120294606F060FD8C
:10869000BDE83840012006F0C5BC38BDF80F002009
:1086A00000100020FC0F0020F80E002008B5094B38
:1086B00001221A70084B002203201A8006F076FD72
:1086C000064B024618804FF488710548BDE8084003
:1086D00006F04EBCAC0E0020B00E0020AE0E002006
:1086E000B20E0020084B1B68052B0BD1074B1A68F4
:1086F000052A02F1010101D01960704700221A60B9
:10870000FDF79ABB704700BF541F0020681E002071
:1087100070B52B4D2B4C2B682B4E9BB2238022889F
:1087200033881340990508D54FF6FF532B60A37883
:108730000133DBB2A370FFF7D5FF228833881340E3
:108740001A0401D506F046FB2288338813405B05E6
:1087500005D54FF6FF332B601C4B5B68984722888A
:1087600033881A40900444BF4DF6FF722A60228875
:108770001340D90405D54EF6FF732B60002004F09A
:1087800057FF2288338813401A050BD5104B1B78EE
:1087900013B104F02DFF02E0022004F049FF4FF274
:1087A000FF732B60228833881340DB0507D54FF613
:1087B000FF632B600720BDE8704004F039BF70BD37
:1087C000445C00406C1E002040290020E80100208D
:1087D000E8020020034B9B7A13B1034B05221A6079
:1087E000704700BF1C290020541F0020014B0422A9
:1087F0001A607047541F0020034B1A78202A04BFC8
:1088000000221A70704700BF701E002070470000E1
:10881000212810B508D1114B1B681B7803F07F038A
:10882000212B10D0022010BD2028FBD10B4B0C4A6D
:108830001B681B78107003F07F03212B094B18BFB6
:1088400000230BB9EEE7084B044A002412682046C7
:10885000936154829847204610BD00BF3C290020F8
:10886000701E0020B9880008A1880008074B1B680B
:108870001B7803F07F03212B06D100F0DF000228D4
:108880000CBF002002207047022070473C290020C6
:1088900021B9022834BF002002207047022070470F
:1088A00020B9034B08221B681A82704701487047A1
:1088B0003C290020E001002020B9034B08221B685E
:1088C0001A827047014870473C290020E0010020CF
:1088D00010B5FDF7FDFA054B00241B689C7204F0EF
:1088E0006FFE06F079FC024B1C6010BD3C29002095
:1088F000541F0020334B344A1B68D27910B5002432
:108900005A729C72DC72204606F044FB20464FF4FB
:10891000007106F047FB2046102106F051FB20466F
:10892000402106F0E9FB8021204606F0D5FB2046D9
:1089300006F09EFB254B204693F8341006F016FCFB
:10894000204606F082FB0120214606F02BFB012089
:10895000C02106F0C1FB0120202106F031FB0120DF
:10896000214606F046FB02204FF4C06106F01AFBD8
:1089700002204FF4807106F0AFFB0220214606F082
:1089800038FB0220202106F01BFB0320214606F0C5
:1089900009FB03204FF4887106F0AEFB0320402151
:1089A00006F0E4FB03204FF4405106F022FB0320C5
:1089B000214606F005FB204606F0A0F9044B0122F3
:1089C0001A6010BD3C2900202D520108E001002052
:1089D000541F0020014905F08DBF00BF1802002080
:1089E000014905F087BF00BF20020020054B1B682E
:1089F000DB78042B04D8044901EBC30105F07ABFEE
:108A0000002070473C2900202802002038B5044689
:108A10000D46FFF797F8204625614FF41651FFF7F2
:108A20009BF8204638BD70B506460D460024284602
:108A30000BF0A2FF844208D2295D3046FFF77CF894
:108A4000012003F0A7FC0134F1E770BD2DE9F041EE
:108A500004460E46904600252046FFF769F8002898
:108A6000FADD2046FFF762F84545C1B206D1002382
:108A7000337020461249FFF7D6FF15E00D29F6D0D6
:108A80000A29F4D0082901D07F2904D1002DE3D090
:108A9000771E013D02E0771C317001352046EDB2B2
:108AA000FFF74AF83E46D7E72046FFF741F800288F
:108AB00003DD2046FFF73AF8F6E7BDE8F08100BF96
:108AC000FA7E0108F0B585B00446FFF731F80028BA
:108AD00040F39B802046FFF729F8C0B2772867D182
:108AE00004F1140600212122304604F135050BF073
:108AF000B9FB4122002128460BF0B4FB04F17607B4
:108B0000002384F87630204641497B70FFF78BFFC5
:108B1000204631462022FFF799FF20463D49FFF7C6
:108B200082FF012220463946FFF790FF94F8763005
:108B3000A3F13002032AF0D8312B0BD1204636495D
:108B4000FFF771FF20463549FFF76DFF2046344996
:108B5000FFF769FF94F87620B2F1300708D020467D
:108B60003049FFF760FF204629464022FFF76EFF9D
:108B700020462D49FFF757FF23693A4630462946DC
:108B8000984720462949FFF74EFF20462849FFF71E
:108B90004AFF20462749FFF746FF20462649FFF7B0
:108BA00042FF20462549FFF73EFF2046244927E0A3
:108BB00069282AD1234B01AD93E8070085E8070017
:108BC00020462149FFF72FFF0026AF5D20463B09D5
:108BD00003F13001392988BF03F1570107F00F076E
:108BE000FEF7AAFF07F13001392988BF07F15701C5
:108BF00020460136FEF7A0FF0C2EE6D11349204691
:108C000005B0BDE8F040FFF70EBF05B0F0BD00BFF6
:108C10004E7D0108557D0108827D0108B87D01085F
:108C2000E37D0108297E0108347E0108777E010872
:108C3000977E0108CA7E0108FD7E01083C7F01087D
:108C40006D7F0108E8F7FF1F2D7D0108FA7E0108FE
:108C500013B5084C002100910A460B462046FEF74A
:108C600031FA0549054A204602B0BDE810400AF035
:108C700031BE00BF741E0020FD5100080C10002002
:108C80002DE9F34781460C460026484601F030F8AE
:108C900000287FD000238DF804308DF805308DF842
:108CA0000630484601F013F8032596FBF5F303EB75
:108CB0004303F31A02AA134403F8040C484601368E
:108CC00001F016F828B196FBF5F505EB4505AE4227
:108CD000E7D1032396FBF3F303EB4303F31A012BD2
:108CE0009DF804709DF805802C4D11D13B0103F0D7
:108CF0003003BF0843EA1818E95D2046FEF74FFA33
:108D000015F808102046FEF74AFA20463D211BE0E0
:108D1000022B9DF806A01CD14FEA880303F03C0308
:108D200043EA9A1ABB083F0107F03007E95C204686
:108D300047EA1818FEF733FA15F808102046FEF730
:108D40002EFA15F80A102046FEF729FA20463D2192
:108D50001DE0BB083F0107F0300747EA18174FEA4C
:108D60008808E95C204608F03C08FEF718FA48EA53
:108D70009A18E95D2046FEF712FA0AF03F0A15F844
:108D800008102046FEF70BFA15F80A102046FEF7E9
:108D900006FA7AE702B0BDE8F08700BF8252010808
:108DA00003464138C0B2192814D9A3F16102192A27
:108DB00001D8473B04E0A3F13002092A02D804336A
:108DC000D8B270472B2B04D02F2B14BFFF203F208D
:108DD00070473E20704700002DE9F34106460D46DE
:108DE0000024335D9BB31B4B1868019004F003070C
:108DF0000134331913F8010CFFF7D2FF02AB1F4403
:108E0000335D07F8040C0BB1A307EFD19DF8058083
:108E10009DF80410C8F3011343EA81012846C9B242
:108E200000F046FF9DF806702846C7F3830343EA27
:108E30000811C9B200F03CFF9DF80730284603F046
:108E40003F0343EA8711C9B200F032FFC9E702B01D
:108E5000BDE8F081C252010813B5084C0021009111
:108E60000A460B462046FEF72DF90549054A2046DD
:108E700002B0BDE810400AF02DBD00BF7C1E0020EE
:108E8000FD5100080C1000202DE9F04305684C5DF1
:108E9000002C00F0F8802C2C00F0F18011D80D2C63
:108EA00000F0ED8004D8093C012C00F2BB80E6E024
:108EB000202C00F0E480222C40F0B4806F1C07606E
:108EC00072E05D2C36D005D83A2C00F0D8805B2CAF
:108ED00008D0A7E07B2C05D07D2C40F0A3804FF07C
:108EE000010C29E046689E4280F0E080771C4FEA42
:108EF0000618476002EB080C4FF0FF37CCF80870FB
:108F0000CCF804700027CCF80C708768B7F1FF3FED
:108F100006D002EB0719D9F80C700137C9F80C70AC
:108F20007B2C14BF0224012402F80840CCF8045022
:108F30008660A4E04FF0020C4468013C02EB04168A
:108F40000436002C15DB3768A6F1040801370DD074
:108F50007768B7F1FF3F09D116F8046C664540F019
:108F6000A78001358760C8F8085005E0013C103E35
:108F7000E7E7661C00F09C8002EB04150835002C26
:108F80007DDB55F8046C013604D02E68013601D122
:108F9000846074E0013C103DF1E7222C09D05C2C88
:108FA00019D004680134046006688C5D002CF4D18B
:108FB0002AE044689C424AD2651C45602501541948
:108FC0004FF0000CC4F80CC04FF0030C02F805C0C1
:108FD0006760A6604BE0013606608C5D662CE0D0D1
:108FE00008D82F2CDDD001D8222C07E05C2CD8D05B
:108FF000622C03E0722CD4D002D86E2CD1D005E0C4
:10900000743C012CCDD901E0056053E005604FE0D0
:10901000202C19D00FD8092C09D2203C5E2CF5D871
:109020000136066006688C5D002CF1D10CE00A2C3C
:109030000AD90D2C07E03A2C06D001D82C2C02E0DE
:109040005D2C01D07D2CE8D144689C4201D30560A1
:109050002CE0671C47602701D4194FF0000CC4F8BE
:109060000CC002F807C0A660013E65600660846817
:10907000651C04D002EB0414E5680135E560046862
:109080000134046002E741684B1E02EB0112002B21
:109090000ADB52F80C1C013103D052F8081C0131D4
:1090A00008D0013B103AF2E7002004E0FF2002E084
:1090B000FE2000E0FD2040B2BDE8F0830023036005
:1090C00043604FF0FF33836070470000F8B5114CE8
:1090D0000546114920461746104EFEF75CF820461B
:1090E0000021FEF75CF828690021FEF758F83146A8
:1090F0002046FEF750F831462869FEF74CF8204626
:10910000FF21FEF767F82869FF21FEF748F8384687
:10911000F8BD00BFB01D0020837F01088E7F0108CD
:1091200008B5024800F0E4FD08BD00BF841E002021
:1091300008B5054800F0DCFD18B1034800F0C7FD94
:1091400008BD4FF0FF3008BD841E002008B505485B
:1091500000F0CEFD18B1034800F0C6FD08BD4FF089
:10916000FF3008BD841E002038B590F8CF500C4663
:109170000B4865B10B49FEF70EF821460848FEF78B
:1091800029F80948214600F093FD012038BD074920
:10919000FEF701F821460248FEF71CF8284638BDC4
:1091A000B01D0020A27F0108941E0020937F0108BB
:1091B00010B50446134800F09BFD08B3124913484C
:1091C000FDF7E9FF00211148FDF7E9FF20690021C3
:1091D000FDF7E5FF0E490D48FDF7DDFF20690C495D
:1091E000FDF7D9FF21690748FFF74AFDFF2107482E
:1091F000FDF7F0FF2069FF21BDE81040FDF7CFBF6C
:1092000010BD00BF941E0020AC7F0108B01D0020DF
:109210008E7F0108002242604FF47A728260024A17
:1092200001610260704700BFD052010810B50446CA
:10923000FDF7BAFCC4F8D000206903681B699847A1
:1092400028B1206903681B699847C0B210BDFDF7BB
:10925000ABFCD4F8D03042F21072C01A9042F0D871
:10926000EAE70000F8B5064600690D4603681746B0
:109270005B6998470024C1B20A2907D100232B5506
:109280000E480134FDF790FFE0B2F8BDFF29F5D09C
:1092900071B10D290CD07A1E944202DA295501349D
:1092A00003E008460BF0A4FEC1B20448FDF777FFC7
:1092B000306903685B699847C1B2DDE7B01D0020E3
:1092C00008B5002380F8CE3080F8CF3000690368FD
:1092D000DB6A984708BD0000936D70B51546002203
:1092E000CA540C46696D064621440548FDF768FFDF
:1092F000D6F8D43013B1686D2044984770BD00BFD4
:10930000B01D002010B50C4641B10069FDF743FFC8
:1093100021460348BDE81040FDF752BF10BD00BF15
:10932000B01D002010B58EB0044601A80BF0C6FA9F
:10933000204601A9FFF7E6FF0EB010BDF8B51A4DA3
:109340001E46012380F8CF30044618492846FDF711
:1093500037FF28461649FDF71EFF164F2846002105
:10936000FDF71DFF20690021FDF719FF394628464A
:10937000FDF711FF39462069FDF70DFF31462846FC
:10938000FDF709FF31462069FDF705FF20460A4930
:10939000FFF7C8FF2846FF21FDF71CFF2069FF21CA
:1093A000BDE8F840FDF7FBBEB01D0020B67F010808
:1093B000AC7F0108C17F0108F052010882B070B58E
:1093C0000D4604A981E80C00059C0646069B9C42BC
:1093D00009DA295D0648FDF7E2FE295D3069FDF7EF
:1093E000DEFE0134F2E7BDE8704002B0704700BF16
:1093F000B01D00202DE9F3411D4D04468846284646
:109400001C4917461C4EFDF7C6FE28460021FDF7F5
:10941000C6FE20690021FDF7C2FE31462846FDF751
:10942000BAFE3146154E2069FDF7B5FE204606F11D
:109430003B01FFF777FF07F1B80393E803008DE8DE
:109440000300B03797E80C0020464146FFF7B6FF0F
:10945000204606F16401FFF765FF2846FF21FDF76E
:10946000B9FE2069FF2102B0BDE8F041FDF797BECB
:10947000B01D0020AC7F0108C67F0108C85201085A
:10948000F8B50D4616461F460024BC4206DA61199F
:10949000325D0348FDF724FD0134F6E7F8BD00BF57
:1094A000721B0020F8B50D4616461F460024BC422C
:1094B00006DA61190348FDF7FFFC30550134F6E781
:1094C000F8BD00BF721B002010B50C4621230121FE
:1094D0002246FFF7E7FF002384F8203010BD00008C
:1094E00008B50A4621230121FFF7CAFFBDE808405D
:1094F000024800215322FDF7F3BC00BF721B00207D
:1095000010B50C46252322212246FFF7CBFF00236E
:1095100084F8243010BD000070B504468CB00E46AF
:10952000284829491546FDF736FE00212548FDF754
:1095300036FE00212069FDF732FE24492148FDF75F
:109540002AFE22492069FDF726FE20462049FFF722
:10955000E9FE05F1780393E803008DE80300703518
:1095600095E80C0020463146FFF728FF19480021F6
:10957000FDF7A2FC532817D1204602A9FFF7C0FF30
:1095800020461549FFF7CEFE204602A9FFF7BAFE96
:10959000204602A9FFF798FF20461049FFF7C2FEB8
:1095A000204602A9FFF7AEFE20460D49FFF7BAFE9E
:1095B000FF210448FDF70EFE2069FF21FDF7EFFDB6
:1095C0000CB070BDB01D0020AC7F0108C67F010843
:1095D00003530108721B0020315301083D53010859
:1095E0002C53010808B50A4625232221FFF748FF1E
:1095F000BDE80840024800215322FDF771BC00BFBE
:10960000721B0020F0B505468BB00E463648374930
:109610001446FDF7D5FD01232846694685F8CE306E
:10962000FFF76EFFD4F8D400D4F8D87069463F1A1B
:109630003A4630440BF0D0F920B968460BF09CF95B
:10964000B84219D02A492848FDF7BAFDD4F8D430D9
:10965000D4F8D820F118D21A68460BF017FA254929
:109660002148FDF798FD69461F48FDF7A9FD2846EA
:109670006946FFF7B7FF03E01B481F49FDF7A0FD50
:1096800028466946FFF720FFD4F8F400D4F8F870B4
:1096900069463F1A3A4630440BF09EF920B96846B5
:1096A0000BF06AF9B84219D014490F48FDF788FD4C
:1096B000D4F8F430D4F8F820F118D21A68460BF038
:1096C000E5F90C490848FDF766FD69460648FDF7CF
:1096D00077FD28466946FFF703FF03E00248084983
:1096E000FDF76EFD0BB0F0BDB01D0020CB7F010873
:1096F000DA7F0108E77F0108ED7F01080780010894
:10970000158001082DE9F041C4B00D46064601A8B8
:109710009046FFF7D3FC01A8294604AA1023FFF7BF
:10972000B3FB044648B138493848FDF734FD2146BB
:109730000A223648FDF794FD62E00D990E9C6F18E1
:10974000641A3846324922460BF046F958B9082CBB
:1097500009D12F492D48FDF733FD3046294604AA8B
:10976000FFF7DAFE4CE038462A4922460BF034F97E
:1097700058B9052C09D127492448FDF721FD304669
:10978000294604AAFFF73EFF3AE03846224922461E
:109790000BF022F958B9082C09D11F491B48FDF7D5
:1097A0000FFD3046294604AAFFF724FE28E038467C
:1097B0001A4922460BF010F960B90A2C0AD1174950
:1097C0001248FDF7FDFC3046294604AA4346FFF740
:1097D000B5FD15E03846124922460BF0FDF858B9A0
:1097E000072C09D10E490948FDF7EAFC3046294605
:1097F00004AAFFF771FD03E004480A49FDF7CBFC1A
:1098000044B0BDE8F08100BF30800108B01D0020E9
:109810003F800108488001084E800108B67F01089A
:10982000578001085F8001082DE9F34190F8CE30A0
:109830000446012B09D1FDF7B7F9D4F8D0304EF624
:109840005F22C01A904200F2898023682046DB69BB
:109850009847206903681B699847002800F09680A4
:1098600004F11405BA2229462046FFF7FBFC2846DE
:109870003A210AF0A9FF451C06463A2128460AF07B
:10988000A3FF3A21074601300AF09EFFBF1BBE1E10
:10989000033F032F80461AD831460A223E48FDF77F
:1098A000DFFC29463C48FDF78BFC324629466846DA
:1098B0000BF0ECF802AA164400233849364806F8A3
:1098C000083CFDF768FC34486946FDF779FC267DC5
:1098D00008F10105A6F130032F48052B36D8DFE843
:1098E00003F003071C0B35132D49FDF769FC4AE013
:1098F0002C49FDF765FC49E02B49FDF761FC284642
:109900002A49FFF769FA41E02949FDF759FC204649
:1099100029466A46FFF7F6FE38E02649FDF73BFC8C
:10992000FDF742F90A220146C4F8D0001A48FDF7B3
:10993000AFFC20690021FDF732FC20691E49FDF7CC
:109940002AFC2069FF21FDF72AFC1FE01B49FDF7D7
:1099500022FC31461048FDF73DFC17E018490E483F
:10996000FDF719FCFDF720F90A2201460A48FDF728
:109970008FFC14490848FDF70EFC0748D4F8D010B6
:109980000A22FDF785FC2046FFF79AFC94F8CE00EA
:1099900002B0BDE8F08100BFB01D00206880010862
:1099A0006E8001087980010888800108841E0020EB
:1099B0008D80010895800108A4800108A880010815
:1099C000AF800108B98001082DE9F041002380F83B
:1099D000CE3080F8CF3088B004460F467F488049AB
:1099E0001546FDF7EDFB20692A46036839465B6A98
:1099F0009847054630B920690368DB6A984777487D
:109A0000784922E078497548FDF7C5FB204676493C
:109A1000FFF788FC39467148FDF7BDFB39462069E0
:109A2000FDF7B9FB71496D48FDF7B5FB20466F495D
:109A3000FFF778FC2046FFF7F9FB054640B920699F
:109A40000368DB6A984765486949FDF7B9FBC0E0E0
:109A500004F1140620463146BA22FFF703FC002821
:109A60007AD0304663490BF0C3F9002874D04FF028
:109A7000070820463146BA22FFF7F4FB054630B905
:109A800020690368DB6A984754485B49DDE7B8F111
:109A90000108EED14346E218127D0DF104083A2A7E
:109AA00003D008F803200133F5E708AA134453490B
:109AB00000224A4803F81C2CFDF76DFB474841463D
:109AC000FDF77EFB206903681B699847054620B1B6
:109AD000206903685B699847F4E749493F48FDF707
:109AE0005AFB20464649FFF71DFC41463B48FDF71F
:109AF00052FB41462069FDF74EFB42493748FDF7CE
:109B00004AFB20463F49FFF70DFC39463348FDF735
:109B100042FB39462069FDF73EFB3B492F48FDF7E4
:109B20003AFB20463849FFF7FDFB2046FFF77EFB56
:109B300030B920690368DB6A98472848334984E7CD
:109B400020463146BA22FFF78DFB78B130463049C6
:109B50000BF04EF998B909E0206900250368DB6A2B
:109B600098471E482B49FDF72BFB32E02A491B483A
:109B7000FDF726FB20690368DB6A984729E0174850
:109B80002649FDF71DFB052520463146BA22FFF781
:109B900069FB013DF8D1FDF707F8C4F8D000204675
:109BA000FFF742FE40B9FCF7FFFFD4F8D03042F295
:109BB0001072C01A9042F2D994F8CE303BB90748DF
:109BC0001749FDF7FDFA20690368DB6A984794F8A6
:109BD000CE50284608B0BDE8F08100BFB01D00207F
:109BE000C4800108D38001084A5301086E5301085C
:109BF000DE800108EA800108EE8001084F7D01083F
:109C0000735301088F530108A1530108068101080D
:109C1000118101082E810108458101085A8101083E
:109C200015810108F7B5144C002104F12006134DED
:109C30000B4600910A463046FDF744FA04F110073E
:109C40002A4630460E490F4E09F044FE384696210A
:109C500000F01AF82A463146384609F03BFE204605
:109C6000402100F011F8204631462A4603B0BDE8F5
:109C7000F04009F02FBE00BF841E00200C10002011
:109C8000FD510008A19C0008002310B50446416066
:109C90008360C3600846FCF773F92060204610BD5E
:109CA00010B50446006808B1FCF76EF9204610BDF7
:109CB000826830B54468531CB3FBF4F504FB1533DC
:109CC000C468A34202D00468A154836030BD10B5BB
:109CD000C16802680346505C5A680131B1FBF2F476
:109CE00002FB1412DA6010BD0268C368D05C7047D2
:109CF0008268C068101A18BF0120704738B5054641
:109D000000680C46036801F07F019B68984728684B
:109D1000C4F3C61103689B68984738BD08B500684E
:109D2000F02103689B68984708BD08B50068F721D3
:109D300003689B68984708BD10B504460068F92180
:109D400003689B6898472068022103689B689847CE
:109D50002068032103689B68984710BD38B50379D4
:109D600004461BB3FFF7DAFF206879210368022558
:109D70009B6898472068A3680268197892689047A2
:109D80002068A36802685978926890472379AB42AB
:109D900007D9A3682046595D0135FFF7AFFFEDB243
:109DA000F4E72046BDE83840FFF7BFBF38BD10B527
:109DB00004460160FFF7C0FF2046BDE81040FFF7F2
:109DC000CDBF00002DE9F8430D460446084616496C
:109DD000914698460BF00CF82F21074628460AF0CA
:109DE0009FFE461C27B11EB1BF1B0237277105E03D
:109DF00028460AF0C1FD023020712E46A06809F005
:109E0000A9FE2579284609F09DFE0023A060435550
:109E100080F8009080F80180227931460230023AC1
:109E2000BDE8F8430AF032BE077D010808B50068B6
:109E300003681B69984708BD70B5C37B0446712B46
:109E400005D0792B25D1BDE87040FFF787BFC36CE3
:109E500043B3056B0223013D95FBF3F5EDB22846B4
:109E600009F070FE01220346191AC9B2A9420DD2A7
:109E7000A118C97B561CF6B219702644F67B023233
:109E800001EBC61103F8011BD2B2EDE7E36C984772
:109E900070BD056D35B1016B04F110020139184632
:109EA000C9B2A84770BD38B50446006801F00F017B
:109EB000036815469B6841F0E00198472046294613
:109EC000BDE83840FFF71ABF38B50446006801F016
:109ED0000F01036841F090019B6815469847206880
:109EE00005F07F0103689B6898472068C5F3C71198
:109EF00003689B68984738BDF8B505460C4616467A
:109F00001F46FFF70BFF28682146036800249B6863
:109F10009847E3B2B342284604D2395DFFF7EEFE1C
:109F20000134F6E7BDE8F840FFF7FFBE70B505461F
:109F3000104614460E460AF01FFD3146C2B22346B3
:109F40002846BDE87040FFF7D7BF0A467121FFF7EA
:109F5000EDBF08B5006803689B68984708BDD02925
:109F600010D004D8902909D0C02909D07047E02921
:109F700002D0F42908D0704742637047826370476B
:109F8000C26370470264704742647047FF2908BF8C
:109F9000826470470265704708B5002303734373FA
:109FA0008373C11801330022202BCA73F9D1836C4B
:109FB00080F82F20026303B1984708BD10B5002335
:109FC000044603718360FFF7E7FF204610BD0000E1
:109FD00010B50446006803685B69984794F82F3011
:109FE00073B1F72807D1002384F82F302046BDE84D
:109FF0001040FFF721BF236BE218D073013358E004
:10A00000237B002B2FD07F282DDC013BDBB2E21815
:10A010002373D073002B58D1637B002B55D0D02BEA
:10A0200019D005D8902B0AD0C02B19D1E36B13E0BF
:10A03000E02B02D0F42B0AD012E0636B00E0A36B9C
:10A0400073B1E17B227CA07B02EBC11107E0636C62
:10A0500033B1207C02E0236C13B1A07BE17B9847F5
:10A060000023637310BDEF2804DC00F00F03A3731B
:10A0700000F0F000E02812D006DCC02811D0D02873
:10A080000FD0902821D10AE0F42808D002DCF02873
:10A090000BD010BDF92813D0FF280CD010BD02231F
:10A0A00000E001232373607310BD012384F82F3077
:10A0B0000023236310BD2046BDE81040FFF76CBFAE
:10A0C0000248BDE81040FFF737BE10BDAC1E0020AF
:10A0D00037B50A4C002104F154050B4600910A469D
:10A0E0002846FCF7EFFF28460549064A09F0F2FB2F
:10A0F000204603B0BDE83040FFF760BFAC1E002033
:10A10000FD5100080C100020002100F004B80E4B97
:10A110005B58435004310D480D4B42189A42FFF4EE
:10A12000F6AF0C4A00F003B8002342F8043B0A4B98
:10A130009A42FFF4F9AF03F0C9F9FBF783FCFBF790
:10A1400003FFFBF7CDFC70470C83010800000020E3
:10A15000300B0020300B00204C290020FFF7FEBF01
:10A160000B0A017043700B0C090E8370C170043030
:10A1700070470170090A41700230704743185A78DD
:10A18000435C03EB022080B2704710B543189A7805
:10A19000DC78415C120402EB046258780A4402EB5A
:10A1A000002010BD73B544790023022C01930FD019
:10A1B000032C19D0012C2BD1164D2B692E4623B11F
:10A1C0002B6901A898470246B8B9B16801201BE085
:10A1D000104DEB682E4623B1EB6801A89847024664
:10A1E00058B9B16802200FE00A4D6B692E464BB199
:10A1F0006B6901A89847024620B1A9682046BDF8BE
:10A20000043003E0B16803200022134600F024FC70
:10A2100002B070BD84200020072830B512D8012973
:10A2200010D8EFF3108472B60125854001FA00F0D2
:10A23000054B1A6822EA050202431A602346DB072F
:10A2400000D462B630BD00BF7002002070B501219D
:10A2500086B00546FFF792FF4304044629D5B0F5C2
:10A26000824F26D128460521FFF788FF05EB8000A5
:10A27000EE1D0024C51DAE4206D030460221FFF778
:10A280007DFF04360444F6E7724B1A8E224492B2E4
:10A290001A86DA6B1444DC63D96B9A6B914240F0F6
:10A2A000CA8093F84020002A00F0C5809B6999205D
:10A2B00031E024F4FF4020F07F0080B2002800F05D
:10A2C000978048F210039C4228D00CD8B4F5004F78
:10A2D00040F2BC8048F202039C4215D948F20403C4
:10A2E0009C4211D0B2E048F280039C420CD004D8CA
:10A2F00048F240039C424FD0A8E0B4F5024F03D08F
:10A30000B4F5084F6BD0A1E0524B9A69002A00F0D7
:10A3100092809B69204600210A4667E00023EA18E4
:10A3200052790DF803200133042BF8D16B7A05F133
:10A330000D008DF80430AB7A8DF80530EB7A8DF88E
:10A3400006302B7B8DF80730002300AA1A44C15C2D
:10A350000133042B1172F8D105F11100002300AA7A
:10A360001A44C15C0133042B1173F8D105F11500B7
:10A37000002300AA1A44C15C0133042B1174F8D1E4
:10A380002B798DF81430334B9A69002A53D09B698E
:10A3900020466946152229E0053500212846FFF7A9
:10A3A000F4FE042100902846FFF7EFFE08210190FB
:10A3B0002846FFF7EAFE0C2102902846FFF7E5FE4B
:10A3C000102103902846FFF7E0FE224B04909A6983
:10A3D000002A30D09B6920466946142206E01D4BB6
:10A3E0009A6942B39B692046691D0122984722E081
:10A3F00041F203039C4205D0A4F580530E3B9BB26F
:10A40000012B1AD86C1D20460421FFF7BEFE3930FF
:10A410001CD12A790F4B00212046DA62FFF7B5FEE6
:10A42000042105462046FFF7B0FE393003D1284607
:10A430000121FFF7F1FE012009E0064B1B889BB2CA
:10A440009C4204D0B4F5805FF5D100E0002006B056
:10A4500070BD00BF8420002070B50E4C6688B6B277
:10A46000B6B1606805782B1F5D425D412DB1FFF7E5
:10A47000EDFE003018BF012000E02846064618B95E
:10A4800035B194F841301BB90023638001F0B4FD6D
:10A49000304670BD842000202DE9F04F85B0044681
:10A4A0008A46914602F0D8FE00250190DFF83083FD
:10A4B000B8F8023046469BB2002B40F0938003F080
:10A4C000E5FC02F0C9FE0290029A019BD31A0393A5
:10A4D000039B002B03DA019B029A13440393BF4BA7
:10A4E0001B68002BE2D0039A9A42DFD3338841F2F3
:10A4F00007029BB2934227D841F20602934261D2EF
:10A5000040F2022293425DD00FD80C2B08D8082BC2
:10A5100058D2002B4FD0062B88BF00235AD851E0C9
:10A520000D2B4CD040F201220BE041F2020293428B
:10A530004BD8B3F5805F45D8B3F5017F3FD940F2E2
:10A540000722934237D13AE041F21102934236D0CA
:10A5500014D841F20B02934234D005D841F20902DB
:10A5600093422FD031D82AE041F20F0293422CD0EF
:10A5700028D841F20D02934227D01CE042F2060295
:10A5800093421CD007D8B3F5005F14D942F20402FD
:10A59000934221D813E0B3F5804F00F0EE8105D847
:10A5A000A3F50053083B012B09D904E044F20B0248
:10A5B000934200F0E2810B2003F07CF8DDE1FF2301
:10A5C0002370DAE14FF0FF3304E04FF0FF332360F4
:10A5D0006360D2E12360D0E1204600213A2209F0F5
:10A5E00041FECAE1D8F804603378042B40F0798149
:10A5F00030460121FFF7C2FD05463046FFF726FE33
:10A60000002840F0638141F207039D4206F10507EF
:10A6100055D841F206039D4280F0AE8040F20223FD
:10A620009D4200F0A98014D80C2D09D8082D80F087
:10A63000A380002D00F04A81062D00F2E5809BE00A
:10A640000D2D00F0968040F201239D4200F0918094
:10A650003CE141F202039D4218D8B5F5805F00F25B
:10A660008B80B5F5017F40F2848040F207239D4244
:10A6700040F02C813379384604F8013B0021FFF784
:10A6800084FD01462046FFF76BFD1FE141F2040304
:10A690009D4200F08B8040F2A58000213846FFF7F4
:10A6A00074FD042120603846FFF76FFD083444F83C
:10A6B000040C06F10D03224606F11D016FE041F284
:10A6C00011039D4255D02BD841F20B039D4253D02C
:10A6D0001CD841F209039D424ED000F29080002127
:10A6E0003846FFF752FD042120603846FFF74DFD44
:10A6F000082160603846FFF748FD0C21A06038460D
:10A70000FFF743FD04F10C0BE060DEE041F20F03C4
:10A710009D4267D036D841F20D039D4246D0D5E028
:10A7200042F206039D4224D00BD8B5F5005F40F2FB
:10A73000CD8042F204039D4288BF002300F288804E
:10A7400017E042F208039D42C0F0C08042F20903C4
:10A750009D420ED944F20B039D4240F0B7807379BD
:10A7600038460121A8F83030FFF708FDA8F832007C
:10A77000ACE033792370A9E038460021FFF705FDEE
:10A780002060A3E000213846FFF7FFFCA3464BF80A
:10A79000040B04213846FFF7F8FC606095E053F89D
:10A7A000040B8B4242F8040BF9D18FE000213846AC
:10A7B000FFF7EBFC042120603846FFF7E6FC082198
:10A7C00060603846FFF7E1FCE36804F1080B3933B9
:10A7D000A0607AD10121FFF71FFD76E0081F00205D
:10A7E0008420002000213846FFF7CFFC04212060A0
:10A7F0003846FFF7CAFC083444F8040C66E03379A5
:10A8000023713B68236061E000213846FFF7BDFCFF
:10A81000042120603846FFF7B8FC08216060384604
:10A82000FFF7ACFC0A21A0603846FFF7A7FC0C3408
:10A8300044F8020C06F11103224606F1350153F8E3
:10A84000040B8B4242F8040BF9D11B8813803DE0C6
:10A85000F2185279E2540133042BF9D106F10900C0
:10A860000023C15CE2180133042B1171F9D106F108
:10A870000D000023C15CE2180133042B1172F9D1E1
:10A8800006F111000023C15CE2180133042B11739F
:10A89000F9D106F115000023C15CE2180133042B45
:10A8A0001174F9D106F119000023C15CE2180133DB
:10A8B000062B1175F9D106F11F000023C15CE218C7
:10A8C0000133202B9176F9D100E05C46B8F80020E6
:10A8D0002C4B92B2954236D100221A8083F8412047
:10A8E00031E0B8F836309BB26BB33046032196F8AE
:10A8F00002B0FFF743FC0746BAF1000F0BD004216A
:10A90000701DFFF742FC06F115010246C9F8000070
:10A910005046FAF7FDFBCBEB07077B1EB3F5806FC4
:10A9200007D20BF10501204631443A46FAF7F0FB15
:10A9300001E04FF0FF37B9F1000F01D0C9F8007006
:10A940000023A8F836300023A8F8023001F054FBA9
:10A950003378042B05D1B5F5805F02D13046FFF77F
:10A9600021FCB8F800309BB2002B7FF49FAD054B63
:10A97000DB8E9BB2002B7FF499AD002005B0BDE8C3
:10A98000F08F00BF8420002007284FF001030FD86C
:10A99000EFF3108272B603FA00F0064B1968134603
:10A9A00008420CBF00200120DB0702D462B67047CA
:10A9B0001846704770020020034B1880084600219B
:10A9C0000A46FFF769BD00BF8420002010B5034B85
:10A9D0000124DC86BDE81040FFF75EBD8420002026
:10A9E00038B50346154601224A710C46881D1946A2
:10A9F000FFF7BFFB291D0570204601F06DFB00200D
:10AA000038BD38B5BDF814500C462B44D518ADB23E
:10AA100002216171A071E271294604F10800FFF77B
:10AA2000A8FB691D204689B201F056FB002038BD05
:10AA300038B513440C469DB202216171A0712946BC
:10AA4000E27104F10800FFF794FB691D204689B20A
:10AA5000BDE8384001F040BB2DE9F84F1C4604F139
:10AA6000020B032301F107091FFA8BFB88710D46C6
:10AA70004B71484659461646FFF77BFBB4F57A7F83
:10AA8000824605F10B0812D82146FFF772FB2146DA
:10AA90005046FFF76EFB314640462246FAF738FB38
:10AAA000A11D284689B2BDE8F84F01F015BB4FF44F
:10AAB0007A77B4FBF7F30BEB430189B2FFF759FB4D
:10AAC00039465046FFF755FB314640463A46FAF7BD
:10AAD0001FFBA4F57A74284640F2EE31A4B23E443E
